:020000040800F2
:1000000000000120D1480008B9060008BB0600081E
:10001000BD060008BF060008C10600080000000079
:10002000000000000000000000000000C3060008FF
:10003000C506000800000000C7060008C906000841
:100040001949000819490008194900081949000808
:1000500019490008194900081949000819490008F8
:1000600019490008194900081949000819490008E8
:1000700019490008194900081949000819490008D8
:1000800019490008194900081949000819490008C8
:1000900019490008194900081949000819490008B8
:1000A00019490008194900081949000819490008A8
:1000B0001949000819490008194900081949000898
:1000C0001949000819490008194900081949000888
:1000D00019490008D1060008194900081949000803
:1000E0001949000819490008194900081949000868
:1000F0001949000819490008194900081949000858
:1001000019490008E10600081949000819490008C2
:100110001949000819490008194900081949000837
:100120001949000819490008194900081949000827
:1001300000000000000000000000000000000000BF
:1001400000000000000000000000000000000000AF
:10015000000000000000000000000000000000009F
:10016000000000000000000000000000000000008F
:10017000000000000000000000000000000000007F
:10018000000000000000000000000000000000006F
:10019000000000000000000000000000000000005F
:1001A000000000000000000000000000000000004F
:1001B000000000000000000000000000000000003F
:1001C000000000000000000000000000000000002F
:1001D000000000000000000000000000000000001F
:0401E0005FF8E0F1F3
:1001E40010B5054C237833B9044B13B10448AFF36D
:1001F40000800123237010BD6C0800200000000063
:10020400A465000808B5034B1BB103490348AFF3C9
:10021400008008BD0000000070080020A4650008EC
:10022400844641EA000313F0030349D1403A23D33F
:100234000B6803604B6843608B688360CB68C36062
:100244000B6903614B6943618B698361CB69C3614A
:100254000B6A03624B6A43628B6A8362CB6AC36232
:100264000B6B03634B6B43638B6B8363CB6BC3631A
:1002740040304031403ADBD230320BD30B6803605C
:100284004B6843608B688360CB68C3601030103167
:10029400103AF3D20C3205D351F8043B40F8043B36
:1002A400043AF9D2043208D0D2071CBF11F8013B3A
:1002B40000F8013B01D30B8803806046704700BF00
:1002C400082A13D38B07B1D010F00303AED0C3F1C7
:1002D4000403D21ADB071CBF11F8013B00F8013BF1
:1002E400A4D331F8023B20F8023B9FE7043AD9D368
:1002F400013A11F8013B00F8013BF9D20B78037085
:100304004B7843708B7883706046704708B5054B13
:100314001860054B1868002302221946806804F00F
:10032400CDFB08BD8808002028000020022801D841
:100334000120704708B504F0EFFA09230360002098
:1003440008BD000010B5013801280AD814464FF042
:10035400FF3392B20748006802F063F840B92046C0
:1003640010BD04F0D9FA092303604FF0FF30F7E71A
:100374000520F5E788080020022801D800207047EE
:1003840008B504F0C9FA092303604FF0FF3008BD33
:1003940008B504F0C1FA092303604FF0FF3008BD2B
:1003A40008B548B94FF0FF3301220848006802F04D
:1003B400A4F840B9012008BD04F0AEFA0923036093
:1003C4004FF0FF30F7E70520F5E700BF880800206D
:1003D40008B5022804D84FF400534B60002008BD30
:1003E40004F09AFA09230360F8E7000030B589B0F5
:1003F400002404940594069407941C4B9A6942F0D3
:1004040010029A619A6902F010020092009A9A69A5
:1004140042F004029A619A6902F004020192019A7C
:100424009A6942F020029A619A6902F020020292CB
:10043400029A9A6942F008029A619B6903F00803E0
:100444000393039B0A4D22462021284600F08CFC8E
:10045400202304930123059306940223079304A9FC
:10046400284600F061FB09B030BD00BF0010024017
:10047400000C014010B58AB0EC46114C0FCCACE82E
:100484000F000FCCACE80F0023688CF800300A2270
:100494000C490D4803F064FF70B10C4804F006FBEE
:1004A400094C09AB21226946204604F04EF8204647
:1004B40004F0C7F90AB010BD054804F0F7FAEFE7F5
:1004C40014660008BC6500088C080020C865000894
:1004D400EC65000872B6FEE700B591B02822002151
:1004E40006A804F043FA00230193029303930493B0
:1004F4000593012206924FF4803307930A92022255
:100504000D920E934FF4E0130F9306A800F052FCE3
:1005140080B90F23019302210291002303934FF426
:1005240080620492059301A800F084FE20B911B002
:100534005DF804FBFFF7CEFFFFF7CCFF08B500F032
:1005440079F9FFF7C9FFFFF751FF00F0EFF800F06A
:100554002FF802F04DFD1148FFF7D8FE01222021AB
:100564000F4800F001FC4FF4FA6000F087F90D48E1
:1005740001F094FC68B90C4804F098FAFFF77AFF8C
:100584002021074800F0F6FB4FF47A7000F076F96A
:10059400F6E7064804F08AFAF0E700BF400B0020B3
:1005A400000C0140B80A0020386600084C660008B8
:1005B400054B064A1A6000225A609A60DA601A6192
:1005C4005A6106229A617047B80A002000800140EF
:1005D40030B589B00023049305930693079302680A
:1005E4001E4B9A4201D009B030BD03F510435A693D
:1005F40042F480625A615A6902F480620192019A5B
:100604009A6942F010029A619A6902F01002029209
:10061400029A9A6942F020029A619B6903F02003CE
:100624000393039B4FF4F853049302250595032485
:10063400079404A90A4800F077FA04230493059563
:10064400079404A9074800F06FFA2A46214631208E
:1006540000F03AF9312000F06FF9C4E7008001405E
:10066400001001400014014000B583B00F4B9A699B
:1006740042F001029A619A6902F001020092009A22
:10068400DA6942F08052DA61DB6903F08053019346
:10069400019B052000F006F9054A536823F0E06346
:1006A40043F00073536003B05DF804FB0010024094
:1006B40000000140FEE7FEE7FEE7FEE7FEE77047C5
:1006C4007047704708B500F0C7F808BD08B5024880
:1006D40002F008F808BD00BF400B002008B502482E
:1006E40001F0C0FC08BD00BFB80A002008B50346ED
:1006F4000B4A126842B10A4A106803446A4693429C
:1007040006D8074A136008BD054A06491160F2E796
:1007140004F002F90C2303604FF0FF30F3E700BF4D
:100724003C0B0020100C00207047000008B50A485C
:100734000A4B03604FF4E133436000238360C360DA
:1007440003610C2242618361C36101F03BFE00B985
:1007540008BDFFF7BFFEFBE7400B00200038014057
:1007640030B587B000230293039304930593026882
:100774001B4B9A4201D007B030BD03F558439A6928
:1007840042F480429A619A6902F480420092009A8B
:100794009A6942F004029A619B6903F0040301938D
:1007A400019B4FF4007302930223039303240594E3
:1007B4000C4D02A9284600F0B7F94FF48063029368
:1007C40000230393049302A9284600F0ADF92246BE
:1007D4002146252000F078F8252000F0ADF8CAE77E
:1007E400003801400008014010B504460E4B18784B
:1007F4004FF47A73B3FBF0F30C4A1068B0FBF3F0D8
:1008040000F0A8F868B90F2C01D901200AE00022F1
:1008140021464FF0FF3000F057F8054B1C600020D4
:1008240000E0012010BD00BF0400002000000020F3
:100834000800002008B5074A136843F0100313604A
:10084400032000F02FF80020FFF7CEFFFFF70CFF86
:10085400002008BD00200240034A1168034B1B78A6
:100864000B441360704700BF840B00200400002079
:10087400014B1868704700BF840B002038B504464C
:10088400FFF7F6FF0546B4F1FF3F02D0044B1B7897
:100894001C44FFF7EDFF401BA042FAD338BD00BF54
:1008A40004000020074AD36823F4E0631B041B0CF4
:1008B400000200F4E060034343F0BF6343F40033F9
:1008C400D360704700ED00E000B5194BDB68C3F35B
:1008D4000223C3F1070CBCF1040F28BF4FF0040C32
:1008E40003F1040EBEF1060F18D9033B4FF0FF3E8F
:1008F4000EFA0CFC21EA0C0199400EFA03F322EAE9
:100904000303194300280BDB0901C9B200F160405D
:1009140000F5614080F800135DF804FB0023E5E76F
:1009240000F00F000901C9B2024B1954F4E700BFEB
:1009340000ED00E014ED00E0002807DB00F01F02EA
:10094400400901239340024A42F82030704700BF17
:1009540000E100E00138B0F1807F0BD24FF0E023DA
:100964005861054AF02182F823100020986107227B
:100974001A6170470120704700ED00E090F82130C3
:10098400022B06D004238363002380F82030012047
:1009940070470268136823F00E031360026813683B
:1009A40023F001031360036CC16B012202FA03F309
:1009B4004B6080F82120002380F8203018467047CF
:1009C40008B590F82130022B03D00423836301205F
:1009D40008BD0268136823F00E03136002681368ED
:1009E40023F00103136003684B4A93424ED9783ACB
:1009F400934224D01432934230D0143293422FD0F5
:100A0400143293422FD0143293422FD01432934293
:100A14002FD0143293422FD002F5627293422ED01B
:100A2400143293422DD0143293422CD01432934278
:100A340002D04FF4803203E04FF4805200E00122F0
:100A4400364B5A60012380F82130002380F820308F
:100A5400436B002B5ED098470020B9E71022EFE7E4
:100A64004FF48072ECE74FF48052E9E74FF48032A0
:100A7400E6E74FF48012E3E74FF08072E0E70122EB
:100A8400DEE71022DCE74FF48072D9E7244A934270
:100A940024D01432934225D01432934224D01432F9
:100AA400934224D01432934224D01432934224D05B
:100AB4001432934224D002F56272934223D014324A
:100AC400934222D01432934221D01432934202D062
:100AD4004FF4803203E04FF4805200E00122114BC6
:100AE4005A60AFE71022FAE74FF48072F7E74FF449
:100AF4008052F4E74FF48032F1E74FF48012EEE7CE
:100B04004FF08072EBE70122E9E71022E7E74FF4A8
:100B14008072E4E700205BE78000024000040240AA
:100B2400080002400000024070B582B00024A446D0
:100B3400B0E0874DAA4210D007D9864DAA420CD006
:100B440005F58035AA4208D013E0A5F58015AA4220
:100B540003D005F57025AA4207D18A68002A62D01D
:100B6400012A5BD04361082403E0A5F58015AA425D
:100B7400F3D0BEF1FF0F58D80646BEF1FF0F56D88A
:100B84004FEA8C0233680F25954023EA050304FAE3
:100B940002F2134333604B6813F0805F78D06E4BDE
:100BA4009A6942F001029A619B6903F0010301937F
:100BB400019B4FEA9C02951C684B53F825600CF08E
:100BC40003039D000F23AB4026EA0306644B9842BF
:100BD40033D003F58063984200F0988003F5806376
:100BE400984200F0958003F58063984200F092806B
:100BF40003F58063984200F08F8003F58063984288
:100C040019D006231AE0CC68B3E7CC680434B0E703
:100C1400CC680834ADE7CC680C34AAE70361082437
:100C2400A7E70024A5E70424A3E7061DA5E7ACF184
:100C340008029200A6E7052300E00023AB403343FB
:100C44000232464D45F822304B6813F4803F65D09C
:100C5400444A136843EA0E0313604B6813F4003FDD
:100C640062D0404A536843EA0E0353604B6813F45E
:100C7400801F5FD03B4A936843EA0E0393604B683E
:100C840013F4001F5CD0374AD36843EA0E03D360E1
:100C94000CF1010C0A6832FA0CF357D0012303FA61
:100CA4000CF302EA030E33EA0202F1D14A68122A73
:100CB4003FF63FAF122A3FF65CAF01A555F822F08C
:100CC4005F0B00080B0C0008150C0008270C00082B
:100CD400770B0008770B0008770B0008770B0008E8
:100CE400770B0008770B0008770B0008770B0008D8
:100CF400770B0008770B0008770B0008770B0008C8
:100D0400770B00080F0C00081B0C0008012395E763
:100D1400022393E7032391E704238FE7114A13681F
:100D240023EA0E03136098E70E4A536823EA0E037E
:100D340053609BE70B4A936823EA0E0393609EE794
:100D4400084AD36823EA0E03D360A1E702B070BD5A
:100D54000000221000003110001002400000014089
:100D640000080140000401400AB101617047090410
:100D740001617047C36801EA030221EA030141EA01
:100D8400024101617047000082B0084B1B68084AA9
:100D9400A2FB03235B0A00FB03F3019300BF019B47
:100DA4005A1E0192002BF9D102B0704700000020B6
:100DB400D34D6210002800F0F18170B582B0044672
:100DC400036813F0010F2CD0994B5B6803F00C03FC
:100DD400042B1DD0964B5B6803F00C03082B12D038
:100DE4006368B3F5803F41D0002B55D103F18043B4
:100DF40003F504331A6822F480321A601A6822F464
:100E040080221A6037E08A4B5B6813F4803FE7D096
:100E1400874B1B6813F4003F03D06368002B00F07A
:100E2400BF81236813F0020F75D0814B5B6813F008
:100E34000C0F5FD07E4B5B6803F00C03082B54D07F
:100E44002369002B00F08A807A4B01221A60FFF795
:100E54000FFD0546764B1B6813F0020F75D1FFF7A3
:100E640007FD401B0228F5D903209EE1704A136850
:100E740043F480331360636843B3FFF7F9FC05461A
:100E84006B4B1B6813F4003FCBD1FFF7F1FC401B05
:100E94006428F5D9032088E1B3F5A02F09D0644B69
:100EA4001A6822F480321A601A6822F480221A60C6
:100EB400E1E703F18043A3F53C331A6842F480224E
:100EC4001A601A6842F480321A60D4E7FFF7D0FC43
:100ED4000546574B1B6813F4003FA2D0FFF7C8FC2C
:100EE400401B6428F5D903205FE1514B5B6813F480
:100EF400803FA5D14E4B1B6813F0020F03D023692A
:100F0400012B40F04F814A4A136823F0F8036169CA
:100F140043EAC1031360236813F0080F33D0A369B5
:100F2400002B5CD0434B0122C3F88024FFF7A0FCC4
:100F340005463F4B5B6A13F0020F21D1FFF798FC83
:100F4400401B0228F5D903202FE1394A136823F006
:100F5400F803616943EAC1031360DCE7354B0022FF
:100F64001A60FFF785FC0546314B1B6813F0020F2E
:100F7400D1D0FFF77DFC401B0228F5D9032014E1F2
:100F84000120FFF701FF236813F0040F00F096809F
:100F9400274BDB6913F0805F34D1254BDA6942F0CB
:100FA4008052DA61DB6903F080530193019B0125D0
:100FB400214B1B6813F4807F26D0E368012B3DD0BE
:100FC400002B53D103F1804303F504331A6A22F052
:100FD40001021A621A6A22F004021A6233E0154B03
:100FE4000022C3F88024FFF743FC0546104B5B6ADC
:100FF40013F0020FC7D0FFF73BFC401B0228F5D9C2
:101004000320D2E00025D3E70B4A136843F480732E
:101014001360FFF72DFC0646074B1B6813F4807F13
:10102400CBD1FFF725FC801B6428F5D90320BCE055
:101034000010024000004242007000405F4A136A00
:1010440043F001031362E36833B3FFF711FC064670
:101054005A4B1B6A13F0020F2FD1FFF709FC801BB8
:1010640041F288339842F3D903209EE0052B09D03E
:10107400524B1A6A22F001021A621A6A22F004021E
:101084001A62E0E74D4B1A6A42F004021A621A6AC5
:1010940042F001021A62D6E7FFF7EAFB0646474B25
:1010A4001B6A13F0020F08D0FFF7E2FB801B41F22A
:1010B40088339842F3D9032077E0E5B9E369002B3C
:1010C40072D03E4A526802F00C02082A56D0022B13
:1010D40017D03B4B00221A66FFF7CAFB0446374B76
:1010E4001B6813F0007F47D0FFF7C2FB001B0228E8
:1010F400F5D9032059E0314AD36923F08053D361F1
:10110400DCE72F4B00221A66FFF7B2FB05462B4B98
:101114001B6813F0007F06D0FFF7AAFB401B0228D0
:10112400F5D9032041E0236AB3F5803F1AD023495F
:101134004B6823F47413226A606A024313434B60BE
:101144001F4B01221A66FFF793FB04461B4B1B68D7
:1011540013F0007F0ED1FFF78BFB001B0228F5D99B
:10116400032022E0154A536823F40033A1680B439B
:101174005360DCE7002018E0002016E0012B16D0B5
:101184000E4B5B6803F48031226A914211D103F45F
:101194007013626A93420ED1002006E0012070476A
:1011A400012002E0012000E0002002B070BD012017
:1011B400FBE70120F9E70120F7E700BF0010024038
:1011C4000000424286B0174B0FCB0DF1180C0CE90E
:1011D4000F0040F20123ADF80430134B5B6803F0B9
:1011E4000C02082A02D0114806B07047C3F38342A8
:1011F40018326A4412F8100C13F4803F0DD00A4BD5
:101204005B68C3F3404318336B4413F8143C074A38
:1012140002FB00F0B0FBF3F0E6E7054B03FB00F044
:10122400E2E700BF786600080010024000127A006E
:1012340000093D00002800F0A08070B50D4604466A
:10124400524B1B6803F007038B420BD24F4A1368BF
:1012540023F007030B431360136803F007038B4267
:1012640040F08D80236813F0020F17D013F0040FA1
:1012740004D0474A536843F4E0635360236813F08F
:10128400080F04D0424A536843F460535360404A01
:10129400536823F0F003A1680B435360236813F0F1
:1012A400010F31D06368012B20D0022B25D0384A9E
:1012B400126812F0020F64D035494A6822F0030222
:1012C40013434B60FFF7D4FA0646314B5B6803F0D7
:1012D4000C036268B3EB820F16D0FFF7C9FA801BC8
:1012E40041F288339842F0D9032045E0284A126835
:1012F40012F4003FE0D101203EE0254A126812F0CA
:10130400007FD9D1012037E0204B1B6803F007038D
:10131400AB420AD91D4A136823F007032B43136019
:10132400136803F00703AB422DD1236813F0040FB5
:1013340006D0174A536823F4E063E1680B43536013
:10134400236813F0080F07D0114A536823F460533D
:10135400216943EAC1035360FFF734FF0C4B5B6818
:10136400C3F303130B4AD35CD8400B4B18600B4BED
:101374001868FFF739FA002070BD0120704701207A
:10138400FAE70120F8E70120F6E700BF0020024059
:1013940000100240606600080000002008000020E1
:1013A400014B1868704700BF0000002008B5FFF724
:1013B400F7FF044B5B68C3F30223034AD35CD840B2
:1013C40008BD00BF001002407066000808B5FFF7B2
:1013D400E7FF044B5B68C3F3C223034AD35CD840E2
:1013E40008BD00BF001002407066000870B582B0EE
:1013F400044600230193006801F014FD054610B172
:10140400284602B070BD206801F01FFD38B90123E1
:10141400A364A36C012B0BD02E46284614E00023B2
:10142400A364206801F0FEFC0028F2D00546E7E73B
:101434000021206801F020FD0028EDD04FF08055F8
:10144400DEE7019B01330193019A4FF6FE739A4242
:1014540013D896B90021206801F00EFDE0B91249B5
:10146400206801F021FD0646C0B90021206801F082
:101474001FFBC30FE5D01E46E3E7019A4FF6FE7348
:101484009A420ED810F0804302D001236364B7E778
:10149400002262641D46B3E70546B1E74FF080556C
:1014A400AEE74FF08075ABE7000010C1F8B5846A71
:1014B400C66AA6B9F8BD386801F0D1FA2070C0F345
:1014C40007236370C0F30743A370000EE070043475
:1014D400043E0135072DEED9BC62FE62EAE70746F9
:1014E4000025F7E7F0B583B0046A466ADEB903B0B5
:1014F400F0BD23780193627843EA02230193A27832
:1015040043EA02430193E27843EA02630193043419
:10151400043E01A9386801F0A5FA0135072DE8D980
:101524003C627E62E3E707460025F7E7F0B589B041
:1015340004460F46FFF79CF90646002300930193E7
:101544000821206801F0C4FB054610B1284609B003
:10155400F0BD216D0904206801F08EFC05460028C9
:10156400F4D14FF0FF330293082303933023049301
:1015740002230593002306930123079302A92068FD
:1015840001F094FB206801F0C0FC054658B1DDE78A
:1015940001F065FA4DF825000135FFF769F9831B61
:1015A400B3F1FF3F3FD02068436B13F02A0F07D1FC
:1015B400436B13F4001FEBD1436B13F4005FECD1C6
:1015C400436B13F0080F25D1436B13F0020F24D1A2
:1015D400456B15F0200523D140F23A538363019AF9
:1015E400130203F47F0343EA0263110A01F47F4107
:1015F4000B4343EA12633B60009A130203F47F0334
:1016040043EA0263110A01F47F410B4343EA126384
:101614007B609BE70825856398E70225856395E74A
:101624002025856392E74FF000458FE710B582B01F
:101634000446002100910191006801F039FA10F08C
:10164400007F13D169462046FFF770FF80B9019BE4
:1016540013F4802F0ED0216D0904206801F00CFCD6
:1016640030B90221206801F038FC01E04FF4006039
:1016740002B010BD4FF08060FAE710B582B00446A6
:10168400002100910191006801F012FA10F0007F2E
:1016940013D169462046FFF749FF80B9019B13F433
:1016A400803F0ED0216D0904206801F0E5FB30B9BC
:1016B4000021206801F011FC01E04FF4006002B049
:1016C40010BD4FF08060FAE770B581B104460E4654
:1016D400016D0904006801F072FC054608B1284652
:1016E40070BD0021206801F0E3F93060F7E74FF0A6
:1016F4000065F4E72DE9F04F87B005460C46164621
:101704009B46DDF840A0FFF7B3F8002C36D08146A5
:1017140095F83470FFB2012F40F005810023AB63CC
:1017240006EB0B03EA6D93422ED8032385F834307D
:101734002B680022DA626B6C012B00D076024FF02A
:10174400FF3300934FEA4B23019390230293022328
:10175400039300230493012305936946286801F049
:10176400A5FABBF1010F14D902232B633146286873
:1017740001F0DEFAA0B9DDF8048038E0AB6B43F089
:101784000063AB630127D3E0AB6B43F00073AB633F
:10179400CEE001232B633146286801F0B1FAE9E772
:1017A4002B68654A9A63AB6B1843A863012385F8D9
:1017B400343000232B63BBE0286801F050F920701B
:1017C400C0F307236370C0F30743A370000EE070F7
:1017D4000434A8F104080136072EEDD9FFF748F8C0
:1017E400A0EB0900504510D2BAF1000F0DD02868C3
:1017F400466B40F22A331E4015D1436B13F4004F5D
:10180400ECD0B8F1000FE9D0E6E72B684A4A9A63B6
:10181400AB6B43F00043AB63012385F83430002302
:101824002B63032784E0436B13F4807F05D0BBF163
:10183400010F02D96B6C032B38D12B685A6B12F051
:10184400080F44D15A6B12F0020F4CD15A6B12F0AC
:10185400200F54D12868436B13F4001F5BD0B8F1F8
:10186400000F58D001F0FBF82070C0F30723637019
:10187400C0F30743A370000EE0700434A8F1040819
:10188400FEF7F6FFA0EB0900504502D2BAF1000FB3
:10189400E0D12B68284A9A63AB6B43F00043AB63F7
:1018A400012385F8343000232B6341E001F088FAEA
:1018B40003460028C1D02A681F499163AA6B1343C9
:1018C400AB63012385F8343000232B6330E01A4ADC
:1018D4009A63AB6B43F00803AB63012385F83430A0
:1018E40000232B6324E0144A9A63AB6B43F0020396
:1018F400AB63012385F8343000232B6318E00E4AD0
:101904009A63AB6B43F02003AB63012385F8343057
:1019140000232B630CE040F23A538363012385F8E0
:101924003430002704E0AB6B43F00053AB63012772
:10193400384607B0BDE8F08FFF0540002DE9F04FB1
:101944008BB005460C4616469B46DDF850A0FEF7C4
:101954008FFF002C37D0804695F83470FFB2012FEA
:1019640040F0E2800023AB6306EB0B03EA6D934285
:101974002FD8032385F834302B680022DA626B6C8D
:10198400012B00D076024FF0FF3304934FEA4B2330
:101994000593902306930023079308930123099347
:1019A40004A9286801F082F9BBF1010F16D920239C
:1019B4002B633146286801F0EBF90190019BABB928
:1019C400DDF8149040E0AB6B43F00063AB63012798
:1019D400AFE0AB6B43F00073AB63AAE010232B635F
:1019E4003146286801F0BCF90190E7E72B68534AB7
:1019F4009A63A86B019B1843A863012385F83430CC
:101A040000232B6395E023780393627843EA02234F
:101A14000393A27843EA02430393E27843EA02631E
:101A240003930434A9F1040903A9286801F01AF8FE
:101A34000136072EE7D9FEF71BFFA0EB080050453F
:101A440010D2BAF1000F0DD02868466B40F21A3359
:101A54001E4015D1436B13F4804FECD0B9F1000F45
:101A6400E9D0E6E72B68354A9A63A86B019B1843D3
:101A7400A863012385F8343000232B63032758E03F
:101A8400436B13F4807F05D0BBF1010F02D96B6C5B
:101A9400032B18D12B685A6B12F0080F24D15A6B00
:101AA40012F0020F2CD15A6B12F0100F34D0234ACB
:101AB4009A63AB6B43F01003AB63012385F83430B6
:101AC40000232B6335E001F07BF903460028E1D0C5
:101AD4002A681A499163AA6B1343AB63012385F8FF
:101AE400343000232B6324E0144A9A63AB6B43F035
:101AF4000803AB63012385F8343000232B6318E01B
:101B04000E4A9A63AB6B43F00203AB63012385F87F
:101B1400343000232B630CE040F23A529A630123E1
:101B240085F83430002704E0AB6B43F00053AB631B
:101B3400012738460BB0BDE8F08F00BFFF05400019
:101B440070470000436E9B0F0B70436EC3F38363B7
:101B54004B7090F8673003F003038B7090F8663095
:101B6400CB7090F865300B7190F864304B71836ED4
:101B74001B0DCB80B0F86A3003F00F030B72836E39
:101B8400C3F3C0334B72836EC3F380338B72836EA3
:101B9400C3F34033CB72836EC3F300330B73002360
:101BA4004B73436C002B40F08680826E40F6FC73CE
:101BB40003EA8203C26E43EA92730B61C36EC3F3FA
:101BC400C2630B7590F86F3003F007034B75C36E57
:101BD400C3F342538B75C36EC3F38243CB75C36E99
:101BE400C3F3C2330B760B69013343650A7E02F0FB
:101BF40007020232934043650A7A02F00F0C012275
:101C040002FA0CF28265520A02FB03F3C3654FF435
:101C140000730366C36EC3F380334B76C36EC3F3A2
:101C2400C6138B76C36E03F07F03CB76036FDB0F93
:101C34000B77036FC3F341734B77036FC3F3826373
:101C44008B77036FC3F38353CB77036FC3F3405393
:101C540081F82030002381F82130B0F8722002F09E
:101C6400010281F82220026FC2F3C03281F82320DE
:101C7400026FC2F3803281F82420026FC2F3403233
:101C840081F82520026FC2F3003281F82620026F0A
:101C9400C2F3812281F82720026FC2F3012281F866
:101CA4002820026FC2F3460281F82920012281F81C
:101CB4002A2018467047012B11D1836E1B0403F4AC
:101CC4007C13B0F86E2013430B610B6901339B0244
:101CD4004365C3654FF40073836503669AE703683D
:101CE400054A9A63836B43F080538363012380F82E
:101CF40034301846704700BFFF05400070B590B0FF
:101D040004460123ADF81230006800F0B8FE002844
:101D14006CD0636C032B45D1636C032B5DD1636C76
:101D2400032B1DD0BDF8121021650904206801F0B1
:101D340019F9054600285BD10021206800F0B8FE9F
:101D440060660421206800F0B3FEA06608212068C4
:101D540000F0AEFEE0660C21206800F0A9FE2067CA
:101D64000421206800F0A4FE000DE06405A92046CB
:101D7400FFF7E8FE00283ED1226D120400232068FC
:101D840001F038F8054698BB234653F8106B93E8E6
:101D940007008DE80700043494E80E00304600F094
:101DA40045FE25E0206801F0C8F8054600BB002187
:101DB400206800F07DFE60670421206800F078FE52
:101DC400A0670821206800F073FEE0670C212068FA
:101DD40000F06EFEC4F880009EE70DF11201206849
:101DE40001F0D5F80546002899D001E04FF0806550
:101DF400284610B070BD4FF08055F9E770B58AB031
:101E040004460023049305930693079308937623CB
:101E140009930AAB13E907008DE8070004AB0ECB66
:101E2400206800F003FE18B1012528460AB070BDF1
:101E34000546184E0023C6F8A030206800F017FEAF
:101E44000123C6F8A0302046FFF7D0FA30B10125AF
:101E540084F83450A36B0343A363E6E72046FFF7FB
:101E64004DFF30B1012584F83450A36B0343A363C1
:101E7400DBE74FF40071206800F02AFF0028D4D07B
:101E8400236805499963A36B0343A363012584F87D
:101E94003450CAE700003042FF054000A8B110B535
:101EA400044690F8343063B1032384F83430204678
:101EB400FFF7A4FF58B9A0632063012384F83430EA
:101EC40010BD0377FEF784FBEEE701207047012085
:101ED400F6E7436C0B60836C4B60C36C8B60036DE3
:101EE400CB60436D0B61836D4B61C36D8B61036E7E
:101EF400CB6100207047000030B58BB004460D461E
:101F0400032380F83430436C032B1CD0B1F5805F7D
:101F140008D0B1F5006F0AD079B1836B43F0006348
:101F2400836314E0836B43F0805383630FE0FFF714
:101F34007DFBA36B0343A36309E0FFF79EFBA36B45
:101F44000343A36303E0836B43F080538363A36B76
:101F5400C3B12368174A9A63012584F834504FF4B7
:101F64000071206800F0B4FE30B123681149996310
:101F7400A36B0343A3630125012384F8343028466B
:101F84000BB030BD63680493A3680593E3680693BC
:101F9400079563690893A36909930AAB13E90700DA
:101FA4008DE8070004AB0ECB206800F03FFD002550
:101FB400D5E700BFFF05400010B582B004460023FA
:101FC400019301A9FFF780FB10B1A36B0343A36343
:101FD4000198C0F3432002B010BD10B5446A2368D1
:101FE40040F23A529A632046FFF7E6FF012384F851
:101FF4003430002323630538012805D9A36B53B972
:10200400204601F044F810BD206800F0D9FEA36B0F
:102014000343A363F2E72046FFF792FDF3E710B50D
:10202400446A236840F23A529A632046FFF7C4FF99
:10203400012384F83430002323630538012805D9AB
:10204400A36B53B9204601F022F810BD206800F0BC
:10205400B7FEA36B0343A363F2E72046FFF770FDCB
:10206400F3E7000038B50446056B03685A6B12F4B5
:10207400004F02D015F0080F28D15A6B12F4807F5C
:102084005AD04FF480729A632268D36B23F441438D
:1020940023F03A03D3632268D36A23F00103D362A3
:1020A40015F0080F26D015F0220F12D1236840F244
:1020B4003A529A63012384F834300023236315F0E1
:1020C400030F13D0204600F0ECFF01E0FFF7EEF918
:1020D40038BD206800F074FE03460028E6D0A26BE9
:1020E4001343A3632046FFF72BFDDFE7204600F0F0
:1020F400D3FFEDE715F0800FEAD015F0200F0ED1D5
:1021040015F0030FE4D12268D36A23F00803D362E5
:10211400012384F83430204600F0BEFFD8E720685D
:1021240000F04EFE03460028EAD0A26B1343A363DB
:102134002046FFF705FDE3E75A6B12F4804F02D007
:1021440015F0080F4CD15A6B12F03A0FC0D05A6BED
:1021540012F0020F03D0A26B42F00202A2635A6B88
:1021640012F0080F03D0A26B42F00802A2635A6B6C
:1021740012F0200F03D0A26B42F02002A2635A6B2C
:1021840012F0100F03D0A26B42F01002A26340F2CF
:102194003A729A632268D36B23F44E7323F00203DA
:1021A400D363206800F00CFEA36B0343A36315F014
:1021B400080F19D115F0800F8AD015F0300F1CD1FB
:1021C40015F0030F26D0236C174A5A63206CFEF7D0
:1021D400F7FB00283FF47CAF206CFFF720FF77E784
:1021E4002046FFF77FF973E7012384F83430002396
:1021F40023632046FFF7A4FC6AE7E36B0B4A5A63A8
:10220400E06BFEF7DDFB00283FF462AFE06BFFF705
:10221400E4FE5DE70023A363012284F834202363F2
:10222400204600F034FF53E723200008DF1F000896
:102234000268D36823F49073D3600268536923F06F
:1022440001035361036B012B05D0202380F83E303A
:102254000023036370470268D36823F01003D3603C
:10226400F3E790F83D30DBB2212B01D00220704718
:102274008368B3F5805F17D0036A5A1C02621A7828
:1022840003685A60C38C9BB2013B9BB2C3844BB9B5
:102294000268D36823F08003D3600268D36843F0F4
:1022A4004003D360002070470369002BE4D1036A24
:1022B4001B880268C3F308035360036A0233036292
:1022C400E0E7000010B504460268136923F44053A4
:1022D400C1680B43136183680269134342691A435B
:1022E4000168CB6823F4B05323F00C031343CB6091
:1022F4000268536923F4407381690B435361026894
:10230400134B9A4220D0FFF751F8024602EB8202A7
:1023140002EB820263689B00B2FBF3F20D48A0FB60
:1023240002314909642303FB11231B013233A0FB4F
:1023340003235B0903F0F00202EB011203F00F0325
:10234400216813448B6010BDFFF740F80246DDE7B7
:10235400003801401F85EB512DE9F84305460F462F
:1023640016469946DDF820802C68246837EA040371
:102374000CBF4FF0010C4FF0000CB4451FD1B8F165
:10238400FF3FF1D0B8F1000F05D0FEF771FAA0EBD2
:1023940009004045E8D92A68D36823F4D073D36090
:1023A4002A68536923F001035361202385F83D30E3
:1023B40085F83E30002385F83C30032000E00020FF
:1023C400BDE8F88358B310B5044690F83D300BB31C
:1023D400242384F83D302268D36823F40053D36067
:1023E4002046FFF76FFF2268136923F490431361BB
:1023F4002268536923F02A0353612268D36843F4A3
:102404000053D36000202064202384F83D3084F8F6
:102414003E3010BD80F83C30FEF7A2F9D8E7012029
:1024240070472DE9F04182B01E4690F83D30DBB292
:10243400202B54D104460D469046002953D0002A3F
:1024440053D090F83C30012B51D0012380F83C301C
:1024540000230364212380F83D30FEF709FA074680
:10246400A4F82480A4F82680A368B3F5805F05D07F
:102474004FF00008002384F83C3012E0236913B1C4
:102484004FF00008F6E7A8460025F3E738F8023BCA
:102494002268C3F308035360E28C92B2013A92B209
:1024A400E284E38C9BB273B100963B460022802108
:1024B4002046FFF751FFE0B9002DE7D015F8012BB6
:1024C40023685A60E8E700963B46002240212046F4
:1024D400FFF742FF78B9202384F83D3000E0022062
:1024E40002B0BDE8F0810120FAE70120F8E70220FC
:1024F400F6E70320F4E70320F2E72DE9F04182B088
:102504001E4690F83E30DBB2202B5CD104460D46CB
:10251400904600295BD0002A5BD090F83C30012B18
:1025240059D0012380F83C3000230364222280F830
:102534003E200363FEF79CF90746A4F82C80A4F818
:102544002E80A368B3F5805F05D04FF00008002308
:1025540084F83C3017E0236913B14FF00008F6E724
:10256400A8460025F3E723685B68C3F3080328F84B
:10257400023B03E023685B682B700135E28D92B265
:10258400013A92B2E285E38D9BB2BBB100963B4621
:10259400002220212046FFF7DFFEF0B9002DE2D013
:1025A400A368B3F5805FE5D013B92369002BE1D0AC
:1025B40023685B6803F07F032B70DEE7202384F835
:1025C4003E30002000E0022002B0BDE8F08101208E
:1025D400FAE70120F8E70220F6E70320F4E7704762
:1025E40008B50168CA6822F04002CA60202280F857
:1025F4003D20FFF7F4FF002008BD7047704708B581
:10260400406A0023C385C384FFF7F8FF08BD704701
:1026140090F83E30DBB2222B60D18368B3F5805F43
:1026240046D0826AB3F5805F04D0002B4DD1036994
:10263400002B4AD103685B681370836A0133836299
:10264400C38D9BB2013B9BB2C385002B48D100B51F
:1026540083B00268D36823F02003D3600268D36890
:1026640023F48073D3600268536923F00103536138
:10267400202380F83E30036B012B2CD1002303630D
:102684000268D36823F01003D36003681A6812F059
:10269400100F06D0002201921A6801925B68019320
:1026A400019B818DFFF7B3FF002003B05DF804FBAD
:1026B4000269002AB5D1826A03685B68C3F3080320
:1026C4001380836A02338362BAE703685B6803F0AA
:1026D4007F031370B1E7FFF790FFE5E7022070472F
:1026E4000020704730B583B0044602681368D06890
:1026F400516913F00F0505D113F0200F02D010F02B
:10270400200F19D12DB111F0010119D110F4907FCE
:1027140016D1216B012975D013F0800F03D010F06E
:10272400800F40F0D78013F0400F03D010F0400F1B
:1027340040F0D48003B030BD2046FFF769FFF9E7CD
:1027440013F0010F06D010F4807F03D0226C42F006
:102754000102226413F0040F04D019B1226C42F078
:102764000202226413F0020F04D019B1226C42F069
:102774000402226413F0080F07D010F0200F00D1D8
:1027840019B1226C42F008022264226C002AD1D0D2
:1027940013F0200F02D010F0200F21D123685B69C1
:1027A40003F04003226C12F0080F00D123B320463B
:1027B400FFF73EFD23685A6912F0400F18D05A699A
:1027C40022F040025A61A36B73B1464A5A63A06B6C
:1027D400FEF7F6F80028ADD0A06B436B9847A9E745
:1027E4002046FFF715FFD9E72046FFF707FFA1E7CB
:1027F4002046FFF703FF9DE72046FFF7FFFE002377
:10280400236497E713F0100F86D010F0100F83D0D5
:10281400002301931368019353680193019B536947
:1028240013F0400F32D0A16B0B685B689BB2002B96
:1028340080D0A08D98427FF67DAFE3858B69202BF5
:1028440008D1A18DE38D9BB2C91A89B22046FFF746
:10285400DEFE6FE7D36823F48073D3602268536984
:1028640023F0010353612268536923F04003536149
:10287400202384F83E30002323632268D36823F0A6
:102884001003D360A06BFEF779F8DAE7A18DE38D2E
:102894009BB2C91A89B2E38D9BB2002B3FF44AAFB5
:1028A40000293FF447AFD36823F49073D3602268C0
:1028B400536923F001035361202384F83E3000233D
:1028C40023632268D36823F01003D3602046FFF704
:1028D4009EFE2FE72046FFF7C4FC2BE72046FFF7B8
:1028E4007FFE27E7032600080B4B1B680B4AA2FB5D
:1028F40003235B0A41F2883202FB03F31A46013BCD
:102904003AB1426B12F0800FF8D0C52383630020E4
:1029140070474FF00040704700000020D34D621014
:102924000146144B1B68144AA2FB03235B0A41F2C1
:10293400883202FB03F31A46013BBAB14A6B12F028
:10294400450FF8D012F4006FF5D14B6B13F0040F60
:1029540006D1486B10F0010005D1C5238B63704785
:102964000420886370470120886370474FF000405B
:10297400704700BF00000020D34D62100146104B89
:102984001B68104AA2FB03235B0A41F2883202FB54
:1029940003F31A46013B82B14A6B12F0450FF8D09B
:1029A40012F4006FF5D1486B10F0040002D1C52376
:1029B4008B6370470420886370474FF00040704772
:1029C40000000020D34D62100146164B1B68164AC6
:1029D400A2FB03235B0A41F2883202FB03F31A468B
:1029E400013BE2B14A6B12F0450FF8D012F4006FCC
:1029F400F5D14B6B13F0040F0BD14B6B13F00103A8
:102A04000AD1486B10F040000BD040228A6318466C
:102A140070470420886370470120886370474FF033
:102A24000040704700000020D34D621084B00DF1C7
:102A3400040C8CE80E000B461343039A1343049AC8
:102A44001343059A1343069A1343426822F4FD4242
:102A540022F07F0213434360002004B07047D0F893
:102A6400800070470B68C0F880300020704708B5BC
:102A7400032303600220FDF701FF002008BD006866
:102A840000F0030070470B6883604B688A68134347
:102A9400CA6813430A691343C26822F47F6222F0AE
:102AA4000F021343C360002070470069C0B270472F
:102AB400143040587047000038B504460D46504B5A
:102AC4001B685049A1FB03135B0A03FB02F2134684
:102AD400013A002B5DD0636B13F0450FF7D013F46C
:102AE400006FF4D1636B13F0040F06D1636B13F022
:102AF400010F05D00120A0634DE00420A0634AE04B
:102B0400C523A3632046FFF7D0FFA84201D00120CC
:102B140041E000212046FFF7CBFF03463A48184026
:102B2400C8B3002B38DB13F0804F38D113F0005FAB
:102B340037D113F0805F36D113F0006F36D113F024
:102B4400806F36D113F0807F36D113F4000F36D165
:102B540013F4800F36D113F4001F36D113F4801F01
:102B640036D113F4802F36D113F4003F36D113F449
:102B7400803F36D113F4004F36D113F4804F36D151
:102B840013F4005F36D113F0080F36D04FF4000071
:102B940001E04FF0004038BD4FF00070FBE74020EB
:102BA400F9E78020F7E74FF48070F4E74FF4007002
:102BB400F1E74FF48060EEE74FF40060EBE74FF489
:102BC4008050E8E74FF40050E5E74FF48040E2E737
:102BD4004FF40040DFE74FF40030DCE74FF480208F
:102BE400D9E74FF40020D6E74FF48010D3E74FF431
:102BF4000010D0E74FF48000CDE74FF48030CAE7EF
:102C040000000020D34D621008E0FFFDF8B5054632
:102C14000E461746234B1B68234AA2FB03235B0A79
:102C240041F2883202FB03F31A46013B8AB36C6B10
:102C340014F0450FF8D014F4006FF5D16B6B13F05A
:102C4400040F06D16B6B13F0010F05D00120A863AC
:102C540021E00420A8631EE02846FFF726FFB042C7
:102C640001D0012017E0C523AB6300212846FFF7FC
:102C74001FFF034610F4604008D013F4804F0BD1BB
:102C840013F4004F0BD04FF4805004E01B0C3B8036
:102C940001E04FF00040F8BD4FF40050FBE74FF463
:102CA4008030F8E700000020D34D62100B684362C7
:102CB4004B6883628B68CA6813430A6913434A6981
:102CC4001343C26A22F0F7021343C3620020704721
:102CD40030B587B004460191102502954023039333
:102CE400002304934FF48063059301A9FFF7CBFEFF
:102CF40041F2883229462046FFF7DEFE07B030BD98
:102D040030B587B004460191112502954023039301
:102D1400002304934FF48063059301A9FFF7B3FEE6
:102D240041F2883229462046FFF7C6FE07B030BD7F
:102D340030B587B0044601911225029540230393D0
:102D4400002304934FF48063059301A9FFF79BFECE
:102D540041F2883229462046FFF7AEFE07B030BD67
:102D640030B587B00446019118250295402303939A
:102D7400002304934FF48063059301A9FFF783FEB6
:102D840041F2883229462046FFF796FE07B030BD4F
:102D940030B587B004460191192502954023039369
:102DA400002304934FF48063059301A9FFF76BFE9E
:102DB40041F2883229462046FFF77EFE07B030BD37
:102DC40030B587B00446002301930C2502954022B8
:102DD400039204934FF48063059301A9FFF753FE14
:102DE400034A29462046FFF767FE07B030BD00BFFF
:102DF40000E1F50530B587B0044601920725029538
:102E040040230393002304934FF48063059301A9A3
:102E1400FFF739FE41F2883229462046FFF74CFE7F
:102E240007B030BD10B586B0044600230193029369
:102E3400039304934FF48063059301A9FFF723FEE2
:102E44002046FFF751FD06B010BD10B586B004460C
:102E54004FF4D57301930823029340230393002373
:102E640004934FF48063059301A9FFF70CFE2046F9
:102E7400FFF7AAFD06B010BD30B587B00446019136
:102E84003725029540230393002304934FF4806372
:102E9400059301A9FFF7F7FD41F288322946204640
:102EA400FFF70AFE07B030BD10B586B0044641F006
:102EB400004141F48011019129230293402303939B
:102EC400002304934FF48063059301A9FFF7DBFD0E
:102ED4002046FFF753FD06B010BD30B587B0044659
:102EE40001910625029540230393002304934FF494
:102EF4008063059301A9FFF7C6FD41F28832294694
:102F04002046FFF7D9FD07B030BD30B587B0044681
:102F140000230193332502954022039204934FF436
:102F24008063059301A9FFF7AEFD41F2883229467B
:102F34002046FFF7C1FD07B030BD10B586B004468A
:102F44000023019302220292C022039204934FF4BD
:102F54008063059301A9FFF796FD2046FFF7E0FC87
:102F640006B010BD10B586B0044601910923029342
:102F7400C0230393002304934FF48063059301A9B2
:102F8400FFF781FD2046FFF7CBFC06B010BD70B5FE
:102F940086B004460D460023019303260296402280
:102FA400039204934FF48063059301A9FFF76BFD2B
:102FB4002A4631462046FFF729FE06B070BD30B5DB
:102FC40087B0044601910D25029540230393002305
:102FD40004934FF48063059301A9FFF754FD41F274
:102FE400883229462046FFF767FD07B030BD000050
:102FF40008B50649064801F063FC064B18700649FB
:10300400064801F05DFC064B187008BD880B0020D3
:103014008C660008900B00208C0B00201000002010
:10302400910B00200020704700B583B00093134635
:103034000A4601460348FEF75DFB00B1012003B0D8
:103044005DF804FBB80A002000B583B00093134672
:103054000A4601460348FEF771FC00B1012003B0A3
:103064005DF804FBB80A002008B50348FEF7A4FF86
:10307400043818BF012008BDB80A002008B501466D
:103084000148FEF726FF08BDB80A0020704708B5BE
:10309400FFF7FCFF08BD704708B5FFF7FCFF08BD4C
:1030A400704708B5FFF7FCFF08BD82B001238DF817
:1030B40007309DF8070002B07047000038B5FFF7ED
:1030C400F4FF012802D00125284638BD04460748EC
:1030D400FEF7E4FE05460028F6D14FF400610348EC
:1030E400FEF70AFF0028EFD02546EDE7B80A0020D6
:1030F400024B01221A701878704700BF0C000020A0
:10310400024B01221A701878704700BF0C0000208F
:1031140000207047002070470120704708B5044B19
:1031240003EB8002526852680344187B904708BD41
:10313400B80B002008B5084B1B5C53B9064B0122A1
:103144001A5403EB8002526812681844007B9047BB
:1031540008BD0020FCE700BFB80B002038B5044CC4
:1031640004EB80056D68AD680444207BA84738BD36
:10317400B80B002038B5044C04EB80056D68ED688D
:103184000444207BA84738BDB80B002010B5044B7D
:1031940003EB8004646824690344187BA04710BDD2
:1031A400B80B002008B5074B01221A70FFF786FF01
:1031B40020B9044A137803F0FE031370014B187806
:1031C40008BD00BF2400002008B5074B01221A7077
:1031D400FFF74AFF20B9044A137803F0FE03137083
:1031E400014B187808BD00BF2400002010B5084624
:1031F40011461A46094BFFF717FF10B10123184671
:1032040010BD074CFFF730FF03460028F7D0631EBC
:103214000CB11C46F6E70123F1E700BF00E1F50518
:10322400A086010010B5084611461A46094BFFF75F
:103234000BFF10B10123184610BD074CFFF714FF14
:1032440003460028F7D0631E0CB11C46F6E70123A1
:10325400F1E700BF00E1F505A086010030B589B0B3
:10326400124B187810F001041AD1154603291BD803
:10327400DFE801F002040A100C4612E06846FFF78A
:10328400FDFE069B2B600CE06846FFF7F7FE079BEC
:103294002B8006E06846FFF7F1FE079B2B6000E0F9
:1032A4000324204609B030BD0424FAE7240000209A
:1032B40004E011F8012B00F8012B1A46531E002AD2
:1032C400F7D1704702E000F8011B1A46531E002A8A
:1032D400F9D1704710B4034600201446013A34B1C2
:1032E40013F8010B11F801CBB0EB0C00F5D010BCB6
:1032F4007047034600E00133187808B18842FAD1D8
:103304007047000030B400252B4601E0012501334D
:10331400012B1ED803EB43021C4C54F82220002A34
:10332400F4D0D0F80042A242F1D103EB4302174C8F
:1033340004EB82025468D0F808229442E7D103EBEC
:103344004302124C04EB82021489B0F80622944220
:10335400DDD1022B0CD0B1B903EB43030B4A02EBD2
:1033640083035B89B3F5807F0BD0002030BC7047AA
:103374002DB9022901D01220F8E70020F6E7002039
:10338400F4E71020F2E71020F0E700BF9C0B0020C8
:10339400002000E00130012806D800EB4002930031
:1033A400034AD358002BF5D1023818BF01207047C7
:1033B4009C0B002010B5002300E00133012B1CD826
:1033C40003EB43022D4C54F82240D0F800229442DF
:1033D400F3D103EB4302294C04EB82025468D0F886
:1033E40008229442E9D103EB4302244C04EB820209
:1033F4001489B0F806229442DFD1022B11D031B1E6
:1034040003EB43021D4800EB82025289A2BB39BB85
:1034140003EB4302194901EB82025189013189B25C
:1034240020E00023012B07D803EB4302134C54F88C
:1034340022200AB10133F5E7022B1BD00F4C03EB1A
:10344400430C04EB8C02D0F800E244F82CE0D0F8F2
:1034540008425460B0F80602108100205081CEE783
:103464004FF4807103EB4300044A02EB8002518164
:10347400581C10BD0020FCE70020FAE79C0B00203C
:10348400013801281AD800EB40030E4A02EB8303EB
:103494005B89B3F5807F03D01BB1013B9BB200E095
:1034A400002300EB4002074901EB820253813BB940
:1034B40000EB400083000020C85070470220704792
:1034C400002070479C0B0020002302E010BC7047D2
:1034D4000133012B17D803EB43020B4951F8222087
:1034E4008242F5D110B403EB4302920000248C50C5
:1034F4000133012BEAD803EB4302034951F822209C
:103504008242F5D1EFE770479C0B0020D0F82432BB
:103514000433490AD0F8002292F80222B1FBF2F1F6
:1035240001E0091A0833186818B18142F9D25868C1
:1035340008447047CA7E8B7E43EA022390F8002237
:10354400032A01D018467047487D0A7D42EA0022CA
:1035540043EA0243F6E78176C1F30723C376C1F356
:1035640007430375090E4175704700002DE9F84FB4
:1035740089460C6800E0013423782F2BFBD05C2BA8
:10358400F9D0D0F818A20B2220215046FFF79AFE5A
:10359400002633464FF00808374619E0BF00FFB253
:1035A40046464FF00B0812E015F0800F25D129464E
:1035B4003148FFF79EFE00285AD1A5F14103DBB242
:1035C400192B20D847F002070AF8065001365B464B
:1035D40003F1010BE55C202D1FD92F2D1DD05C2D8F
:1035E4001BD02E2D01D0B045DED8B8F1080F3DD147
:1035F4002E2DD3D00620BDE8F88F47F00307803D79
:103604001E4B5D5DD3E7A5F16103DBB2192BDBD85B
:1036140047F00107203DEDB2D6E75C44C9F800400D
:10362400202D14D804232EB39AF80020E52A10D0B4
:10363400B8F1080F11D007F00302012A10D007F0E7
:103644000C07042F0FD08AF80B300020D3E7002397
:10365400E9E705228AF80020EAE7BF00FFB2EAE7BB
:1036640043F01003EBE743F00803ECE70620C2E75E
:103674000620C0E70620BEE7A0660008B066000882
:103684000146006838B102461378202B06D93A2B3C
:1036940004D00132F8E74FF0FF3070473A2B01D0E5
:1036A40000207047034613F8010B303809280CD862
:1036B4009A4202D04FF0FF307047012802D94FF0F0
:1036C400FF30704701320A6070474FF0FF30704797
:1036D400F8B590F804520DB92846F8BD0446D0F860
:1036E4002C7201233A46014690F80102FFF742FD8D
:1036F4000546D0B9002384F80432D4F82032FB1AEA
:10370400D4F818229342E7D294F803620AE0D4F87A
:1037140018321F4401233A46214694F80102FFF768
:1037240029FD013E012EF2D8D6E70125D4E770B574
:10373400D0F82C328B4202D10026304670BD0446AC
:103744000D46FFF7C5FF06460028F6D101232A4699
:10375400214694F80102FFF701FD10B101264FF054
:10376400FF35C4F82C52E8E710B50446002380F86E
:1037740004324FF0FF33C0F82C32FFF7D8FF98BB68
:10378400024694F8FF1194F8FE3143EA01231BB278
:1037940017498B422AD194F8391094F838301B0415
:1037A40043EA016394F8371043EA012394F836108E
:1037B4000B4323F07F430F498B4213D094F85510E9
:1037C40094F854301B0443EA016394F8531043EA19
:1037D400012394F852100B4323F07F4305498B4295
:1037E40000D00122104610BD0322FBE70222F9E7B4
:1037F40055AAFFFF46415400B0B108B5D0F80032D5
:1038040043B193F8001229B1B3F80612B0F80422B8
:10381400914201D0092008BD93F80102FFF77EFC14
:1038240010F00100F7D0F5E7092070472DE9F043C7
:1038340085B005461746002303600846FFF720FFBE
:10384400061EC0F29E819E4B53F82640002C00F0C9
:103854009D812C6094F800327BB194F80102FFF74B
:103864005DFC10F0010508D1002F00F08B8110F0F1
:10387400040F00F087810A2584E1002384F80032D4
:10388400F0B284F80102FFF755FC10F0010F40F08C
:103894007F811FB110F0040F40F07C81002120468D
:1038A400FFF762FF0546012800F0D4800027032DAE
:1038B40000F07281002D40F07181227BE37A43EAAB
:1038C40002231BB2B3F5007F40F06A81E27DA37D41
:1038D40053EA02230DD194F8272094F826301B04D0
:1038E40043EA026394F8252043EA022394F824204F
:1038F4001343C4F81832217C84F803124A1ED2B24E
:10390400012A00F24F8103FB01F1607B84F802027B
:10391400002800F04981421E104240F04781A27CF9
:10392400667C46EA0226A4F8086216F00F0F40F0FF
:103934003F8194F814C0E27C52EA0C220ED194F830
:1039440023C094F82220120442EA0C6294F821C0A5
:1039540042EA0C2294F820C042EA0C0294F80FE0E8
:1039640094F80EC05CEA0E2C00F024810CEB0109E3
:1039740009EB16194A45C0F01F81A2EB0902B2FBFC
:10398400F0FE8242C0F01A8140F6F57296457AD86C
:103994004FF001084FF6F572964501D94FF0030830
:1039A4000EF1020EC4F814E2C4F81C720CEB070208
:1039B400C4F8202207EB0900C4F82802B8F1030F69
:1039C40064D0002E00F0FE801144C4F82412B8F133
:1039D400020F71D00EEB4E010EF0010202EB510208
:1039E40002F2FF12B3EB522FC0F0EE804FF0FF3320
:1039F400C4F81032C4F80C32802384F80532B8F1CC
:103A0400030F61D084F800822E4A138801339BB2DD
:103A14001380A4F806322046FFF756FDB2E00023D7
:103A240004AA02EB810242F8103C0131032913D8A5
:103A34000B0103F5DF7323441A79002AEFD0D87AF7
:103A44009A7A120442EA0062587A42EA00221B7A05
:103A54001343E5E70021E9E700260BE03946204659
:103A6400FFF782FE054600283FF421AF0136032EFE
:103A74003FF61DAF04AB03EB860353F8107C002F15
:103A8400ECD10225F2E74FF0020883E7002E40F064
:103A9400978094F82F1094F82E20120442EA0162C1
:103AA40094F82D1042EA012294F82C100A43C4F829
:103AB40024224FEA8E0293E74FEA4E0290E700BFBA
:103AC400940B0020B40B002094F8312094F830308B
:103AD40043EA02231BB2012B94D1791C2046FFF741
:103AE40026FE00288ED1002384F8053294F8FF21A5
:103AF40094F8FE3143EA02231BB2344A934281D143
:103B0400E278A3781B0443EA0263627843EA02235F
:103B1400227813432E4A93427FF474AF94F8E7213A
:103B240094F8E6311B0443EA026394F8E52143EA7E
:103B3400022394F8E4211343264A93427FF462AFAC
:103B440094F8EB2194F8EA311B0443EA026394F8F5
:103B5400E92143EA022394F8E8211343C4F810321C
:103B640094F8EF2194F8EE311B0443EA026394F8CD
:103B7400ED2143EA022394F8EC211343C4F80C32F8
:103B840040E70B25284605B0BDE8F0830C25F9E78E
:103B94000325F7E70A25F5E70125F3E70D25F1E706
:103BA4000D25EFE70D25EDE70D25EBE70D25E9E7FD
:103BB4000D25E7E70D25E5E70D25E3E70D25E1E70D
:103BC4000D25DFE70D25DDE70D25DBE755AAFFFF12
:103BD400525261417272416138B50446FFF778FD73
:103BE400054658B994F80032032B09D00022114637
:103BF40094F80102FFF7CAFA00B10125284638BD3E
:103C040094F80532012BF1D14FF4007200212046C3
:103C1400FFF758FB552384F8FE31AA2384F8FF31BB
:103C24005223237063706123A3704122E2707221D6
:103C340084F8E41184F8E51184F8E62184F8E73186
:103C4400D4F8103284F8E831C3F3072284F8E92168
:103C5400C3F3074284F8EA211B0E84F8EB31D4F84D
:103C64000C3284F8EC31C3F3072284F8ED21C3F35A
:103C7400074284F8EE211B0E84F8EF31D4F81C229D
:103C84000132C4F82C220123214694F80102FFF7E3
:103C940071FA002384F80532A8E70239D0F8143207
:103CA400023B8B4206D990F80232D0F8280201FB7D
:103CB400030070470020704701295ED9F8B5054616
:103CC4000C46D0F814328B4259D990F80032022BAA
:103CD4002BD0032B39D0012B01D0012050E001EB74
:103CE4005106D0F8201201EB5621FFF720FD10B148
:103CF4004FF0FF3044E0771CC6F30806AE5DD5F8FC
:103D0400201201EB57212846FFF711FD002838D176
:103D1400C7F30807E85D46EA002014F0010F01D05C
:103D240000092DE0C0F30B002AE0D0F8201201EBCB
:103D34001421FFF7FCFC38BB640004F4FF742B1956
:103D44005B78285D40EA03201AE0D0F8201201EBEA
:103D5400D411FFF7ECFCD0B9A40004F4FE742B19C1
:103D6400DA789878000440EA02605B7840EA03203D
:103D74002B5D184320F0704002E0012070470120C1
:103D8400F8BD4FF0FF30FBE74FF0FF30F8E74FF09E
:103D9400FF30F5E7F8B50746A0F80612D0F8084258
:103DA400012C44D00E46D0F80032D3F81422A2429B
:103DB4003FD91CB993F80022032A17D0CCB9B3F821
:103DC4000822B24237D9D3F82402C7F80C42D0B340
:103DD40000EB1610C7F81002D7F8003206F00F01F6
:103DE40003EB4111C7F814120020F8BDD3F82442A4
:103DF400E4E793F802522D01AE4212D32146D7F8DC
:103E04000002FFF759FF0446B0F1FF3F15D0012827
:103E140015D9D7F80032D3F81432834211D9761B5E
:103E2400EAE72146D7F80002FFF737FFCDE7022083
:103E3400DBE70220D9E70220D7E70120D5E70220FB
:103E4400D3E70220D1E70220CFE7012940F28580A1
:103E54002DE9F04105460C461646D0F814328B4243
:103E64007DD990F80032022B42D0032B54D0012B81
:103E740002D00220BDE8F08101EB5107D0F82012F6
:103E840001EB5721FFF753FC0028F3D107F1010898
:103E9400C7F3080714F001041FD0EB5703F00F0316
:103EA400320102F47F621343DBB2EB55012385F840
:103EB4000432D5F8201201EB58212846FFF737FCCD
:103EC4000028D7D1C8F308084CB1C6F3071205F887
:103ED4000820012385F80432CCE7F3B2E5E715F9AD
:103EE400082022F00F02C6F303263243D2B2EEE7D3
:103EF400D0F8201201EB1421FFF719FC0028B9D1E6
:103F0400640004F4FF742B192E55C6F307225A706B
:103F1400012385F80432ADE7D0F8201201EBD41167
:103F2400FFF705FC0028A5D1A40004F4FE742919A8
:103F3400CA788B781B0443EA026303F0704333436B
:103F44002E55C6F307224A70C6F307428A701B0E29
:103F5400CB70012385F804328CE7022070470220DD
:103F640088E7F8B505460F4641B9D0F80C629EB112
:103F7400D0F81432B34210D801260EE0FFF79CFEAD
:103F8400034601284BD9B0F1FF3F4DD0D5F8142298
:103F9400824249D83E4600E0012634460CE02146E0
:103FA4002846FFF789FE034678B1B0F1FF3F3BD0C6
:103FB400012839D0B44236D00134D5F81432A342A2
:103FC400EDD8012E2DD90224E9E76FF07042214685
:103FD4002846FFF73AFF034600B997B9C3B9C5F8B5
:103FE4000C42D5F81032B3F1FF3F1FD0013BC5F8A6
:103FF400103295F8053243F0010385F80532234663
:1040040012E0224639462846FFF71FFF0346E5E73C
:10401400012B01D0012307E04FF0FF3304E001231B
:1040240002E0002300E000231846F8BD2346FBE726
:104034002DE9F843B0F806526B1C9AB2002A00F03E
:10404400838004460F46D0F81022002A7ED013F055
:104054000F060BD10132C0F81022D0F80C1289B926
:10406400D0F80022B2F808229A4271D90135A4F896
:104074000652D4F8003203EB4613C4F8143200207D
:10408400BDE8F883D0F8000290F80222013A12EA5F
:104094001318EBD1FFF710FE814601285AD9B0F16D
:1040A400FF3F59D0D4F80002D0F814324B4541D820
:1040B400002F53D0D4F80C12FFF753FF8146002889
:1040C4004ED001284ED0B0F1FF3F4DD0D4F80002BD
:1040D400FFF7FEFA08B10120D2E74FF40072002185
:1040E400D4F80002FFF7EEF8D4F8007249463846D7
:1040F400FFF7D3FDC7F82C02D4F8003293F802225C
:10410400424511D9012283F80422D4F80002FFF7B2
:10411400DFFA58BBD4F80022D2F82C320133C2F8AB
:104124002C3208F10108E7E7D3F82C22A2EB0802AD
:10413400C3F82C22C4F80C924946D4F80002FFF7C5
:10414400ACFDC4F8100291E7042099E7042097E736
:10415400042095E7022093E7012091E704208FE7EC
:1041640007208DE702208BE7012089E7012087E7FC
:1041740038B504460021FFF70DFE054640B1284638
:1041840038BD00212046FFF753FF05460028F6D12D
:10419400D4F81012D4F80002FFF7C9FA0546002833
:1041A400EDD1D4F8140203785BB1C37A13F0080F8D
:1041B400E7D10B22D4F81812FFF78CF80028E0D1CD
:1041C400DDE70425DBE710B582B0044601910B78E6
:1041D4002F2B01D05C2B01D1013101910023C4F8B4
:1041E4000832019B1B781F2B1DD901A92046FFF71C
:1041F400BDF90346F8B92046FFF7BAFFD4F81832E0
:10420400DA7A0346D0B912F0040F14D1D4F8141298
:10421400CB7A13F0100F18D0D4F80002FFF78AF904
:10422400C4F80802E1E700212046FFF7B3FD034686
:104234000022C4F81422184602B010BD0428FAD192
:1042440012F0040FF7D10523F5E70523F3E770B562
:1042540004460E460021FFF79DFD0246D8B900250D
:1042640008E00135B54216D001212046FFF7E0FEF3
:10427400024680B9D4F81012D4F80002FFF757FAB6
:10428400024640B9D4F814321B78E52BE9D0002B50
:10429400E7D00025E8E7042A01D0104670BD0722C4
:1042A400FBE738B504460121FFF7D1FF054608B105
:1042B400284638BDD4F81012D4F80002FFF737FAB4
:1042C40005460028F4D120220021D4F81402FEF778
:1042D400F9FF0B22D4F81812D4F81402FEF7E8FF01
:1042E400D4F80032012283F80422E1E7F8B5012969
:1042F4002DD904460D46D0F814328B422AD9002712
:1043040000E03546D4F81432AB4221D92946204680
:10431400FFF7D2FC0646D8B101281DD0B0F1FF3F0B
:104324001CD0002229462046FFF78FFD074678B9A6
:10433400D4F81032B3F1FF3FE3D00133C4F81032A4
:1043440094F8053243F0010384F80532D9E70227D3
:104354003846F8BD0227FBE70227F9E70127F7E70C
:104364002DE9F043ADF50F7D0191002800F0E980BF
:10437400144606460023C0F8003202F01F0702F07C
:104384001E0201A986A8FFF751FA054620B1284666
:104394000DF50F7DBDE8F08303AB8C93019906A85E
:1043A400FFF711FFDDF82C82054658B9B8F1000F6C
:1043B4005DD037F0010314BF0121002106A8FEF7E8
:1043C400A1FF054614F01C0F00F0A780002D5AD061
:1043D400042D4ED047F00807DDF82C8215B917F0EC
:1043E400080F5CD1C5B917F0080F01D047F02007BA
:1043F400869BD3F82C32C6F81C32C6F8208237F0DC
:10440400010314BF0121002106A8FEF7D3FFC6F85B
:104414002802002800F09780002DB8D186F8067293
:10442400002486F80742869F41463846FFF782F803
:10443400C6F8100298F81F2098F81E301B0443EAAF
:10444400026398F81D2043EA022398F81C201343C2
:10445400C6F80C32C6F80842C6F81842C6F8244218
:10446400C6F80072B7F80632A6F804328FE70625BC
:10447400A8E7FEF78DFF08B91225ABE706A8FFF7FA
:1044840010FF0546A6E798F80B3013F0110F04D17E
:1044940014F0040FA2D00825A0E707259EE7FEF735
:1044A400C1FD88F80E00C0F3072388F80F30C0F36D
:1044B400074388F81030000E88F81100002488F8AB
:1044C4000B4088F81C4088F81D4088F81E4088F886
:1044D4001F4041468698FFF72DF881462146404605
:1044E400FFF739F88698012380F80432B9F1000FF8
:1044F4003FF478AFD0F82C424946FFF7F7FE054663
:1045040000287FF46FAF869809F1FF33C0F80C32AE
:104514002146FFF70CF9054664E7002D7FF462AFEE
:1045240098F80B3013F0100F09D114F0020F3FF478
:1045340059AF13F0010F3FF455AF072552E7042597
:1045440050E7092523E7022521E72DE9F04F83B041
:1045540004460F46154698460023C8F80030FFF776
:104564004BF90190002853D194F807320193002BA2
:104574004ED194F8063213F0020F00F00081D4F803
:104584000832EB42C0F0BF800025BCE0D4F82432EE
:10459400002B41D02046FEF7B9FF0346002B00F064
:1045A400DF80012B3ED0B3F1FF3F42D0C4F8143278
:1045B400D4F810220AB9C4F8103294F8063213F071
:1045C400400F3DD1D4F800B2D4F814125846FFF786
:1045D40064FB814600284CD0B1444FEA552AB5F516
:1045E400007F64D306EB0A039BF80222934201D9AD
:1045F400A2EB060A53464A4639469BF80102FEF7E7
:10460400B9FDE8B34FF0010A84F807A2CDF804A07D
:10461400019803B0BDE8F08FD4F81412FFF7A1FCA1
:104624000346BBE74FF0020A84F807A2CDF804A0C2
:10463400EEE74FF0010A84F807A2CDF804A0E7E7FB
:10464400D4F800020123D4F81822214690F801027C
:10465400FEF790FD30B994F8063223F0400384F855
:104664000632AFE74FF0010A84F807A2CDF804A0A0
:10467400CEE74FF0020A84F807A2CDF804A0C7E7FA
:10468400D4F81812A1EB0901514502D34FEA4A2686
:104694002DE04FF4007207EB41212046FEF708FE9F
:1046A40094F8063223F0400384F80632EEE7D4F897
:1046B40018324B4505D0D4F80822D4F80C329A426B
:1046C4003ED3C4F81892D4F80802C0F30800C0F529
:1046D4000076B54200D22E46324639462044FEF7D3
:1046E400E7FD94F8063243F0400384F80632374479
:1046F400D4F808323344C4F80832D8F800303344CC
:10470400C8F80030AD1B5DB3D4F80812C1F3080338
:10471400002BD8D1D4F8000290F80262013EF6B220
:1047240016EA51267FF449AF00297FF42FAFD4F85D
:104734001032002B7FF432AFFFF713FC03462DE752
:1047440001234A4621469BF80102FEF707FD002893
:10475400B7D04FF0010A84F807A2CDF804A057E7B8
:10476400D4F80832D4F80C22934201D9C4F80C329C
:1047740094F8063243F0200384F8063248E707230E
:10478400019345E738B50446FFF736F800BB94F8C3
:10479400063213F0200F1BD013F0400F11D0D4F8C1
:1047A40000020123D4F81822214690F80102FEF7F2
:1047B400E1FC002843D194F8063223F0400384F846
:1047C4000632D4F81C12D4F80002FEF7B0FF00B190
:1047D40038BDD4F82052EB7A43F02003EB7294F8FE
:1047E4000C322B77B4F80C321B0A6B7794F80E3228
:1047F400AB7794F80F32EB77D4F810122846FEF713
:10480400AAFEFEF70FFCA875C0F30723EB75C0F3EF
:1048140007432B76000E68760023AB74EB7494F890
:10482400063223F0200384F80632D4F80032012241
:1048340083F80422D4F80002FFF7CEF9C8E7012078
:10484400C6E710B50446FFF79DFF00B110BD204632
:10485400FEF7D2FF0028F9D1D4F82802FEF710FEA3
:104864000028F3D1C4F80002F0E70000134B9B7B4F
:10487400DBB2022B1FD810B40446104B93F80EC0C1
:104884005FFA8CFC002003F80C0093F80EC003EBD5
:104894008C0CCCF804409C7B1C4422739A7B541CE3
:1048A400E4B29C7330320A703A234B702F238B701E
:1048B400C87010BC70470120704700BFB80B0020BF
:1048C40008B50022FFF7D2FF08BD00000C480D49CF
:1048D4000D4A002302E0D458C4500433C4188C4257
:1048E400F9D30A4A0A4C002301E013600432A242BD
:1048F400FBD3FBF719FF00F015F8FBF71FFE704719
:10490400000000206C080020446700086C080020A8
:10491400100C0020FEE70000014B1868704700BF30
:104924002800002070B50D4E0D4D761BB61006D034
:10493400002455F8043B01349847A642F9D1094EA6
:10494400094D01F02DFE761BB61006D0002455F853
:10495400043B01349847A642F9D170BD386700087A
:10496400386700084067000838670008830730B5D7
:1049740048D0541E002A3FD00346CAB201E0013C8D
:104984003AD303F8012B9D07F9D1032C2DD9CDB2CD
:1049940045EA05250F2C45EA054536D9A4F1100250
:1049A40022F00F0C03F1200EE6444FEA121C03F12F
:1049B400100242E9045542E9025510327245F8D119
:1049C4000CF1010214F00C0F03EB021204F00F0CB3
:1049D40013D0ACF1040323F003030433134442F86B
:1049E400045B9342FBD10CF003042CB1CAB21C4407
:1049F40003F8012B9C42FBD130BD64461346002CC6
:104A0400F4D1F9E703461446BFE71A46A446E0E7A3
:104A140030B5054689B008460C4600F027F9012157
:104A24000223214A04940692AA6B04AC059008441C
:104A340001940791AC680293039022B3636E13F060
:104A4400010FB4F90C309AB201D1980525D591041F
:104A540006D4626E43F4005322F40052A3816266CA
:104A6400284601AA214600F0FDFB636E002814BF0E
:104A74004FF0FF350A25DA0702D4A3899B0506D532
:104A8400284609B030BD284600F0F4F9D6E7A06DF9
:104A940000F08AFD284609B030BDA06D00F082FD0B
:104AA400B4F90C309AB2D2E734670008024B0146DD
:104AB4001868FFF7ADBF00BF280000202DE9F043C0
:104AC400694C0E46D4F80080174604461D4683B050
:104AD400B8F1000F03D0D8F83830002B77D0022F6C
:104AE40005D0012F00F2AC80002DC0F2A980636EC6
:104AF400DA0752D52146404600F088F9216B41B1CE
:104B040004F14003994202D0404600F0ABFA00237E
:104B140023630023B4F90CC0A3611CF0800F63600D
:104B240064D12CF44A6C2CF0030C022FA4F80CC0B2
:104B34006AD001AB214640466A4600F0A7FDA3892E
:104B44001843A081002D2FD0002E2ED0D8F8383055
:104B5400002B38D0009BC4E90465AB42B4F90C3097
:104B640026601CBF43F40063A381012F04BF43F0FC
:104B74000103A3819AB213F008032CD0D1075DD5A9
:104B840000216D42A561656EA16015F0010527D075
:104B94000025284603B0BDE8F083A3899B05A9D46A
:104BA400A06D00F0FFFCA5E7009D284600F09EFDE7
:104BB4000646002847D0A38943F08003A381D8F890
:104BC4003830002BC6D1404600F054F9C2E74046C5
:104BD40000F050F983E7A360656E15F00105D7D1A5
:104BE400930524D5284603B0BDE8F08340462169E7
:104BF40000F038FAB4F90CC0022F2CF44A6C2CF0F3
:104C0400030CA4F80CC094D100250021012204F166
:104C1400430323602361636E4CF0020CD807A4F8AD
:104C24000CC0A1606261DDD41CF4007FDAD1A06DF8
:104C340000F0BAFC284603B0BDE8F083A560CBE7DA
:104C44004FF0FF35CEE7DDF80090A94504D0484683
:104C540000F04CFD064620B94FF0FF35B4F90CC006
:104C6400D3E74D46A7E700BF2800002020F003014A
:104C740010F00300C0F1000051F8043B00F1040CF3
:104C84004FEACC0C6FF000021CBF22FA0CF2134363
:104C94004FF0010C4CEA0C2C4CEA0C4CA3EB0C022C
:104CA40022EA030212EACC1204BF51F8043B043096
:104CB400F4D0C2F1000102EA0102B2FA82F2C2F1B6
:104CC4001F0200EBD2007047024B13B1024800F000
:104CD40005B87047000000009D4F000800230146FE
:104CE4001A46184601F04CBBB1F90C20F8B50C4635
:104CF4001107074643D4636842F40062002BA28183
:104D04005BDDA56A002D56D000233E683B6093B25C
:104D140012F4805255D101233846E169A847421C58
:104D240065D0A389A56A5B0705D56368C01A236BA0
:104D34000BB1E36BC01A0246E16900233846A84769
:104D4400411C40D13B68002B3DD01D2B01D0162BBC
:104D540054D10022A38923F40063A3812369C4E905
:104D64000032216B3E6031B304F14003994202D01A
:104D7400384600F077F9002318462363F8BD266906
:104D8400CEB193B29A0718BF0023256808BF6369A0
:104D94002660AD1BA3600CE02B463246D4F824C039
:104DA4003846E169E047B0F1000CA5EB0C05664418
:104DB40016DD002DF0DC0020F8BDE36B002BA0DC39
:104DC400F9E7206DAFE70022B4F90C30626023F4F8
:104DD40000632269A381DB042260C2D52065C0E799
:104DE400A3894FF0FF3043F04003A381F8BD3B6833
:104DF400002B96D01D2B06D0162B04D0A38943F08C
:104E04004003A381F8BD00203E60F8BD38B50546D7
:104E14000C4608B1836BA3B1B4F90C00B8B1636E4E
:104E2400DB0701D4810515D528462146FFF75CFF31
:104E3400636E0546DA0702D4A3899B050ED528467E
:104E440038BD00F017F8B4F90C000028E7D1054686
:104E5400284638BDA06D00F0A5FBE5E7A06D00F085
:104E6400A3FB284638BD00BF014900F073BB00BF57
:104E7400356400082DE9F0478246394800F092FB7A
:104E8400DAF83840002C66D1042303223549DAF8D5
:104E94000450CAF83C10DFF8D090DFF8D080344FCB
:104EA400344E0AF53B71CAE9B921CAF8E0422146F9
:104EB400EB600822C5E90044C5E904446C66AC60B3
:104EC400AC6105F15C00FFF751FDC5E90759C5E97F
:104ED4000987EE6205F1580000F060FBDAF808502B
:104EE400254B2146EB600822C5E90044C5E904448A
:104EF4006C66AC60AC6105F15C00FFF737FDC5E999
:104F04000759C5E90987EE6205F1580000F046FB30
:104F1400DAF80C50194B2146EB600822C5E900442D
:104F2400C5E904446C66AC60AC6105F15C00FFF754
:104F34001DFD05F15800C5E90759C5E90A76C5F80C
:104F4400248000F02BFB01230548CAF83830BDE863
:104F5400F04700F029BB0248BDE8F04700F024BB4D
:104F6400D40B00206D4E0008F96100081D62000892
:104F74005D6200087D620008090001001200020061
:104F8400014800F00FBB00BFD00B0020014800F027
:104F94000BBB00BFD00B002038B5084B084D5B1B82
:104FA4009C1007D0043B1D44013C55F80439984734
:104FB400002CF9D1BDE8384001F0F8BA4467000884
:104FC40040670008F8B50C46234F064600F006FF7C
:104FD400BB685D68C4F57E6325F003050F332B447D
:104FE40023F47F6323F00F03A3F58054B4F5805FAB
:104FF40007DB0021304601F0EBF8BB682B449842F4
:1050040004D0304600F0F0FE0020F8BD3046614286
:1050140001F0DEF801300DD0104ABB682D1B45F0BD
:1050240001055D60136830461B1B136000F0DCFE55
:105034000120F8BD0021304601F0CAF8BA68831A8D
:105044000F2BDEDD43F001035360054B03491B685E
:10505400C01A0860D5E700BF5C040020D80B00200C
:105064006408002000295ED0F8B50C46064600F01E
:10507400B5FE54F8042C784FA4F1080522F0010180
:105084006818D7F808C04368844523F0030300F088
:105094008780D207436034D454F8082C07F10804FD
:1050A400AD1A1144AA68A24268D000EB030CDCF8E4
:1050B40004E0D5F80CC01EF0010FC2F80CC0CCF807
:1050C400082000F0918041F001036B600160B1F5AC
:1050D400007F31D24A09CB08012191407A6801331B
:1050E4001143796007EBC30257F83310083AC5E956
:1050F400021247F83350CD603046BDE8F84000F066
:1051040073BEC2185268D2070ED4194407F10804BA
:105114008368A34270D0C268DA60936041F00103EF
:105124006B606950D3E7704741F00103B1F5007F2C
:1051340044F8043C0160CDD3B1F5206F4FEA51230C
:1051440047D28B0903F1390003F13802C300F81880
:10515400FB580838984258D05A6822F003028A4211
:1051640002D99B689842F7D1D868C5E902308560B6
:105174003046DD60BDE8F84000F036BEC218526823
:10518400D20763D40B44D0E90212CA60916043F0A1
:1051940001026A603046EB50BDE8F84000F024BEDE
:1051A4000B44D10707D454F8082CAD1A1344D5E99D
:1051B4000212CA60916043F001026A60274ABD602E
:1051C40012689A4298D8264B30461968FFF7FAFEBF
:1051D40092E7142B0AD9542B1FD80B0B03F16F0041
:1051E40003F16E02C300B2E7194491E703F15C00D6
:1051F40003F15B02C300AAE741F00103C7E90455C8
:10520400C5E902446B60695076E70121921001FA06
:1052140002F279680A437A60A7E7B3F5AA7F06D851
:10522400CB0B03F1780003F17702C3008FE740F260
:105234005452934206D88B0C03F17D0003F17C0297
:10524400C30084E74FF47E737E2280E741F00103BC
:105254006B60016050E700BF5C0400206808002018
:10526400080C00209368002B00F0B7802DE9F04F64
:10527400B1F90C300C4619078046174683B098B232
:1052840025D523691BB310F002033D682DD04FF0E0
:10529400000B5E46DFF8B8A2002E00F08B80564566
:1052A40033465A4628BF53464046E169D4F824C0E1
:1052B400E047002840F38780BB6883441B1A361AF2
:1052C400BB60002BE8D1002003B0BDE8F08F21467D
:1052D400404600F0EBFF002840F03681B4F90C3072
:1052E4003D6898B210F00203D1D110F0010976D1D3
:1052F4004E46002E5AD08205D4F808B040F1B5804D
:10530400B3455A4600F2CD8010F4906F00F0CB8084
:1053140023682169A3EB010B636903EB430A0AEBDE
:10532400DA7A0BF101034FEA6A0A334453455246D1
:1053340084BF9A465246430540F1EA8011464046EE
:1053440000F0DCF9002800F0F9805A462169019048
:10535400FAF766FFA289019B22F4906242F0800270
:10536400A28103EB0B0023613246AAEB0B03B34685
:10537400C4F814A0A3602060B246002649460192F6
:1053840000F0B0FCA3682168019AA3EB0B030A4464
:10539400A3602260B868D144A0EB0A00B86000287A
:1053A40091D0B4F90C0080B2002EA4D1D5E90096B6
:1053B40008359EE7D5E900B608356DE72146404635
:1053C400FFF724FD80B3B4F90C304FF0FF3043F005
:1053D4004003A38103B0BDE8F08F002070471E4650
:1053E400AA46994618461D4656B3002832D04A4666
:1053F40020682169B24228BF32468842636904D9D1
:10540400A16803EB010B5A4574DC934265DC2A4620
:105414004046E169D4F824C0E047B0F1000BD2DD86
:10542400B9EB0B09CAD00120BB685D44A3EB0B03A5
:10543400A6EB0B06BB60002B3FF445AF002ED4D186
:105444000AF1080353F8046C9A4653F8085C0833CD
:10545400002EF7D032460A21284600F0FBFB002834
:1054640069D00130A0EB0509C1E72068236998429F
:105474001BD86369B34218D86FF0004CB44528BFF9
:10548400B4469CFBF3FC4A4603FB0CF34046E1693B
:10549400D4F824C0E047B0F1000A94DDA6EB0A0674
:1054A40078E7B3463246206866E7B345DA4628BF54
:1054B400B2464946524600F015FCA3682268A3EBA5
:1054C4000A035244A3602260002BE7D121464046E0
:1054D400FFF79CFC0028E1D075E72946934601922A
:1054E40000F000FCA368019A9B1AA36023681A4485
:1054F400226095E729465A4600F0F4FB23682146CA
:105504005B4440462360FFF781FC002888D05AE7BB
:10551400404600F06FFC034600287FF422AF40466B
:105524002169FFF79FFD0C22B4F90C30C8F8002064
:1055340023F0800349E7721C914659E70C22B4F921
:105544000C30C8F8002040E74FF0FF30BCE600BF45
:1055540000FCFF7F2DE9F8434FF000090746884619
:1055640000F53876D6E90154013D10D4A389013DF4
:10557400012B08D9B4F90E30013304D02146384642
:10558400C04749EA00096B1C04F16804EED136688F
:10559400002EE7D14846BDE8F88300BF704700BF3E
:1055A400704700BF704700BF704700BF2DE9F0414E
:1055B4008B890C46990796B008D5012204F1430360
:1055C400C4E90432236016B0BDE8F081B4F90E10CA
:1055D4000646002927DB6A4600F090FF002821DBFD
:1055E400019D4FF4806805F47045A5F50055B5FAA2
:1055F40085F54FF400676D094146304600F07EF8AA
:10560400B4F90C30F0B1204A43F08003F263C4F8DB
:105614001480A3812060206135BB3B43A38116B075
:10562400BDE8F081A38913F0800519D04FF040083C
:1056340030464146002500F061F82F46B4F90C309D
:105644000028E0D19A05BED4012123F0030304F11C
:10565400430243F00203C4E90421A3812260B2E7B8
:105664004FF480682F46C7E73046B4F90E1000F0B7
:1056740059FF10B9B4F90C30CFE7A38923F0030321
:1056840043F001031BB2C8E76D4E000870B50C4629
:10569400B1F90E10154600291E4696B014DB6A4671
:1056A40000F02CFF00280FDB019A4FF4806302F412
:1056B4007042A2F50052B2FA82F24FF4006052092D
:1056C40032602B6016B070BD0023B4F90C10336047
:1056D40011F0800004D0402218462A6016B070BD34
:1056E4004FF480632B6016B070BD00BF024B0146BF
:1056F400186800F003B800BF280000202DE9F04F1F
:1057040001F10B05162D064683B025D8102900F2A9
:10571400B88000F063FB102518224FF0020CB54F3F
:105724003A445368A2F108018B4200F0B7805A68EA
:10573400D96822F003021A449C683046E1608C6008
:10574400516803F1080441F00101516000F04CFB81
:10575400204603B0BDE8F08F35F0070500F19180D5
:10576400A94200F28E8000F039FBB5F5FC7FC0F051
:1057740094816B0A00F08C80042B00F26A81AB09DF
:1057840003F1390C03F138044FEACC00994F384443
:1057940043680838984206D10CE0002980F226813B
:1057A400DB68984206D05A6822F00302511B0F2985
:1057B400F3DDA4463C69DFF840E274457AD06268C0
:1057C40022F00302531B0F2B00F37681002BC7E951
:1057D40004EE80F26781B2F5007F80F01981012127
:1057E400D30852090B4491407A6857F833000A43AE
:1057F40007EBC3010839A060E1607A6047F83340E1
:10580400C46001214FEAAC039940914259D8114236
:1058140006D12CF0030C490011420CF1040CFAD00F
:1058240007EBCC0948466446D0F80C80404508D1C3
:105834001CE1002B80F22181D8F80C80404500F057
:105844001581D8F8042022F00302531B0F2BF0DD3E
:1058540008EB050145F00105C8F804503046D8E9C5
:105864000264F460A66043F00104C7E904114C60CB
:10587400C1E902EE48F8023000F0B6FA08F1080473
:1058840002E00C2300243360204603B0BDE8F08F0F
:105894004FF400704FF0400C3F2477E7D3689A42EE
:1058A40008BF0CF1020C7FF442AF3C69DFF848E119
:1058B400744584D101217A684FEAAC03994091423E
:1058C400A5D9BC68636823F003094D4503D8A9EB47
:1058D40005030F2B7ADCDFF824B1494BDBF80020F9
:1058E4001B6801322B4404EB090A00F02F8103F5F5
:1058F40080530F3323F47F6828F00F084146304665
:1059040000F066FC411C024600F0EF80824500F284
:10591400EA803C4B196841440846196000F049810B
:10592400DBF80010019301311BBFA2EB0A0A5044BB
:10593400CBF80020186012F0070B00F01181CBF1B6
:1059440008010A44CBF5805190440831A1EB0801C9
:10595400C1F30B0A51463046009200F039FC421C58
:10596400DDE9002300F04B81801A00EB0A08196876
:1059740048F001005144BC42BA601960506000F024
:105984002481B9F10F0F40F222814FF0050E6068B7
:10599400A9F10C0C2CF0070C00F0010040EA0C00FB
:1059A4006060BCF10F0F04EB0C00C0E901EE00F2E3
:1059B4002E8114465068144B1A688A4238BF196005
:1059C400124B1A688A4238BF196090E0621943F09A
:1059D400010345F0010565603046BA600834536040
:1059E40000F002FA204603B0BDE8F08FD9681A44EB
:1059F400A2E600BF5C0400206404002064080020C8
:105A0400080C0020D80B0020000C0020040C0020FF
:105A1400B2F5206F4FEA52235FD3142B00F2B1800A
:105A240003F15C01C9005B3378187958083888425F
:105A340000F08F804B6823F00303934202D98968F6
:105A44008842F7D1C8687A68C4E902108460CC60DF
:105A5400D7E6142B59D9542B00F29B802B0B03F15E
:105A64006F0C03F16E044FEACC008FE60134A307F8
:105A740000F108007FF4D8AE53E044464244536832
:105A8400D8F80C1043F00103536054F8083F304633
:105A9400D9608B6000F0A8F9F6E64FEAD50C05F161
:105AA40008023CE622445368304643F00103536045
:105AB40000F09AF90834E7E6611945F001056560DC
:105AC40043F00105C7E904113046C1E902EE4D6017
