:020000040800F2
:1000000000000120D13E0008E1120008E3120008C0
:10001000E5120008E7120008E912000800000000DD
:10002000000000000000000000000000EB120008CB
:10003000ED12000800000000EF120008F1120008A5
:10004000193F0008193F0008193F0008193F000830
:10005000193F0008193F0008193F0008193F000820
:10006000193F0008193F0008193F0008193F000810
:10007000193F0008193F0008193F0008193F000800
:10008000193F0008193F0008193F0008193F0008F0
:10009000193F0008193F0008193F0008193F0008E0
:1000A000193F0008193F0008193F0008193F0008D0
:1000B000193F0008193F0008193F0008193F0008C0
:1000C000193F0008193F0008193F0008193F0008B0
:1000D000193F0008F9120008193F0008193F0008ED
:1000E000193F0008193F0008193F0008193F000890
:1000F000193F0008193F0008193F0008193F000880
:10010000193F000809130008193F0008193F0008AB
:10011000193F0008193F0008193F0008193F00085F
:10012000193F0008193F0008193F0008193F00084F
:1001300000000000000000000000000000000000BF
:1001400000000000000000000000000000000000AF
:10015000000000000000000000000000000000009F
:10016000000000000000000000000000000000008F
:10017000000000000000000000000000000000007F
:10018000000000000000000000000000000000006F
:10019000000000000000000000000000000000005F
:1001A000000000000000000000000000000000004F
:1001B000000000000000000000000000000000003F
:1001C000000000000000000000000000000000002F
:1001D000000000000000000000000000000000001F
:0401E0005FF8E0F1F3
:1001E80010B5054C237833B9044B13B10448AFF369
:1001F80000800123237010BDD809002000000000F2
:1002080030A2000808B5034B1BB103490348AFF3FC
:10021800008008BD00000000DC09002030A20008B2
:10022800844641EA000313F0030349D1403A23D33B
:100238000B6803604B6843608B688360CB68C3605E
:100248000B6903614B6943618B698361CB69C36146
:100258000B6A03624B6A43628B6A8362CB6AC3622E
:100268000B6B03634B6B43638B6B8363CB6BC36316
:1002780040304031403ADBD230320BD30B68036058
:100288004B6843608B688360CB68C3601030103163
:10029800103AF3D20C3205D351F8043B40F8043B32
:1002A800043AF9D2043208D0D2071CBF11F8013B36
:1002B80000F8013B01D30B8803806046704700BFFC
:1002C800082A13D38B07B1D010F00303AED0C3F1C3
:1002D8000403D21ADB071CBF11F8013B00F8013BED
:1002E800A4D331F8023B20F8023B9FE7043AD9D364
:1002F800013A11F8013B00F8013BF9D20B78037081
:100308004B7843708B7883706046704781F000416A
:1003180002E000BF83F0004330B54FEA41044FEAE2
:10032800430594EA050F08BF90EA020F1FBF54EA7D
:10033800000C55EA020C7FEA645C7FEA655C00F019
:10034800E2804FEA5454D4EB5555B8BF6D420CDDEA
:100358002C4480EA020281EA030382EA000083EA6D
:10036800010180EA020281EA0303362D88BF30BD0D
:1003780011F0004F4FEA01314FF4801C4CEA113163
:1003880002D0404261EB410113F0004F4FEA0333C2
:100398004CEA133302D0524263EB430394EA050F4D
:1003A80000F0A780A4F10104D5F1200E0DDB02FABC
:1003B8000EFC22FA05F2801841F1000103FA0EF250
:1003C800801843FA05F359410EE0A5F120050EF116
:1003D800200E012A03FA0EFC28BF4CF0020C43FA47
:1003E80005F3C01851EBE37101F0004507D54FF054
:1003F800000EDCF1000C7EEB00006EEB0101B1F5A4
:10040800801F1BD3B1F5001F0CD349085FEA3000E9
:100418004FEA3C0C04F101044FEA445212F5800FF4
:1004280080F09A80BCF1004F08BF5FEA500C50F191
:10043800000041EB045141EA050130BD5FEA4C0C74
:10044800404141EB0101013C28BFB1F5801FE9D2D1
:1004580091F0000F04BF01460020B1FA81F308BFF4
:100468002033A3F10B03B3F120020CDA0C3208DDC0
:1004780002F1140CC2F10C0201FA0CF021FA02F19B
:100488000CE002F11402D8BFC2F1200C01FA02F10B
:1004980020FA0CFCDCBF41EA0C019040E41AA2BF30
:1004A80001EB0451294330BD6FEA04041F3C1CDAF8
:1004B8000C340EDC04F11404C4F1200220FA04F018
:1004C80001FA02F340EA030021FA04F345EA0301C2
:1004D80030BDC4F10C04C4F1200220FA02F001FA84
:1004E80004F340EA0300294630BD21FA04F0294606
:1004F80030BD94F0000F83F4801306BF81F480119F
:100508000134013D4EE77FEA645C18BF7FEA655C11
:1005180029D094EA050F08BF90EA020F05D054EAE3
:10052800000C04BF1946104630BD91EA030F1EBFE8
:100538000021002030BD5FEA545C05D140004941EC
:1005480028BF41F0004130BD14F580043CBF01F5DF
:10055800801130BD01F0004545F0FE4141F47001C5
:100568004FF0000030BD7FEA645C1ABF19461046A0
:100578007FEA655C1CBF0B46024650EA013406BFA1
:1005880052EA033591EA030F41F4002130BD00BF60
:1005980090F0000F04BF0021704730B54FF480641D
:1005A80004F132044FF000054FF0000150E700BF9E
:1005B80090F0000F04BF0021704730B54FF48064FD
:1005C80004F1320410F0004548BF40424FF00001EA
:1005D8003EE700BF42004FEAE2014FEA31014FEA2D
:1005E80002701FBF12F07F4393F07F4F81F060517C
:1005F800704732F07F4208BF704793F07F4F04BFC7
:1006080041F40021704730B54FF4607401F00045A3
:1006180021F000411CE700BF50EA010208BF704703
:1006280030B54FF000050AE050EA010208BF7047F4
:1006380030B511F0004502D5404261EB41014FF45D
:10064800806404F132045FEA915C3FF4D8AE4FF065
:1006580003025FEADC0C18BF03325FEADC0C18BF48
:10066800033202EBDC02C2F1200300FA03FC20FA99
:1006780002F001FA03FE40EA0E0021FA02F11444E6
:10068800BDE600BF70B54FF0FF0C4CF4E06C1CEAFF
:1006980011541DBF1CEA135594EA0C0F95EA0C0F70
:1006A80000F0DEF82C4481EA030621EA4C5123EAE3
:1006B8004C5350EA013518BF52EA033541F4801112
:1006C80043F4801338D0A0FB02CE4FF00005E1FBC5
:1006D80002E506F00042E0FB03E54FF00006E1FB0F
:1006E80003569CF0000F18BF4EF0010EA4F1FF0452
:1006F800B6F5007F64F5407404D25FEA4E0E6D4192
:1007080046EB060642EAC62141EA55514FEAC520A2
:1007180040EA5E504FEACE2EB4F1FD0C88BFBCF51E
:10072800E06F1ED8BEF1004F08BF5FEA500E50F1CF
:10073800000041EB045170BD06F0004646EA010195
:1007480040EA020081EA0301B4EB5C04C2BFD4EBC7
:100758000C0541EA045170BD41F480114FF0000EC0
:10076800013C00F3AB8014F1360FDEBF002001F02E
:10077800004170BDC4F10004203C35DA0C341BDCA8
:1007880004F11404C4F1200500FA05F320FA04F07A
:1007980001FA05F240EA020001F0004221F00041AE
:1007A80010EBD37021FA04F642EB06015EEA430E21
:1007B80008BF20EAD37070BDC4F10C04C4F1200551
:1007C80000FA04F320FA05F001FA04F240EA020004
:1007D80001F0004110EBD37041F100015EEA430ED5
:1007E80008BF20EAD37070BDC4F1200500FA05F2F5
:1007F8004EEA020E20FA04F301FA05F243EA020374
:1008080021FA04F001F0004121FA04F220EA020082
:1008180000EBD3705EEA430E08BF20EAD37070BDC8
:1008280094F0000F0FD101F00046400041EB0101A8
:1008380011F4801F08BF013CF7D041EA060195F08A
:10084800000F18BF704703F00046520043EB030344
:1008580013F4801F08BF013DF7D043EA0603704731
:1008680094EA0C0F0CEA135518BF95EA0C0F0CD03C
:1008780050EA410618BF52EA4306D1D181EA030182
:1008880001F000414FF0000070BD50EA410606BF7C
:100898001046194652EA430619D094EA0C0F02D1C1
:1008A80050EA013613D195EA0C0F05D152EA033606
:1008B8001CBF104619460AD181EA030101F0004124
:1008C80041F0FE4141F470014FF0000070BD41F06D
:1008D800FE4141F4780170BD70B54FF0FF0C4CF447
:1008E800E06C1CEA11541DBF1CEA135594EA0C0F66
:1008F80095EA0C0F00F0A7F8A4EB050481EA030EB3
:1009080052EA03354FEA013100F088804FEA033399
:100918004FF0805545EA131343EA12634FEA022267
:1009280045EA111545EA10654FEA00260EF0004128
:100938009D4208BF964244F1FD0404F5407402D27A
:100948005B084FEA3202B61A65EB03055B084FEA0B
:1009580032024FF480104FF4002CB6EB020E75EB08
:10096800030E22BFB61A754640EA0C005B084FEA30
:100978003202B6EB020E75EB030E22BFB61A7546AD
:1009880040EA5C005B084FEA3202B6EB020E75EBF8
:10099800030E22BFB61A754640EA9C005B084FEA70
:1009A8003202B6EB020E75EB030E22BFB61A75467D
:1009B80040EADC0055EA060E18D04FEA051545EA6C
:1009C80016754FEA06164FEAC30343EA52734FEA15
:1009D800C2025FEA1C1CC0D111F4801F0BD141EA8E
:1009E80000014FF000004FF0004CB6E711F4801FF3
:1009F80004BF01430020B4F1FD0C88BFBCF5E06FD3
:100A08003FF6AFAEB5EB030C04BFB6EB020C5FEAE2
:100A1800500C50F1000041EB045170BD0EF0004E37
:100A28004EEA113114EB5C04C2BFD4EB0C0541EA69
:100A3800045170BD41F480114FF0000E013C90E666
:100A480045EA060E8DE60CEA135594EA0C0F08BF2A
:100A580095EA0C0F3FF43BAF94EA0C0F0AD150EA29
:100A680001347FF434AF95EA0C0F7FF425AF1046BC
:100A780019462CE795EA0C0F06D152EA03353FF4E4
:100A8800FDAE1046194622E750EA410618BF52EA61
:100A980043067FF4C5AE50EA41047FF40DAF52EA35
:100AA80043057FF4EBAE12E74FF0FF3C06E000BFD2
:100AB8004FF0010C02E000BF4FF0010C4DF804CDDF
:100AC8004FEA410C7FEA6C5C4FEA430C18BF7FEA9F
:100AD8006C5C1BD001B050EA410C0CBF52EA430CCD
:100AE80091EA030F02BF90EA020F0020704710F14D
:100AF800000F91EA030F58BF994208BF90422CBFDC
:100B0800D8176FEAE37040F0010070474FEA410CD4
:100B18007FEA6C5C02D150EA013C07D14FEA430CF2
:100B28007FEA6C5CD6D152EA033CD3D05DF8040B63
:100B3800704700BF8446104662468C461946634695
:100B480000E000BF01B5FFF7B7FF002848BF10F16C
:100B5800000F01BD4DF808EDFFF7F4FF0CBF0120B1
:100B680000205DF808FB00BF4DF808EDFFF7EAFF2D
:100B780034BF012000205DF808FB00BF4DF808EDE8
:100B8800FFF7E0FF94BF012000205DF808FB00BFDD
:100B98004DF808EDFFF7CEFF94BF012000205DF867
:100BA80008FB00BF4DF808EDFFF7C4FF34BF012074
:100BB80000205DF808FB00BF4FEA410C7FEA6C5C3F
:100BC80002D150EA013C0AD14FEA430C7FEA6C5C3F
:100BD80002D152EA033C02D14FF0000070474FF0B7
:100BE800010070474FEA410212F5001215D211D5E3
:100BF8006FF47873B3EB625212D94FEAC12343F012
:100C0800004343EA505311F0004F23FA02F018BF93
:100C1800404270474FF00000704750EA013005D15C
:100C280011F0004008BF6FF0004070474FF000001F
:100C3800704700BF53B94AB9002908BF00281CBF34
:100C48004FF0FF314FF0FF3000F076B9ADF1080CEE
:100C58006DE904CE00F006F8DDF804E0DDE90223D2
:100C680004B070472DE9F047089E0D4604468846B3
:100C7800002B4DD18A42944668D9B2FA82F252B119
:100C880001FA02F3C2F1200120FA01F10CFA02FC88
:100C980041EA030894404FEA1C41B8FBF1F71FFAF8
:100CA8008CFE01FB178807FB0EF0230C43EA084370
:100CB80098420AD91CEB030307F1FF3580F01E8127
:100CC800984240F21B81023F63441B1AB3FBF1F0C8
:100CD80001FB103300FB0EFEA4B244EA0344A64510
:100CE8000AD91CEB040400F1FF3380F00981A64502
:100CF80040F20681644402380021A4EB0E0440EA65
:100D080007401EB10023D440C6E90043BDE8F08780
:100D18008B4208D9002E00F0EE800021C6E90005BC
:100D28000846BDE8F087B3FA83F100294AD1AB42FF
:100D380002D3824200F2FC80841A65EB030301208F
:100D48009846002EE2D0C6E90048DFE702B9FFDE88
:100D5800B2FA82F2002A40F09180A1EB0C00012146
:100D68004FEA1C471FFA8CFEB0FBF7F307FB130092
:100D7800250C45EA00450EFB03F0A84208D91CEBF8
:100D8800050503F1FF3802D2A84200F2CE8043469F
:100D98002D1AB5FBF7F007FB10550EFB00FEA4B2A9
:100DA80044EA0544A64508D91CEB040400F1FF35C4
:100DB80002D2A64500F2B6802846A4EB0E0440EA0B
:100DC80003409EE7C1F120078B4022FA07FC4CEA5A
:100DD800030C25FA07FA4FEA1C49BAFBF9F820FA7E
:100DE80007F309FB18AA8D401FFA8CFE1D4300FA71
:100DF80001F308FB0EF02C0C44EA0A44A04202FA64
:100E080001F20BD91CEB040408F1FF3A80F088804A
:100E1800A04240F28580A8F102086444241AB4FB79
:100E2800F9F009FB104400FB0EFEADB245EA04449C
:100E3800A64508D91CEB040400F1FF356CD2A64581
:100E48006AD90238644440EA0840A0FB0295A4EB42
:100E58000E04AC42C846AE4656D353D0002E69D0D5
:100E6800B3EB080264EB0E0422FA01F304FA07F765
:100E78001F43CC40C6E90074002147E70CFA02FC86
:100E8800C2F1200125FA01F34FEA1C4720FA01F1CB
:100E980095400D43B3FBF7F107FB11331FFA8CFEA6
:100EA800280C40EA034001FB0EF3834204FA02F4E3
:100EB80008D91CEB000001F1FF382FD283422DD94D
:100EC80002396044C01AB0FBF7F307FB1300ADB258
:100ED80045EA004503FB0EF0A84208D91CEB0505BE
:100EE80003F1FF3816D2A84214D9023B6544281AE8
:100EF80043EA014138E73146304607E72F46E4E642
:100F08001846F9E64B45A9D2B9EB020865EB0C0E79
:100F18000138A3E74346EAE7284694E74146D1E784
:100F2800D0467BE76444023847E7023B65442FE735
:100F3800084606E73146E9E6704700BF08B5054BA5
:100F48001860054B1868002302221946806803F0D0
:100F5800C7F808BDF409002028000020022801D89D
:100F68000120704708B502F0D5FF0923036000206F
:100F780008BD000010B5013801280AD814464FF002
:100F8800FF3392B20748006802F06DF840B9204676
:100F980010BD02F0BFFF092303604FF0FF30F7E7F1
:100FA8000520F5E7F4090020022801D80020704741
:100FB80008B502F0AFFF092303604FF0FF3008BD0A
:100FC80008B502F0A7FF092303604FF0FF3008BD02
:100FD80008B548B94FF0FF3301220848006802F00D
:100FE800AEF840B9012008BD02F094FF0923036060
:100FF8004FF0FF30F7E70520F5E700BFF4090020C0
:1010080008B5022804D84FF400534B60002008BDEF
:1010180002F080FF09230360F8E7000030B589B0CB
:10102800002404940594069407941C4B9A6942F092
:1010380010029A619A6902F010020092009A9A6965
:1010480042F004029A619A6902F004020192019A3C
:101058009A6942F020029A619A6902F0200202928B
:10106800029A9A6942F008029A619B6903F00803A0
:101078000393039B0A4D22462021284600F096FC44
:10108800202304930123059306940223079304A9BC
:10109800284600F06BFB09B030BD00BF00100240CD
:1010A800000C014072B6FEE700B591B0282200217D
:1010B80006A802F059FF00230193029303930493B7
:1010C8000593012206924FF4803307930A92022275
:1010D8000D920E934FF4E0130F9306A800F08CFCCA
:1010E80080B90F23019302210291002303934FF447
:1010F80080620492059301A800F0BEFE20B911B0E9
:101108005DF804FBFFF7CEFFFFF7CCFF10B5ADF598
:10111800027D00F0B1F9FFF7C7FFFFF77FFF00F08E
:1011280027F900F057F802F085FD2248FFF706FF7F
:1011380001222021204800F039FC4FF4FA6000F029
:10114800BFF91E4801F0CCFC98B91D4802F0C0FF59
:101158004FF40072002102A802F006FF0A23009350
:101168000123002202A9154801F0E6F828B100245D
:101178000DE0144802F0ACFFEAE7134802F046FF1E
:10118800F5E702AB195D114802F040FF0134B4F5F0
:10119800007FF6DB2021084800F00EFC00F08AF9F9
:1011A80001460B4802F032FF4FF47A7000F088F9DC
:1011B800F0E700BF800A0020000C0140F809002079
:1011C80048A200085CA2000870A200088CA20008CF
:1011D80090A20008054B064A1A6000225A609A60DD
:1011E800DA601A615A6106229A617047F80900208C
:1011F8000080014030B589B000230493059306931D
:10120800079302681E4B9A4201D009B030BD03F51E
:1012180010435A6942F480625A615A6902F4806242
:101228000192019A9A6942F010029A619A6902F051
:1012380010020292029A9A6942F020029A619B690E
:1012480003F020030393039B4FF4F8530493022500
:1012580005950324079404A90A4800F087FA042393
:1012680004930595079404A9074800F07FFA2A46D5
:101278002146312000F04AF9312000F07FF9C4E717
:1012880000800140001001400014014000B583B007
:101298000F4B9A6942F001029A619A6902F00102C1
:1012A8000092009ADA6942F08052DA61DB6903F051
:1012B80080530193019B052000F016F9054A5368F5
:1012C80023F0E06343F00073536003B05DF804FB60
:1012D8000010024000000140FEE7FEE7FEE7FEE7DF
:1012E800FEE770477047704708B500F0D7F808BDAB
:1012F80008B5024802F018F808BD00BF800A0020AF
:1013080008B5024801F0D0FC08BD00BFF80900206C
:101318000120704708B502F0FDFD162303604FF069
:10132800FF3008BD08B54FF0FF31FFF7F3FFFEE7C8
:1013380008B503460B4A126842B10A4A10680344CA
:101348006A46934206D8074A136008BD054A06490B
:101358001160F2E702F0DEFD0C2303604FF0FF306E
:10136800F3E700BF7C0A0020300B00207047000024
:1013780008B50A480A4B03604FF4E1334360002381
:101388008360C36003610C2242618361C36101F021
:101398003BFE00B908BDFFF785FEFBE7800A002089
:1013A8000038014030B587B00023029303930493BB
:1013B800059302681B4B9A4201D007B030BD03F574
:1013C80058439A6942F480429A619A6902F48042C9
:1013D8000092009A9A6942F004029A619B6903F0AC
:1013E80004030193019B4FF40073029302230393B8
:1013F800032405940C4D02A9284600F0B7F94FF4D0
:101408008063029300230393049302A9284600F003
:10141800ADF922462146252000F078F8252000F075
:10142800ADF8CAE7003801400008014010B504468D
:101438000E4B18784FF47A73B3FBF0F30C4A10682C
:10144800B0FBF3F000F0A8F868B90F2C01D901201F
:101458000AE0002221464FF0FF3000F057F8054B14
:101468001C60002000E0012010BD00BF0400002027
:10147800000000200800002008B5074A136843F060
:1014880010031360032000F02FF80020FFF7CEFFB1
:10149800FFF7FCFE002008BD00200240034A116847
:1014A800034B1B780B441360704700BFC40A00202D
:1014B80004000020014B1868704700BFC40A0020D0
:1014C80038B50446FFF7F6FF0546B4F1FF3F02D0F2
:1014D800044B1B781C44FFF7EDFF401BA042FAD3D6
:1014E80038BD00BF04000020074AD36823F4E06336
:1014F8001B041B0C000200F4E060034343F0BF63CD
:1015080043F40033D360704700ED00E000B5194B99
:10151800DB68C3F30223C3F1070CBCF1040F28BF37
:101528004FF0040C03F1040EBEF1060F18D9033B6B
:101538004FF0FF3E0EFA0CFC21EA0C0199400EFA1E
:1015480003F322EA0303194300280BDB0901C9B29C
:1015580000F1604000F5614080F800135DF804FB7D
:101568000023E5E700F00F000901C9B2024B195446
:10157800F4E700BF00ED00E014ED00E0002807DB11
:1015880000F01F02400901239340024A42F820302C
:10159800704700BF00E100E00138B0F1807F0BD256
:1015A8004FF0E0235861054AF02182F8231000200B
:1015B800986107221A6170470120704700ED00E02A
:1015C80090F82130022B06D004238363002380F88F
:1015D8002030012070470268136823F00E0313605F
:1015E8000268136823F001031360036CC16B0122C6
:1015F80002FA03F34B6080F82120002380F82030A2
:101608001846704708B590F82130022B03D0042300
:101618008363012008BD0268136823F00E0313607A
:101628000268136823F00103136003684B4A93426E
:101638004ED9783A934224D01432934230D014329F
:1016480093422FD0143293422FD0143293422FD08A
:10165800143293422FD0143293422FD002F5627283
:1016680093422ED0143293422DD0143293422CD070
:101678001432934202D04FF4803203E04FF4805288
:1016880000E00122364B5A60012380F82130002304
:1016980080F82030436B002B5ED098470020B9E7D4
:1016A8001022EFE74FF48072ECE74FF48052E9E73D
:1016B8004FF48032E6E74FF48012E3E74FF0807290
:1016C800E0E70122DEE71022DCE74FF48072D9E779
:1016D800244A934224D01432934225D014329342A0
:1016E80024D01432934224D01432934224D014329A
:1016F800934224D01432934224D002F5627293426A
:1017080023D01432934222D01432934221D014327F
:10171800934202D04FF4803203E04FF4805200E04D
:101728000122114B5A60AFE71022FAE74FF480729A
:10173800F7E74FF48052F4E74FF48032F1E74FF4C3
:101748008012EEE74FF08072EBE70122E9E7102202
:10175800E7E74FF48072E4E700205BE7800002408F
:1017680000040240080002400000024070B582B048
:101778000024A446B0E0874DAA4210D007D9864D70
:10178800AA420CD005F58035AA4208D013E0A5F589
:101798008015AA4203D005F57025AA4207D18A68A8
:1017A800002A62D0012A5BD04361082403E0A5F532
:1017B8008015AA42F3D0BEF1FF0F58D80646BEF1F5
:1017C800FF0F56D84FEA8C0233680F25954023EA5D
:1017D800050304FA02F2134333604B6813F0805F89
:1017E80078D06E4B9A6942F001029A619B6903F0C6
:1017F80001030193019B4FEA9C02951C684B53F827
:1018080025600CF003039D000F23AB4026EA030676
:10181800644B984233D003F58063984200F0988077
:1018280003F58063984200F0958003F58063984241
:1018380000F0928003F58063984200F08F8003F5F2
:101848008063984219D006231AE0CC68B3E7CC68C5
:101858000434B0E7CC680834ADE7CC680C34AAE7A8
:1018680003610824A7E70024A5E70424A3E7061DCD
:10187800A5E7ACF108029200A6E7052300E00023E3
:10188800AB4033430232464D45F822304B6813F4DF
:10189800803F65D0444A136843EA0E0313604B68DF
:1018A80013F4003F62D0404A536843EA0E03536082
:1018B8004B6813F4801F5FD03B4A936843EA0E03DA
:1018C80093604B6813F4001F5CD0374AD36843EA2F
:1018D8000E03D3600CF1010C0A6832FA0CF357D0EE
:1018E800012303FA0CF302EA030E33EA0202F1D1F0
:1018F8004A68122A3FF63FAF122A3FF65CAF01A5AD
:1019080055F822F0A7170008531800085D180008BA
:101918006F180008BF170008BF170008BF17000896
:10192800BF170008BF170008BF170008BF17000837
:10193800BF170008BF170008BF170008BF17000827
:10194800BF170008BF1700085718000863180008D9
:10195800012395E7022393E7032391E704238FE705
:10196800114A136823EA0E03136098E70E4A536876
:1019780023EA0E0353609BE70B4A936823EA0E039E
:1019880093609EE7084AD36823EA0E03D360A1E771
:1019980002B070BD0000221000003110001002409B
:1019A8000000014000080140000401400AB1016143
:1019B8007047090401617047C36801EA030221EA1C
:1019C800030141EA024101617047000082B0084BFF
:1019D8001B68084AA2FB03235B0A00FB03F301937D
:1019E80000BF019B5A1E0192002BF9D102B070472B
:1019F80000000020D34D6210002800F0F18170B57E
:101A080082B00446036813F0010F2CD0994B5B6831
:101A180003F00C03042B1DD0964B5B6803F00C03FA
:101A2800082B12D06368B3F5803F41D0002B55D105
:101A380003F1804303F504331A6822F480321A60F4
:101A48001A6822F480221A6037E08A4B5B6813F424
:101A5800803FE7D0874B1B6813F4003F03D06368CF
:101A6800002B00F0BF81236813F0020F75D0814B63
:101A78005B6813F00C0F5FD07E4B5B6803F00C03C0
:101A8800082B54D02369002B00F08A807A4B01225E
:101A98001A60FFF70FFD0546764B1B6813F0020F1F
:101AA80075D1FFF707FD401B0228F5D903209EE1F9
:101AB800704A136843F480331360636843B3FFF7D5
:101AC800F9FC05466B4B1B6813F4003FCBD1FFF7BD
:101AD800F1FC401B6428F5D9032088E1B3F5A02F59
:101AE80009D0644B1A6822F480321A601A6822F40A
:101AF80080221A60E1E703F18043A3F53C331A68BA
:101B080042F480221A601A6842F480321A60D4E7DC
:101B1800FFF7D0FC0546574B1B6813F4003FA2D0D3
:101B2800FFF7C8FC401B6428F5D903205FE1514B3F
:101B38005B6813F4803FA5D14E4B1B6813F0020F6E
:101B480003D02369012B40F04F814A4A136823F0E0
:101B5800F803616943EAC1031360236813F0080FAF
:101B680033D0A369002B5CD0434B0122C3F88024F7
:101B7800FFF7A0FC05463F4B5B6A13F0020F21D12B
:101B8800FFF798FC401B0228F5D903202FE1394ABA
:101B9800136823F0F803616943EAC1031360DCE7C3
:101BA800354B00221A60FFF785FC0546314B1B6850
:101BB80013F0020FD1D0FFF77DFC401B0228F5D9A6
:101BC800032014E10120FFF701FF236813F0040F3D
:101BD80000F09680274BDB6913F0805F34D1254BEA
:101BE800DA6942F08052DA61DB6903F080530193CD
:101BF800019B0125214B1B6813F4807F26D0E368E5
:101C0800012B3DD0002B53D103F1804303F504335E
:101C18001A6A22F001021A621A6A22F004021A628F
:101C280033E0154B0022C3F88024FFF743FC054638
:101C3800104B5B6A13F0020FC7D0FFF73BFC401B49
:101C48000228F5D90320D2E00025D3E70B4A136810
:101C580043F480731360FFF72DFC0646074B1B689F
:101C680013F4807FCBD1FFF725FC801B6428F5D9BE
:101C78000320BCE000100240000042420070004017
:101C88005F4A136A43F001031362E36833B3FFF753
:101C980011FC06465A4B1B6A13F0020F2FD1FFF7AF
:101CA80009FC801B41F288339842F3D903209EE057
:101CB800052B09D0524B1A6A22F001021A621A6ADD
:101CC80022F004021A62E0E74D4B1A6A42F004025D
:101CD8001A621A6A42F001021A62D6E7FFF7EAFBB3
:101CE8000646474B1B6A13F0020F08D0FFF7E2FBCA
:101CF800801B41F288339842F3D9032077E0E5B995
:101D0800E369002B72D03E4A526802F00C02082A9E
:101D180056D0022B17D03B4B00221A66FFF7CAFB9E
:101D28000446374B1B6813F0007F47D0FFF7C2FB10
:101D3800001B0228F5D9032059E0314AD36923F062
:101D48008053D361DCE72F4B00221A66FFF7B2FB02
:101D580005462B4B1B6813F0007F06D0FFF7AAFB44
:101D6800401B0228F5D9032041E0236AB3F5803FE0
:101D78001AD023494B6823F47413226A606A024319
:101D880013434B601F4B01221A66FFF793FB04466F
:101D98001B4B1B6813F0007F0ED1FFF78BFB001B5A
:101DA8000228F5D9032022E0154A536823F40033AA
:101DB800A1680B435360DCE7002018E0002016E020
:101DC800012B16D00E4B5B6803F48031226A9142D6
:101DD80011D103F47013626A93420ED1002006E019
:101DE80001207047012002E0012000E0002002B03D
:101DF80070BD0120FBE70120F9E70120F7E700BFEC
:101E0800001002400000424286B0174B0FCB0DF184
:101E1800180C0CE90F0040F20123ADF80430134B05
:101E28005B6803F00C02082A02D0114806B070471C
:101E3800C3F3834218326A4412F8100C13F4803F3B
:101E48000DD00A4B5B68C3F3404318336B4413F857
:101E5800143C074A02FB00F0B0FBF3F0E6E7054B41
:101E680003FB00F0E2E700BFB8A200080010024040
:101E780000127A0000093D00002800F0A08070B52B
:101E88000D460446524B1B6803F007038B420BD2E6
:101E98004F4A136823F007030B431360136803F0DA
:101EA80007038B4240F08D80236813F0020F17D090
:101EB80013F0040F04D0474A536843F4E0635360B7
:101EC800236813F0080F04D0424A536843F4605360
:101ED8005360404A536823F0F003A1680B435360F2
:101EE800236813F0010F31D06368012B20D0022B37
:101EF80025D0384A126812F0020F64D035494A6872
:101F080022F0030213434B60FFF7D4FA0646314B25
:101F18005B6803F00C036268B3EB820F16D0FFF71F
:101F2800C9FA801B41F288339842F0D9032045E072
:101F3800284A126812F4003FE0D101203EE0254A09
:101F4800126812F0007FD9D1012037E0204B1B68BE
:101F580003F00703AB420AD91D4A136823F00703AD
:101F68002B431360136803F00703AB422DD123689A
:101F780013F0040F06D0174A536823F4E063E168AE
:101F88000B435360236813F0080F07D0114A5368B6
:101F980023F46053216943EAC1035360FFF734FF18
:101FA8000C4B5B68C3F303130B4AD35CD8400B4B51
:101FB80018600B4B1868FFF739FA002070BD012034
:101FC80070470120FAE70120F8E70120F6E700BF93
:101FD8000020024000100240A0A2000800000020DB
:101FE80008000020014B1868704700BF000000205F
:101FF80008B5FFF7F7FF044B5B68C3F30223034AF6
:10200800D35CD84008BD00BF00100240B0A2000851
:1020180008B5FFF7E7FF044B5B68C3F3C223034A25
:10202800D35CD84008BD00BF00100240B0A2000831
:1020380070B582B0044600230193006801F014FDD6
:10204800054610B1284602B070BD206801F01FFD9A
:1020580038B90123A364A36C012B0BD02E46284664
:1020680014E00023A364206801F0FEFC0028F2D0ED
:102078000546E7E70021206801F020FD0028EDD0A3
:102088004FF08055DEE7019B01330193019A4FF62B
:10209800FE739A4213D896B90021206801F00EFD0C
:1020A800E0B91249206801F021FD0646C0B90021B7
:1020B800206801F01FFBC30FE5D01E46E3E7019A35
:1020C8004FF6FE739A420ED810F0804302D00123D7
:1020D8006364B7E7002262641D46B3E70546B1E7CB
:1020E8004FF08055AEE74FF08075ABE7000010C1A8
:1020F800F8B5846AC66AA6B9F8BD386801F0D1FA9D
:102108002070C0F307236370C0F30743A370000E69
:10211800E0700434043E0135072DEED9BC62FE623E
:10212800EAE707460025F7E7F0B583B0046A466A90
:10213800DEB903B0F0BD23780193627843EA022345
:102148000193A27843EA02430193E27843EA0263E7
:1021580001930434043E01A9386801F0A5FA013559
:10216800072DE8D93C627E62E3E707460025F7E7DA
:10217800F0B589B004460F46FFF79CF906460023E0
:10218800009301930821206801F0C4FB054610B1B3
:10219800284609B0F0BD216D0904206801F08EFCC5
:1021A80005460028F4D14FF0FF3302930823039328
:1021B80030230493022305930023069301230793F6
:1021C80002A9206801F094FB206801F0C0FC0546D4
:1021D80058B1DDE701F065FA4DF825000135FFF744
:1021E80069F9831BB3F1FF3F3FD02068436B13F0BD
:1021F8002A0F07D1436B13F4001FEBD1436B13F481
:10220800005FECD1436B13F0080F25D1436B13F03B
:10221800020F24D1456B15F0200523D140F23A5323
:102228008363019A130203F47F0343EA0263110AEA
:1022380001F47F410B4343EA12633B60009A1302A7
:1022480003F47F0343EA0263110A01F47F410B435D
:1022580043EA12637B609BE70825856398E70225BC
:10226800856395E72025856392E74FF000458FE762
:1022780010B582B00446002100910191006801F078
:1022880039FA10F0007F13D169462046FFF770FF36
:1022980080B9019B13F4802F0ED0216D09042068AA
:1022A80001F00CFC30B90221206801F038FC01E093
:1022B8004FF4006002B010BD4FF08060FAE710B52F
:1022C80082B00446002100910191006801F012FAE1
:1022D80010F0007F13D169462046FFF749FF80B907
:1022E800019B13F4803F0ED0216D0904206801F092
:1022F800E5FB30B90021206801F011FC01E04FF442
:10230800006002B010BD4FF08060FAE770B581B18F
:1023180004460E46016D0904006801F072FC05468A
:1023280008B1284670BD0021206801F0E3F930604B
:10233800F7E74FF00065F4E72DE9F04F87B0054661
:102348000C4616469B46DDF840A0FFF7B3F8002C74
:1023580036D0814695F83470FFB2012F40F00581E0
:102368000023AB6306EB0B03EA6D93422ED80323DD
:1023780085F834302B680022DA626B6C012B00D0B0
:1023880076024FF0FF3300934FEA4B2301939023DB
:1023980002930223039300230493012305936946C0
:1023A800286801F0A5FABBF1010F14D902232B63A9
:1023B8003146286801F0DEFAA0B9DDF8048038E07B
:1023C800AB6B43F00063AB630127D3E0AB6B43F027
:1023D8000073AB63CEE001232B633146286801F01C
:1023E800B1FAE9E72B68654A9A63AB6B1843A863AF
:1023F800012385F8343000232B63BBE0286801F003
:1024080050F92070C0F307236370C0F30743A3702B
:10241800000EE0700434A8F104080136072EEDD947
:10242800FFF748F8A0EB0900504510D2BAF1000FA9
:102438000DD02868466B40F22A331E4015D1436BF5
:1024480013F4004FECD0B8F1000FE9D0E6E72B68A1
:102458004A4A9A63AB6B43F00043AB63012385F8A8
:10246800343000232B63032784E0436B13F4807F0D
:1024780005D0BBF1010F02D96B6C032B38D12B6847
:102488005A6B12F0080F44D15A6B12F0020F4CD15C
:102498005A6B12F0200F54D12868436B13F4001FB5
:1024A8005BD0B8F1000F58D001F0FBF82070C0F3F2
:1024B80007236370C0F30743A370000EE070043471
:1024C800A8F10408FEF7F6FFA0EB0900504502D278
:1024D800BAF1000FE0D12B68284A9A63AB6B43F03E
:1024E8000043AB63012385F8343000232B6341E0BC
:1024F80001F088FA03460028C1D02A681F49916371
:10250800AA6B1343AB63012385F8343000232B6394
:1025180030E01A4A9A63AB6B43F00803AB630123BC
:1025280085F8343000232B6324E0144A9A63AB6B9C
:1025380043F00203AB63012385F8343000232B6397
:1025480018E00E4A9A63AB6B43F02003AB63012398
:1025580085F8343000232B630CE040F23A53836350
:10256800012385F83430002704E0AB6B43F00053B7
:10257800AB630127384607B0BDE8F08FFF05400080
:102588002DE9F04F8BB005460C4616469B46DDF804
:1025980050A0FEF78FFF002C37D0804695F8347096
:1025A800FFB2012F40F0E2800023AB6306EB0B0380
:1025B800EA6D93422FD8032385F834302B68002224
:1025C800DA626B6C012B00D076024FF0FF33049374
:1025D8004FEA4B2305939023069300230793089310
:1025E8000123099304A9286801F082F9BBF1010FBE
:1025F80016D920232B633146286801F0EBF90190A6
:10260800019BABB9DDF8149040E0AB6B43F000637D
:10261800AB630127AFE0AB6B43F00073AB63AAE099
:1026280010232B633146286801F0BCF90190E7E7D5
:102638002B68534A9A63A86B019B1843A86301232C
:1026480085F8343000232B6395E023780393627870
:1026580043EA02230393A27843EA02430393E2780E
:1026680043EA026303930434A9F1040903A928681F
:1026780001F01AF80136072EE7D9FEF71BFFA0EB89
:102688000800504510D2BAF1000F0DD02868466BEB
:1026980040F21A331E4015D1436B13F4804FECD02F
:1026A800B9F1000FE9D0E6E72B68354A9A63A86BC1
:1026B800019B1843A863012385F8343000232B635A
:1026C800032758E0436B13F4807F05D0BBF1010F5B
:1026D80002D96B6C032B18D12B685A6B12F0080FB8
:1026E80024D15A6B12F0020F2CD15A6B12F0100F32
:1026F80034D0234A9A63AB6B43F01003AB630123D6
:1027080085F8343000232B6335E001F07BF903466C
:102718000028E1D02A681A499163AA6B1343AB6376
:10272800012385F8343000232B6324E0144A9A638C
:10273800AB6B43F00803AB63012385F83430002307
:102748002B6318E00E4A9A63AB6B43F00203AB634A
:10275800012385F8343000232B630CE040F23A5211
:102768009A63012385F83430002704E0AB6B43F00B
:102778000053AB63012738460BB0BDE8F08F00BFAC
:10278800FF05400070470000436E9B0F0B70436EBF
:10279800C3F383634B7090F8673003F003038B70C7
:1027A80090F86630CB7090F865300B7190F8643013
:1027B8004B71836E1B0DCB80B0F86A3003F00F03AA
:1027C8000B72836EC3F3C0334B72836EC3F38033D3
:1027D8008B72836EC3F34033CB72836EC3F30033C3
:1027E8000B7300234B73436C002B40F08680826E82
:1027F80040F6FC7303EA8203C26E43EA92730B61EC
:10280800C36EC3F3C2630B7590F86F3003F0070310
:102818004B75C36EC3F342538B75C36EC3F38243C8
:10282800CB75C36EC3F3C2330B760B6901334365B3
:102838000A7E02F007020232934043650A7A02F0E8
:102848000F0C012202FA0CF28265520A02FB03F312
:10285800C3654FF400730366C36EC3F380334B76CE
:10286800C36EC3F3C6138B76C36E03F07F03CB76B8
:10287800036FDB0F0B77036FC3F341734B77036F62
:10288800C3F382638B77036FC3F38353CB77036FF1
:10289800C3F3405381F82030002381F82130B0F889
:1028A800722002F0010281F82220026FC2F3C032C6
:1028B80081F82320026FC2F3803281F82420026F4E
:1028C800C2F3403281F82520026FC2F3003281F84A
:1028D8002620026FC2F3812281F82720026FC2F3FB
:1028E800012281F82820026FC2F3460281F82920CC
:1028F800012281F82A2018467047012B11D1836ED6
:102908001B0403F47C13B0F86E2013430B610B69AE
:1029180001339B024365C3654FF400738365036607
:102928009AE70368054A9A63836B43F0805383638D
:10293800012380F834301846704700BFFF05400077
:1029480070B590B004460123ADF81230006800F06D
:10295800B8FE00286CD0636C032B45D1636C032B45
:102968005DD1636C032B1DD0BDF8121021650904DD
:10297800206801F019F9054600285BD1002120687C
:1029880000F0B8FE60660421206800F0B3FEA0667F
:102998000821206800F0AEFEE0660C21206800F0F7
:1029A800A9FE20670421206800F0A4FE000DE06461
:1029B80005A92046FFF7E8FE00283ED1226D120443
:1029C8000023206801F038F8054698BB234653F8E1
:1029D800106B93E807008DE80700043494E80E00B4
:1029E800304600F045FE25E0206801F0C8F80546AD
:1029F80000BB0021206800F07DFE6067042120688C
:102A080000F078FEA0670821206800F073FEE067F8
:102A18000C21206800F06EFEC4F880009EE70DF1DE
:102A28001201206801F0D5F80546002899D001E088
:102A38004FF08065284610B070BD4FF08055F9E71B
:102A480070B58AB004460023049305930693079350
:102A58000893762309930AAB13E907008DE807006A
:102A680004AB0ECB206800F003FE18B10125284600
:102A78000AB070BD0546184E0023C6F8A03020687D
:102A880000F017FE0123C6F8A0302046FFF7D0FA61
:102A980030B1012584F83450A36B0343A363E6E700
:102AA8002046FFF74DFF30B1012584F83450A36B61
:102AB8000343A363DBE74FF40071206800F02AFFAB
:102AC8000028D4D0236805499963A36B0343A36303
:102AD800012584F83450CAE700003042FF05400061
:102AE800A8B110B5044690F8343063B1032384F8D4
:102AF80034302046FFF7A4FF58B9A06320630123B0
:102B080084F8343010BD0377FEF774FBEEE701203C
:102B180070470120F6E7436C0B60836C4B60C36C15
:102B28008B60036DCB60436D0B61836D4B61C36D2F
:102B38008B61036ECB6100207047000030B58BB00D
:102B480004460D46032380F83430436C032B1CD015
:102B5800B1F5805F08D0B1F5006F0AD079B1836B09
:102B680043F00063836314E0836B43F08053836313
:102B78000FE0FFF77DFBA36B0343A36309E0FFF7B7
:102B88009EFBA36B0343A36303E0836B43F0805373
:102B98008363A36BC3B12368174A9A63012584F83A
:102BA80034504FF40071206800F0B4FE30B123684F
:102BB80011499963A36B0343A3630125012384F897
:102BC800343028460BB030BD63680493A36805937E
:102BD800E3680693079563690893A36909930AABA9
:102BE80013E907008DE8070004AB0ECB206800F05E
:102BF8003FFD0025D5E700BFFF05400010B582B0B6
:102C080004460023019301A9FFF780FB10B1A36BD1
:102C18000343A3630198C0F3432002B010BD10B56D
:102C2800446A236840F23A529A632046FFF7E6FF67
:102C3800012384F83430002323630538012805D99B
:102C4800A36B53B9204601F042F810BD206800F08C
:102C5800D9FEA36B0343A363F2E72046FFF792FD77
:102C6800F3E710B5446A236840F23A529A63204663
:102C7800FFF7C4FF012384F83430002323630538A9
:102C8800012805D9A36B53B9204601F020F810BDDF
:102C9800206800F0B7FEA36B0343A363F2E7204666
:102CA800FFF770FDF3E7000038B50446056B0368CD
:102CB8005A6B12F4004F02D015F0080F28D15A6B46
:102CC80012F4807F5AD04FF480729A632268D36BD3
:102CD80023F4414323F03A03D3632268D36A23F0F1
:102CE8000103D36215F0080F26D015F0220F12D178
:102CF800236840F23A529A63012384F8343000235F
:102D0800236315F0030F13D0204600F0EAFF01E01B
:102D1800FFF7EEF938BD206800F074FE034600287E
:102D2800E6D0A26B1343A3632046FFF72BFDDFE732
:102D3800204600F0D1FFEDE715F0800FEAD015F03E
:102D4800200F0ED115F0030FE4D12268D36A23F0C7
:102D58000803D362012384F83430204600F0BCFF16
:102D6800D8E7206800F04EFE03460028EAD0A26BA0
:102D78001343A3632046FFF705FDE3E75A6B12F4FC
:102D8800804F02D015F0080F4CD15A6B12F03A0F51
:102D9800C0D05A6B12F0020F03D0A26B42F00202AD
:102DA800A2635A6B12F0080F03D0A26B42F008021C
:102DB800A2635A6B12F0200F03D0A26B42F02002DC
:102DC800A2635A6B12F0100F03D0A26B42F01002EC
:102DD800A26340F23A729A632268D36B23F44E736B
:102DE80023F00203D363206800F00CFEA36B0343B7
:102DF800A36315F0080F19D115F0800F8AD015F0CC
:102E0800300F1CD115F0030F26D0236C174A5A63D4
:102E1800206CFEF7F7FB00283FF47CAF206CFFF72F
:102E280020FF77E72046FFF77FF973E7012384F84F
:102E38003430002323632046FFF7A4FC6AE7E36BE2
:102E48000B4A5A63E06BFEF7DDFB00283FF462AFE4
:102E5800E06BFFF7E4FE5DE70023A363012284F83B
:102E680034202363204600F032FF53E76B2C000820
:102E7800272C00080268D36823F49073D360026893
:102E8800536923F001035361036B012B05D0202301
:102E980080F83E300023036370470268D36823F04C
:102EA8001003D360F3E790F83D30DBB2212B01D05B
:102EB800022070478368B3F5805F17D0036A5A1CF5
:102EC80002621A7803685A60C38C9BB2013B9BB2BA
:102ED800C3844BB90268D36823F08003D3600268C7
:102EE800D36843F04003D360002070470369002B88
:102EF800E4D1036A1B880268C3F308035360036ABA
:102F080002330362E0E7000010B504460268136963
:102F180023F44053C1680B43136183680269134368
:102F280042691A430168CB6823F4B05323F00C03B9
:102F38001343CB600268536923F4407381690B43E0
:102F480053610268134B9A4220D0FFF751F80246AA
:102F580002EB820202EB820263689B00B2FBF3F28F
:102F68000D48A0FB02314909642303FB11231B010F
:102F78003233A0FB03235B0903F0F00202EB0112DA
:102F880003F00F03216813448B6010BDFFF740F86E
:102F98000246DDE7003801401F85EB512DE9F84373
:102FA80005460F4616469946DDF820802C682468A9
:102FB80037EA04030CBF4FF0010C4FF0000CB44586
:102FC8001FD1B8F1FF3FF1D0B8F1000F05D0FEF7DF
:102FD80071FAA0EB09004045E8D92A68D36823F4C0
:102FE800D073D3602A68536923F001035361202307
:102FF80085F83D3085F83E30002385F83C300320C5
:1030080000E00020BDE8F88358B310B5044690F8F6
:103018003D300BB3242384F83D302268D36823F471
:103028000053D3602046FFF76FFF2268136923F42B
:10303800904313612268536923F02A03536122687D
:10304800D36843F40053D36000202064202384F81D
:103058003D3084F83E3010BD80F83C30FEF7A2F9D0
:10306800D8E7012070472DE9F04182B01E4690F85C
:103078003D30DBB2202B54D104460D469046002942
:1030880053D0002A53D090F83C30012B51D0012363
:1030980080F83C3000230364212380F83D30FEF79C
:1030A80009FA0746A4F82480A4F82680A368B3F593
:1030B800805F05D04FF00008002384F83C3012E010
:1030C800236913B14FF00008F6E7A8460025F3E797
:1030D80038F8023B2268C3F308035360E28C92B2CB
:1030E800013A92B2E284E38C9BB273B100963B46FC
:1030F800002280212046FFF751FFE0B9002DE7D0DC
:1031080015F8012B23685A60E8E700963B46002231
:1031180040212046FFF742FF78B9202384F83D304C
:1031280000E0022002B0BDE8F0810120FAE70120AA
:10313800F8E70220F6E70320F4E70320F2E72DE999
:10314800F04182B01E4690F83E30DBB2202B5CD1B5
:1031580004460D46904600295BD0002A5BD090F8C3
:103168003C30012B59D0012380F83C300023036404
:10317800222280F83E200363FEF79CF90746A4F854
:103188002C80A4F82E80A368B3F5805F05D04FF09B
:103198000008002384F83C3017E0236913B14FF08E
:1031A8000008F6E7A8460025F3E723685B68C3F341
:1031B800080328F8023B03E023685B682B7001359D
:1031C800E28D92B2013A92B2E285E38D9BB2BBB135
:1031D80000963B46002220212046FFF7DFFEF0B98B
:1031E800002DE2D0A368B3F5805FE5D013B9236959
:1031F800002BE1D023685B6803F07F032B70DEE7C8
:10320800202384F83E30002000E0022002B0BDE810
:10321800F0810120FAE70120F8E70220F6E7032011
:10322800F4E7704708B50168CA6822F04002CA602E
:10323800202280F83D20FFF7F4FF002008BD7047EA
:10324800704708B5406A0023C385C384FFF7F8FFB9
:1032580008BD704790F83E30DBB2222B60D18368FE
:10326800B3F5805F46D0826AB3F5805F04D0002B47
:103278004DD10369002B4AD103685B681370836AD8
:1032880001338362C38D9BB2013B9BB2C385002B84
:1032980048D100B583B00268D36823F02003D36017
:1032A8000268D36823F48073D3600268536923F0FB
:1032B80001035361202380F83E30036B012B2CD18E
:1032C800002303630268D36823F01003D360036804
:1032D8001A6812F0100F06D0002201921A680192A3
:1032E8005B680193019B818DFFF7B3FF002003B05A
:1032F8005DF804FB0269002AB5D1826A03685B683D
:10330800C3F308031380836A02338362BAE703684E
:103318005B6803F07F031370B1E7FFF790FFE5E701
:10332800022070470020704730B583B00446026819
:103338001368D068516913F00F0505D113F0200FF9
:1033480002D010F0200F19D12DB111F0010119D1BF
:1033580010F4907F16D1216B012975D013F0800FDE
:1033680003D010F0800F40F0D78013F0400F03D047
:1033780010F0400F40F0D48003B030BD2046FFF776
:1033880069FFF9E713F0010F06D010F4807F03D02E
:10339800226C42F00102226413F0040F04D019B128
:1033A800226C42F00202226413F0020F04D019B119
:1033B800226C42F00402226413F0080F07D010F0C8
:1033C800200F00D119B1226C42F008022264226C4D
:1033D800002AD1D013F0200F02D010F0200F21D1F5
:1033E80023685B6903F04003226C12F0080F00D1D8
:1033F80023B32046FFF73EFD23685A6912F0400FB9
:1034080018D05A6922F040025A61A36B73B1464A38
:103418005A63A06BFEF7F6F80028ADD0A06B436B9B
:103428009847A9E72046FFF715FFD9E72046FFF799
:1034380007FFA1E72046FFF703FF9DE72046FFF7B8
:10344800FFFE0023236497E713F0100F86D010F0D7
:10345800100F83D0002301931368019353680193DD
:10346800019B536913F0400F32D0A16B0B685B6866
:103478009BB2002B80D0A08D98427FF67DAFE3856C
:103488008B69202B08D1A18DE38D9BB2C91A89B213
:103498002046FFF7DEFE6FE7D36823F48073D3601E
:1034A8002268536923F0010353612268536923F0AA
:1034B80040035361202384F83E30002323632268AD
:1034C800D36823F01003D360A06BFEF779F8DAE72E
:1034D800A18DE38D9BB2C91A89B2E38D9BB2002BF3
:1034E8003FF44AAF00293FF447AFD36823F4907301
:1034F800D3602268536923F001035361202384F8C1
:103508003E30002323632268D36823F01003D3607E
:103518002046FFF79EFE2FE72046FFF7C4FC2BE767
:103528002046FFF77FFE27E74B3200080B4B1B684E
:103538000B4AA2FB03235B0A41F2883202FB03F326
:103548001A46013B3AB1426B12F0800FF8D0C523FE
:103558008363002070474FF0004070470000002050
:10356800D34D62100146144B1B68144AA2FB032377
:103578005B0A41F2883202FB03F31A46013BBAB1F7
:103588004A6B12F0450FF8D012F4006FF5D14B6B6F
:1035980013F0040F06D1486B10F0010005D1C523C4
:1035A8008B637047042088637047012088637047E5
:1035B8004FF00040704700BF00000020D34D62105C
:1035C8000146104B1B68104AA2FB03235B0A41F219
:1035D800883202FB03F31A46013B82B14A6B12F0B0
:1035E800450FF8D012F4006FF5D1486B10F00400C5
:1035F80002D1C5238B6370470420886370474FF05E
:103608000040704700000020D34D62100146164B61
:103618001B68164AA2FB03235B0A41F2883202FBAD
:1036280003F31A46013BE2B14A6B12F0450FF8D09A
:1036380012F4006FF5D14B6B13F0040F0BD14B6BE9
:1036480013F001030AD1486B10F040000BD0402260
:103658008A6318467047042088637047012088638E
:1036680070474FF00040704700000020D34D6210B3
:1036780084B00DF1040C8CE80E000B461343039A3A
:103688001343049A1343059A1343069A1343426853
:1036980022F4FD4222F07F0213434360002004B06D
:1036A8007047D0F8800070470B68C0F88030002061
:1036B800704708B5032303600220FDF701FF0020CF
:1036C80008BD006800F0030070470B6883604B6812
:1036D8008A681343CA6813430A691343C26822F409
:1036E8007F6222F00F021343C36000207047006915
:1036F800C0B27047143040587047000038B50446CF
:103708000D46504B1B685049A1FB03135B0A03FB92
:1037180002F21346013A002B5DD0636B13F0450F9C
:10372800F7D013F4006FF4D1636B13F0040F06D1D4
:10373800636B13F0010F05D00120A0634DE0042056
:10374800A0634AE0C523A3632046FFF7D0FFA84241
:1037580001D0012041E000212046FFF7CBFF0346BE
:103768003A481840C8B3002B38DB13F0804F38D1E3
:1037780013F0005F37D113F0805F36D113F0006F7C
:1037880036D113F0806F36D113F0807F36D113F421
:10379800000F36D113F4800F36D113F4001F36D141
:1037A80013F4801F36D113F4802F36D113F4003F61
:1037B80036D113F4803F36D113F4004F36D113F4C9
:1037C800804F36D113F4005F36D113F0080F36D08E
:1037D8004FF4000001E04FF0004038BD4FF000709A
:1037E800FBE74020F9E78020F7E74FF48070F4E723
:1037F8004FF40070F1E74FF48060EEE74FF400609B
:10380800EBE74FF48050E8E74FF40050E5E74FF45A
:103818008040E2E74FF40040DFE74FF40030DCE798
:103828004FF48020D9E74FF40020D6E74FF48010FA
:10383800D3E74FF40010D0E74FF48000CDE74FF402
:103848008030CAE700000020D34D621008E0FFFD79
:10385800F8B505460E461746234B1B68234AA2FBBC
:1038680003235B0A41F2883202FB03F31A46013B49
:103878008AB36C6B14F0450FF8D014F4006FF5D1CF
:103888006B6B13F0040F06D16B6B13F0010F05D0AF
:103898000120A86321E00420A8631EE02846FFF762
:1038A80026FFB04201D0012017E0C523AB630021F9
:1038B8002846FFF71FFF034610F4604008D013F4B2
:1038C800804F0BD113F4004F0BD04FF4805004E01D
:1038D8001B0C3B8001E04FF00040F8BD4FF4005056
:1038E800FBE74FF48030F8E700000020D34D62106A
:1038F8000B6843624B6883628B68CA6813430A6922
:1039080013434A691343C26A22F0F7021343C3629E
:103918000020704730B587B0044601911025029504
:1039280040230393002304934FF48063059301A974
:10393800FFF7CBFE41F2883229462046FFF7DEFE2C
:1039480007B030BD30B587B0044601911125029506
:1039580040230393002304934FF48063059301A944
:10396800FFF7B3FE41F2883229462046FFF7C6FE2C
:1039780007B030BD30B587B00446019112250295D5
:1039880040230393002304934FF48063059301A914
:10399800FFF79BFE41F2883229462046FFF7AEFE2C
:1039A80007B030BD30B587B004460191182502959F
:1039B80040230393002304934FF48063059301A9E4
:1039C800FFF783FE41F2883229462046FFF796FE2C
:1039D80007B030BD30B587B004460191192502956E
:1039E80040230393002304934FF48063059301A9B4
:1039F800FFF76BFE41F2883229462046FFF77EFE2C
:103A080007B030BD30B587B00446002301930C25BC
:103A180002954022039204934FF48063059301A911
:103A2800FFF753FE034A29462046FFF767FE07B013
:103A380030BD00BF00E1F50530B587B004460192FE
:103A48000725029540230393002304934FF48063D2
:103A5800059301A9FFF739FE41F28832294620462D
:103A6800FFF74CFE07B030BD10B586B00446002302
:103A780001930293039304934FF48063059301A980
:103A8800FFF723FE2046FFF751FD06B010BD10B525
:103A980086B004464FF4D57301930823029340235C
:103AA8000393002304934FF48063059301A9FFF760
:103AB8000CFE2046FFF7AAFD06B010BD30B587B052
:103AC800044601913725029540230393002304936C
:103AD8004FF48063059301A9FFF7F7FD41F288329F
:103AE80029462046FFF70AFE07B030BD10B586B05C
:103AF800044641F0004141F48011019129230293C9
:103B080040230393002304934FF48063059301A992
:103B1800FFF7DBFD2046FFF753FD06B010BD30B5BB
:103B280087B004460191062502954023039300239C
:103B380004934FF48063059301A9FFF7C6FD41F292
:103B4800883229462046FFF7D9FD07B030BD30B589
:103B580087B004460023019333250295402203923F
:103B680004934FF48063059301A9FFF7AEFD41F27A
:103B7800883229462046FFF7C1FD07B030BD10B591
:103B880086B004460023019302220292C0220392C7
:103B980004934FF48063059301A9FFF796FD20462F
:103BA800FFF7E0FC06B010BD10B586B004460191E1
:103BB80009230293C0230393002304934FF48063E3
:103BC800059301A9FFF781FD2046FFF7CBFC06B05E
:103BD80010BD70B586B004460D4600230193032638
:103BE80002964022039204934FF48063059301A93F
:103BF800FFF76BFD2A4631462046FFF729FE06B03F
:103C080070BD30B587B0044601910D25029540235B
:103C18000393002304934FF48063059301A9FFF7EE
:103C280054FD41F2883229462046FFF767FD07B068
:103C380030BD000008B50649064800F03FF9064BBC
:103C480018700649064800F039F9064B187008BD87
:103C5800C80A0020CCA20008D00A0020CC0A002004
:103C680010000020D10A002000B583B0009313464D
:103C78000A4601460348FEF75FFB00B1012003B086
:103C88005DF804FBF809002000B583B000931346E3
:103C98000A4601460348FEF773FC00B1012003B051
:103CA8005DF804FBF809002008B50348FEF7A6FFF5
:103CB800043818BF012008BDF809002008B50146DE
:103CC8000148FEF728FF08BDF8090020704708B52D
:103CD800FFF7FCFF08BD704708B5FFF7FCFF08BDFC
:103CE800704708B5FFF7FCFF08BD82B001238DF8C7
:103CF80007309DF8070002B07047000038B5FFF79D
:103D0800F4FF012802D00125284638BD044607489B
:103D1800FEF7E6FE05460028F6D14FF40061034899
:103D2800FEF70CFF0028EFD02546EDE7F809002044
:103D3800024B01221A701878704700BF0C0000204F
:103D4800024B01221A701878704700BF0C0000203F
:103D580000207047002070470120704708B5074BC6
:103D680001221A70FFF7CAFF20B9044A137803F03A
:103D7800FE031370014B187808BD00BF2400002013
:103D880008B5074B01221A70FFF78EFF20B9044AC5
:103D9800137803F0FE031370014B187808BD00BFB9
:103DA8002400002010B5084611461A46094BFFF7B3
:103DB8005BFF10B10123184610BD074CFFF774FFD5
:103DC80003460028F7D0631E0CB11C46F6E7012312
:103DD800F1E700BF00E1F505A086010010B508462F
:103DE80011461A46094BFFF74FFF10B10123184639
:103DF80010BD074CFFF758FF03460028F7D0631E95
:103E08000CB11C46F6E70123F1E700BF00E1F50518
:103E1800A086010030B589B0124B187810F0010463
:103E28001AD1154603291BD8DFE801F002040A104D
:103E38000C4612E06846FFF741FF069B2B600CE03A
:103E48006846FFF73BFF079B2B8006E06846FFF7B5
:103E580035FF079B2B6000E00324204609B030BDE6
:103E68000424FAE724000020134B9B7BDBB2022BCF
:103E78001FD810B40446104B93F80EC05FFA8CFCA0
:103E8800002003F80C0093F80EC003EB8C0CCCF860
:103E980004409C7B1C4422739A7B541CE4B29C73A0
:103EA80030320A703A234B702F238B70C87010BCC5
:103EB80070470120704700BFD40A002008B50022CF
:103EC800FFF7D2FF08BD00000C480D490D4A00233A
:103ED80002E0D458C4500433C4188C42F9D30A4AB7
:103EE8000A4C002301E013600432A242FBD3FDF721
:103EF8003DFA00F015F8FDF709F9704700000020B9
:103F0800D8090020F4A60008D80900202C0B0020AE
:103F1800FEE70000014B1868704700BF280000202A
:103F280070B50D4E0D4D761BB61006D0002455F811
:103F3800043B01349847A642F9D1094E094D06F0D1
:103F480073F9761BB61006D0002455F8043B0134EB
:103F58009847A642F9D170BDE8A60008E8A600086F
:103F6800F0A60008E8A60008830730B548D0541E1C
:103F7800002A3FD00346CAB201E0013C3AD303F815
:103F8800012B9D07F9D1032C2DD9CDB245EA052582
:103F98000F2C45EA054536D9A4F1100222F00F0C82
:103FA80003F1200EE6444FEA121C03F1100242E925
:103FB800045542E9025510327245F8D10CF101025C
:103FC80014F00C0F03EB021204F00F0C13D0ACF139
:103FD800040323F003030433134442F8045B9342BD
:103FE800FBD10CF003042CB1CAB21C4403F8012B1A
:103FF8009C42FBD130BD64461346002CF4D1F9E74E
:1040080003461446BFE71A46A446E0E70FB400B5D6
:10401800074A83B004AB106853F8042B81680193F6
:1040280000F064F903B05DF804EB04B0704700BF1A
:104038002800002030B5054689B008460C4600F037
:1040480027F901210223214A04940692AA6B04ACA1
:104058000590084401940791AC680293039022B339
:10406800636E13F0010FB4F90C309AB201D19805C0
:1040780025D5910406D4626E43F4005322F400520D
:10408800A3816266284601AA214603F051FA636EAD
:10409800002814BF4FF0FF350A25DA0702D4A38998
:1040A8009B0506D5284609B030BD284603F048F8D8
:1040B800D6E7A06D03F0E2FB284609B030BDA06D3D
:1040C80003F0DAFBB4F90C309AB2D2E79CA20008EC
:1040D800024B01461868FFF7ADBF00BF280000205B
:1040E8002DE9F043694C0E46D4F800801746044683
:1040F8001D4683B0B8F1000F03D0D8F83830002B34
:1041080077D0022F05D0012F00F2AC80002DC0F22D
:10411800A980636EDA0752D52146404602F0DCFFDB
:10412800216B41B104F14003994202D0404603F0AB
:10413800FFF8002323630023B4F90CC0A3611CF02B
:10414800800F636064D12CF44A6C2CF0030C022FAE
:10415800A4F80CC06AD001AB214640466A4603F079
:10416800FFFBA3891843A081002D2FD0002E2ED04D
:10417800D8F83830002B38D0009BC4E90465AB422E
:10418800B4F90C3026601CBF43F40063A381012FEF
:1041980004BF43F00103A3819AB213F008032CD0A3
:1041A800D1075DD500216D42A561656EA16015F04E
:1041B800010527D00025284603B0BDE8F083A38970
:1041C8009B05A9D4A06D03F057FBA5E7009D2846E1
:1041D80003F0F6FB0646002847D0A38943F0800386
:1041E800A381D8F83830002BC6D1404602F0A8FF8A
:1041F800C2E7404602F0A4FF83E7A360656E15F0AE
:104208000105D7D1930524D5284603B0BDE8F0832E
:104218004046216903F08CF8B4F90CC0022F2CF445
:104228004A6C2CF0030CA4F80CC094D10025002192
:10423800012204F1430323602361636E4CF0020CF6
:10424800D807A4F80CC0A1606261DDD41CF4007F1B
:10425800DAD1A06D03F012FB284603B0BDE8F08365
:10426800A560CBE74FF0FF35CEE7DDF80090A94514
:1042780004D0484603F0A4FB064620B94FF0FF35AA
:10428800B4F90CC0D3E74D46A7E700BF28000020CB
:1042980020F0030110F00300C0F1000051F8043BC6
:1042A80000F1040C4FEACC0C6FF000021CBF22FA9C
:1042B8000CF213434FF0010C4CEA0C2C4CEA0C4C5A
:1042C800A3EB0C0222EA030212EACC1204BF51F853
:1042D800043B0430F4D0C2F1000102EA0102B2FA50
:1042E80082F2C2F11F0200EBD20070472DE9F04FB5
:1042F800D5B01C46914607910546099003F0B4FADB
:1043080002680E9410461792FFF7C2FF16901DB16F
:10431800AB6B002B00F01D82079A536EDD0740F14E
:104328002D81B2F90C2091B28F0409D4079B42F475
:1043380000529A8191B21A465B6E23F40053536679
:104348000E0740F1C080079B1B69002B00F0BB8063
:1043580001F01A030A2B00F0C48000242BAB22467C
:1043680098464D46CDE92944289312940023002409
:10437800CDE914342B78CDE91922CDE91B22189206
:104388000B92002B00F08F81AA4604E01AF8013F37
:10439800002B00F0BB80252BF8D1BAEB050640F0C6
:1043A800B9809AF80030002B00F07D8100234FF08F
:1043B800FF324FF02B0920241F469AF8016008921B
:1043C8000AF1010A8DF883300A930AF1010AA6F16D
:1043D80020035A2B00F2E180DFE813F00503DF0029
:1043E800DF000003DF00DF00DF00DE02DF00DF00A8
:1043F8006A006E02DF0055027802DF0073025B007C
:104408005B005B005B005B005B005B005B005B00CC
:10441800DF00DF00DF00DF00DF00DF00DF006C010E
:10442800DF00EA01C4016C016C016C01DF00DF00F0
:10443800DF00DF00D002DF00DF002302DF00DF0043
:10444800DF00F801DF009202DF00DF008707DF00EE
:10445800DF00DF00DF00DF00DF00DF00DF006C01CE
:10446800DF00EA01C6016C016C016C01B602C601ED
:10447800BF01DF00C302DF005A022502A402BF0108
:10448800DF00F80172008407DF00DF006507DF0046
:1044980072000022A6F130031AF8016B02EB8202C7
:1044A80003EB4202A6F13003092BF5D90A928EE7F5
:1044B8000E9B53F8042B002A0A920E93C0F2E08157
:1044C8009AF8006081E7079D0998294601F0FCFCED
:1044D800002841F04D83A98901F01A030A2B7FF4C3
:1044E8003CAF079AB2F90E30002BFFF636AF536E89
:1044F800D80702D4890541F1488123464A460799DD
:10450800099855B0BDE8F04F01F09CBCBAEB050620
:1045180000F0C9802A9BC8E9005633442A93299B96
:104528000133072B299305DC08F108080B9B33445A
:104538000B9336E70799099828AA04F057FC80B925
:104548000DF1AC08F2E70799099828AA04F04EFC87
:10455800002800F099800D9B1BB11946099802F0BC
:10456800E7FE079A536ED90740F1E88093895B0606
:1045780001F10A830B9855B0BDE8F08F079BB3F99A
:104588000C20900591B23FF5CFAE1D46986D03F013
:1045980073F9B5F90C2091B2C6E6002E00F08380BD
:1045A800012300228DF8EC6006933BAD8DF8832043
:1045B8000C930D9208920F921392109217F0020327
:1045C80002D006990231069117F0840B07D10A9997
:1045D8000698A1EB0009B9F1000F00F390832A9C1B
:1045E80082B10122C8F80420299A013401320DF160
:1045F8008301072A2A942992C8F8001000F3D88367
:1046080008F108087BB10223C8F80430299B02345A
:10461800013321AA072B2A942993C8F8002000F314
:10462800D58308F10808BBF1800F00F08882089B49
:104638000C9AA3EB020BBBF1000F00F3CB82FB0536
:1046480000F11F820C9BC8F800501C44C8F80430C5
:10465800299B2A940133072B299300F3448308F1FB
:104668000808780705D50A9B069A9D1A002D00F3BD
:10467800B983DDE90A2306998A42ACBF9B185B1807
:104688000B93002C7FF45FAF002329930D9B1BB184
:104698000D99099802F04CFE55460DF1AC082B789F
:1046A800002B7FF471AE2A9B002B41F0108200236F
:1046B800299356E70E9B073323F00702F2E80234EA
:1046C800CDE91434DDE9143424F000449946184641
:1046D8000E9221464FF0FF32AB4BFCF76DFA0028E3
:1046E80040F01885484621464FF0FF32A64BFCF7AC
:1046F80045FA002840F00E85DDE914010022002368
:10470800FCF732FA002840F065879DF883200021E5
:1047180003209E4D9E4B27F080070D910690472E53
:10472800C8BF1D4608910C900F9113911091002A53
:104738003FF444AF069B013306933FE7079B9B89F1
:104748009A053FF514AF079CA06D03F097F8A3896D
:104758000DE7099802F0F4FCDEE59AF8006047F0EE
:10476800200732E647F01007BA060E9B40F16E8428
:10477800073323F007031A465B6852F8084B99463B
:104788000E92002BC0F26F84089B013300F0FB826D
:1047980054EA090327F0800B40F0F682089B002BAF
:1047A80040F0F7825F46002354AD08930C933DE137
:1047B800012000220E9B069053F8041B3BAD8DF898
:1047C80083208DF8EC100E930C90F2E64FF0000960
:1047D8000E9C089B54F8045B8DF88390002D00F024
:1047E800A1855A1C00F0A5861A464946284603F0BA
:1047F8009BFB0D90002801F050810D9B9DF88320B4
:104808005B1B0C9323EAE373CDF820900E94069378
:10481800CDF83490CDF83C90CDF84C90CDF8409040
:1048280085E747F0100717F0200900F0F2830E9B88
:10483800073323F00703D3F8049053F8084B0E937B
:10484800002327F4806B00228DF88320089A511CDE
:1048580000F0D48054EA09012BF0800740F0CD80A5
:10486800002A40F00486002B9DD11BF001030C9315
:1048780000F0308430230DF24F158DF84F31D5E01C
:104888000A9B5B420A939AF8006047F004079CE58C
:10489800BD0600F1FD84FC0600F1EE85780600F106
:1048A800B286B90540F1E8850E9B0B9953F8042BA5
:1048B800554611700E93F2E69AF800608DF88390D1
:1048C80083E59AF8006047F080077EE5524612F8C3
:1048D800016B2A2E01F08D82A6F13003092B924636
:1048E80098BF002201F2E5801AF8016B02EB820200
:1048F80003EB4202A6F13003092BF5D9089266E5CD
:1049080047F0100B1BF0200900F091830E9B073332
:1049180023F007031A4652F8084BD3F804900E9276
:10492800012390E7302278260E9B8DF8842053F8D7
:10493800044B184A0E934FF00009022347F0020B6C
:104948008DF8856018927EE79AF80060682E03BF9C
:104958009AF8016047F400770AF1010A47F0400726
:1049680033E59AF800606C2E03BF9AF8016047F0AF
:1049780020070AF1010A47F0100726E59AF80060B7
:1049880047F0080721E500BFFFFFEF7FE4A200081A
:10499800E8A20008F4A20008099E304602F064FF6D
:1049A800436818461B93FFF773FC034630461C9375
:1049B8001E4602F059FF83681993002E3FF480AD1C
:1049C800199B002B3FF47CAD199B1B78002B3FF4FF
:1049D80077AD9AF8006047F48067F6E49AF80060CB
:1049E80047F00107F1E49DF88330002B7FF468ADB0
:1049F8009AF800608DF88340E7E4BB46012B00F08D
:104A0800C381022B54AD1FD1189A04F00F03D35C55
:104A1800240944EA09744FEA191905F8013D54EAD2
:104A28000903F2D15F4654AB5B1B0C93089A0C99AF
:104A380000238A42B8BF0A460D9306920F939DF849
:104A480083201393109372E604F00703E40844EA02
:104A580049744FEAD909303354EA09012A4605F85E
:104A6800013DF1D11BF0010FDCD0302BDAD030231F
:104A7800023A05F8013C54AB9B1A5F4615460C9365
:104A8800D4E7652E40F3E980DDE914010022002314
:104A9800FCF760F8002800F0E1810123C8F8043031
:104AA800299BC04A01330134072B2A942993C8F85B
:104AB800002000F3BF8408F10808229B129A934251
:104AC80080F2DC82169B179A1C44C8E90023299BB4
:104AD8002A940133072B299300F3178408F1080857
:104AE800129B5D1E002D7FF7BCAD102D41F35D813B
:104AF800DFF8B492224649461026B946299B0F464C
:104B0800DDF824B0079C05E008F10808103D102DD9
:104B180040F39D8401331032072BC8E90076CDE9B4
:104B28002932F1DD2146584628AA04F05FF9002809
:104B38007FF411ADDDE929320DF1AC08E6E70A9BF7
:104B4800069AA3EB020BBBF1000F7FF770ADBBF128
:104B5800100F41F35280DFF8509241462046A84694
:104B68004C461023299A079DDDF8249006E0ABF106
:104B7800100BBBF1100F01F1080119DD01321030E3
:104B8800072AC1E90043CDE92920F0DD2946484636
:104B980028AA04F02BF900287FF4DDACDDE92920F0
:104BA800ABF1100BBBF1100F4FF010032BA9E5DC94
:104BB8004546A1468846044601325C44072ACDE9A9
:104BC8002924C8F80090C8F804B000F3918308F1CC
:104BD80008082CE5BBF1100F40F3E384DFF8C89117
:104BE80041462046A8464C461023299A079DDDF8E1
:104BF800249006E0ABF1100BBBF1100F01F1080196
:104C080019DD01321030072AC1E90043CDE9292016
:104C1800F0DD2946484628AA04F0E8F800287FF481
:104C28009AACDDE92920ABF1100BBBF1100F4FF066
:104C380010032BA9E5DC4546A14688460446013207
:104C48005C44072ACDE92924C8F80090C8F804B0C4
:104C580000F3D28108F10808F1E4129B012B40F31C
:104C680082810123299E01341E44072EC8F8005072
:104C78002A94C8F80430299600F36C8308F10808D0
:104C8800169B0136179A1C44072EC8E90023CDE964
:104C9800296400F36C8308F108080022DDE9140197
:104CA8000023FBF757FF002840F07A81129B01365A
:104CB800013B01351C44072EC8F800502996C8F856
:104CC80004302A9400F35F8108F108081A9B013622
:104CD8001C44C8F80430072E24ABCDE92964C8F871
:104CE80000307FF7BCAC0799099828AA04F07EF831
:104CF80000287FF430AC2A9C0DF1AC08B1E4B9F17E
:104D0800100F40F3C686DDE929214046CDE91D365E
:104D1800B84610244F46079EA946099D04E0103F57
:104D2800102F00F1080016DD0132204B1031072A40
:104D3800C0E90034CDE92921F1DD3146284628AA09
:104D480004F054F800287FF406ACDDE92921103F6F
:104D5800102F2BA8E8DC4D46DDE91D36B94647463D
:104D6800804609EB010401321049072ACDE92924BC
:104D7800C8F80490C8F8001000F340839DF8832019
:104D880008F108082CE4BB460A2C79F1000380F0EE
:104D9800FB82012330345F468DF84F410C930DF2AE
:104DA8004F1543E624A3000838A3000828A30008E9
:104DB8000799099828AA1D9304F018F800287FF489
:104DC800CAAB2A9C1D9B0DF1AC081BE407990998F6
:104DD80028AA04F00BF800287FF4BDAB2A9C0DF13B
:104DE800AC0820E4102D40F3BE861026299B099FAD
:104DF800DDF81C9004E0103D102D08F1080817DDBF
:104E08000133BA4A1034072BC8E90026CDE9293402
:104E1800F1DD4946384628AA03F0E8FF00287FF468
:104E28009AABDDE92934103D102D0DF1AC08E7DC13
:104E38000133AE4A2C44072BCDE92934C8F8045075
:104E4800C8F800207FF715AC0799099828AA03F03D
:104E5800CDFF00287FF47FAB2A9C0AE42299002921
:104E680040F31081DDF84090129B9945A8BF994600
:104E7800B9F1000F0BDD299B4C440133072BC8E91E
:104E880000592A94299300F3818508F10808109E97
:104E9800B9F1000FA8BFA6EB0906002E00F3F582B2
:104EA800DDF840B07905AB4400F1AC84229B129A3E
:104EB800934202DBFA0740F19283169A1799144439
:104EC800C8E90012299A2A940132072A299200F384
:104ED800A88508F10808129AAE18A6EB0B06D51A91
:104EE800AE42A8BF2E46002E0DDD299B3444013367
:104EF800072BC8F800B0C8F804602A94299300F377
:104F0800FC8508F10808002EA8BFAD1B002D7FF70F
:104F1800A8AB102D40F34987DFF8D49122464946C3
:104F28001026B946299B0F46DDF824B0079C05E0FA
:104F380008F10808103D102D40F389820133103222
:104F4800072BC8E90076CDE92932F1DD214658461C
:104F580028AA03F04BFF00287FF4FDAADDE92932D7
:104F68000DF1AC08E6E7FE073FF57BAE0123299E6D
:104F780001341E44072EC8F800502A94C8F804309B
:104F880029967FF7A1AE0799099828AA03F02EFF62
:104F980000287FF4E0AADDE929640DF1AC0895E664
:104FA800129B5D1E002D7FF791AE102D40F31987DF
:104FB800224608974FF0100BDFF83491099C079FA1
:104FC80005E008F10808103D102D40F3C7820136AE
:104FD8001032072EC8E9009BCDE92962F1DD394678
:104FE800204628AA03F002FF00287FF4B4AADDE9CE
:104FF80029620DF1AC08E6E70799099828AA03F099
:10500800F5FE00287FF4A7AA2A9C0DF1AC08FFF74B
:1050180016BB17F0100377D117F0400200F0AC82EE
:105028000E9A994652F8044B0E92A4B208E41BF06B
:1050380010030E9A54D11BF040014DD052F8044B86
:1050480099460E920123A4B2FFF7FDBB53F8044B17
:105058000E93FB0653D47D064ED544F3C0394B4618
:1050680024B2FFF78EBB2D2364428DF88330BB46F4
:105078004FF0010369EB4909FFF7E8BBF8077FF533
:10508800F0AA1FE50123C8F80430299B194A013307
:105098000134072B2A942993C8F8002000F3688468
:1050A80008F10808002940F02582129A07F0010348
:1050B80013433FF4D6AA169B1799E218C8E90013C0
:1050C800299B2A920133072B299300F3508308F177
:1050D800080820E254ADA9E41BF4007940F0A0824E
:1050E80052F8044B01230E92FFF7ADBB28A300082A
:1050F80038A3000824A30008B80500F179824FEA14
:10510800E4794B46FFF73DBB0E9B53F8044B0E93D7
:10511800FFF796BBDDE9140102460B46FBF74CFD91
:10512800002840F0F785612E00F06C85412E00F0D4
:105138007F82089B013300F0948526F02003472BDB
:10514800069300F07B85DDE9141247F480730F9312
:105158001346002BC0F2F4850C9300238B461D9355
:105168000D93069B462B00F02B84452B00F01485ED
:1051780008990C9B01910221009126A9049123A969
:10518800039122A95A460998029100F0ADFF069BA7
:105198000546472B40F0448617F0010FB9460F9F8C
:1051A80040F0F784269B5B1B1293069B472B00F06D
:1051B800F182069B462B00F04284229B1093109BA1
:1051C800069A013B412A229300F08A850021F2B217
:1051D800002B8DF89020B6BF2D222B22109B8DF826
:1051E8009120B8BFC3F10103092B40F381850DF16C
:1051F8009F0C6246BA4F1C46104687FB0312D9170C
:10520800C1EBA20101EB8102A3EB42023032632C15
:1052180000F8012C0B4600F1FF32ECDC3033811E24
:10522800DBB28C4502F8013C40F2FF850DF192019A
:1052380001E012F8013B944501F8013BF9D10DF169
:10524800A1030DF192021B1A134424AA9B1A1A9364
:10525800129B1A9A012B1A440C9240F39E850C9BC0
:10526800169A13440C9300230C9A29F4806722EAB7
:10527800E27247F480770F930692139310931D9B65
:10528800002B40F0B0829DF883200893FFF74FBAB7
:105298000E9B0B9853F8041BC2175546C1E9000230
:1052A8000E93FFF7FCB98F4B189317F0200949D0DC
:1052B8000E9B073323F00703D3F8049053F8084BE9
:1052C8000E93F80709D554EA090306D030238DF860
:1052D800856047F002078DF88430022327F4806B3D
:1052E800FFF7B1BABB46FFF70DBB7F4B1893DCE75E
:1052F8000799099828AA03F079FD00287FF42BA9BB
:105308002A9C0DF1AC08FFF792B90799099828AAC9
:1053180003F06CFD00287FF41EA92A9C0DF1AC084F
:10532800FFF7DEBB062B294628BF06232A46089529
:105338000D9506936D4D0E940C930F91139110914A
:10534800FFF7F5B917F0100369D00E9B53F8044B1B
:105358000E93B6E70799099828AA03F047FD002895
:105368007FF4F9A8DDE929640DF1AC0888E4079910
:10537800099828AA03F03AFD00287FF4ECA8DDE993
:1053880029640DF1AC0888E400230BF48062CDE9B0
:105398000CA8069692461E46DDF8648054AF0CE0D1
:1053A8000023204649460A22FBF744FC0A2C79F1DF
:1053B80000031BD3044689462F4620460A220023B1
:1053C8004946FBF737FC30327D1E013607F8012CC1
:1053D800BAF1000FE4D098F800309E42E0D1FF2ED9
:1053E800DED00A2C79F1000380F0E080CDF86480EB
:1053F8001296DDE90CA8069EFFF714BB07990998D9
:1054080028AA1D9303F0F2FC00287FF4A4A89DF8B5
:1054180083202A9C1D9B0DF1AC08FFF7E1B817F01B
:10542800400200F0B4800E9A994652F8044B0E924E
:10543800A4B246E70799099828AA03F0D7FC0028E0
:105448007FF489A82A9C0DF1AC08FFF736BB1446F7
:105458003A464F46914601332C44072BC8F8009032
:10546800C8F80450CDE929347FF7F9A83BE4012BAB
:10547800BB467FF4C6AA8CE40E9B0B9953F8042B09
:10548800554611600E93FFF70AB9102E40F3AD840C
:10549800DFF85C90424648462146A846B9464FF098
:1054A800100B0746299B099C079D04E00832103E13
:1054B800102E40F3488201331031072BC2E9007BDC
:1054C800CDE92931F2DD2946204628AA03F08EFCD1
:1054D80000287FF440A8DDE929312BAAE7E700BFBF
:1054E80067666666F4A2000808A300081CA3000803
:1054F80038A30008169B1798E218C8E90003299BEF
:105508002A920133072B299300F3318108F1080807
:105518000029C0F20283129901338C18072BCDE9B8
:105528002934C8F80050C8F804107FF798A8FFF786
:10553800DABB2846CDF820900E94FEF7A9FE20EAA3
:10554800E073CDE90C099DF88320CDF83C90CDF8A7
:105558004C90CDF840900693FFF7E9B81446089FA1
:1055680001362C44072ECDE92964C8F80090C8F804
:1055780004507FF7A9AB06E517F400790E9B3DD0E0
:1055880053F8044B91460E93E4B2FFF759B917F458
:1055980000790E9B40D053F8044B91460E93E4B229
:1055A8008FE6299ADFF84C92FFF749BB1C9B1B99A1
:1055B800ED1A1A46284603F0A9FB98F801300BB1FA
:1055C80008F10108204649460A2200230026FBF775
:1055D80031FBEFE62D228DF88320FFF798B8129A59
:1055E800AE18A6EB0B06D51AAE42A8BF2E468AE423
:1055F80044F3C0194B4664B2FFF7C3B853F8044BE1
:105608000E93FFF71DB90E9B0B9953F8042B5546C3
:1056180011800E93FFF743B853F8044B0E9350E6EE
:1056280052F8044B894601230E92E4B2FFF70BB9F6
:1056380030238DF8843058238DF88530089B47F047
:105648000204632B00F3E38200233BAD0D9347F480
:1056580081730F93DDE914121346002B2746C0F21D
:1056680040820C9300238B461D9326F0200306935B
:10567800612E00F01783412E7FF473AD22AA58469D
:105688000C9903F0B3FA00224FF07F53FAF7FAFFB0
:1056980002460B46CDE9102300220023FBF75AFAF5
:1056A80008B101232293544B0C93089BCDE912A611
:1056B800CDE91E78DDE91067AB46DDF830A003F1CF
:1056C800FF39109506E00022002309F1FF39FBF7A6
:1056D80041FAE8B90022494B30463946FAF7D2FF79
:1056E8000F460646FBF77EFA0446FAF761FF0B46BB
:1056F800024639463046FAF70DFE1AF80430B9F179
:10570800FF3FD8464D4606460F460BF8013BDAD117
:105718003046394600223A4BA946DDF848A0109D8C
:10572800CDF84880CDE91001DDF87C80139E1E9FDE
:10573800FBF738FA002840F04482DDE91001002226
:105748002F4BFBF707FA10B1E10700F13A824B46FD
:10575800002B06DB302201335B440BF8012B5B4541
:10576800FBD1ABEB0503B94612930F9F1DE50799D3
:10577800099828AA03F03AFB00287EF4ECAEDDE98C
:10578800293222990DF1AC08C2E6906D02F076F844
:10579800FEF7B3BE229BDA1C109302DB089A9342F1
:1057A80004DD023E26F02003069308E5109B129ABA
:1057B8009342C0F2828119F0010F00F0A882169A74
:1057C80013440C9319F4806F00F09082109B6726A5
:1057D800002B00F346810C9B23EAE3730693002316
:1057E8000F9313934BE52D2200238DF88320089304
:1057F800FEF7A0BF38A3000808A300080000304047
:105808000000E03F129B4246DDF84C80EB185E46F4
:105818000893CDF830A010972146199FDDF87090B5
:10582800DDF824A0DDF81CB00F9B1395B8F1000F2C
:105838002ED0002B6CD1013F08F1FF381B9B494447
:10584800C2E90039299B2A910133072B299363DC8C
:105858000832089B38789B1B8342A8BF0346002B5D
:105868001C460ADD2998194401300728C2E900635B
:105878002A9129905BDC38780832002CB4BF0546A1
:10588800051B002D15DC06440F9BB8F1000FD0D185
:10589800002B3DD1DDE91235EB189E42B34619972E
:1058A80090460C4628BF9B46DDF830A0109FFFF7B6
:1058B800FDBA102D40F36F821024299804E0103DA2
:1058C800102D02F1080216DD0130A84B103107280F
:1058D800C2E90034CDE92901F1DD5946504628AA2C
:1058E80003F084FA00287EF436AEDDE92901103D84
:1058F800102D2BAAE8DC01309C4B29440728CDE960
:105908002901556013604EDC387808320644BBE73D
:105918000F9B013B0F9391E75946504628AA03F085
:1059280065FA00287EF417AE2A992BAA91E7594602
:10593800504628AA03F05AFA00287EF40CAE3878AC
:105948002A992BAA99E7454690463A460C464F466F
:10595800914601333444072BCDE92934C8F8009027
:10596800C8F8046000F35D8108F10808FFF798BAE9
:105978000799099828AA03F039FA00287EF4EBADB4
:1059880022992A9C0DF1AC08FFF78CBB079909985E
:1059980028AA03F02BFA00287EF4DDAD2A9C0DF12D
:1059A800AC08FFF774BA5946504628AA03F01EFA05
:1059B80000287EF4D0AD38782A992BAA064463E7EC
:1059C80008990C9B01910321009126A9049123A910
:1059D800039122A95A460998029100F085FB0378A1
:1059E8000546302B00F0C081229B089AB946134423
:1059F8000F9FEC185846002200230C99FBF7AAF8D1
:105A080010B12346FFF7CFBB269BA342BFF4CBAB15
:105A180030215A1C26921970269B9C42F9D8FFF710
:105A2800C2BB0799099828AA03F0E0F900287EF478
:105A380092AD229B2A9C0DF1AC08FFF74CBA229A32
:105A4800002A109240F3B981089909F001030B4329
:105A580040F040816626109B0C9319F4806F3FF448
:105A6800BAAE19990B78FF2B00F0D6810024109A52
:105A7800204604E001300131FF2B00F0648193429D
:105A880080F26181D21A4B78002BF3D10B78013464
:105A9800F2E7DDE92921FFF764B9089B9DF8832027
:105AA8000E9406930C9308900F9013901090FEF7A5
:105AB8003EBE00230893FEF78ABC129B169A9A18DA
:105AC800109B0C92002B40F35D816726C5E7079970
