:100000000C9453000C947B000C947B000C947B00AC
:100010000C947B000C947B000C947B000C947B0074
:100020000C947B000C947B000C947B000C947B0064
:100030000C947B000C947B000C947B000C947B0054
:100040000C94C9020C947B000C94D3010C9405020F
:100050000C947B000C947B000C947B000C947B0034
:100060000C947B000C947B0001020408102040805B
:1000700001020408102001020408102004040404F2
:100080000404040402020202020203030303030342
:1000900000000000250028002B00000000002400C4
:1000A00027002A00350211241FBECFEFD8E0DEBFA3
:1000B000CDBF11E0A0E0B1E0E8E6F7E002C00590B6
:1000C0000D92A833B107D9F721E0A8E3B1E001C050
:1000D0001D92AE3DB207E1F710E0C3E5D0E004C0E9
:1000E0002197FE010E94AC03C235D107C9F70E94D7
:1000F000BA020C94B2030C94000026E040E855E2EA
:1001000060E070E088E391E00E94710160E071E0DE
:1001100088E391E00E94A2026EE071E088E391E042
:100120000E94A20261E08DE00C944E030895FC0150
:10013000918D228D892F90E0805C9F4F821B9109C9
:100140008F7399270895FC01918D828D981731F056
:10015000828DE80FF11D858D90E008958FEF9FEF60
:100160000895FC01918D828D981761F0A28DAE0FDC
:10017000BF2FB11D5D968C91928D9F5F9F73928F63
:1001800090E008958FEF9FEF0895FC01538D448D0B
:10019000252F30E0842F90E0821B930B541710F032
:1001A000CF960895019708958BE292E0892B49F04C
:1001B00080E090E0892B29F00E942B0281110C94A1
:1001C00000000895FC01A48DA80FB92FB11DA35AFA
:1001D000BF4F2C91848D90E001968F739927848F67
:1001E000A689B7892C93A089B1898C91837080648A
:1001F0008C93938D848D981306C00288F389E02D2B
:1002000080818F7D80830895CF93DF93EC01888D6B
:100210008823B9F0AA89BB89E889F9898C9185FD81
:1002200003C0808186FD0DC00FB607FCF7CF8C910F
:1002300085FFF2CF808185FFEDCFCE010E94E200E5
:10024000E9CFDF91CF910895EF92FF920F931F9323
:10025000CF93DF93EC0181E0888F9B8D8C8D981379
:100260001AC0E889F989808185FF15C09FB7F89485
:10027000EE89FF896083E889F989808183708064D1
:1002800080839FBF81E090E0DF91CF911F910F911C
:10029000FF90EF900895F62E0B8D10E00F5F1F4F2B
:1002A0000F731127E02E8C8D8E110CC00FB607FC3A
:1002B000FACFE889F989808185FFF5CFCE010E94C8
:1002C000E200F1CFEB8DEC0FFD2FF11DE35AFF4F54
:1002D000F0829FB7F8940B8FEA89FB898081806256
:1002E000CFCFCF92DF92EF92FF921F93CF93DF9306
:1002F000EC016A017B01122FE889F98982E0808391
:10030000C11481EED806E104F104A1F060E079E0C7
:100310008DE390E0A70196010E948A0321503109E4
:10032000410951095695479537952795211580E143
:10033000380798F0E889F989108260E874E88EE15E
:1003400090E0A70196010E948A03215031094109DA
:1003500051095695479537952795EC85FD8530834E
:10036000EE85FF852083188EEC89FD891083EA894C
:10037000FB89808180618083EA89FB898081886034
:100380008083EA89FB89808180688083EA89FB8990
:1003900080818F7D8083DF91CF911F91FF90EF90BF
:1003A000DF90CF9008951F920F920FB60F921124F5
:1003B0002F938F939F93EF93FF93E0914801F091D8
:1003C00049018081E0914E01F0914F0182FD1BC0F7
:1003D0009081809151018F5F8F732091520182171C
:1003E00041F0E0915101F0E0E85CFE4F958F809381
:1003F0005101FF91EF919F918F912F910F900FBE1F
:100400000F901F9018958081F4CF1F920F920FB616
:100410000F9211242F933F934F935F936F937F938A
:100420008F939F93AF93BF93EF93FF9388E391E0F4
:100430000E94E200FF91EF91BF91AF919F918F9148
:100440007F916F915F914F913F912F910F900FBED0
:100450000F901F90189588E391E00E94970021E08B
:10046000892B09F420E0822F0895E8E3F1E013825C
:10047000128288EE93E0A0E0B0E084839583A683A7
:10048000B78386E291E09183808385EC90E0958745
:10049000848784EC90E09787868780EC90E0918B4E
:1004A000808B81EC90E0938B828B82EC90E0958B3B
:1004B000848B86EC90E0978B868B118E128E138E38
:1004C000148E0895AF92BF92CF92DF92EF92FF9277
:1004D0000F931F93CF93DF936C017B018B01040F6C
:1004E000151FEB015E01AE18BF08C017D10759F008
:1004F0006991D601ED91FC910190F081E02DC6014A
:100500000995892B79F7C501DF91CF911F910F9143
:10051000FF90EF90DF90CF90BF90AF900895FB01D8
:1005200001900020E9F73197AF01461B570BDC0122
:10053000ED91FC910280F381E02D099464E371E078
:100540000C948F020F931F93CF93DF938C01D0E015
:10055000C0E06115710519F00E948F02EC01C8011D
:100560000E949E028C0F9D1FDF91CF911F910F91D2
:10057000089508950E9413030E94B9020E947D000D
:10058000C4EDD0E00E9496002097E1F30E94D400D1
:10059000F9CF1F920F920FB60F9211242F933F9312
:1005A0008F939F93AF93BF938091D6019091D70182
:1005B000A091D801B091D9013091D50123E0230F4A
:1005C0002D3758F50196A11DB11D2093D5018093BB
:1005D000D6019093D701A093D801B093D90180910F
:1005E000DA019091DB01A091DC01B091DD0101966F
:1005F000A11DB11D8093DA019093DB01A093DC0172
:10060000B093DD01BF91AF919F918F913F912F9159
:100610000F900FBE0F901F90189526E8230F02969B
:10062000A11DB11DD2CF789484B5826084BD84B5FC
:10063000816084BD85B5826085BD85B5816085BDDD
:10064000EEE6F0E0808181608083E1E8F0E01082F6
:10065000808182608083808181608083E0E8F0E037
:10066000808181608083E1EBF0E080818460808321
:10067000E0EBF0E0808181608083EAE7F0E0808158
:1006800084608083808182608083808181608083B8
:100690008081806880831092C1000895CF93DF939A
:1006A00090E0FC01E859FF4F249184589F4FFC01D2
:1006B00084918823C9F090E0880F991FFC01E656C9
:1006C000FF4FA591B491FC01E057FF4FC591D49124
:1006D00061110DC09FB7F8948C91209582238C9363
:1006E0008881282328839FBFDF91CF9108956230AE
:1006F00051F49FB7F8943C91822F809583238C937B
:10070000E8812E2BEFCF8FB7F894EC912E2B2C9302
:100710008FBFEACFA1E21A2EAA1BBB1BFD010DC0A1
:10072000AA1FBB1FEE1FFF1FA217B307E407F507A1
:1007300020F0A21BB30BE40BF50B661F771F881F7D
:10074000991F1A9469F760957095809590959B0113
:10075000AC01BD01CF010895EE0FFF1F0590F4918C
:08076000E02D0994F894FFCF8D
:1007680068656C6C6F2041726475696E6F006C65AA
:100778006420626C696E6B65722070726F6A656363
:1007880074000000000024016202C5000401970003
:08079800B100A3000D0A0000EE
:00000001FF
