:020000040800F2
:100000000000022099570008352900083729000808
:10001000392900083B2900083D290008000000009C
:100020000000000000000000000000003F29000860
:100030004129000800000000432900084529000864
:10004000E9570008E9570008E9570008E957000890
:10005000E9570008E9570008E9570008E957000880
:10006000E9570008E9570008E9570008E957000870
:10007000E9570008E9570008E9570008E957000860
:10008000E9570008E9570008E9570008E957000850
:10009000E9570008E9570008E9570008E957000840
:1000A000E9570008E9570008E9570008E957000830
:1000B000E9570008E9570008E9570008E957000820
:1000C000E9570008E9570008E9570008E957000810
:1000D000E9570008E9570008E9570008E957000800
:1000E000E9570008E957000800000000E957000838
:1000F000E9570008E9570008E9570008E9570008E0
:10010000E9570008E9570008E9570008E9570008CF
:10011000E9570008E9570008E9570008E9570008BF
:10012000E9570008E9570008E9570008E9570008AF
:10013000E9570008E9570008E9570008E95700089F
:1001400000000000000000000000000000000000AF
:10015000E9570008E9570008E9570008E95700087F
:10016000E9570008E9570008E9570008E95700086F
:10017000E9570008E9570008E9570008E95700085F
:10018000E9570008E9570008E9570008E95700084F
:10019000E9570008E9570008E9570008E95700083F
:1001A000E9570008E9570008E9570008E95700082F
:1001B000E9570008E9570008E9570008E95700081F
:1001C000E9570008E9570008E9570008E95700080F
:1001D000E9570008E9570008E9570008E9570008FF
:1001E000E9570008E9570008E9570008E9570008EF
:1001F000E9570008E9570008E9570008E9570008DF
:10020000E9570008E9570008E9570008E9570008CE
:10021000E9570008E9570008E9570008E9570008BE
:10022000E9570008E9570008E957000800000000F6
:10023000E9570008E957000800000000E9570008E6
:10024000E9570008E9570008E9570008E95700088E
:10025000E9570008E9570008E9570008E95700087E
:10026000E9570008E9570008E9570008E95700086E
:10027000E9570008E9570008E957000800000000A6
:10028000E9570008E9570008E95700080000000096
:0802900000000000E95700081E
:1002C00010B5054C237833B9044B13B10448AFF390
:1002D00000800123237010BDC00900200000000031
:1002E0009CB9000808B5034B1BB103490348AFF3A1
:1002F000008008BD00000000C40900209CB900086F
:1003000080F0004002E000BF81F0004142001FBFCA
:100310005FEA410392EA030F7FEA226C7FEA236CD3
:100320006AD04FEA1262D2EB1363C1BFD2184140C8
:1003300048404140B8BF5B42192B88BF704710F05E
:10034000004F40F4000020F07F4018BF404211F001
:10035000004F41F4000121F07F4118BF494292EA69
:10036000030F3FD0A2F1010241FA03FC10EB0C0095
:10037000C3F1200301FA03F100F0004302D5494222
:1003800060EB4000B0F5000F13D3B0F1807F06D3CF
:1003900040084FEA310102F10102FE2A51D2B1F1C7
:1003A000004F40EBC25008BF20F0010040EA0300BC
:1003B0007047490040EB0000013A28BFB0F5000F3C
:1003C000EDD2B0FA80FCACF1080CB2EB0C0200FAF2
:1003D0000CF0AABF00EBC25052421843BCBFD04041
:1003E0001843704792F0000F81F4000106BF80F4BB
:1003F00000000132013BB5E74FEA41037FEA226C7E
:1004000018BF7FEA236C21D092EA030F04D092F048
:10041000000F08BF0846704790EA010F1CBF00207C
:10042000704712F07F4F04D1400028BF40F00040D9
:10043000704712F100723CBF00F50000704700F0F9
:10044000004343F0FE4040F4000070477FEA226220
:1004500016BF08467FEA23630146420206BF5FEAF1
:10046000412390EA010F40F4800070474FF00003F1
:1004700004E000BF10F0004348BF40425FEA000CB8
:1004800008BF704743F0964301464FF000001CE060
:1004900050EA010208BF70474FF000030AE000BFB6
:1004A00050EA010208BF704711F0004302D54042F4
:1004B00061EB41015FEA010C02BF84460146002066
:1004C00043F0B64308BFA3F18053A3F50003BCFA81
:1004D0008CF2083AA3EBC25310DB01FA02FC63442E
:1004E00000FA02FCC2F12002BCF1004F20FA02F235
:1004F00043EB020008BF20F00100704702F1200228
:1005000001FA02FCC2F1200250EA4C0021FA02F288
:1005100043EB020008BF20EADC7070474FF0FF0C8D
:100520001CEAD0521EBF1CEAD15392EA0C0F93EA88
:100530000C0F6FD01A4480EA010C400218BF5FEA2A
:1005400041211ED04FF0006343EA501043EA51119D
:10055000A0FB01310CF00040B1F5000F3EBF490097
:1005600041EAD3715B0040EA010062F17F02FD2A9B
:100570001DD8B3F1004F40EBC25008BF20F001007E
:10058000704790F0000F0CF0004C08BF49024CEA95
:10059000502040EA51207F3AC2BFD2F1FF0340EA27
:1005A000C250704740F400004FF00003013A5DDC98
:1005B00012F1190FDCBF00F000407047C2F10002D9
:1005C000410021FA02F1C2F1200200FA02FC5FEAC6
:1005D000310040F1000053EA4C0308BF20EADC7010
:1005E000704792F0000F00F0004C02BF400010F482
:1005F000000F013AF9D040EA0C0093F0000F01F02F
:10060000004C02BF490011F4000F013BF9D041EA50
:100610000C018FE70CEAD15392EA0C0F18BF93EA52
:100620000C0F0AD030F0004C18BF31F0004CD8D17C
:1006300080EA010000F00040704790F0000F17BF03
:1006400090F0004F084691F0000F91F0004F14D049
:1006500092EA0C0F01D142020FD193EA0C0F03D1A1
:100660004B0218BF084608D180EA010000F00040A4
:1006700040F0FE4040F40000704740F0FE4040F47F
:10068000400070474FF0FF0C1CEAD0521EBF1CEA1E
:10069000D15392EA0C0F93EA0C0F69D0A2EB03023C
:1006A00080EA010C49024FEA402037D04FF08053D6
:1006B00043EA111143EA10130CF000408B4238BF9B
:1006C0005B0042F17D024FF4000C8B4224BF5B1AA9
:1006D00040EA0C00B3EB510F24BFA3EB510340EAF7
:1006E0005C00B3EB910F24BFA3EB910340EA9C00A5
:1006F000B3EBD10F24BFA3EBD10340EADC001B0115
:1007000018BF5FEA1C1CE0D1FD2A3FF650AF8B42B8
:1007100040EBC25008BF20F0010070470CF0004CC5
:100720004CEA50207F32C2BFD2F1FF0340EAC250F0
:10073000704740F400004FF00003013A37E792F0B1
:10074000000F00F0004C02BF400010F4000F013A0F
:10075000F9D040EA0C0093F0000F01F0004C02BF0A
:10076000490011F4000F013BF9D041EA0C0195E773
:100770000CEAD15392EA0C0F08D142027FF47DAF0C
:1007800093EA0C0F7FF470AF084676E793EA0C0FFC
:1007900004D14B023FF44CAF08466EE730F0004CFA
:1007A00018BF31F0004CCAD130F000427FF45CAF8A
:1007B00031F000437FF43CAF5FE700BF42000ED250
:1007C000B2F1FE4F0BD34FF09E03B3EB126209D48C
:1007D0004FEA002343F0004323FA02F070474FF042
:1007E0000000704712F1610F01D1420202D14FF0B7
:1007F000FF3070474FF00000704700BF53B94AB94F
:10080000002908BF00281CBF4FF0FF314FF0FF3018
:1008100001F0DEB8ADF1080C6DE904CE00F006F889
:10082000DDF804E0DDE9022304B070472DE9F0476C
:10083000089E0D4604468846002B4DD18A429446B8
:1008400068D9B2FA82F252B101FA02F3C2F1200180
:1008500020FA01F10CFA02FC41EA030894404FEA45
:100860001C45210CB8FBF5FE1FFA8CF705FB1E8317
:1008700041EA03430EFB07F199420BD91CEB03033A
:100880000EF1FF3080F01E81994240F21B81AEF1E3
:10089000020E63445B1AA4B2B3FBF5F005FB103300
:1008A00044EA034400FB07F7A7420AD91CEB0404FF
:1008B00000F1FF3380F00881A74240F205816444D3
:1008C0000238E41B40EA0E4000211EB1D440002350
:1008D000C6E90043BDE8F0878B4208D9002E00F03E
:1008E000EE800021C6E900050846BDE8F087B3FAAE
:1008F00083F100294AD1AB4202D3824200F2F9804F
:10090000841A65EB030301209846002EE2D0C6E965
:100910000048DFE702B9FFDEB2FA82F2002A40F0B7
:100920009180A1EB0C054FEA1C471FFA8CFE0121B8
:10093000B5FBF7F307FB1350250C45EA00450EFB0A
:1009400003F0A84208D91CEB050503F1FF3802D2D9
:10095000A84200F2CB8043462D1AA4B2B5FBF7F0B3
:1009600007FB105544EA05440EFB00FEA64508D9D6
:100970001CEB040400F1FF3502D2A64500F2BB8057
:100980002846A4EB0E0440EA03409EE7C1F120078D
:100990008B4022FA07FC4CEA030C20FA07F405FA14
:1009A00001F31C43FD404FEA1C4900FA01F3B5FB7B
:1009B000F9F8200C1FFA8CFE09FB185540EA054592
:1009C00008FB0EF0A84202FA01F20BD91CEB050558
:1009D00008F1FF3A80F08880A84240F28580A8F1B3
:1009E000020865442D1AA4B2B5FBF9F009FB1055B5
:1009F00044EA054500FB0EFEAE4508D91CEB050593
:100A000000F1FF346CD2AE456AD90238654440EA41
:100A10000840A0FB0294A5EB0E05A542C846A646D9
:100A200056D353D05EB1B3EB080265EB0E0505FA61
:100A300007F722FA01F3CD401F43C6E900750021F4
:100A4000BDE8F087C2F1200320FA03F10CFA02FCA2
:100A500025FA03F395400D434FEA1C471FFA8CFE1D
:100A6000B3FBF7F107FB11302B0C43EA004301FB0A
:100A70000EF0984204FA02F408D91CEB030301F1CA
:100A8000FF382FD298422DD9023963441B1AADB2D8
:100A9000B3FBF7F007FB103345EA034500FB0EF309
:100AA000AB4208D91CEB050500F1FF3816D2AB426A
:100AB00014D902386544ED1A40EA014138E731465D
:100AC000304607E78646E5E61846FAE64B45A9D2E2
:100AD000B9EB020864EB0C0E0138A3E74046EAE7E5
:100AE000204694E74146D1E7D0467BE7023B654488
:100AF00032E7084609E76444023842E703685A00CF
:100B00004CBF43F0004323F000431844704700BF3C
:100B10002DE9F84329B34F1E044615463E464FF0D3
:100B2000000808EB060101EBD171491004EBC10983
:100B30004846FFF7E3FF0346C80008308F422044D1
:100B400009D0AB4209D8FFF7D9FF0138A8420AD231
:100B500001F10108E5E7AB4205D9884501D04E1EF9
:100B6000DFE74FF000094846BDE8F883012807D0C9
:100B7000022807D0044B00280CBF184600207047FD
:100B800002487047024870474512000849120008A1
:100B90004D12000830B5234B83B004468D1E3BB385
:100BA00001A92846AFF30080E8B101992A46FFF772
:100BB000AFFF0146B8B1FFF7A1FF4B68A064012B5E
:100BC0002CD0002B01F1040024DBFFF797FF00235A
:100BD000C4E913030368002B11DBFFF78FFF2061CB
:100BE000002003B030BD00230920236103B030BDD5
:100BF0000D4B0E49C91AC91018460191D6E7C3F327
:100C00000360FFF7B3FF0028206114BF0020092014
:100C100003B030BD0123C4E91303DBE700232361E4
:100C20000520DEE70000000064BE000834BF0008B5
:100C30000368DA0710B5044606D49B0700F14800A4
:100C400009D500F05BFC2368590709D51A070ED5B2
:100C5000DB0613D510BD00F049FC23685907F5D415
:100C600004F1D00000F052FC23681A07F0D404F518
:100C7000A87000F053FC2368DB06EBD404F5E870A1
:100C8000BDE8104000F08EBC0920704703460068A4
:100C900000B11844704700BF704700BF70B50446EC
:100CA0000E46316C2046FFF775FF054688B9326C59
:100CB0006261236932462146012098470828F0D016
:100CC000072806D12846316CFFF7E6FF301D00F0FB
:100CD00001FC04F08BFD00BF2DE9F0470D1DD0F89D
:100CE0000C80D0F81890074614460FCDADF5727DF4
:100CF0000DF10C0CACE80F000FCDACE80F000FCDE0
:100D0000ACE80F0095E80F0002AE4FF0000E8CE843
:100D10000F00C6F800E020E0336C7B614FF4F07206
:100D200031467AA800F056FE3B697AAA3946504609
:100D30009847889B73642146CDE9006905463B4688
:100D40003A460120C0470446E0B94FF4F0727AA950
:100D5000304600F03FFE082D1AD1316C3846FFF7BF
:100D600019FF09345FFA84FA05460028D4D0B36B22
:100D700073643A46CDE900693B464AF01001012010
:100D8000C04700B1092528460DF5727DBDE8F08702
:100D9000072DF7D12046316CFFF77EFF03A800F046
:100DA00099FB00BF406C7047F0B5CB6B0B6401F151
:100DB000040C0E460546BCE80F00F9B001AC0FC4A8
:100DC000BCE80F000FC4BCE80F000FC49CE80F0084
:100DD0004FF0FF3784E80F00009706E02B696A4662
:100DE000294698470828044608D110992846FFF755
:100DF000D1FE0028F2D0092079B0F0BD6846FFF797
:100E000017FF062CF7D131462846FFF747FF00BFF2
:100E1000C160D96B82611964002219465CE700BF8A
:100E200070B5C66843690B64AEB903690A460446E7
:100E30000D46014602209847072805D008280FD103
:100E400029462046FFF72AFF3046296CFFF724FF8A
:100E5000281D00F03FFB0122FFF73EFF04F0C6FC17
:100E600004F0C4FCC2681AB1CA6B0A64002233E7FA
:100E70009AE700BF704700BF836801460BB10120AD
:100E800018477047012912D009D873B90F2A0CD816
:100E900000EB820218465368009A136070470339CA
:100EA000012994BF012002207047022070470846A4
:100EB000704700BF00B585B00A46002303A9009122
:100EC0001946FFF7DFFF039805B05DF804FB00BF8C
:100ED000012912D009D873B90F2A0CD800EB82006F
:100EE000009A12684260184670470339012994BF7E
:100EF000012002207047022070470846704700BF5B
:100F000010B584B0002303AC039200940A4619463E
:100F1000FFF7DEFF04B010BD70B5D36B136402F1B0
:100F2000040C05460C46BCE80F00ADF50E7D0DF136
:100F30005C0EAEE80F00BCE80F00AEE80F00BCE8A6
:100F40000F00AEE80F009CE80F004FF0FF368EE870
:100F50000F00169610E0FFF7D3FF214616A8A8470A
:100F6000034616AA6946082083B9049B98470528BA
:100F700006460CD0092809D026996846FFF70AFED4
:100F800003466A460C2116A8002BE4D0092616A8B1
:100F9000FFF74EFE30460DF50E7D70BD2DE9F04F8A
:100FA000CC6C89B01E4654F8043B06940D46174697
:100FB00000F00308002E79D01A0C1B0405938DF85D
:100FC0001D200223D2B204EB82048DF81C302B6D5D
:100FD000B8F1020F08BFAC6B13F001030CD005A9E8
:100FE000384600F079FB18B9082009B0BDE8F08F49
:100FF000092009B0BDE8F08FD4F800A0BAF1000FC5
:10100000EDD0019300F008030293022E4AD0B4F809
:1010100000A0B4F802900434AB6C29F0010B0F214E
:1010200038469B44FFF746FF834539D82AF0010331
:101030009B44834594BF002001204FEA490303F0FD
:1010400002030AF0010A43EA0A03012B49D0022BEA
:1010500032D0002BCCD1B8F1000F02D0002840F0E4
:10106000CD800434D4F800A0BAF1000FCDD105A989
:10107000384600F031FB0028BAD1019B002BB3D0D9
:101080000F213846FFF716FF0E2102463846FFF7BC
:1010900037FF38466A4A0F21FFF732FF0720A8E7DB
:1010A0000020CAE7D4F804900834B5E71B02059382
:1010B0000323ADF81C308AE7236823F0004BB8F116
:1010C000000F45D128B1029A002A5CD0BBF1000F75
:1010D00074D0002B00DA04340BF1010B04EB8B0409
:1010E000C0E7B8F1000F19D1B0B163682268991C4C
:1010F0004FEAD2723FF47CAF05F1580101330491FD
:1011000000F09080201DFFF7C1FD04AB014628468A
:10111000AFF3008000285BD10834A3E70D213846E7
:10112000D5F82090FFF7C6FE8145F5D1AB6A9C4209
:10113000F2D12046FFF7E2FC0F2102463846FFF7C6
:10114000DFFE38462A460021FFF7DAFE072050E787
:101150000D213846D5F82090FFF7ACFE814501D02F
:101160002368B6E7AB6A9C42FAD104230022C5E9A2
:101170000B23E318C5F828B06B632368002B59DBF9
:1011800001230193A8E705F15803CDF80C8004F181
:10119000040AB04691461E460EE050460496FFF7FC
:1011A00075FD0022014604AB284609F101090AF148
:1011B000040AAFF30080E0B9D945EED10D213846DD
:1011C000FFF778FE049BAC62C5E90803062010E730
:1011D00081460D213846FFF76DFEB9F1020F2862F6
:1011E00025D12B46049A43F82C2F6B62AC62062063
:1011F000FFE646462368DDF80C806AE72046FFF7E5
:101200007DFC04340246AC6328461446AFF30080EC
:1012100000283FF4EDAE384622460F21FFF770FE5E
:101220000720E6E60D213846FFF744FE2862049BBE
:101230006B62DBE70BF1010004EB80007AE700BF93
:10124000000000000023A9E60123A7E60223A5E68B
:101250002DE9F0430646C3B015461C46042900F2AA
:10126000BF80DFE801F09E57BD2D0300002C40F049
:10127000B780102A00F2B4800368D80600F1F98024
:1012800020AF384600F098F9B46B394600234FF090
:10129000010C0CFA03F22A42204603F1010303D0A9
:1012A00050F8042B0A600446042B01F10401F0D12C
:1012B0003846B46300F076F9002043B0BDE8F0830F
:1012C000032C40F08D8094B204EB1243102B4FEAB4
:1012D000124500F2858003681F0700F1D28020AF1D
:1012E000384600F03DF9B26B07EBC50154B10B462F
:1012F000D01A01EBC401E4001D5843F8045B8B4293
:10130000FAD122443846B26300F008F9002043B015
:10131000BDE8F083012C4FEA124895B25CD0052C51
:101320005ED108EB0509B9F1200F59D8B8F10F0FBC
:1013300079D9A946002D40F08A80B36B6DB320AFF8
:101340004FF0000907EBC807043F03EBC50553F84E
:10135000041B47F8041FAB42F9D1B9F1000F0FD0BD
:101360006F464146102938BF102107EBC10184396F
:1013700003EBC90553F8040B41F8040FAB42F9D154
:10138000012C00F08680B8F10F0FB56347D9B9F191
:10139000000F02D0684600F0B9F8002043B0BDE865
:1013A000F083ECB9806B23461FFA82FC0124371DC1
:1013B00004FA03F212EA0C0F014604D051F8042B90
:1013C00047F8232008460133102BF1D115F40055BE
:1013D000E3D1B063284604E008EB0503102B03D9E2
:1013E000022043B0BDE8F083B8F10F0FF8D833689E
:1013F000DA0706D5304623F0030340F8483B00F0F7
:1014000079F820AF384600F075F8B36B002D97D10E
:101410001D460435B563384600F068F8BDE720A8DE
:1014200000F06CF8B3E7B9F1100F40D9A9F1100939
:101430003368D90708D523F00103304643F002038F
:1014400040F8483B00F05EF8B9F1000F32D0336845
:101450005A0720D4B8F10F0F25D96F463846C8F186
:10146000100500F057F8002DB36B7FF77AAF20AF6F
:1014700068E723F01003336006F5E87000F09CF88D
:10148000FEE623F00803036000F5A87000F068F89A
:1014900025E720AFBDE7304623F0040340F8D03BFA
:1014A00000F038F8D6E720A800F02CF8D5E74FF088
:1014B0000009BDE7B8F10F0F3FF63FAF20AF384648
:1014C00000F020F8B36B002D7FF43AAF384600F0FF
:1014D00015F862E700F1340191E838009C46A64611
:1014E0004CF8045D90E8FF0FE54600BD90EC210B41
:1014F000704700BF80EC210B704700BF90EC200BC1
:10150000704700BF80EC200B704700BFD0EC200B71
:10151000704700BFC0EC200B704700BFF0EC020129
:10152000F0EC0211F0EC0221F0EC0231F0EC02419F
:10153000F0EC0251F0EC0261F0EC0271F0EC02818F
:10154000F0EC0291F0EC02A1F0EC02B1F0EC02C17F
:10155000F0EC02D1F0EC02E1F0EC02F1704700BFD8
:10156000E0EC0201E0EC0211E0EC0221E0EC0231DF
:10157000E0EC0241E0EC0251E0EC0261E0EC0271CF
:10158000E0EC0281E0EC0291E0EC02A1E0EC02B1BF
:10159000E0EC02C1E0EC02D1E0EC02E1E0EC02F1AF
:1015A000704700BFB0FC0181B0FC0191B0FC01A10B
:1015B000B0FC01B1704700BFA0FC0181A0FC01910B
:1015C000A0FC01A1A0FC01B1704700BFEC4600B532
:1015D0002DE900502DE9FF1F4FF000032DE90C000D
:1015E00001A9FFF7E1FBDDF840E012B0704700BF52
:1015F000EC4600B52DE900502DE9FF1F4FF0000328
:101600002DE90C0001A9FFF70BFCDDF840E012B05A
:10161000704700BFEC4600B52DE900502DE9FF1FD3
:101620004FF000032DE90C0001A9FFF71BFCDDF8CA
:1016300040E012B0704700BFEC4600B52DE9005005
:101640002DE9FF1F4FF000032DE90C0001ABFFF760
:10165000DFFBDDF840E012B0704700BFEC4600B59C
:101660002DE900502DE9FF1F4FF000032DE90C007C
:1016700001AAFFF751FCDDF840E012B0704700BF4F
:10168000027A03467AB9427AA2B14168013A10B4AB
:101690004272086803220C1D1A7202025C60000E7E
:1016A00010BC1A6070470068013A1A7202021A6090
:1016B000000E7047B020704700B585B0002303AA24
:1016C000009219460C22FFF7DDFB039805B05DF888
:1016D00004FB00BFF0E700BF2DE9F043054685B0ED
:1016E0000E464FF000083046FFF7CAFFB028044608
:1016F00000F0BA80070620D500F0F003802B4DD013
:10170000902B36D0A02B60D0B02B74D0C02B00F023
:101710008B8000F0F803D02B0BD100F007020132D0
:10172000052342F4002201212846FFF791FD0028FD
:10173000D9D0092005B0BDE8F0838300DBB21F1DBE
:101740000DF10C0900231946CDF800900D22284612
:10175000FFF798FB039BCDF8009060064CBFDF1BA2
:10176000FF1800230D22194628460397FFF7B0FB08
:10177000B9E700F00D030D2BDBD003AF002300F021
:101780000F02194600972846FFF77CFB00230097BD
:101790000D2219462846FFF79BFBA4E73046FFF7CA
:1017A0006FFF24022043B0F5004FC2D00401002394
:1017B000A2B219462846FFF74BFD0028B9D114F410
:1017C000004F18BF4FF001088DE7C24302F0070336
:1017D0004FF47F621A41010702F47F624FF0000369
:1017E00048BF42F4804219462846FFF731FD0028E1
:1017F0003FF479AF9DE7B1283BD0B22800F0938049
:10180000B32841D000F0FC03B42B92D000F00702C3
:101810000132012342F4002219462846FFF718FD41
:1018200000283FF460AF84E7C6284AD0C72854D0C8
:1018300000F0F803C02B63D0C82868D0C9287FF413
:1018400078AF3046FFF71CFF020300F00F0002F4F0
:10185000702201300243012105232846FFF7F8FCDE
:1018600000283FF440AF64E7B8F1000F18D0002023
:1018700060E73046FFF704FF024600283FF459AF07
:1018800010F0F003C8D054E73046FFF7F9FE02032A
:1018900000F00F03013302F470221A430123BBE767
:1018A00003AC43460E22414600942846FFF7EAFA6D
:1018B000009443460F2241462846FFF709FB404665
:1018C00038E73046FFF7DCFE020300F00F03013378
:1018D00002F470221A4303239EE73046FFF7D0FE3E
:1018E000024600283FF425AF10F0F0037FF421AF4B
:1018F00004212846FFF7ACFC00283FF4F4AE18E7BB
:1019000000F00F020132032342F4202284E7304624
:10191000FFF7B6FE00F0F00200F00F0310320133C3
:1019200043EA023297E700230DF10C090D22194614
:10193000CDF800902846FFF7A5FA3046FFF7A0FE45
:1019400002064FF002040CD5039B00F07F00A0407C
:10195000184403903046FFF793FE030604F1070492
:10196000F2D4039BCDF8009000F07F02A24003F573
:1019700001731A440023039219460D222846FFF7EB
:10198000A7FAB0E610B5C26C536884B04FF0030CF0
:1019900008321C0208461B0E01A9019402928DF820
:1019A0000CC08DF80D30FFF797FE04B010BD00BFDE
:1019B00008B5FFF78FFE806C08BD00BF08B5FFF7C4
:1019C00089FEC06CC379023300EB830008BD00BF01
:1019D000704700BF844641EA000313F003036DD152
:1019E000403A41D351F8043B40F8043B51F8043BE2
:1019F00040F8043B51F8043B40F8043B51F8043BE9
:101A000040F8043B51F8043B40F8043B51F8043BD8
:101A100040F8043B51F8043B40F8043B51F8043BC8
:101A200040F8043B51F8043B40F8043B51F8043BB8
:101A300040F8043B51F8043B40F8043B51F8043BA8
:101A400040F8043B51F8043B40F8043B51F8043B98
:101A500040F8043B51F8043B40F8043B51F8043B88
:101A600040F8043B403ABDD2303211D351F8043B28
:101A700040F8043B51F8043B40F8043B51F8043B68
:101A800040F8043B51F8043B40F8043B103AEDD2D7
:101A90000C3205D351F8043B40F8043B043AF9D228
:101AA000043208D0D2071CBF11F8013B00F8013BFB
:101AB00001D30B8803806046704700BF082A13D308
:101AC0008B078DD010F003038AD0C3F10403D21A20
:101AD000DB071CBF11F8013B00F8013B80D331F854
:101AE000023B20F8023B7BE7043AD9D3013A11F8D4
:101AF000013B00F8013BF9D20B7803704B7843703F
:101B00008B78837060467047000000000000000082
:101B100000000000000000000000000000000000C5
:101B200000000000000000000000000000000000B5
:101B300000000000000000000000000000000000A5
:101B400090F800F06DE9024520F007016FF0000CFD
:101B500010F0070491F820F040F049804FF00004A5
:101B60006FF00700D1E9002391F840F000F1080080
:101B700082FA4CF2A4FA8CF283FA4CF3A2FA8CF3B8
:101B80004BBBD1E9022382FA4CF200F10800A4FA1F
:101B90008CF283FA4CF3A2FA8CF3E3B9D1E9042373
:101BA00082FA4CF200F10800A4FA8CF283FA4CF3AA
:101BB000A2FA8CF37BB9D1E9062301F1200182FA64
:101BC0004CF200F10800A4FA8CF283FA4CF3A2FA6A
:101BD0008CF3002BC6D0002A04BF04301A4612BA78
:101BE000B2FA82F2FDE8024500EBD2007047D1E97B
:101BF000002304F00305C4F100004FEAC50514F00A
:101C0000040F91F840F00CFA05F562EA05021CBFDA
:101C100063EA050362464FF00004A9E700000000F4
:101C200001F0FF01102A2BDB10F0070F08D010F88D
:101C3000013B013A8B422DD010F0070F42B3F6D191
:101C4000F0B441EA012141EA014122F007047FF0AA
:101C500000070023F0E80256083C85EA010586EA01
:101C6000010685FA47F5A3FA87F586FA47F6A5FA3D
:101C700087F68EB9EED1F0BC01F0FF0102F0070249
:101C800032B110F8013B013A83EA010313B1F8D1F4
:101C90000020704701387047002D06BF35460338D5
:101CA000073815F0010F07D1013015F4807F02BF0E
:101CB000013015F4C03F0130F0BC0138704700BF5F
:101CC00081F0004102E000BF83F0004330B54FEAED
:101CD00041044FEA430594EA050F08BF90EA020F5A
:101CE0001FBF54EA000C55EA020C7FEA645C7FEAED
:101CF000655C00F0E2804FEA5454D4EB5555B8BF10
:101D00006D420CDD2C4480EA020281EA030382EA80
:101D1000000083EA010180EA020281EA0303362D12
:101D200088BF30BD11F0004F4FEA01314FF4801CE5
:101D30004CEA113102D0404261EB410113F0004FF7
:101D40004FEA03334CEA133302D0524263EB4303AE
:101D500094EA050F00F0A780A4F10104D5F1200E4C
:101D60000DDB02FA0EFC22FA05F2801841F10001A7
:101D700003FA0EF2801843FA05F359410EE0A5F17B
:101D800020050EF1200E012A03FA0EFC28BF4CF0AC
:101D9000020C43FA05F3C01851EBE37101F0004562
:101DA00007D54FF0000EDCF1000C7EEB00006EEB6F
:101DB0000101B1F5801F1BD3B1F5001F0CD34908F9
:101DC0005FEA30004FEA3C0C04F101044FEA445250
:101DD00012F5800F80F09A80BCF1004F08BF5FEAD7
:101DE000500C50F1000041EB045141EA050130BDB7
:101DF0005FEA4C0C404141EB0101013C28BFB1F5C9
:101E0000801FE9D291F0000F04BF01460020B1FA13
:101E100081F308BF2033A3F10B03B3F120020CDAE6
:101E20000C3208DD02F1140CC2F10C0201FA0CF0C4
:101E300021FA02F10CE002F11402D8BFC2F1200C29
:101E400001FA02F120FA0CFCDCBF41EA0C019040DF
:101E5000E41AA2BF01EB0451294330BD6FEA040428
:101E60001F3C1CDA0C340EDC04F11404C4F1200213
:101E700020FA04F001FA02F340EA030021FA04F325
:101E800045EA030130BDC4F10C04C4F1200220FA7C
:101E900002F001FA04F340EA0300294630BD21FABA
:101EA00004F0294630BD94F0000F83F4801306BF80
:101EB00081F480110134013D4EE77FEA645C18BF74
:101EC0007FEA655C29D094EA050F08BF90EA020F0B
:101ED00005D054EA000C04BF1946104630BD91EA03
:101EE000030F1EBF0021002030BD5FEA545C05D106
:101EF0004000494128BF41F0004130BD14F5800445
:101F00003CBF01F5801130BD01F0004545F0FE41B8
:101F100041F470014FF0000030BD7FEA645C1ABFED
:101F2000194610467FEA655C1CBF0B46024650EA24
:101F3000013406BF52EA033591EA030F41F4002150
:101F400030BD00BF90F0000F04BF0021704730B5D6
:101F50004FF4806404F132044FF000054FF00001AB
:101F600050E700BF90F0000F04BF0021704730B56C
:101F70004FF4806404F1320410F0004548BF404241
:101F80004FF000013EE700BF42004FEAE2014FEA96
:101F900031014FEA02701FBF12F07F4393F07F4F71
:101FA00081F06051704732F07F4208BF704793F074
:101FB0007F4F04BF41F40021704730B54FF4607487
:101FC00001F0004521F000411CE700BF50EA01028A
:101FD00008BF704730B54FF000050AE050EA010233
:101FE00008BF704730B511F0004502D5404261EBA3
:101FF00041014FF4806404F132045FEA915C3FF4E4
:10200000D8AE4FF003025FEADC0C18BF03325FEA80
:10201000DC0C18BF033202EBDC02C2F1200300FA31
:1020200003FC20FA02F001FA03FE40EA0E0021FA56
:1020300002F11444BDE600BF70B54FF0FF0C4CF444
:10204000E06C1CEA11541DBF1CEA135594EA0C0FF6
:1020500095EA0C0F00F0DEF82C4481EA030621EA31
:102060004C5123EA4C5350EA013518BF52EA03356C
:1020700041F4801143F4801338D0A0FB02CE4FF01E
:102080000005E1FB02E506F00042E0FB03E54FF04E
:102090000006E1FB03569CF0000F18BF4EF0010E46
:1020A000A4F1FF04B6F5007F64F5407404D25FEA42
:1020B0004E0E6D4146EB060642EAC62141EA5551F5
:1020C0004FEAC52040EA5E504FEACE2EB4F1FD0C37
:1020D00088BFBCF5E06F1ED8BEF1004F08BF5FEAB5
:1020E000500E50F1000041EB045170BD06F0004667
:1020F00046EA010140EA020081EA0301B4EB5C0414
:10210000C2BFD4EB0C0541EA045170BD41F480110B
:102110004FF0000E013C00F3AB8014F1360FDEBF30
:10212000002001F0004170BDC4F10004203C35DA0C
:102130000C341BDC04F11404C4F1200500FA05F38F
:1021400020FA04F001FA05F240EA020001F0004230
:1021500021F0004110EBD37021FA04F642EB0601A6
:102160005EEA430E08BF20EAD37070BDC4F10C04D0
:10217000C4F1200500FA04F320FA05F001FA04F294
:1021800040EA020001F0004110EBD37041F1000180
:102190005EEA430E08BF20EAD37070BDC4F120058B
:1021A00000FA05F24EEA020E20FA04F301FA05F2F3
:1021B00043EA020321FA04F001F0004121FA04F29B
:1021C00020EA020000EBD3705EEA430E08BF20EA6B
:1021D000D37070BD94F0000F0FD101F000464000A5
:1021E00041EB010111F4801F08BF013CF7D041EA27
:1021F000060195F0000F18BF704703F0004652002B
:1022000043EB030313F4801F08BF013DF7D043EAFB
:102210000603704794EA0C0F0CEA135518BF95EAB1
:102220000C0F0CD050EA410618BF52EA4306D1D138
:1022300081EA030101F000414FF0000070BD50EA57
:10224000410606BF1046194652EA430619D094EAE1
:102250000C0F02D150EA013613D195EA0C0F05D1CB
:1022600052EA03361CBF104619460AD181EA03011F
:1022700001F0004141F0FE4141F470014FF00000D7
:1022800070BD41F0FE4141F4780170BD70B54FF072
:10229000FF0C4CF4E06C1CEA11541DBF1CEA1355F2
:1022A00094EA0C0F95EA0C0F00F0A7F8A4EB0504D4
:1022B00081EA030E52EA03354FEA013100F08880CB
:1022C0004FEA03334FF0805545EA131343EA126394
:1022D0004FEA022245EA111545EA10654FEA002649
:1022E0000EF000419D4208BF964244F1FD0404F502
:1022F000407402D25B084FEA3202B61A65EB03055E
:102300005B084FEA32024FF480104FF4002CB6EB1A
:10231000020E75EB030E22BFB61A754640EA0C009A
:102320005B084FEA3202B6EB020E75EB030E22BFDA
:10233000B61A754640EA5C005B084FEA3202B6EB1B
:10234000020E75EB030E22BFB61A754640EA9C00DA
:102350005B084FEA3202B6EB020E75EB030E22BFAA
:10236000B61A754640EADC0055EA060E18D04FEA68
:10237000051545EA16754FEA06164FEAC30343EA08
:1023800052734FEAC2025FEA1C1CC0D111F4801FD5
:102390000BD141EA00014FF000004FF0004CB6E7CE
:1023A00011F4801F04BF01430020B4F1FD0C88BF6D
:1023B000BCF5E06F3FF6AFAEB5EB030C04BFB6EB78
:1023C000020C5FEA500C50F1000041EB045170BD6B
:1023D0000EF0004E4EEA113114EB5C04C2BFD4EB98
:1023E0000C0541EA045170BD41F480114FF0000E1C
:1023F000013C90E645EA060E8DE60CEA135594EA98
:102400000C0F08BF95EA0C0F3FF43BAF94EA0C0F9A
:102410000AD150EA01347FF434AF95EA0C0F7FF40F
:1024200025AF104619462CE795EA0C0F06D152EA63
:1024300003353FF4FDAE1046194622E750EA410647
:1024400018BF52EA43067FF4C5AE50EA41047FF458
:102450000DAF52EA43057FF4EBAE12E74FF0FF3CBD
:1024600006E000BF4FF0010C02E000BF4FF0010C8E
:102470004DF804CD4FEA410C7FEA6C5C4FEA430C07
:1024800018BF7FEA6C5C1BD001B050EA410C0CBF56
:1024900052EA430C91EA030F02BF90EA020F0020B8
:1024A000704710F1000F91EA030F58BF994208BF1F
:1024B00090422CBFD8176FEAE37040F001007047DC
:1024C0004FEA410C7FEA6C5C02D150EA013C07D133
:1024D0004FEA430C7FEA6C5CD6D152EA033CD3D07E
:1024E0005DF8040B704700BF8446104662468C4678
:1024F0001946634600E000BF01B5FFF7B7FF0028AB
:1025000048BF10F1000F01BD4DF808EDFFF7F4FFD3
:102510000CBF012000205DF808FB00BF4DF808ED5E
:10252000FFF7EAFF34BF012000205DF808FB00BF81
:102530004DF808EDFFF7E0FF94BF012000205DF8A3
:1025400008FB00BF4DF808EDFFF7CEFF94BF012058
:1025500000205DF808FB00BF4DF808EDFFF7C4FF51
:1025600034BF012000205DF808FB00BF4FEA410C9A
:102570007FEA6C5C02D150EA013C0AD14FEA430C7D
:102580007FEA6C5C02D152EA033C02D14FF00000BA
:1025900070474FF0010070474FEA410212F50012F8
:1025A00015D211D56FF47873B3EB625212D94FEA9A
:1025B000C12343F0004343EA505311F0004F23FA84
:1025C00002F018BF404270474FF00000704750EAD9
:1025D000013005D111F0004008BF6FF00040704796
:1025E0004FF00000704700BF014B1868704700BFF4
:1025F000740A00200B4B18680B4B1B680B49A1FB9E
:1026000003214FF0E0229269C2EB91120849A1FB2D
:1026100003139B0CB2FBF3F34FF47A7202FB00300E
:10262000704700BF740A002000000020D34D6210E4
:1026300083DE1B4310B5154800F042F8144803F040
:10264000BBF9144B1968144803F054F9FFF7CCFF99
:102650000146124C204603F04DF9642000F002FBC5
:10266000FFF7C2FF0146204603F044F9642000F062
:10267000F9FAFFF7B9FF0146204603F03BF9FFF7EF
:10268000B9FF0146064803F035F910BDE409002002
:10269000B8B9000800000020CCB90008DCB9000877
:1026A000F4B9000808B54FF48071044800F06AFCE2
:1026B0004FF4FA7000F0D6FA08BD00BF00200258AF
:1026C00008B5054B1860054B18680023022219460F
:1026D000806803F079F908BDDC09002010000020B3
:1026E000022801D80120704708B503F087F80923B4
:1026F0000360002008BD000010B5013801280AD889
:1027000014464FF0FF3392B20748006802F045FECE
:1027100040B9204610BD03F071F8092303604FF063
:10272000FF30F7E70520F5E7DC090020022801D893
:102730000020704708B503F061F8092303604FF0EB
:10274000FF3008BD08B503F059F8092303604FF0C6
:10275000FF3008BD08B548B94FF0FF3301220848E3
:10276000006802F087FE40B9012008BD03F046F87A
:10277000092303604FF0FF30F7E70520F5E700BFBE
:10278000DC09002008B5022804D84FF400534B6040
:10279000002008BD03F032F809230360F8E70000C9
:1027A00030B589B0002403940494059406940794EA
:1027B0001C4BD3F8E02042F00102C3F8E020D3F82C
:1027C000E02002F001020092009AD3F8E02042F4E7
:1027D0008072C3F8E020D3F8E02002F48072019206
:1027E000019AD3F8E02042F08002C3F8E020D3F849
:1027F000E03003F080030293029B0B4D22464FF41E
:102800008071284600F0B8FB4FF4807303930123D6
:1028100004930594069403A9284600F099FA09B098
:1028200030BD00BF004402580020025872B6FEE7D7
:1028300000B59DB04C22002109A803F009F8202220
:10284000002101A803F004F8022000F0A5FB0023FA
:102850000093264B9A6942F440429A619B6903F4C3
:1028600040430093224BDA6A42F00102DA62DB6AEB
:1028700003F001030093009B1C4B9B6913F4005F62
:10288000FAD0012309934FF480330A930223129361
:10289000139305221492C0221592169317930623C0
:1028A00018930823199300231A931B9309A800F087
:1028B0009DFBB8B93F2301930323029300230393A5
:1028C000082304934023059306934FF480620792F4
:1028D000089304210DEB010000F0CEFF20B91DB0DC
:1028E0005DF804FBFFF7A2FFFFF7A0FF00480258C6
:1028F0000004005808B500F075F9FFF799FFFFF7DD
:102900004FFF00F0AFF8FFF795FEFFF7CBFEFCE7B7
:1029100082B0074BD3F8F42042F00202C3F8F4204F
:10292000D3F8F43003F002030193019B02B0704727
:1029300000440258FEE7FEE7FEE7FEE7FEE77047C9
:102940007047704708B500F07BF908BD012070475B
:1029500008B502F053FF162303604FF0FF3008BDA7
:1029600008B54FF0FF31FFF7F3FFFEE708B5034668
:102970000B4A126842B10A4A106803446A469342FD
:1029800006D8074A136008BD054A06491160F2E7F8
:1029900002F034FF0C2303604FF0FF30F3E700BF79
:1029A000E0090020C00A0020244B1B6803F00F033D
:1029B000062B06D8214A136823F00F0343F00703C0
:1029C00013601F4B1A6842F001021A6000221A615C
:1029D00019681C4A0A401A60184B1B6813F0080F4C
:1029E00006D0164A136823F00F0343F00703136061
:1029F000134B00229A61DA611A62134999621349F2
:102A0000D962134919635A639963DA6319645A6482
:102A1000196821F4802119601A660E4B1A680E4B52
:102A20001340B3F1005F03D20C4B0122C3F808211D
:102A30000B4B43F2D2021A60704700BF00200052D5
:102A4000004402587FEDF6EA000202020000FF0196
:102A5000800201010010005C0000FFFF00800051B7
:102A60000040005208B51748174B03604FF4E1339C
:102A7000436000238360C36003610C224261836171
:102A8000C36103624362836202F0C2FD70B9002138
:102A90000C4802F036FE60B900210A4802F056FEEA
:102AA00050B9084802F00EFE48B908BDFFF7BEFE57
:102AB000EDE7FFF7BBFEEFE7FFF7B8FEF1E7FFF743
:102AC000B5FEF2E7E4090020004C004070B5B8B054
:102AD0000446002133913491359136913791BC22CF
:102AE00004A802F0B5FE2268264B9A4201D038B005
:102AF00070BD0223049304A801F05AF900283DD1C7
:102B0000214BD3F8E82042F40022C3F8E820D3F8A0
:102B1000E82002F400220192019AD3F8E02042F466
:102B20008072C3F8E020D3F8E02002F480720292B1
:102B3000029AD3F8E02042F00102C3F8E020D3F873
:102B4000E03003F001030393039B4FF400733393CE
:102B5000022634960024359436940825379533A9F7
:102B60000A4800F0F5F801233393349635943694EF
:102B7000379533A9064800F0EBF8B8E7FFF756FEA3
:102B8000BEE700BF004C004000440258002002583D
:102B900000000258104B1B780BB90120704710B58C
:102BA00004464FF47A70B0FBF3F30C4A1068B0FBA4
:102BB000F3F000F0B9F868B90F2C01D901200AE050
:102BC000002221464FF0FF3000F078F8044B1C60E3
:102BD000002000E0012010BD0800002000000020BF
:102BE0000C00002010B5032000F056F800F038FD6E
:102BF0000F498B69C3F303230E4AD35C03F01F0311
:102C0000D8408B6903F00F03D35C03F01F0320FA55
:102C100003F3094A1360094B18600F20FFF7BAFF4E
:102C200010B10124204610BD0446FFF771FEF9E7FC
:102C3000004402580CBA00080400002000000020E4
:102C4000034B1B78034A11680B441360704700BFA5
:102C500008000020740A0020014B1868704700BF6C
:102C6000740A002038B50446FFF7F6FF0546B4F1B4
:102C7000FF3F02D0044B1B781C44FFF7EDFF401BC5
:102C8000A042FAD338BD00BF08000020014B1868ED
:102C9000000C70470010005C0649CB6823F4E06329
:102CA0001B041B0C000200F4E0600343024A1A43B9
:102CB000CA60704700ED00E00000FA0500B5174B50
:102CC000DB68C3F30223C3F1070CBCF1040F28BF78
:102CD0004FF0040C03F1040EBEF1060F14D9033BB0
:102CE0004FF0FF3E0EFA0CFC21EA0C0199400EFA5F
:102CF00003F322EA03031943002807DB0901C9B2E1
:102D0000074B19545DF804FB0023E9E700F00F00BE
:102D10000901C9B2034B1954F4E700BF00ED00E00C
:102D200000E400E014ED00E00138B0F1807F0BD248
:102D30004FF0E0235861054AF02182F8231000206B
:102D4000986107221A6170470120704700ED00E08A
:102D500070B582B000236EE085685E000324B44045
:102D600025EA0405CC68B4402C438460446824EA16
:102D70000C0C4C68C4F300149C4044EA0C044460FE
:102D80006CE0DD08083550F8256003F007044FEAD1
:102D9000840C0F2404FA0CF426EA040E0C6904FADD
:102DA0000CF444EA0E0440F825406FE0092400E0EA
:102DB000002404FA0EF42C430CF1020C6B4D45F880
:102DC0002C404FF0B0442568D44325EA0206D1F8E0
:102DD00004C01CF4801F01D042EA05064FF0B04544
:102DE0002E606D6804EA0506D1F804C01CF4001FCB
:102DF00001D042EA05064FF0B0456E60D5F8845028
:102E000004EA0506D1F804C01CF4003F01D042EAF0
:102E100005064FF0B045C5F88460D5F880502C40C9
:102E20004E6816F4803F01D042EA05044FF0B042EC
:102E3000C2F8804001330A6832FA03F400F093804C
:102E40004FF0010C0CFA03FC1CEA0202F2D04C68B1
:102E500004F00304013C012C7FF67EAF4C6804F0C3
:102E60000304032C0CD0C4685D004FF0030C0CFA73
:102E700005FC24EA0C0C8C68AC4044EA0C04C460E9
:102E80004C6804F00304022C3FF47BAF04684FEA63
:102E9000430E4FF0030C0CFA0EFC24EA0C0C4C68A9
:102EA00004F0030404FA0EF444EA0C0404604C68D1
:102EB00014F4403FBED02E4CD4F8F45045F0020537
:102EC000C4F8F450D4F8F44004F002040194019CD6
:102ED0004FEA930C0CF10205244C54F8255003F0F2
:102EE00003044FEA840E0F2404FA0EF425EA0405C5
:102EF000204CA0423FF45CAF04F58064A04222D095
:102F000004F58064A04220D004F58064A0421ED065
:102F100004F58064A0421CD004F58064A0421AD05D
:102F200004F58064A04218D004F58064A04216D055
:102F300004F58064A04214D004F58064A0423FF4FC
:102F400035AF0A2435E7012433E7022431E70324AF
:102F50002FE704242DE705242BE7062429E707247F
:102F600027E7082425E702B070BD00BF0004005821
:102F700000440258000002580AB1816170470904F8
:102F800081617047436901EA030221EA030141EAD2
:102F90000241816170470000134BDB6813F0040F9E
:102FA00007D1114BDB6803F0070383421AD00120DD
:102FB000704710B50C4AD36823F007031843D0605C
:102FC000FFF74AFE0446084B5B6813F4005F07D125
:102FD000FFF742FE001BB0F57A7FF4D9012000E034
:102FE000002010BD0020704700480258002800F063
:102FF000188338B50446036813F0010F25D0944AAE
:10300000136903F03803926A102B15D0182B0FD0D8
:103010006368B3F5803F3FD0002B53D18C4B1A68C7
:1030200022F480321A601A6822F480221A6038E092
:1030300002F00302022AEBD1854B1B6813F4003F18
:1030400003D06368002B00F0EE82236813F0020FB8
:1030500000F0A1807E4A1369926A13F038035AD0B7
:10306000182B55D0E368002B00F0DE8078490A6801
:1030700022F0190213430B60FFF7EEFD0546744B77
:103080001B6813F0040F40F0AD80FFF7E5FD401B17
:103090000228F4D90320CDE26D4A136843F480334B
:1030A000136063682BB3FFF7D7FD0546684B1B68B9
:1030B00013F4003FC9D1FFF7CFFD401B6428F5D9B9
:1030C0000320B7E2B3F5A02F09D0614B1A6822F4B0
:1030D00080321A601A6822F480221A60E1E75C4BA1
:1030E0001A6842F480221A601A6842F480321A6028
:1030F000D7E7FFF7B1FD0546554B1B6813F4003FBA
:10310000A3D0FFF7A9FD401B6428F5D9032091E265
:1031100012F0030FA6D14E4B1B6813F0040F03D01F
:10312000E368002B00F08182494A136823F01903F9
:10313000E1680B431360FFF78FFD0546444B1B68A6
:1031400013F0040F06D1FFF787FD401B0228F5D9C5
:1031500003206FE2FFF79AFD41F20303984212D871
:103160002269402A07D03A494B6823F47C3343EA6A
:1031700002334B600FE0364A536823F47C3343F448
:103180000033536007E0324A536823F0FE4321695D
:1031900043EA01635360236813F0100F00F0888046
:1031A0002B4A136903F03803926A082B56D0182B68
:1031B00050D0E369002B00F0B880254A136843F033
:1031C00080031360FFF748FD0546214B1B6813F48D
:1031D000807F40F08880FFF73FFD401B0228F4D934
:1031E000032027E2FFF752FD41F20303984212D871
:1031F0002269402A07D016494B6823F47C3343EAFE
:1032000002334B60C7E7124A536823F47C3343F41C
:1032100000335360BFE70E4A536823F0FE43216931
:1032200043EA01635360B6E7094A136823F00103D8
:103230001360FFF711FD0546054B1B6813F0040FE3
:10324000A9D0FFF709FD401B0228F5D90320F1E1C1
:103250000044025802F00302012AAAD1A14B1B68C4
:1032600013F4807F03D0E369802B40F0E081FFF707
:103270000DFD41F20303984212D8226A202A07D09A
:1032800098494B6823F0F84343EA82634B600FE0B0
:10329000944A536823F0F84343F08043536007E0B7
:1032A000904AD36823F07C53216A43EA0163D360D8
:1032B000236813F0080F60D06369002B49D0894A56
:1032C000536F43F001035367FFF7C6FC0546854B78
:1032D0005B6F13F0020F50D1FFF7BEFC401B0228BA
:1032E000F5D90320A6E1FFF7D1FC41F20303984290
:1032F00012D8226A202A07D07A494B6823F0F84373
:1033000043EA82634B60D3E7764A536823F0F8437D
:1033100043F080435360CBE7724AD36823F07C5379
:10332000216A43EA0163D360C2E76E4A136823F05F
:1033300080031360FFF790FC05466A4B1B6813F48B
:10334000807FB5D0FFF788FC401B0228F5D9032009
:1033500070E1644A536F23F001035367FFF77CFC6D
:103360000546604B5B6F13F0020F06D0FFF774FC4D
:10337000401B0228F5D903205CE1236813F0200FDD
:1033800029D0A3699BB1574A136843F48053136053
:10339000FFF762FC0546534B1B6813F4005F1AD11C
:1033A000FFF75AFC401B0228F5D9032042E14D4AA1
:1033B000136823F480531360FFF74EFC0546494B16
:1033C0001B6813F4005F06D0FFF746FC401B022881
:1033D000F5D903202EE1236813F0040F21D1636A8D
:1033E000002B00F026813F4A126902F03802182AA9
:1033F00000F0EE80022B79D03A4A136823F08073F4
:103400001360FFF729FC0446364B1B6813F0007F5E
:1034100000F0DC80FFF720FC001B0228F4D9032019
:1034200008E1314A136843F480731360FFF714FC1A
:1034300005462D4B1B6813F4807F06D1FFF70CFC6B
:10344000401B6428F5D90320F4E0A368012B0AD0BF
:103450000BBB244B1A6F22F001021A671A6F22F07D
:1034600004021A6704E01F4A136F43F00103136755
:10347000A36833B3FFF7F0FB05461A4B1B6F13F03D
:10348000020FACD1FFF7E8FB401B41F288339842B2
:10349000F3D90320CEE0052B09D0124B1A6F22F08E
:1034A00001021A671A6F22F004021A67E0E70D4B57
:1034B0001A6F42F004021A671A6F42F001021A678B
:1034C000D6E7FFF7C9FB0546064B1B6F13F0020F4B
:1034D00085D0FFF7C1FB401B41F288339842F3D9F6
:1034E0000320A7E00044025800480258594A1368D4
:1034F00023F080731360FFF7AFFB0546554B1B6845
:1035000013F0007F06D0FFF7A7FB401B0228F5D978
:1035100003208FE04F4B996A4F4A0A40A16AE06A44
:1035200041EA00110A439A62226B013AC2F308028F
:10353000616B0139490289B20A43A16B013909045F
:1035400001F4FE010A43E16B0139090601F0FE4175
:103550000A431A63DA6A22F00102DA62596B3F4ABF
:103560000A40A16C42EAC1025A63DA6A22F00C02F4
:10357000216C0A43DA62DA6A22F00202616C0A43C1
:10358000DA62DA6A42F48032DA62DA6A42F40032EB
:10359000DA62DA6A42F48022DA62DA6A42F001021E
:1035A000DA621A6842F080721A60FFF755FB04462F
:1035B000284B1B6813F0007F06D1FFF74DFB001B63
:1035C0000228F5D9032035E0002033E0002031E067
:1035D000204A916A106B012B2DD001F00303A26ADF
:1035E00093422AD1C1F30511E36A994227D1C0F36E
:1035F0000802236B013B9A4223D1C0F34622636B3E
:10360000013B9A421FD1C0F30642A36B013B9A4291
:103610001BD1C0F30660E36B013B984217D1002039
:1036200008E001207047012004E0012002E00120B1
:1036300000E0002038BD0120FCE70120FAE701206E
:10364000F8E70120F6E70120F4E70120F2E7012086
:10365000F0E700BF004402580CFCFFFF0700FFFF2B
:10366000F8B57E4B1B6903F03803102B00F0F28095
:10367000182B10D013B17A4C2046F8BD774B1B683D
:1036800013F0200F00F0E880744B1868C0F3C100FD
:10369000744CC440F0E7714B9D6A05F003059C6AC9
:1036A000C4F30514D86A00F001005B6BC3F3CC03CC
:1036B00003FB00F0FCF7DAFE0646002CDCD0012DFF
:1036C00076D0022D00F0A4800DB32046FCF7CEFE8C
:1036D00001466548FCF7D6FF0446604B186BC0F303
:1036E0000800FCF7C3FE05464FF064513046FCF776
:1036F00015FF01462846FCF709FE4FF07E51FCF706
:1037000005FE01462046FCF709FF044671E0534BD5
:103710001B6813F0200F29D0504F3B68C3F3C1033F
:103720005048D840FCF7A2FE05462046FCF79EFE16
:1037300001462846FCF7A6FF0446386BC0F3080094
:10374000FCF794FE05464FF064513046FCF7E6FE68
:1037500001462846FCF7DAFD4FF07E51FCF7D6FD16
:1037600001462046FCF7DAFE044642E02046FCF71C
:103770007DFE01463D48FCF785FF0446374B186B3C
:10378000C0F30800FCF772FE05464FF06451304666
:10379000FCF7C4FE01462846FCF7B8FD4FF07E5109
:1037A000FCF7B4FD01462046FCF7B8FE044620E0D5
:1037B0002046FCF75BFE01462B48FCF763FF0446FE
:1037C000264B186BC0F30800FCF750FE05464FF07F
:1037D00064513046FCF7A2FE01462846FCF796FDF0
:1037E0004FF07E51FCF792FD01462046FCF796FE15
:1037F00004461A4B1B6BC3F34623581CFCF736FEDA
:1038000001462046FCF73EFFFCF7D8FF044633E7AD
:103810002046FCF72BFE01461548FCF733FF044613
:103820000E4B186BC0F30800FCF720FE05464FF066
:1038300064513046FCF772FE01462846FCF766FDEF
:103840004FF07E51FCF762FD01462046FCF766FE14
:103850000446CEE7074C0FE7024C0DE70044025840
:1038600000093D000090D0030024744A0024744CE9
:1038700020BCBE4B40787D01002800F0328170B53D
:103880000D4604469B4B1B6803F00F038B420BD283
:10389000984A136823F00F030B431360136803F077
:1038A0000F038B4240F01F81236813F0040F0CD0EC
:1038B0002269914B9B6903F070039A4205D98E49A6
:1038C0008B6923F070031A438A61236813F0080F91
:1038D0000CD06269884BDB6903F070039A4205D90A
:1038E0008549CB6923F070031A43CA61236813F03A
:1038F000100F0CD0A269804BDB6903F4E0639A429D
:1039000005D97D49CB6923F4E0631A43CA61236872
:1039100013F0200F0CD0E269774B1B6A03F07003A1
:103920009A4205D974490B6A23F070031A430A625C
:10393000236813F0020F0CD0E2686F4B9B6903F011
:103940000F039A4205D96C498B6923F00F031A4380
:103950008A61236813F0010F41D0674A936923F409
:103960007063A1680B4393616368022B0AD0032B39
:1039700027D0012B2CD0604A126812F0040F06D118
:103980000120ADE0126812F4003F00F0AE805A4909
:103990000A6922F0070213430B61FFF75DF906463F
:1039A000554B1B6903F038036268B3EBC20F16D0A6
:1039B000FFF752F9801B41F288339842F0D9032077
:1039C0008EE04D4A126812F0007FE0D1012087E0BE
:1039D000494A126812F4807FD9D1012080E023681F
:1039E00013F0020F0CD0E268434B9B6903F00F0306
:1039F0009A4205D240498B6923F00F031A438A612A
:103A00003C4B1B6803F00F03AB420AD9394A1368D9
:103A100023F00F032B431360136803F00F03AB4233
:103A200065D1236813F0040F0CD02269324B9B69D7
:103A300003F070039A4205D22F498B6923F070037B
:103A40001A438A61236813F0080F0CD062692A4B6D
:103A5000DB6903F070039A4205D22749CB6923F052
:103A600070031A43CA61236813F0100F0CD0A269C7
:103A7000214BDB6903F4E0639A4205D21E49CB690E
:103A800023F4E0631A43CA61236813F0200F0CD0BB
:103A9000E269194B1B6A03F070039A4205D216497A
:103AA0000B6A23F070031A430A62FFF7D9FD12492B
:103AB0008B69C3F30323114AD35C03F01F03D8407F
:103AC0008B6903F00F03D35C03F01F0320FA03F3A9
:103AD0000B4A13600B4B18600B4B1868FFF75AF832
:103AE00070BD012070470120FAE70120F8E70120AE
:103AF000F6E700BF00200052004402580CBA00084C
:103B000004000020000000200C00002008B5FFF792
:103B1000A7FD0B4A9369C3F303230A49CB5C03F067
:103B20001F0320FA03F3926902F00F02885C00F091
:103B30001F0023FA00F0044A1060044A136008BD15
:103B4000004402580CBA00080400002000000020C5
:103B500008B5FFF7DBFF054BDB69C3F30213044A2B
:103B6000D35C03F01F03D84008BD00BF00440258D7
:103B70000CBA000808B5FFF7C9FF054BDB69C3F3B2
:103B80000223044AD35C03F01F03D84008BD00BFE2
:103B9000004402580CBA0008404B9B6A03F0030330
:103BA000032B79D070B505460E463C4A136823F0C6
:103BB00080631360FFF750F80446384B1B6813F01E
:103BC000006F06D0FFF748F8031B022BF5D903203E
:103BD00070BD324B9A6A22F47C32296842EA013283
:103BE0009A626A68013AC2F30802A9680139490277
:103BF00089B20A43E9680139090401F4FE010A4364
:103C000029690139090601F0FE410A439A63DA6A1B
:103C100022F0C00269690A43DA62DA6A22F02002FD
:103C2000A9690A43DA62DA6A22F01002DA62D96B11
:103C30001B4A0A40E96942EAC102DA63DA6A42F0E1
:103C40001002DA62C6B91A46DB6A43F40023D36273
:103C5000124A136843F080631360FEF7FDFF0446C9
:103C60000E4B1B6813F0006F14D1FEF7F5FF001B1D
:103C70000228F5D90320ABE7012E05D0074AD36A05
:103C800043F40013D362E3E7044AD36A43F4801396
:103C9000D362DDE700209BE7012070470044025813
:103CA0000700FFFF404B9B6A03F00303032B79D00F
:103CB00070B505460E463C4A136823F080531360E6
:103CC000FEF7CAFF0446384B1B6813F0005F06D0AE
:103CD000FEF7C2FF031B022BF5D9032070BD324B48
:103CE0009A6A22F07C72296842EA01529A626A68F2
:103CF000013AC2F30802A9680139490289B20A43AC
:103D0000E9680139090401F4FE010A43296901390E
:103D1000090601F0FE410A431A64DA6A22F440629D
:103D200069690A43DA62DA6A22F40072A9690A430D
:103D3000DA62DA6A22F48072DA62596C1B4A0A404B
:103D4000E96942EAC1025A64DA6A42F48072DA62CC
:103D5000C6B91A46DB6A43F48003D362124A136879
:103D600043F080531360FEF777FF04460E4B1B6849
:103D700013F0005F14D1FEF76FFF001B0228F5D986
:103D80000320ABE7012E05D0074AD36A43F08073C6
:103D9000D362E3E7044AD36A43F40003D362DDE766
:103DA00000209BE701207047004402580700FFFFF6
:103DB000F8B50446036813F0006F30D0436EB3F5D6
:103DC000001F26D00ED8EBB1B3F5801F07D102211A
:103DD0000430FFF7E1FE054645B12E4621E00126FD
:103DE00035461EE0B3F5401F09D10025954A136DF5
:103DF00023F44013616E0B431365002611E0012686
:103E000035460EE08F4AD36A43F40033D36200256F
:103E1000ECE702212430FFF745FF0546DCE70026EA
:103E20003546236813F4807F14D0636D042B30D89B
:103E3000DFE803F0032228080800824AD36A43F42B
:103E40000033D36245BB7F4A136D23F00703616DD6
:103E50000B431365236813F4007F2FD0A36D802BD1
:103E600049D01ED8002B40D0402B17D10021201D57
:103E7000FFF792FE054619E00021201DFFF78CFE9A
:103E80000546DFE7002104F12400FFF70BFF05469C
:103E9000D8E701263546DDE72E46DBE70126354625
:103EA0000CE0C02B02D0B3F5807F1BD155BB654A17
:103EB000136D23F4E073A16D0B431365236813F4B2
:103EC000806F45D0D4F8A430B3F5800F38D01ED819
:103ED00083B3B3F5001F17D10021201DFFF75CFE4F
:103EE00005461AE001263546E8E7564AD36A43F408
:103EF0000033D362DAE7002104F12400FFF7D2FE99
:103F00000546D3E72E46D9E70126354620E0B3F52E
:103F1000C00F02D0B3F5000F09D1C5B9494A936D5E
:103F200023F46003D4F8A4100B43936510E001263A
:103F300035460DE0434AD36A43F40033D362ECE7DD
:103F4000002104F12400FFF7ADFE0546E5E72E460B
:103F5000236813F4006F23D0D4F8A830B3F1007FA6
:103F600041D00DD8002B38D0B3F1807F05D100218E
:103F7000201DFFF711FE054608E0012635460FE03B
:103F8000B3F1407F02D0B3F1806F23D1002D31D146
:103F90002C4A936D23F0E063D4F8A8100B4393658B
:103FA000236813F0007F2ED0A36C202B3FD026D89F
:103FB00033B1102B20D1234AD36A43F40033D362A8
:103FC000002D3AD11F4AD36C23F03003A16C0B4370
:103FD000D36418E001263546E2E71A4AD36A43F46F
:103FE0000033D362D2E7002104F12400FFF75AFE28
:103FF0000546CBE72E46D3E70126354603E0302BB6
:10400000DED001263546236813F4805F2BD0E36DA4
:10401000B3F5005F4CD017D8002B43D0B3F5805FC9
:104020000DD10021201DFFF7B7FD054612E002214A
:10403000201DFFF7B1FD0546C2E72E46E3E7012646
:10404000354610E000440258B3F5405F02D0B3F5A6
:10405000804F24D1002D32D1754A136D23F4E043F3
:10406000E16D0B431365236813F4005F37D0236EB3
:10407000B3F5003F51D027D83BB1B3F5803F20D1F5
:104080000121201DFFF788FD0546002D4CD1684A0F
:10409000136D23F4E023216E0B4313651FE001260B
:1040A0003546E0E7624AD36A43F40033D362D1E78E
:1040B000002104F12400FFF7F5FD0546CAE72E466E
:1040C000D1E7012635460AE0B3F5802FDDD0B3F500
:1040D000A02FDAD0B3F5403FD7D00126354623686C
:1040E00013F4804F30D0D4F8AC30B3F1005F44D03B
:1040F0001FD83BB1B3F1805F18D10121201DFFF71C
:104100004BFD0546002D3FD1494A936D23F0E04316
:10411000D4F8AC100B43936516E0012104F12400A0
:10412000FFF7C0FD0546B0E72E46D8E70126354625
:104130000AE0B3F1804FE5D0B3F1A04FE2D0B3F184
:10414000405FDFD001263546236813F4004F09D0C5
:10415000E36EB3F1805F19D0B3F1005F24D0D3B127
:1041600001263546236813F0807F32D0636C032B21
:1041700059D8DFE803F026215226012104F124005A
:10418000FFF790FD0546BDE72E46DDE7284AD36AD6
:1041900043F40033D3626DB9254A136D23F04053C5
:1041A000E16E0B431365DDE70121201DFFF7F4FCF1
:1041B0000546F0E72E46D5E71D4AD36A43F400339F
:1041C000D3629DBB1A4AD36C23F00303616C0B438B
:1041D000D364236813F4800F2CD1236813F0010FEC
:1041E00000F0A380A36F282B00F29D80DFE803F08E
:1041F0008B9B9B9B9B9B9B9B869B9B9B9B9B9B9B34
:10420000949B9B9B9B9B9B9B8B9B9B9B9B9B9B9B15
:104210008B9B9B9B9B9B9B9B8B000221201DFFF7F5
:10422000BBFC0546CDE701263546D2E72E46D0E752
:10423000004402588F4A136843F480731360FEF7FA
:104240000BFD07468B4B1B6813F4807F05D1FEF7EF
:1042500003FDC01B6428F5D90325002D4AD1864BE8
:104260001B6FD4F8B020534013F4407F0CD0824B26
:104270001A6F22F44072196F41F480311967196F77
:1042800021F4803119671A67D4F8B030B3F5807F14
:1042900015D08DBBD4F8B03003F44072B2F5407F36
:1042A0001ED0754A136923F47C53136172490B6F56
:1042B000D4F8B020C2F30B0213430B678DE7FEF76F
:1042C000CBFC07466C4B1B6F13F0020FE1D1FEF7DE
:1042D000C3FCC01B41F288339842F3D90325D8E7C9
:1042E0006548026922F47C52644901EA13131343BE
:1042F0000361DBE72E4670E72E466EE70121201DA5
:10430000FFF74AFC0546E5B95B4A536D23F03803D5
:10431000A16F0B43536508E0012104F12400FFF76E
:10432000C1FC0546EFE701263546236813F0020F6E
:1043300016D0636F052B27D8DFE803F00A051F0AA4
:104340000A0A2E46F1E70121201DFFF725FC05464C
:10435000EDB9494A536D23F00703616F0B43536571
:10436000236813F0040F22D0D4F89030052B43D8E3
:10437000DFE803F0140F3B141414012104F12400AE
:10438000FFF790FC0546E3E701263546E8E72E46B1
:10439000E6E70121201DFFF7FFFB05467DBB364AFE
:1043A000936D23F00703D4F890100B4393652368B3
:1043B00013F0200F33D0D4F88C30B3F1005F4CD021
:1043C00022D83BB1B3F1805F1BD10021201DFFF744
:1043D000E3FB0546002D47D1274A536D23F0E04308
:1043E000D4F88C100B43536519E0012104F124002B
:1043F000FFF758FC0546D1E701263546D7E72E469C
:10440000D5E7012635460AE0B3F1804FE2D0B3F19B
:10441000A04FDFD0B3F1405FDCD0012635462368E2
:1044200013F0400F37D0D4F89830B3F5006F52D066
:1044300026D83BB1B3F5806F18D10021201DFFF7BE
:10444000ABFB0546002D4DD10B4A936D23F4E05391
:10445000D4F898100B4393651DE0022104F1240069
:10446000FFF720FC0546B5E72E46D8E7012635467E
:1044700011E000BF0048025800440258CFFFFF007F
:10448000B3F5805FDED0B3F5A05FDBD0B3F5406F4E
:10449000D8D001263546236813F0800F32D0D4F8E7
:1044A0009C30B3F5804F00F09D8020D83BB1B3F530
:1044B000005F19D10021201DFFF76EFB0546002D7E
:1044C00040F09780A54A936D23F46043D4F89C1084
:1044D0000B43936516E0022104F12400FFF7E2FB91
:1044E0000546AFE72E46D6E7012635460AE0B3F586
:1044F000004FE4D0B3F5204FE1D0B3F5C04FDED08C
:1045000001263546236813F0080F0CD0D4F880300C
:10451000B3F5805F6FD0914A536D23F44053D4F8C4
:1045200080100B435365236813F0100F0CD0D4F8A0
:104530009430B3F5807F67D0884A936D23F440733D
:10454000D4F894100B439365236813F4002F0BD019
:10455000D4F8A030B3F5803F6ED0B3F5003F61D002
:10456000002B5AD001263546236813F4802F0CD037
:10457000D4F88430B3F5001F76D0B3F5401F69D06E
:10458000B3F5801F61D001263546236813F4803FC0
:1045900007D0E36C002B70D0B3F5803F7BD00126B1
:1045A0003546236813F0005F7DD1236813F4003F84
:1045B00000F08680E36FB3F5807F00F0C6807CD981
:1045C000B3F5007F03D0B3F5407F40F0BC80002DF1
:1045D00040F0C180614A536D23F44073E16F0B4397
:1045E00053656DE0022104F12400FFF75BFB0546F3
:1045F00065E72E4686E7022104F12400FFF752FB0F
:10460000002888D0012686E7022104F12400FFF764
:1046100049FB002890D001268EE70021201DFFF7DE
:10462000BBFA05467DB94D4A936D23F44033D4F867
:10463000A0100B43936597E7022104F12400FFF7D4
:1046400031FB0546EEE72E468EE7444AD36A43F433
:104650000033D3627DB9414A536D23F44013D4F83B
:1046600084100B43536590E7012104F12400FFF708
:1046700019FB0546EEE72E4687E7384AD36A43F42E
:104680000033D3626DB9354AD36C23F48033E16CC7
:104690000B43D36485E70221201DFFF77DFA054611
:1046A000F0E72E467DE7022104F12400FFF7FAFA35
:1046B00000283FF47AAF012677E7002B87D0012648
:1046C000236813F4801F06D0244A136D23F000439F
:1046D000216F0B431365236813F0805F07D01F4AD7
:1046E000136923F48043D4F8B4100B431361236897
:1046F00013F4001F06D0194A136D23F08073A16EC6
:104700000B431365236813F0804F09D0134B1A69CC
:1047100022F400421A611A69D4F8B8100A431A61E7
:104720002368002B1CDB236813F4000F07D00B4A0F
:10473000536D23F44003D4F888100B43536506B13E
:1047400001263046F8BD0126BAE7044AD36A43F48D
:104750000033D3623BE72E46B2E700BF0044025865
:10476000034AD36C23F04053216D0B43D364DAE743
:104770000044025808B5FFF7C9F9054B1B6AC3F39B
:104780000213044AD35C03F01F03D84008BD00BFE6
:10479000004402580CBA00082DE9F0410446864B4B
:1047A0009D6A9E6AC6F30536D86AC0F30010DB6BBB
:1047B000C3F3CC0303FB00F0FBF758FE002E00F020
:1047C000F58005F003050746012D79D0022D00F094
:1047D000CB800DB33046FBF749FE01467748FBF727
:1047E00051FF0546744B986BC0F30800FBF73EFE83
:1047F00006464FF064513846FBF790FE01463046BE
:10480000FBF784FD4FF07E51FBF780FD0146284603
:10481000FBF784FE054674E0674B1B6813F0200F1E
:104820002CD0DFF89481D8F80030C3F3C10364487A
:10483000D840FBF71BFE05463046FBF717FE014646
:104840002846FBF71FFF0546D8F83800C0F30800DC
:10485000FBF70CFE06464FF064513846FBF75EFE50
:1048600001463046FBF752FD4FF07E51FBF74EFDFF
:1048700001462846FBF752FE054642E03046FBF76C
:10488000F5FD01464F48FBF7FDFE05464A4B986B88
:10489000C0F30800FBF7EAFD06464FF064513846C6
:1048A000FBF73CFE01463046FBF730FD4FF07E51F2
:1048B000FBF72CFD01462846FBF730FE054620E0BD
:1048C0003046FBF7D3FD01463C48FBF7DBFE0546CF
:1048D000394B986BC0F30800FBF7C8FD06464FF054
:1048E00064513846FBF71AFE01463046FBF70EFDD1
:1048F0004FF07E51FBF70AFD01462846FBF70EFEFE
:1049000005462D4EB06BC0F34620FBF7AFFD4FF0D0
:104910007E51FBF7FBFC01462846FBF7B3FEFBF795
:104920004DFF2060B06BC0F30640FBF79FFD4FF0DA
:104930007E51FBF7EBFC01462846FBF7A3FEFBF795
:104940003DFF6060B06BC0F30660FBF78FFD4FF07A
:104950007E51FBF7DBFC01462846FBF793FEFBF795
:104960002DFFA060BDE8F0813046FBF77FFD0146DA
:104970001548FBF787FE05460F4B986BC0F3080000
:10498000FBF774FD06464FF064513846FBF7C6FD51
:1049900001463046FBF7BAFC4FF07E51FBF7B6FC00
:1049A00001462846FBF7BAFD0546AAE70023236027
:1049B0006360A360D6E700BF004402580024744A35
:1049C0000090D0030024744C20BCBE4B2DE9F04174
:1049D0000446864B9D6A9E6AC6F30556D86AC0F3A4
:1049E00000205B6CC3F3CC0303FB00F0FBF73EFD40
:1049F000002E00F0F58005F003050746012D79D063
:104A0000022D00F0CB800DB33046FBF72FFD0146A1
:104A10007748FBF737FE0546744B186CC0F3080067
:104A2000FBF724FD06464FF064513846FBF776FD50
:104A300001463046FBF76AFC4FF07E51FBF766FCFF
:104A400001462846FBF76AFD054674E0674B1B6884
:104A500013F0200F2CD0DFF89481D8F80030C3F386
:104A6000C1036448D840FBF701FD05463046FBF71B
:104A7000FDFC01462846FBF705FE0546D8F8400038
:104A8000C0F30800FBF7F2FC06464FF064513846CD
:104A9000FBF744FD01463046FBF738FC4FF07E51F2
:104AA000FBF734FC01462846FBF738FD054642E09B
:104AB0003046FBF7DBFC01464F48FBF7E3FD0546BC
:104AC0004A4B186CC0F30800FBF7D0FC06464FF0C9
:104AD00064513846FBF722FD01463046FBF716FCD1
:104AE0004FF07E51FBF712FC01462846FBF716FDFE
:104AF000054620E03046FBF7B9FC01463C48FBF791
:104B0000C1FD0546394B186CC0F30800FBF7AEFC3D
:104B100006464FF064513846FBF700FD014630462B
:104B2000FBF7F4FB4FF07E51FBF7F0FB0146284604
:104B3000FBF7F4FC05462D4E306CC0F34620FBF726
:104B400095FC4FF07E51FBF7E1FB01462846FBF751
:104B500099FDFBF733FE2060306CC0F30640FBF795
:104B600085FC4FF07E51FBF7D1FB01462846FBF751
:104B700089FDFBF723FE6060306CC0F30660FBF735
:104B800075FC4FF07E51FBF7C1FB01462846FBF751
:104B900079FDFBF713FEA060BDE8F0813046FBF71E
:104BA00065FC01461548FBF76DFD05460F4B186C7B
:104BB000C0F30800FBF75AFC06464FF06451384634
:104BC000FBF7ACFC01463046FBF7A0FB4FF07E51F3
:104BD000FBF79CFB01462846FBF7A0FC0546AAE72D
:104BE000002323606360A360D6E700BF004402583F
:104BF0000024744A0090D0030024744C20BCBE4BA7
:104C000070B586B00446016883680269134342693F
:104C10001343C26913430868884A024013430B6078
:104C20002268536823F44053E1680B435360A16941
:104C30002268834B9A4201D0236A19439068814BC2
:104C400003400B4393602268D36A23F00F03616A29
:104C50000B43D36222687C4B9A4221D07B4B9A4211
:104C600000F08C807A4B9A4200F0A280794B9A42F5
:104C700000F0B580784B9A4200F0C880774B9A429A
:104C800000F0F480764B9A4200F01981754B9A42FD
:104C900000F02C816A4B9A4200F03F81802333E080
:104CA000714B5B6D03F03803282B65D8DFE813F0F8
:104CB000290064006400640064006400640064000F
:104CC0004D016400640064006400640064006400DA
:104CD0002B006400640064006400640064006400ED
:104CE0005E006400640064006400640064006400AA
:104CF0006000640064006400640064006400640098
:104D00006200012300E008234D498A4200F02F8110
:104D1000E069B0F5004F00F0AF81202B00F2078270
:104D2000202B00F25182DFE813F01E0224024F0212
:104D30004F0227024F024F024F022C024F024F0236
:104D40004F024F024F024F024F0231024F024F02F9
:104D50004F024F024F024F024F024F024F024F02CB
:104D60004F024F024F024F024F023D021023CBE78A
:104D70002023C9E74023C7E78023C5E73A4B5B6D93
:104D800003F00703052B11D8DFE813F00600E1005C
:104D900008000A000C000E000023B5E70823B3E763
:104DA0001023B1E72023AFE74023ADE78023ABE733
:104DB0002D4B5B6D03F00703052B0ED8DFE803F0E6
:104DC00003C90507090B00239EE708239CE710236E
:104DD0009AE7202398E7402396E7802394E7224B25
:104DE0005B6D03F00703052B0ED8DFE803F003B477
:104DF0000507090B002387E7082385E7102383E7CE
:104E0000202381E740237FE780237DE7164B5B6DFE
:104E100003F00703052B0ED8DFE803F0039F050717
:104E2000090B002370E708236EE710236CE72023AB
:104E30006AE7402368E7802366E700BFF369FFCF96
:104E4000000C0058FFF4FF11001001400044004026
:104E500000480040004C0040005000400014014059
:104E600000780040007C0040004402587D4B5B6DA0
:104E700003F03803282B20D8DFE803F0151F1F1F8D
:104E80001F1F1F1F711F1F1F1F1F1F1F171F1F1FE8
:104E90001F1F1F1F191F1F1F1F1F1F1F1B1F1F1F2C
:104EA0001F1F1F1F1D0001232EE708232CE71023BF
:104EB0002AE7202328E7402326E7802324E7694BBD
:104EC0005B6D03F00703052B0ED8DFE803F0034A00
:104ED0000507090B002317E7082315E7102313E73D
:104EE000202311E740230FE780230DE75D4B5B6D27
:104EF00003F00703052B0ED8DFE803F003350507A1
:104F0000090B002300E70823FEE61023FCE620231C
:104F1000FAE64023F8E68023F6E603F50E339B6DB0
:104F200003F00703052B0ED8DFE803F0031F050786
:104F3000090B0223E8E60823E6E61023E4E6202333
:104F4000E2E64023E0E68023DEE60423DCE60423F9
:104F5000DAE60423D8E60423D6E60423D4E60423C1
:104F6000D2E60423D0E60423CEE60423CCE6202BAD
:104F700027D8022BC0F01A81023B1E2B00F21881A9
:104F8000DFE813F050001601560016011601160155
:104F90005B00160116011601160116011601160115
:104FA0006000160116011601160116011601160100
:104FB0001601160116011601160116011601160139
:104FC0006C00402B2CD14FF40040626A264B33F822
:104FD0001220B0FBF2F3656805EB4501994200F23F
:104FE000E980B3EB053F00F2E78000263346314607
:104FF000FBF704FC090241EA106100026B08C018CB
:105000002A46334641F10001FBF7F8FBA0F5407258
:10501000164B9A4200F2D2802368D8603046D4E022
:105020000120D2E0FFF7A6FB0028CED10020CCE083
:1050300003A8FFF7B1FB0498F6E76846FFF7C6FC44
:105040000198F1E7074B1B6813F0200F08D0054BC0
:105050001B68C3F3C1030648D840E5E70548B4E739
:105060000348B2E7004402581CBA0008FFFC0F00D6
:105070000090D00300093D00202B15D8202B00F212
:105080009F80DFE803F031379D9D3A9D9D9D3F9DB8
:105090009D9D9D9D9D9D449D9D9D9D9D9D9D9D9D99
:1050A0009D9D9D9D9D9D5000402B1BD1626A4D4B47
:1050B00033F81230B0FBF3F06268530803EB4000A2
:1050C000B0FBF2F0A0F110024FF6EF739A4279D8DC
:1050D00083B223F00F03C0F3420018432368D86063
:1050E000002072E0012070E0FEF732FD0028DDD1E3
:1050F00000206AE0FEF73EFDF8E703A8FFF74CFB4F
:105100000498F3E76846FFF761FC0198EEE7364B39
:105110001B6813F0200F08D0334B1B68C3F3C10387
:105120003248D840E2E73248C0E73048BEE7402B7B
:1051300017D14FF40040626A2A4B33F81230B0FBAB
:10514000F3F0636800EB5300B0FBF3F0A0F1100242
:105150004FF6EF739A4242D8236880B2D86000209D
:1051600033E0012031E0FEF7F3FC0028E3D100201A
:105170002BE0FEF7FFFCF8E703A8FFF70DFB049810
:10518000F3E76846FFF722FC0198EEE7164B1B6831
:1051900013F0200F08D0144B1B68C3F3C10313484E
:1051A000D840E2E71248C6E71048C4E701200CE007
:1051B00001200AE0012008E0012006E0012004E0CF
:1051C000012002E0012000E001200123A4F86A3060
:1051D000A4F8683000232367636706B070BD012020
:1051E000F3E700BF1CBA0008004402580090D00347
:1051F00000093D00836A13F0010F06D0026853686E
:1052000023F40033C16A0B435360836A13F0020F27
:1052100006D00268536823F48033016B0B4353605C
:10522000836A13F0040F06D00268536823F48023C6
:10523000416B0B435360836A13F0080F06D002687A
:10524000536823F40043816B0B435360836A13F06C
:10525000100F06D00268936823F48053C16B0B4390
:105260009360836A13F0200F06D00268936823F4DA
:105270000053016C0B439360836A13F0400F0AD014
:105280000268536823F48013416C0B435360436CF2
:10529000B3F5801F0BD0836A13F0800F06D002682D
:1052A000536823F40023C16C0B43536070470268BA
:1052B000536823F4C003816C0B435360EBE72DE983
:1052C000F84305460F4616469946DDF820802C68BF
:1052D000E46937EA04030CBF4FF0010C4FF0000CF7
:1052E000B44557D1B8F1FF3FF1D0FDF7B5FCA0EBC5
:1052F000090040452FD8B8F1000F2CD02B681A6850
:1053000012F0040FE3D0DA6912F4006FDFD04FF42B
:1053100000621A622A6852E8003F23F4D07342E820
:1053200000310029F6D12A6802F1080353E8003F52
:1053300023F00103083242E800310029F3D1202391
:10534000C5F88430C5F88830C5F88C30002385F85E
:10535000803003201FE02A6852E8003F23F4D07316
:1053600042E800310029F6D12A6802F1080353E827
:10537000003F23F00103083242E800310029F3D155
:105380002023C5F88430C5F88830002385F88030A4
:10539000032000E00020BDE8F8832DE9F04182B051
:1053A0001E46D0F88430202B58D104460D46904636
:1053B000002A18BF002955D090F88030012B53D017
:1053C000012380F880300023C0F88C302123C0F8FE
:1053D0008430FDF741FC0746A4F85480A4F85680B9
:1053E000A368B3F5805F05D04FF00008002384F870
:1053F000803012E0236913B14FF00008F6E7A846A9
:105400000025F3E715F8012B23689A62B4F85620BB
:1054100092B2013A92B2A4F85620B4F856309BB238
:1054200083B100963B46002280212046FFF747FFCC
:10543000E0B9002DE6D138F8023B2268C3F3080337
:105440009362E3E700963B46002240212046FFF7A7
:1054500036FF68B92023C4F8843000E0022002B08F
:10546000BDE8F0810120FAE70220F8E70320F6E723
:105470000320F4E72DE9F04383B01E46D0F88830CE
:10548000202B40F0818004460D469046002A18BF2C
:1054900000297DD090F88030012B7BD0012380F84B
:1054A00080300023C0F88C302222C0F88820C366E8
:1054B000FDF7D2FB0746A4F85C80A4F85E80A368E1
:1054C000B3F5805F06D0A3B9226972B9FF22A4F8B0
:1054D000602014E0226922B940F2FF12A4F8602093
:1054E0000DE0FF22A4F8602009E07F22A4F86020EC
:1054F00005E0B3F1805F0DD00022A4F86020B4F87D
:105500006080B3F5805F0FD04FF00009002384F86E
:1055100080301EE022691AB97F22A4F86020EEE7ED
:105520003F22A4F86020EAE7236913B14FF0000995
:10553000ECE7A9460025E9E723685B6A08EA03036C
:1055400029F8023BB4F85E2092B2013A92B2A4F874
:105550005E20B4F85E309BB28BB100963B460022D1
:1055600020212046FFF7ABFEB0B9002DE4D0236820
:105570005A6A5FFA88F3134005F8013BE2E72023FB
:10558000C4F88830002000E0022003B0BDE8F083BA
:105590000120FAE70220F8E70320F6E730B583B0F0
:1055A00004460023C0F88C30FDF756FB0546226800
:1055B000126812F0080F0FD123681B6813F0040F54
:1055C00018D12023C4F88430C4F888300020E06665
:1055D00084F8800003B030BD6FF07E430093034633
:1055E00000224FF400112046FFF769FE0028E3D0A7
:1055F0000320EFE76FF07E4300932B4600224FF429
:1056000080012046FFF75BFE0028DAD00320E1E7A7
:1056100078B310B50446D0F884300BB32423C4F813
:1056200084302268136823F0010313602046FFF7DB
:10563000E7FA012813D0A36ABBB92268536823F4A0
:10564000904353602268936823F02A039360226892
:10565000136843F0010313602046FFF79FFF10BD5E
:1056600080F88030FDF732FAD8E72046FFF7C2FD18
:10567000E3E7012070470000436E2BB90123A0F837
:105680006A30A0F86830704730B403689A68C2F393
:1056900042629968490F094D6B5C1B01084C615CC3
:1056A00093FBF1F3A0F86A30AB5C1B01A25C93FBA7
:1056B000F2F3A0F8683030BC704700BF3CBA000875
:1056C00034BA000890F88030012B18D0012380F8FC
:1056D00080302423C0F8843003681A68196821F0E8
:1056E0000101196022F000520023436601680A603C
:1056F0002022C0F8842080F88030184670470220AD
:10570000704738B590F88030012B1DD00446012336
:1057100080F880302423C0F8843003681D681A683C
:1057200022F001021A600268936823F06043194373
:105730009160FFF7A1FF23681D602023C4F8843027
:10574000002084F8800038BD0220FCE738B590F8CE
:105750008030012B1DD00446012380F880302423A3
:10576000C0F8843003681D681A6822F001021A60CC
:105770000268936823F0606319439160FFF77CFF30
:1057800023681D602023C4F88430002084F8800042
:1057900038BD0220FCE70000DFF834D0FDF704F943
:1057A0000C480D490D4A002302E0D458C45004337C
:1057B000C4188C42F9D30A4A0A4C002301E0136052
:1057C0000432A242FBD300F01FF8FDF793F87047B4
:1057D0000000022000000020C009002040BF000897
:1057E000C0090020C00A0020FEE7000008B506201E
:1057F00000F0C2F90120FDF7B3F800BF014B1868B3
:10580000704700BF1000002070B50D4E0D4D761B87
:10581000B61006D0002455F8043B01349847A64240
:10582000F9D1094E094D761B06F0B8F8B61006D02E
:10583000002455F8043B01349847A642F9D170BDC5
:1058400034BF000834BF00083CBF000834BF000864
:10585000830730B548D0541E002A3FD0CAB2034651
:1058600001E0013C3AD303F8012B9D07F9D1032C49
:105870002DD9CDB245EA05250F2C45EA054536D987
:10588000A4F1100222F00F0C03F1200EE6444FEABF
:10589000121C03F1100242E9045542E9025510328C
:1058A0007245F8D10CF1010214F00C0F03EB021257
:1058B00004F00F0C13D0ACF1040323F00303043302
:1058C000134442F8045B9342FBD10CF003042CB167
:1058D000CAB21C4403F8012B9C42FBD130BD644684
:1058E0001346002CF4D1F9E703461446BFE71A46E5
:1058F000A446E0E70FB400B5074983B004AB0868DD
:1059000053F8042B8168019300F07CF903B05DF833
:1059100004EB04B0704700BF1000002070B50546CE
:1059200088B008460C46FCF70BF9224EAA6B05908E
:1059300001214318CDE9066104A8022104940393D0
:10594000AC680190029122B3636E13F0010FB4F9B9
:105950000C309AB201D1980525D5910406D4626E17
:1059600043F4005322F40052A3816266284601AA40
:10597000214603F021FA636E002814BF4FF0FF3573
:105980000A25DA0702D4A3899B0506D5284608B064
:1059900070BD284603F012F8D6E7A06D03F0AEFB09
:1059A000284608B070BDA06D03F0A6FBB4F90C301A
:1059B0009AB2D2E7F0B90008024B01461868FFF727
:1059C000ADBF00BF100000202DE9F043694CD4F8B2
:1059D000008083B004460E4617461D46B8F1000FFE
:1059E00003D0D8F83830002B77D0022F05D0012F04
:1059F00000F2AC80002DC0F2A980636EDA0752D5A8
:105A00002146404602F0A6FF216B41B104F140035C
:105A1000994202D0404603F0C9F800232363B4F949
:105A20000CC000231CF0800FA361636064D12CF4D0
:105A30004A6C2CF0030C022FA4F80CC06AD001AB06
:105A40006A462146404603F0CBFBA3891843A08158
:105A5000002D2FD0002E2ED0D8F83830002B38D083
:105A6000009B2660AB42B4F90C301CBF43F40063CA
:105A7000A381012F04BF43F00103A3819AB213F065
:105A80000803C4E904652CD0D1075DD56D42A5613A
:105A9000656E002315F00105A36027D00025284678
:105AA00003B0BDE8F083A3899B05A9D4A06D03F0E2
:105AB00023FBA5E7009D284603F0C2FB064600280D
:105AC00047D0A38943F08003A381D8F83830002B56
:105AD000C6D1404602F072FFC2E7404602F06EFFB8
:105AE00083E7A360656E15F00105D7D1930524D532
:105AF000284603B0BDE8F0832169404603F056F81C
