:020000040800F2
:1000000000000220154A0008791A00087B1A00082F
:100010007D1A00087F1A0008811A000800000000FD
:10002000000000000000000000000000831A00082B
:10003000851A000800000000871A0008891A0008C5
:10004000654A0008654A0008654A0008654A0008D4
:10005000654A0008654A0008654A0008654A0008C4
:10006000654A0008654A0008654A0008654A0008B4
:10007000654A0008654A0008654A0008654A0008A4
:10008000654A0008654A0008654A0008654A000894
:10009000654A0008654A0008654A0008654A000884
:1000A000654A0008654A0008654A0008654A000874
:1000B000654A0008654A0008654A0008654A000864
:1000C000654A0008654A0008654A0008654A000854
:1000D000654A0008654A0008654A0008654A000844
:1000E000654A0008654A000800000000654A0008EB
:1000F000654A0008654A0008654A0008654A000824
:10010000654A0008654A0008654A0008654A000813
:10011000654A0008654A0008654A0008654A000803
:10012000654A0008654A0008654A0008654A0008F3
:10013000654A0008654A0008654A0008654A0008E3
:1001400000000000000000000000000000000000AF
:10015000654A0008654A0008654A0008654A0008C3
:10016000654A0008654A0008654A0008654A0008B3
:10017000654A0008654A0008654A0008654A0008A3
:10018000654A0008654A0008654A0008654A000893
:10019000654A0008654A0008654A0008654A000883
:1001A000654A0008654A0008654A0008654A000873
:1001B000654A0008654A0008654A0008654A000863
:1001C000654A0008654A0008654A0008654A000853
:1001D000654A0008654A0008654A0008654A000843
:1001E000654A0008654A0008654A0008654A000833
:1001F000654A0008654A0008654A0008654A000823
:10020000654A0008654A0008654A0008654A000812
:10021000654A0008654A0008654A0008654A000802
:10022000654A0008654A0008654A000800000000A9
:10023000654A0008654A000800000000654A000899
:10024000654A0008654A0008654A0008654A0008D2
:10025000654A0008654A0008654A0008654A0008C2
:10026000654A0008654A0008654A0008654A0008B2
:10027000654A0008654A0008654A00080000000059
:10028000654A0008654A0008654A00080000000049
:0802900000000000654A0008AF
:1002C00010B5054C237833B9044B13B10448AFF390
:1002D00000800123237010BDC00900200000000031
:1002E00018AC000808B5034B1BB103490348AFF332
:1002F000008008BD00000000C409002018AC000800
:1003000080F0004002E000BF81F0004142001FBFCA
:100310005FEA410392EA030F7FEA226C7FEA236CD3
:100320006AD04FEA1262D2EB1363C1BFD2184140C8
:1003300048404140B8BF5B42192B88BF704710F05E
:10034000004F40F4000020F07F4018BF404211F001
:10035000004F41F4000121F07F4118BF494292EA69
:10036000030F3FD0A2F1010241FA03FC10EB0C0095
:10037000C3F1200301FA03F100F0004302D5494222
:1003800060EB4000B0F5000F13D3B0F1807F06D3CF
:1003900040084FEA310102F10102FE2A51D2B1F1C7
:1003A000004F40EBC25008BF20F0010040EA0300BC
:1003B0007047490040EB0000013A28BFB0F5000F3C
:1003C000EDD2B0FA80FCACF1080CB2EB0C0200FAF2
:1003D0000CF0AABF00EBC25052421843BCBFD04041
:1003E0001843704792F0000F81F4000106BF80F4BB
:1003F00000000132013BB5E74FEA41037FEA226C7E
:1004000018BF7FEA236C21D092EA030F04D092F048
:10041000000F08BF0846704790EA010F1CBF00207C
:10042000704712F07F4F04D1400028BF40F00040D9
:10043000704712F100723CBF00F50000704700F0F9
:10044000004343F0FE4040F4000070477FEA226220
:1004500016BF08467FEA23630146420206BF5FEAF1
:10046000412390EA010F40F4800070474FF00003F1
:1004700004E000BF10F0004348BF40425FEA000CB8
:1004800008BF704743F0964301464FF000001CE060
:1004900050EA010208BF70474FF000030AE000BFB6
:1004A00050EA010208BF704711F0004302D54042F4
:1004B00061EB41015FEA010C02BF84460146002066
:1004C00043F0B64308BFA3F18053A3F50003BCFA81
:1004D0008CF2083AA3EBC25310DB01FA02FC63442E
:1004E00000FA02FCC2F12002BCF1004F20FA02F235
:1004F00043EB020008BF20F00100704702F1200228
:1005000001FA02FCC2F1200250EA4C0021FA02F288
:1005100043EB020008BF20EADC7070474FF0FF0C8D
:100520001CEAD0521EBF1CEAD15392EA0C0F93EA88
:100530000C0F6FD01A4480EA010C400218BF5FEA2A
:1005400041211ED04FF0006343EA501043EA51119D
:10055000A0FB01310CF00040B1F5000F3EBF490097
:1005600041EAD3715B0040EA010062F17F02FD2A9B
:100570001DD8B3F1004F40EBC25008BF20F001007E
:10058000704790F0000F0CF0004C08BF49024CEA95
:10059000502040EA51207F3AC2BFD2F1FF0340EA27
:1005A000C250704740F400004FF00003013A5DDC98
:1005B00012F1190FDCBF00F000407047C2F10002D9
:1005C000410021FA02F1C2F1200200FA02FC5FEAC6
:1005D000310040F1000053EA4C0308BF20EADC7010
:1005E000704792F0000F00F0004C02BF400010F482
:1005F000000F013AF9D040EA0C0093F0000F01F02F
:10060000004C02BF490011F4000F013BF9D041EA50
:100610000C018FE70CEAD15392EA0C0F18BF93EA52
:100620000C0F0AD030F0004C18BF31F0004CD8D17C
:1006300080EA010000F00040704790F0000F17BF03
:1006400090F0004F084691F0000F91F0004F14D049
:1006500092EA0C0F01D142020FD193EA0C0F03D1A1
:100660004B0218BF084608D180EA010000F00040A4
:1006700040F0FE4040F40000704740F0FE4040F47F
:10068000400070474FF0FF0C1CEAD0521EBF1CEA1E
:10069000D15392EA0C0F93EA0C0F69D0A2EB03023C
:1006A00080EA010C49024FEA402037D04FF08053D6
:1006B00043EA111143EA10130CF000408B4238BF9B
:1006C0005B0042F17D024FF4000C8B4224BF5B1AA9
:1006D00040EA0C00B3EB510F24BFA3EB510340EAF7
:1006E0005C00B3EB910F24BFA3EB910340EA9C00A5
:1006F000B3EBD10F24BFA3EBD10340EADC001B0115
:1007000018BF5FEA1C1CE0D1FD2A3FF650AF8B42B8
:1007100040EBC25008BF20F0010070470CF0004CC5
:100720004CEA50207F32C2BFD2F1FF0340EAC250F0
:10073000704740F400004FF00003013A37E792F0B1
:10074000000F00F0004C02BF400010F4000F013A0F
:10075000F9D040EA0C0093F0000F01F0004C02BF0A
:10076000490011F4000F013BF9D041EA0C0195E773
:100770000CEAD15392EA0C0F08D142027FF47DAF0C
:1007800093EA0C0F7FF470AF084676E793EA0C0FFC
:1007900004D14B023FF44CAF08466EE730F0004CFA
:1007A00018BF31F0004CCAD130F000427FF45CAF8A
:1007B00031F000437FF43CAF5FE700BF42000ED250
:1007C000B2F1FE4F0BD34FF09E03B3EB126209D48C
:1007D0004FEA002343F0004323FA02F070474FF042
:1007E0000000704712F1610F01D1420202D14FF0B7
:1007F000FF3070474FF00000704700BF53B94AB94F
:10080000002908BF00281CBF4FF0FF314FF0FF3018
:1008100000F074B9ADF1080C6DE904CE00F006F8F3
:10082000DDF804E0DDE9022304B070472DE9F0476C
:10083000089E0D4604468846002B4DD18A429446B8
:1008400068D9B2FA82F252B101FA02F3C2F1200180
:1008500020FA01F10CFA02FC41EA030894404FEA45
:100860001C45210CB8FBF5FE1FFA8CF705FB1E8317
:1008700041EA03430EFB07F199420BD91CEB03033A
:100880000EF1FF3080F01E81994240F21B81AEF1E3
:10089000020E63445B1AA4B2B3FBF5F005FB103300
:1008A00044EA034400FB07F7A7420AD91CEB0404FF
:1008B00000F1FF3380F00881A74240F205816444D3
:1008C0000238E41B40EA0E4000211EB1D440002350
:1008D000C6E90043BDE8F0878B4208D9002E00F03E
:1008E000EE800021C6E900050846BDE8F087B3FAAE
:1008F00083F100294AD1AB4202D3824200F2F9804F
:10090000841A65EB030301209846002EE2D0C6E965
:100910000048DFE702B9FFDEB2FA82F2002A40F0B7
:100920009180A1EB0C054FEA1C471FFA8CFE0121B8
:10093000B5FBF7F307FB1350250C45EA00450EFB0A
:1009400003F0A84208D91CEB050503F1FF3802D2D9
:10095000A84200F2CB8043462D1AA4B2B5FBF7F0B3
:1009600007FB105544EA05440EFB00FEA64508D9D6
:100970001CEB040400F1FF3502D2A64500F2BB8057
:100980002846A4EB0E0440EA03409EE7C1F120078D
:100990008B4022FA07FC4CEA030C20FA07F405FA14
:1009A00001F31C43FD404FEA1C4900FA01F3B5FB7B
:1009B000F9F8200C1FFA8CFE09FB185540EA054592
:1009C00008FB0EF0A84202FA01F20BD91CEB050558
:1009D00008F1FF3A80F08880A84240F28580A8F1B3
:1009E000020865442D1AA4B2B5FBF9F009FB1055B5
:1009F00044EA054500FB0EFEAE4508D91CEB050593
:100A000000F1FF346CD2AE456AD90238654440EA41
:100A10000840A0FB0294A5EB0E05A542C846A646D9
:100A200056D353D05EB1B3EB080265EB0E0505FA61
:100A300007F722FA01F3CD401F43C6E900750021F4
:100A4000BDE8F087C2F1200320FA03F10CFA02FCA2
:100A500025FA03F395400D434FEA1C471FFA8CFE1D
:100A6000B3FBF7F107FB11302B0C43EA004301FB0A
:100A70000EF0984204FA02F408D91CEB030301F1CA
:100A8000FF382FD298422DD9023963441B1AADB2D8
:100A9000B3FBF7F007FB103345EA034500FB0EF309
:100AA000AB4208D91CEB050500F1FF3816D2AB426A
:100AB00014D902386544ED1A40EA014138E731465D
:100AC000304607E78646E5E61846FAE64B45A9D2E2
:100AD000B9EB020864EB0C0E0138A3E74046EAE7E5
:100AE000204694E74146D1E7D0467BE7023B654488
:100AF00032E7084609E76444023842E7704700BF1E
:100B000090F800F06DE9024520F007016FF0000C4D
:100B100010F0070491F820F040F049804FF00004F5
:100B20006FF00700D1E9002391F840F000F10800D0
:100B300082FA4CF2A4FA8CF283FA4CF3A2FA8CF308
:100B40004BBBD1E9022382FA4CF200F10800A4FA6F
:100B50008CF283FA4CF3A2FA8CF3E3B9D1E90423C3
:100B600082FA4CF200F10800A4FA8CF283FA4CF3FA
:100B7000A2FA8CF37BB9D1E9062301F1200182FAB4
:100B80004CF200F10800A4FA8CF283FA4CF3A2FABA
:100B90008CF3002BC6D0002A04BF04301A4612BAC8
:100BA000B2FA82F2FDE8024500EBD2007047D1E9CB
:100BB000002304F00305C4F100004FEAC50514F05A
:100BC000040F91F840F00CFA05F562EA05021CBF2B
:100BD00063EA050362464FF00004A9E70000000045
:100BE00001F0FF01102A2BDB10F0070F08D010F8DE
:100BF000013B013A8B422DD010F0070F42B3F6D1E2
:100C0000F0B441EA012141EA014122F007047FF0FA
:100C100000070023F0E80256083C85EA010586EA51
:100C2000010685FA47F5A3FA87F586FA47F6A5FA8D
:100C300087F68EB9EED1F0BC01F0FF0102F0070299
:100C400032B110F8013B013A83EA010313B1F8D144
:100C50000020704701387047002D06BF3546033825
:100C6000073815F0010F07D1013015F4807F02BF5E
:100C7000013015F4C03F0130F0BC0138704700BFAF
:100C8000844641EA000313F003036DD1403A41D397
:100C900051F8043B40F8043B51F8043B40F8043B56
:100CA00051F8043B40F8043B51F8043B40F8043B46
:100CB00051F8043B40F8043B51F8043B40F8043B36
:100CC00051F8043B40F8043B51F8043B40F8043B26
:100CD00051F8043B40F8043B51F8043B40F8043B16
:100CE00051F8043B40F8043B51F8043B40F8043B06
:100CF00051F8043B40F8043B51F8043B40F8043BF6
:100D000051F8043B40F8043B51F8043B40F8043BE5
:100D1000403ABDD2303211D351F8043B40F8043B85
:100D200051F8043B40F8043B51F8043B40F8043BC5
:100D300051F8043B40F8043B103AEDD20C3205D395
:100D400051F8043B40F8043B043AF9D2043208D08D
:100D5000D2071CBF11F8013B00F8013B01D30B88FF
:100D600003806046704700BF082A13D38B078DD0DD
:100D700010F003038AD0C3F10403D21ADB071CBFAF
:100D800011F8013B00F8013B80D331F8023B20F819
:100D9000023B7BE7043AD9D3013A11F8013B00F852
:100DA000013BF9D20B7803704B7843708B788370DA
:100DB0006046704781F0004102E000BF83F00043CD
:100DC00030B54FEA41044FEA430594EA050F08BFE6
:100DD00090EA020F1FBF54EA000C55EA020C7FEAAA
:100DE000645C7FEA655C00F0E2804FEA5454D4EB27
:100DF0005555B8BF6D420CDD2C4480EA020281EAF1
:100E0000030382EA000083EA010180EA020281EA28
:100E10000303362D88BF30BD11F0004F4FEA01317A
:100E20004FF4801C4CEA113102D0404261EB410189
:100E300013F0004F4FEA03334CEA133302D052420F
:100E400063EB430394EA050F00F0A780A4F10104CB
:100E5000D5F1200E0DDB02FA0EFC22FA05F2801805
:100E600041F1000103FA0EF2801843FA05F35941EB
:100E70000EE0A5F120050EF1200E012A03FA0EFC6A
:100E800028BF4CF0020C43FA05F3C01851EBE37194
:100E900001F0004507D54FF0000EDCF1000C7EEBB1
:100EA00000006EEB0101B1F5801F1BD3B1F5001FEF
:100EB0000CD349085FEA30004FEA3C0C04F101040E
:100EC0004FEA445212F5800F80F09A80BCF1004F37
:100ED00008BF5FEA500C50F1000041EB045141EAB9
:100EE000050130BD5FEA4C0C404141EB0101013C82
:100EF00028BFB1F5801FE9D291F0000F04BF014671
:100F00000020B1FA81F308BF2033A3F10B03B3F142
:100F100020020CDA0C3208DD02F1140CC2F10C02D2
:100F200001FA0CF021FA02F10CE002F11402D8BF30
:100F3000C2F1200C01FA02F120FA0CFCDCBF41EAFC
:100F40000C019040E41AA2BF01EB0451294330BDCB
:100F50006FEA04041F3C1CDA0C340EDC04F11404A8
:100F6000C4F1200220FA04F001FA02F340EA03007F
:100F700021FA04F345EA030130BDC4F10C04C4F1C5
:100F8000200220FA02F001FA04F340EA03002946A5
:100F900030BD21FA04F0294630BD94F0000F83F4EF
:100FA000801306BF81F480110134013D4EE77FEAD2
:100FB000645C18BF7FEA655C29D094EA050F08BF1E
:100FC00090EA020F05D054EA000C04BF19461046FF
:100FD00030BD91EA030F1EBF0021002030BD5FEA43
:100FE000545C05D14000494128BF41F0004130BD6B
:100FF00014F580043CBF01F5801130BD01F00045BF
:1010000045F0FE4141F470014FF0000030BD7FEA31
:10101000645C1ABF194610467FEA655C1CBF0B462C
:10102000024650EA013406BF52EA033591EA030F43
:1010300041F4002130BD00BF90F0000F04BF00213B
:10104000704730B54FF4806404F132044FF000056E
:101050004FF0000150E700BF90F0000F04BF0021E7
:10106000704730B54FF4806404F1320410F000454D
:1010700048BF40424FF000013EE700BF42004FEA48
:10108000E2014FEA31014FEA02701FBF12F07F43C5
:1010900093F07F4F81F06051704732F07F4208BF7C
:1010A000704793F07F4F04BF41F40021704730B583
:1010B0004FF4607401F0004521F000411CE700BFCF
:1010C00050EA010208BF704730B54FF000050AE052
:1010D00050EA010208BF704730B511F0004502D553
:1010E000404261EB41014FF4806404F132045FEA55
:1010F000915C3FF4D8AE4FF003025FEADC0C18BFFE
:1011000003325FEADC0C18BF033202EBDC02C2F1EF
:10111000200300FA03FC20FA02F001FA03FE40EA81
:101120000E0021FA02F11444BDE600BF70B54FF085
:10113000FF0C4CF4E06C1CEA11541DBF1CEA135563
:1011400094EA0C0F95EA0C0F00F0DEF82C4481EACB
:10115000030621EA4C5123EA4C5350EA013518BFEB
:1011600052EA033541F4801143F4801338D0A0FBD8
:1011700002CE4FF00005E1FB02E506F00042E0FB85
:1011800003E54FF00006E1FB03569CF0000F18BF8B
:101190004EF0010EA4F1FF04B6F5007F64F5407433
:1011A00004D25FEA4E0E6D4146EB060642EAC621C6
:1011B00041EA55514FEAC52040EA5E504FEACE2E33
:1011C000B4F1FD0C88BFBCF5E06F1ED8BEF1004F36
:1011D00008BF5FEA500E50F1000041EB045170BDB2
:1011E00006F0004646EA010140EA020081EA0301F6
:1011F000B4EB5C04C2BFD4EB0C0541EA045170BDF2
:1012000041F480114FF0000E013C00F3AB8014F16B
:10121000360FDEBF002001F0004170BDC4F10004B4
:10122000203C35DA0C341BDC04F11404C4F1200535
:1012300000FA05F320FA04F001FA05F240EA020090
:1012400001F0004221F0004110EBD37021FA04F6C6
:1012500042EB06015EEA430E08BF20EAD37070BD80
:10126000C4F10C04C4F1200500FA04F320FA05F0DF
:1012700001FA04F240EA020001F0004110EBD370E1
:1012800041F100015EEA430E08BF20EAD37070BD51
:10129000C4F1200500FA05F24EEA020E20FA04F32A
:1012A00001FA05F243EA020321FA04F001F00041D9
:1012B00021FA04F220EA020000EBD3705EEA430E4A
:1012C00008BF20EAD37070BD94F0000F0FD101F079
:1012D0000046400041EB010111F4801F08BF013CB2
:1012E000F7D041EA060195F0000F18BF704703F0F0
:1012F0000046520043EB030313F4801F08BF013D77
:10130000F7D043EA0603704794EA0C0F0CEA135532
:1013100018BF95EA0C0F0CD050EA410618BF52EAEC
:101320004306D1D181EA030101F000414FF00000F2
:1013300070BD50EA410606BF1046194652EA430600
:1013400019D094EA0C0F02D150EA013613D195EA74
:101350000C0F05D152EA03361CBF104619460AD1BC
:1013600081EA030101F0004141F0FE4141F47001C6
:101370004FF0000070BD41F0FE4141F4780170BDB6
:1013800070B54FF0FF0C4CF4E06C1CEA11541DBF1B
:101390001CEA135594EA0C0F95EA0C0F00F0A7F81D
:1013A000A4EB050481EA030E52EA03354FEA01314A
:1013B00000F088804FEA03334FF0805545EA13135D
:1013C00043EA12634FEA022245EA111545EA106525
:1013D0004FEA00260EF000419D4208BF964244F1BC
:1013E000FD0404F5407402D25B084FEA3202B61ADB
:1013F00065EB03055B084FEA32024FF480104FF4AF
:10140000002CB6EB020E75EB030E22BFB61A754622
:1014100040EA0C005B084FEA3202B6EB020E75EBB5
:10142000030E22BFB61A754640EA5C005B084FEA1D
:101430003202B6EB020E75EB030E22BFB61A7546EA
:1014400040EA9C005B084FEA3202B6EB020E75EBF5
:10145000030E22BFB61A754640EADC0055EA060EB6
:1014600018D04FEA051545EA16754FEA06164FEAF9
:10147000C30343EA52734FEAC2025FEA1C1CC0D1A5
:1014800011F4801F0BD141EA00014FF000004FF032
:10149000004CB6E711F4801F04BF01430020B4F1F3
:1014A000FD0C88BFBCF5E06F3FF6AFAEB5EB030CAB
:1014B00004BFB6EB020C5FEA500C50F1000041EBA8
:1014C000045170BD0EF0004E4EEA113114EB5C0475
:1014D000C2BFD4EB0C0541EA045170BD41F4801148
:1014E0004FF0000E013C90E645EA060E8DE60CEA50
:1014F000135594EA0C0F08BF95EA0C0F3FF43BAF6D
:1015000094EA0C0F0AD150EA01347FF434AF95EA23
:101510000C0F7FF425AF104619462CE795EA0C0F07
:1015200006D152EA03353FF4FDAE1046194622E7D4
:1015300050EA410618BF52EA43067FF4C5AE50EAAE
:1015400041047FF40DAF52EA43057FF4EBAE12E79E
:101550004FF0FF3C06E000BF4FF0010C02E000BF7F
:101560004FF0010C4DF804CD4FEA410C7FEA6C5C62
:101570004FEA430C18BF7FEA6C5C1BD001B050EA05
:10158000410C0CBF52EA430C91EA030F02BF90EAF0
:10159000020F0020704710F1000F91EA030F58BFAF
:1015A000994208BF90422CBFD8176FEAE37040F011
:1015B000010070474FEA410C7FEA6C5C02D150EAAF
:1015C000013C07D14FEA430C7FEA6C5CD6D152EA6A
:1015D000033CD3D05DF8040B704700BF844610462F
:1015E00062468C461946634600E000BF01B5FFF72E
:1015F000B7FF002848BF10F1000F01BD4DF808EDFE
:10160000FFF7F4FF0CBF012000205DF808FB00BFCE
:101610004DF808EDFFF7EAFF34BF012000205DF828
:1016200008FB00BF4DF808EDFFF7E0FF94BF012075
:1016300000205DF808FB00BF4DF808EDFFF7CEFF76
:1016400094BF012000205DF808FB00BF4DF808EDB5
:10165000FFF7C4FF34BF012000205DF808FB00BF86
:101660004FEA410C7FEA6C5C02D150EA013C0AD19E
:101670004FEA430C7FEA6C5C02D152EA033C02D190
:101680004FF0000070474FF0010070474FEA4102F1
:1016900012F5001215D211D56FF47873B3EB6252C4
:1016A00012D94FEAC12343F0004343EA505311F0EB
:1016B000004F23FA02F018BF404270474FF000007D
:1016C000704750EA013005D111F0004008BF6FF0BB
:1016D000004070474FF00000704700BF08B5024857
:1016E00003F0A0FA08BD00BF30AC0008014B186839
:1016F000704700BF780A00200B4B18680B4B1B6823
:101700000B49A1FB03214FF0E0229269C2EB911239
:101710000849A1FB03139B0CB2FBF3F34FF47A725D
:1017200002FB0030704700BF780A00200000002054
:10173000D34D621083DE1B4310B5154800F062F8EC
:10174000144803F06FFA144B1968144803F008FAB0
:10175000FFF7CCFF0146124C204603F001FA64204B
:1017600000F022FBFFF7C2FF0146204603F0F8F924
:10177000642000F019FBFFF7B9FF0146204603F093
:10178000EFF9FFF7B9FF0146064803F0E9F910BD8C
:10179000E809002038AC0008000000204CAC00082C
:1017A0005CAC000874AC000800B585B04FF48071E3
:1017B000114800F089FC4FF4FA7000F0F5FA03F0DC
:1017C000EFF8FFF793FF0D4B1B68C01AB0F5FA6FE7
:1017D00002D805B05DF804FBFFF788FF074B1860DF
:1017E00000230093019302930393054B00936846F3
:1017F00003F0A0F8EDE700BF00200258DC0900204C
:10180000DD16000808B5054B1860054B1868002365
:1018100002221946806803F00DFA08BDE009002095
:1018200010000020022801D80120704708B503F0FD
:101830001BF909230360002008BD000010B5013822
:1018400001280AD814464FF0FF3392B207480068C7
:1018500002F045FE40B9204610BD03F005F909230A
:1018600003604FF0FF30F7E70520F5E7E0090020BF
:10187000022801D80020704708B503F0F5F80923C5
:1018800003604FF0FF3008BD08B503F0EDF8092301
:1018900003604FF0FF3008BD08B548B94FF0FF3383
:1018A00001220848006802F087FE40B9012008BD07
:1018B00003F0DAF8092303604FF0FF30F7E7052063
:1018C000F5E700BFE009002008B5022804D84FF46E
:1018D00000534B60002008BD03F0C6F809230360E5
:1018E000F8E7000030B589B000240394049405940F
:1018F000069407941C4BD3F8E02042F00102C3F891
:10190000E020D3F8E02002F001020092009AD3F820
:10191000E02042F48072C3F8E020D3F8E02002F423
:1019200080720192019AD3F8E02042F08002C3F85D
:10193000E020D3F8E03003F080030293029B0B4DCC
:1019400022464FF48071284600F0B8FB4FF48073B4
:101950000393012304930594069403A9284600F0F9
:1019600099FA09B030BD00BF004402580020025867
:1019700072B6FEE700B59DB04C22002109A803F025
:101980009DF82022002101A803F098F8022000F021
:10199000A5FB00230093264B9A6942F440429A61CA
:1019A0009B6903F440430093224BDA6A42F0010240
:1019B000DA62DB6A03F001030093009B1C4B9B6916
:1019C00013F4005FFAD0012309934FF480330A9394
:1019D00002231293139305221492C0221592169398
:1019E0001793062318930823199300231A931B9324
:1019F00009A800F09DFBB8B93F230193032302938C
:101A000000230393082304934023059306934FF484
:101A100080620792089304210DEB010000F0CEFFD5
:101A200020B91DB05DF804FBFFF7A2FFFFF7A0FF90
:101A3000004802580004005808B500F075F9FFF797
:101A400099FFFFF74FFF00F0AFF8FFF775FEFFF7C4
:101A5000ABFEFCE782B0074BD3F8F42042F0020261
:101A6000C3F8F420D3F8F43003F002030193019B90
:101A700002B0704700440258FEE7FEE7FEE7FEE7CB
:101A8000FEE770477047704708B500F07BF908BD66
:101A90000120704708B502F0E7FF162303604FF0FE
:101AA000FF3008BD08B54FF0FF31FFF7F3FFFEE749
:101AB00008B503460B4A126842B10A4A106803444B
:101AC0006A46934206D8074A136008BD054A06498C
:101AD0001160F2E702F0C8FF0C2303604FF0FF3003
:101AE000F3E700BFE4090020880B0020244B1B68AB
:101AF00003F00F03062B06D8214A136823F00F03C7
:101B000043F0070313601F4B1A6842F001021A608A
:101B100000221A6119681C4A0A401A60184B1B6897
:101B200013F0080F06D0164A136823F00F0343F092
:101B300007031360134B00229A61DA611A6213499A
:101B400099621349D962134919635A639963DA6335
:101B500019645A64196821F4802119601A660E4BC1
:101B60001A680E4B1340B3F1005F03D20C4B0122F5
:101B7000C3F808210B4B43F2D2021A60704700BF32
:101B800000200052004402587FEDF6EA00020202F3
:101B90000000FF01800201010010005C0000FFFF57
:101BA000008000510040005208B51748174B0360F1
:101BB0004FF4E133436000238360C36003610C2270
:101BC00042618361C36103624362836202F0C2FDCA
:101BD00070B900210C4802F036FE60B900210A48B5
:101BE00002F056FE50B9084802F00EFE48B908BD92
:101BF000FFF7BEFEEDE7FFF7BBFEEFE7FFF7B8FE2E
:101C0000F1E7FFF7B5FEF2E7E8090020004C0040DD
:101C100070B5B8B0044600213391349135913691B6
:101C20003791BC2204A802F049FF2268264B9A4251
:101C300001D038B070BD0223049304A801F05AF912
:101C400000283DD1214BD3F8E82042F40022C3F80C
:101C5000E820D3F8E82002F400220192019AD3F898
:101C6000E02042F48072C3F8E020D3F8E02002F4D0
:101C700080720292029AD3F8E02042F00102C3F887
:101C8000E020D3F8E03003F001030393039B4FF40B
:101C90000073339302263496002435943694082535
:101CA000379533A90A4800F0F5F8012333933496A9
:101CB00035943694379533A9064800F0EBF8B8E729
:101CC000FFF756FEBEE700BF004C0040004402583C
:101CD0000020025800000258104B1B780BB901205D
:101CE000704710B504464FF47A70B0FBF3F30C4A1A
:101CF0001068B0FBF3F000F0B9F868B90F2C01D907
:101D000001200AE0002221464FF0FF3000F078F871
:101D1000044B1C60002000E0012010BD08000020E2
:101D2000000000200C00002010B5032000F056F841
:101D300000F038FD0F498B69C3F303230E4AD35CCF
:101D400003F01F03D8408B6903F00F03D35C03F04B
:101D50001F0320FA03F3094A1360094B18600F2090
:101D6000FFF7BAFF10B10124204610BD0446FFF76B
:101D700071FEF9E7004402588CAC00080400002012
:101D800000000020034B1B78034A11680B441360CA
:101D9000704700BF08000020780A0020014B186837
:101DA000704700BF780A002038B50446FFF7F6FFF9
:101DB0000546B4F1FF3F02D0044B1B781C44FFF7EB
:101DC000EDFF401BA042FAD338BD00BF0800002041
:101DD000014B1868000C70470010005C0649CB6886
:101DE00023F4E0631B041B0C000200F4E0600343D7
:101DF000024A1A43CA60704700ED00E00000FA058D
:101E000000B5174BDB68C3F30223C3F1070CBCF129
:101E1000040F28BF4FF0040C03F1040EBEF1060FAF
:101E200014D9033B4FF0FF3E0EFA0CFC21EA0C01E3
:101E300099400EFA03F322EA03031943002807DB53
:101E40000901C9B2074B19545DF804FB0023E9E707
:101E500000F00F000901C9B2034B1954F4E700BFA9
:101E600000ED00E000E400E014ED00E00138B0F126
:101E7000807F0BD24FF0E0235861054AF02182F8B1
:101E800023100020986107221A61704701207047D3
:101E900000ED00E070B582B000236EE085685E0062
:101EA0000324B44025EA0405CC68B4402C43846084
:101EB000446824EA0C0C4C68C4F300149C4044EAC7
:101EC0000C0444606CE0DD08083550F8256003F030
:101ED00007044FEA840C0F2404FA0CF426EA040EDB
:101EE0000C6904FA0CF444EA0E0440F825406FE053
:101EF000092400E0002404FA0EF42C430CF1020C37
:101F00006B4D45F82C404FF0B0442568D44325EA8A
:101F10000206D1F804C01CF4801F01D042EA050675
:101F20004FF0B0452E606D6804EA0506D1F804C094
:101F30001CF4001F01D042EA05064FF0B0456E6068
:101F4000D5F8845004EA0506D1F804C01CF4003F1B
:101F500001D042EA05064FF0B045C5F88460D5F8D7
:101F600080502C404E6816F4803F01D042EA0504B0
:101F70004FF0B042C2F8804001330A6832FA03F4ED
:101F800000F093804FF0010C0CFA03FC1CEA0202F3
:101F9000F2D04C6804F00304013C012C7FF67EAFC4
:101FA0004C6804F00304032C0CD0C4685D004FF0AF
:101FB000030C0CFA05FC24EA0C0C8C68AC4044EAD7
:101FC0000C04C4604C6804F00304022C3FF47BAFA3
:101FD00004684FEA430E4FF0030C0CFA0EFC24EA9F
:101FE0000C0C4C6804F0030404FA0EF444EA0C04EC
:101FF00004604C6814F4403FBED02E4CD4F8F4502A
:1020000045F00205C4F8F450D4F8F44004F002049A
:102010000194019C4FEA930C0CF10205244C54F8F6
:10202000255003F003044FEA840E0F2404FA0EF443
:1020300025EA0405204CA0423FF45CAF04F580641F
:10204000A04222D004F58064A04220D004F5806430
:10205000A0421ED004F58064A0421CD004F5806428
:10206000A0421AD004F58064A04218D004F5806420
:10207000A04216D004F58064A04214D004F5806418
:10208000A0423FF435AF0A2435E7012433E70224A8
:1020900031E703242FE704242DE705242BE706244A
:1020A00029E7072427E7082425E702B070BD00BF11
:1020B0000004005800440258000002580AB181612F
:1020C0007047090481617047436901EA030221EA0C
:1020D000030141EA0241816170470000134BDB6854
:1020E00013F0040F07D1114BDB6803F007038342A1
:1020F0001AD00120704710B50C4AD36823F00703AB
:102100001843D060FFF74AFE0446084B5B6813F49F
:10211000005F07D1FFF742FE001BB0F57A7FF4D9CC
:10212000012000E0002010BD002070470048025848
:10213000002800F0188338B50446036813F0010F37
:1021400025D0944A136903F03803926A102B15D0F6
:10215000182B0FD06368B3F5803F3FD0002B53D1CD
:102160008C4B1A6822F480321A601A6822F480229A
:102170001A6038E002F00302022AEBD1854B1B689B
:1021800013F4003F03D06368002B00F0EE82236855
:1021900013F0020F00F0A1807E4A1369926A13F0D7
:1021A00038035AD0182B55D0E368002B00F0DE809E
:1021B00078490A6822F0190213430B60FFF7EEFD1D
:1021C0000546744B1B6813F0040F40F0AD80FFF719
:1021D000E5FD401B0228F4D90320CDE26D4A1368C7
:1021E00043F48033136063682BB3FFF7D7FD0546D4
:1021F000684B1B6813F4003FC9D1FFF7CFFD401BAC
:102200006428F5D90320B7E2B3F5A02F09D0614BBC
:102210001A6822F480321A601A6822F480221A6046
:10222000E1E75C4B1A6842F480221A601A6842F4B3
:1022300080321A60D7E7FFF7B1FD0546554B1B68A2
:1022400013F4003FA3D0FFF7A9FD401B6428F5D984
:10225000032091E212F0030FA6D14E4B1B6813F03E
:10226000040F03D0E368002B00F08182494A136811
:1022700023F01903E1680B431360FFF78FFD054658
:10228000444B1B6813F0040F06D1FFF787FD401B7A
:102290000228F5D903206FE2FFF79AFD41F203030C
:1022A000984212D82269402A07D03A494B6823F451
:1022B0007C3343EA02334B600FE0364A536823F421
:1022C0007C3343F40033536007E0324A536823F011
:1022D000FE43216943EA01635360236813F0100F42
:1022E00000F088802B4A136903F03803926A082BA8
:1022F00056D0182B50D0E369002B00F0B880254A47
:10230000136843F080031360FFF748FD0546214B37
:102310001B6813F4807F40F08880FFF73FFD401B6F
:102320000228F4D9032027E2FFF752FD41F203030C
:10233000984212D82269402A07D016494B6823F4E4
:102340007C3343EA02334B60C7E7124A536823F4F5
:102350007C3343F400335360BFE70E4A536823F0E5
:10236000FE43216943EA01635360B6E7094A1368F3
:1023700023F001031360FFF711FD0546054B1B68B1
:1023800013F0040FA9D0FFF709FD401B0228F5D96F
:102390000320F1E10044025802F00302012AAAD10D
:1023A000A14B1B6813F4807F03D0E369802B40F0BE
:1023B000E081FFF70DFD41F20303984212D8226A33
:1023C000202A07D098494B6823F0F84343EA8263F8
:1023D0004B600FE0944A536823F0F84343F0804386
:1023E000536007E0904AD36823F07C53216A43EAA4
:1023F0000163D360236813F0080F60D06369002B7A
:1024000049D0894A536F43F001035367FFF7C6FC75
:102410000546854B5B6F13F0020F50D1FFF7BEFCF2
:10242000401B0228F5D90320A6E1FFF7D1FC41F2B9
:102430000303984212D8226A202A07D07A494B68AF
:1024400023F0F84343EA82634B60D3E7764A53684C
:1024500023F0F84343F080435360CBE7724AD368DC
:1024600023F07C53216A43EA0163D360C2E76E4ADA
:10247000136823F080031360FFF790FC05466A4B56
:102480001B6813F4807FB5D0FFF788FC401B02283F
:10249000F5D9032070E1644A536F23F001035367B9
:1024A000FFF77CFC0546604B5B6F13F0020F06D014
:1024B000FFF774FC401B0228F5D903205CE1236878
:1024C00013F0200F29D0A3699BB1574A136843F436
:1024D00080531360FFF762FC0546534B1B6813F4EF
:1024E000005F1AD1FFF75AFC401B0228F5D90320E0
:1024F00042E14D4A136823F480531360FFF74EFC0A
:102500000546494B1B6813F4005F06D0FFF746FCF5
:10251000401B0228F5D903202EE1236813F0040F95
:1025200021D1636A002B00F026813F4A126902F034
:102530003802182A00F0EE80022B79D03A4A13684C
:1025400023F080731360FFF729FC0446364B1B68A9
:1025500013F0007F00F0DC80FFF720FC001B022856
:10256000F4D9032008E1314A136843F480731360FF
:10257000FFF714FC05462D4B1B6813F4807F06D132
:10258000FFF70CFC401B6428F5D90320F4E0A36896
:10259000012B0AD00BBB244B1A6F22F001021A67E1
:1025A0001A6F22F004021A6704E01F4A136F43F007
:1025B00001031367A36833B3FFF7F0FB05461A4B1B
:1025C0001B6F13F0020FACD1FFF7E8FB401B41F289
:1025D00088339842F3D90320CEE0052B09D0124B63
:1025E0001A6F22F001021A671A6F22F004021A67AA
:1025F000E0E70D4B1A6F42F004021A671A6F42F0BF
:1026000001021A67D6E7FFF7C9FB0546064B1B6FA9
:1026100013F0020F85D0FFF7C1FB401B41F2883356
:102620009842F3D90320A7E000440258004802581A
:10263000594A136823F080731360FFF7AFFB054618
:10264000554B1B6813F0007F06D0FFF7A7FB401B1C
:102650000228F5D903208FE04F4B996A4F4A0A4070
:10266000A16AE06A41EA00110A439A62226B013AC8
:10267000C2F30802616B0139490289B20A43A16BB6
:102680000139090401F4FE010A43E16B013909062D
:1026900001F0FE410A431A63DA6A22F00102DA62AB
:1026A000596B3F4A0A40A16C42EAC1025A63DA6A96
:1026B00022F00C02216C0A43DA62DA6A22F002028A
:1026C000616C0A43DA62DA6A42F48032DA62DA6A08
:1026D00042F40032DA62DA6A42F48022DA62DA6ABA
:1026E00042F00102DA621A6842F080721A60FFF763
:1026F00055FB0446284B1B6813F0007F06D1FFF7FB
:102700004DFB001B0228F5D9032035E0002033E003
:10271000002031E0204A916A106B012B2DD001F08E
:102720000303A26A93422AD1C1F30511E36A9942D5
:1027300027D1C0F30802236B013B9A4223D1C0F397
:102740004622636B013B9A421FD1C0F30642A36B42
:10275000013B9A421BD1C0F30660E36B013B9842F8
:1027600017D1002008E001207047012004E001207B
:1027700002E0012000E0002038BD0120FCE701203C
:10278000FAE70120F8E70120F6E70120F4E701204D
:10279000F2E70120F0E700BF004402580CFCFFFF05
:1027A0000700FFFFF8B57E4B1B6903F03803102BC1
:1027B00000F0F280182B10D013B17A4C2046F8BDEF
:1027C000774B1B6813F0200F00F0E880744B1868FB
:1027D000C0F3C100744CC440F0E7714B9D6A05F032
:1027E00003059C6AC4F30514D86A00F001005B6B12
:1027F000C3F3CC0303FB00F0FDF738FE0646002CC4
:10280000DCD0012D76D0022D00F0A4800DB320463F
:10281000FDF72CFE01466548FDF734FF0446604B8A
:10282000186BC0F30800FDF721FE05464FF0645118
:102830003046FDF773FE01462846FDF767FD4FF071
:102840007E51FDF763FD01462046FDF767FE044615
:1028500071E0534B1B6813F0200F29D0504F3B6899
:10286000C3F3C1035048D840FDF700FE054620469B
:10287000FDF7FCFD01462846FDF704FF0446386BD2
:10288000C0F30800FDF7F2FD05464FF064513046F5
:10289000FDF744FE01462846FDF738FD4FF07E5116
:1028A000FDF734FD01462046FDF738FE044642E0C0
:1028B0002046FDF7DBFD01463D48FDF7E3FE0446FB
:1028C000374B186BC0F30800FDF7D0FD05464FF0FD
:1028D00064513046FDF722FE01462846FDF716FDFD
:1028E0004FF07E51FDF712FD01462046FDF716FE22
:1028F000044620E02046FDF7B9FD01462B48FDF7D0
:10290000C1FE0446264B186BC0F30800FDF7AEFD70
:1029100005464FF064513046FDF700FE014628465B
:10292000FDF7F4FC4FF07E51FDF7F0FC0146204628
:10293000FDF7F4FD04461A4B1B6BC3F34623581CEA
:10294000FDF794FD01462046FDF79CFEFDF736FF9E
:10295000044633E72046FDF789FD01461548FDF79B
:1029600091FE04460E4B186BC0F30800FDF77EFD88
:1029700005464FF064513046FDF7D0FD014628462C
:10298000FDF7C4FC4FF07E51FDF7C0FC0146204628
:10299000FDF7C4FD0446CEE7074C0FE7024C0DE7F8
:1029A0000044025800093D000090D0030024744AFE
:1029B0000024744C20BCBE4B40787D01002800F000
:1029C000328170B50D4604469B4B1B6803F00F0324
:1029D0008B420BD2984A136823F00F030B4313600A
:1029E000136803F00F038B4240F01F81236813F03C
:1029F000040F0CD02269914B9B6903F070039A423B
:102A000005D98E498B6923F070031A438A612368C4
:102A100013F0080F0CD06269884BDB6903F0700378
:102A20009A4205D98549CB6923F070031A43CA61DC
:102A3000236813F0100F0CD0A269804BDB6903F4FC
:102A4000E0639A4205D97D49CB6923F4E0631A43D8
:102A5000CA61236813F0200F0CD0E269774B1B6A20
:102A600003F070039A4205D974490B6A23F070038E
:102A70001A430A62236813F0020F0CD0E2686F4B0E
:102A80009B6903F00F039A4205D96C498B6923F0C7
:102A90000F031A438A61236813F0010F41D0674A7C
:102AA000936923F47063A1680B4393616368022BFD
:102AB0000AD0032B27D0012B2CD0604A126812F0C9
:102AC000040F06D10120ADE0126812F4003F00F0BF
:102AD000AE805A490A6922F0070213430B61FFF7DF
:102AE0005DF90646554B1B6903F038036268B3EB8A
:102AF000C20F16D0FFF752F9801B41F2883398427B
:102B0000F0D903208EE04D4A126812F0007FE0D128
:102B1000012087E0494A126812F4807FD9D1012050
:102B200080E0236813F0020F0CD0E268434B9B69EE
:102B300003F00F039A4205D240498B6923F00F033B
:102B40001A438A613C4B1B6803F00F03AB420AD95E
:102B5000394A136823F00F032B431360136803F003
:102B60000F03AB4265D1236813F0040F0CD0226928
:102B7000324B9B6903F070039A4205D22F498B694F
:102B800023F070031A438A61236813F0080F0CD0F6
:102B900062692A4BDB6903F070039A4205D2274928
:102BA000CB6923F070031A43CA61236813F0100F36
:102BB0000CD0A269214BDB6903F4E0639A4205D291
:102BC0001E49CB6923F4E0631A43CA61236813F0FA
:102BD000200F0CD0E269194B1B6A03F070039A4274
:102BE00005D216490B6A23F070031A430A62FFF7F5
:102BF000D9FD12498B69C3F30323114AD35C03F057
:102C00001F03D8408B6903F00F03D35C03F01F034D
:102C100020FA03F30B4A13600B4B18600B4B186838
:102C2000FFF75AF870BD012070470120FAE7012034
:102C3000F8E70120F6E700BF0020005200440258E8
:102C40008CAC000804000020000000200C000020D4
:102C500008B5FFF7A7FD0B4A9369C3F303230A499D
:102C6000CB5C03F01F0320FA03F3926902F00F021A
:102C7000885C00F01F0023FA00F0044A1060044A48
:102C8000136008BD004402588CAC0008040000200A
:102C90000000002008B5FFF7DBFF054BDB69C3F33D
:102CA0000213044AD35C03F01F03D84008BD00BFE1
:102CB000004402588CAC000808B5FFF7C9FF054B6B
:102CC000DB69C3F30223044AD35C03F01F03D8403B
:102CD00008BD00BF004402588CAC0008404B9B6A02
:102CE00003F00303032B79D070B505460E463C4A2A
:102CF000136823F080631360FFF750F80446384BE5
:102D00001B6813F0006F06D0FFF748F8031B022B77
:102D1000F5D9032070BD324B9A6A22F47C322968BF
:102D200042EA01329A626A68013AC2F30802A9686B
:102D30000139490289B20A43E9680139090401F4F9
:102D4000FE010A4329690139090601F0FE410A43DF
:102D50009A63DA6A22F0C00269690A43DA62DA6ABF
:102D600022F02002A9690A43DA62DA6A22F010022C
:102D7000DA62D96B1B4A0A40E96942EAC102DA63A6
:102D8000DA6A42F01002DA62C6B91A46DB6A43F424
:102D90000023D362124A136843F080631360FEF786
:102DA000FDFF04460E4B1B6813F0006F14D1FEF7B5
:102DB000F5FF001B0228F5D90320ABE7012E05D053
:102DC000074AD36A43F40013D362E3E7044AD36AA1
:102DD00043F48013D362DDE700209BE701207047B6
:102DE000004402580700FFFF404B9B6A03F00303B7
:102DF000032B79D070B505460E463C4A136823F084
:102E000080531360FEF7CAFF0446384B1B6813F06B
:102E1000005F06D0FEF7C2FF031B022BF5D903208B
:102E200070BD324B9A6A22F07C72296842EA0152E4
:102E30009A626A68013AC2F30802A9680139490234
:102E400089B20A43E9680139090401F4FE010A4321
:102E500029690139090601F0FE410A431A64DA6A58
:102E600022F4406269690A43DA62DA6A22F4007283
:102E7000A9690A43DA62DA6A22F48072DA62596C6A
:102E80001B4A0A40E96942EAC1025A64DA6A42F41A
:102E90008072DA62C6B91A46DB6A43F48003D362F1
:102EA000124A136843F080531360FEF777FF04461D
:102EB0000E4B1B6813F0005F14D1FEF76FFF001B71
:102EC0000228F5D90320ABE7012E05D0074AD36AC3
:102ED00043F08073D362E3E7044AD36A43F4000308
:102EE000D362DDE700209BE70120704700440258D1
:102EF0000700FFFFF8B50446036813F0006F30D0F9
:102F0000436EB3F5001F26D00ED8EBB1B3F5801F8A
:102F100007D102210430FFF7E1FE054645B12E46F8
:102F200021E0012635461EE0B3F5401F09D10025FA
:102F3000954A136D23F44013616E0B43136500260D
:102F400011E0012635460EE08F4AD36A43F4003380
:102F5000D3620025ECE702212430FFF745FF054648
:102F6000DCE700263546236813F4807F14D0636DB8
:102F7000042B30D8DFE803F0032228080800824A37
:102F8000D36A43F40033D36245BB7F4A136D23F009
:102F90000703616D0B431365236813F4007F2FD083
:102FA000A36D802B49D01ED8002B40D0402B17D1C9
:102FB0000021201DFFF792FE054619E00021201D8B
:102FC000FFF78CFE0546DFE7002104F12400FFF740
:102FD0000BFF0546D8E701263546DDE72E46DBE741
:102FE000012635460CE0C02B02D0B3F5807F1BD103
:102FF00055BB654A136D23F4E073A16D0B43136554
:10300000236813F4806F45D0D4F8A430B3F5800F53
:1030100038D01ED883B3B3F5001F17D10021201D6F
:10302000FFF75CFE05461AE001263546E8E7564AFA
:10303000D36A43F40033D362DAE7002104F12400B9
:10304000FFF7D2FE0546D3E72E46D9E701263546DF
:1030500020E0B3F5C00F02D0B3F5000F09D1C5B918
:10306000494A936D23F46003D4F8A4100B4393658D
:1030700010E0012635460DE0434AD36A43F400339D
:10308000D362ECE7002104F12400FFF7ADFE054612
:10309000E5E72E46236813F4006F23D0D4F8A83058
:1030A000B3F1007F41D00DD8002B38D0B3F1807F31
:1030B00005D10021201DFFF711FE054608E001267D
:1030C00035460FE0B3F1407F02D0B3F1806F23D1DA
:1030D000002D31D12C4A936D23F0E063D4F8A81071
:1030E0000B439365236813F0007F2ED0A36C202B35
:1030F0003FD026D833B1102B20D1234AD36A43F4D2
:103100000033D362002D3AD11F4AD36C23F0300331
:10311000A16C0B43D36418E001263546E2E71A4A56
:10312000D36A43F40033D362D2E7002104F12400D0
:10313000FFF75AFE0546CBE72E46D3E70126354674
:1031400003E0302BDED001263546236813F4805F80
:103150002BD0E36DB3F5005F4CD017D8002B43D0D4
:10316000B3F5805F0DD10021201DFFF7B7FD0546A7
:1031700012E00221201DFFF7B1FD0546C2E72E46F1
:10318000E3E70126354610E000440258B3F5405FFE
:1031900002D0B3F5804F24D1002D32D1754A136D82
:1031A00023F4E043E16D0B431365236813F4005FE0
:1031B00037D0236EB3F5003F51D027D83BB1B3F5DC
:1031C000803F20D10121201DFFF788FD0546002DFD
:1031D0004CD1684A136D23F4E023216E0B43136531
:1031E0001FE001263546E0E7624AD36A43F4003324
:1031F000D362D1E7002104F12400FFF7F5FD054675
:10320000CAE72E46D1E7012635460AE0B3F5802FFE
:10321000DDD0B3F5A02FDAD0B3F5403FD7D00126EB
:103220003546236813F4804F30D0D4F8AC30B3F176
:10323000005F44D01FD83BB1B3F1805F18D10121AA
:10324000201DFFF74BFD0546002D3FD1494A936DE8
:1032500023F0E043D4F8AC100B43936516E0012152
:1032600004F12400FFF7C0FD0546B0E72E46D8E77D
:10327000012635460AE0B3F1804FE5D0B3F1A04F07
:10328000E2D0B3F1405FDFD001263546236813F466
:10329000004F09D0E36EB3F1805F19D0B3F1005F46
:1032A00024D0D3B101263546236813F0807F32D075
:1032B000636C032B59D8DFE803F026215226012145
:1032C00004F12400FFF790FD0546BDE72E46DDE73B
:1032D000284AD36A43F40033D3626DB9254A136D8B
:1032E00023F04053E16E0B431365DDE70121201D00
:1032F000FFF7F4FC0546F0E72E46D5E71D4AD36AF2
:1033000043F40033D3629DBB1A4AD36C23F003030A
:10331000616C0B43D364236813F4800F2CD12368B2
:1033200013F0010F00F0A380A36F282B00F29D8003
:10333000DFE803F08B9B9B9B9B9B9B9B869B9B9BB4
:103340009B9B9B9B949B9B9B9B9B9B9B8B9B9B9BE4
:103350009B9B9B9B8B9B9B9B9B9B9B9B8B0002218B
:10336000201DFFF7BBFC0546CDE701263546D2E719
:103370002E46D0E7004402588F4A136843F4807306
:103380001360FEF70BFD07468B4B1B6813F4807F21
:1033900005D1FEF703FDC01B6428F5D90325002DD8
:1033A0004AD1864B1B6FD4F8B020534013F4407FB2
:1033B0000CD0824B1A6F22F44072196F41F48031A5
:1033C0001967196F21F4803119671A67D4F8B03082
:1033D000B3F5807F15D08DBBD4F8B03003F44072C4
:1033E000B2F5407F1ED0754A136923F47C531361F4
:1033F00072490B6FD4F8B020C2F30B0213430B6772
:103400008DE7FEF7CBFC07466C4B1B6F13F0020FEA
:10341000E1D1FEF7C3FCC01B41F288339842F3D9D7
:103420000325D8E76548026922F47C52644901EA21
:10343000131313430361DBE72E4670E72E466EE756
:103440000121201DFFF74AFC0546E5B95B4A536D93
:1034500023F03803A16F0B43536508E0012104F109
:103460002400FFF7C1FC0546EFE701263546236837
:1034700013F0020F16D0636F052B27D8DFE803F097
:103480000A051F0A0A0A2E46F1E70121201DFFF74F
:1034900025FC0546EDB9494A536D23F00703616FDA
:1034A0000B435365236813F0040F22D0D4F89030F7
:1034B000052B43D8DFE803F0140F3B14141401214B
:1034C00004F12400FFF790FC0546E3E701263546AA
:1034D000E8E72E46E6E70121201DFFF7FFFB054642
:1034E0007DBB364A936D23F00703D4F890100B434D
:1034F0009365236813F0200F33D0D4F88C30B3F1E8
:10350000005F4CD022D83BB1B3F1805F1BD10021CA
:10351000201DFFF7E3FB0546002D47D1274A536DD9
:1035200023F0E043D4F88C100B43536519E00121DC
:1035300004F12400FFF758FC0546D1E70126354683
:10354000D7E72E46D5E7012635460AE0B3F1804F8E
:10355000E2D0B3F1A04FDFD0B3F1405FDCD0012661
:103560003546236813F0400F37D0D4F89830B3F5C0
:10357000006F52D026D83BB1B3F5806F18D100212F
:10358000201DFFF7ABFB0546002D4DD10B4A936D77
:1035900023F4E053D4F898100B4393651DE0022107
:1035A00004F12400FFF720FC0546B5E72E46D8E7D6
:1035B0000126354611E000BF004802580044025879
:1035C000CFFFFF00B3F5805FDED0B3F5A05FDBD0A7
:1035D000B3F5406FD8D001263546236813F0800F2D
:1035E00032D0D4F89C30B3F5804F00F09D8020D8C5
:1035F0003BB1B3F5005F19D10021201DFFF76EFB31
:103600000546002D40F09780A54A936D23F4604352
:10361000D4F89C100B43936516E0022104F12400BA
:10362000FFF7E2FB0546AFE72E46D6E70126354613
:103630000AE0B3F5004FE4D0B3F5204FE1D0B3F585
:10364000C04FDED001263546236813F0080F0CD09A
:10365000D4F88030B3F5805F6FD0914A536D23F476
:103660004053D4F880100B435365236813F0100FB8
:103670000CD0D4F89430B3F5807F67D0884A936D2E
:1036800023F44073D4F894100B439365236813F428
:10369000002F0BD0D4F8A030B3F5803F6ED0B3F537
:1036A000003F61D0002B5AD001263546236813F421
:1036B000802F0CD0D4F88430B3F5001F76D0B3F54A
:1036C000401F69D0B3F5801F61D0012635462368BD
:1036D00013F4803F07D0E36C002B70D0B3F5803F2C
:1036E0007BD001263546236813F0005F7DD1236827
:1036F00013F4003F00F08680E36FB3F5807F00F0A5
:10370000C6807CD9B3F5007F03D0B3F5407F40F08D
:10371000BC80002D40F0C180614A536D23F440739A
:10372000E16F0B4353656DE0022104F12400FFF7C4
:103730005BFB054665E72E4686E7022104F124007F
:10374000FFF752FB002888D0012686E7022104F10A
:103750002400FFF749FB002890D001268EE70021C6
:10376000201DFFF7BBFA05467DB94D4A936D23F442
:103770004033D4F8A0100B43936597E7022104F17E
:103780002400FFF731FB0546EEE72E468EE7444A5C
:10379000D36A43F40033D3627DB9414A536D23F4B5
:1037A0004013D4F884100B43536590E7012104F1D2
:1037B0002400FFF719FB0546EEE72E4687E7384A57
:1037C000D36A43F40033D3626DB9354AD36C23F422
:1037D0008033E16C0B43D36485E70221201DFFF7A2
:1037E0007DFA0546F0E72E467DE7022104F124002C
:1037F000FFF7FAFA00283FF47AAF012677E7002BAB
:1038000087D00126236813F4801F06D0244A136D45
:1038100023F00043216F0B431365236813F0805F8F
:1038200007D01F4A136923F48043D4F8B4100B4324
:103830001361236813F4001F06D0194A136D23F097
:103840008073A16E0B431365236813F0804F09D07A
:10385000134B1A6922F400421A611A69D4F8B8109D
:103860000A431A612368002B1CDB236813F4000F42
:1038700007D00B4A536D23F44003D4F888100B4350
:10388000536506B101263046F8BD0126BAE7044A61
:10389000D36A43F40033D3623BE72E46B2E700BF5E
:1038A00000440258034AD36C23F04053216D0B436C
:1038B000D364DAE70044025808B5FFF7C9F9054BAD
:1038C0001B6AC3F30213044AD35C03F01F03D840FE
:1038D00008BD00BF004402588CAC00082DE9F0413F
:1038E0000446864B9D6A9E6AC6F30536D86AC0F3C5
:1038F0000010DB6BC3F3CC0303FB00F0FCF7B6FD59
:10390000002E00F0F58005F003050746012D79D063
:10391000022D00F0CB800DB33046FCF7A7FD014629
:103920007748FCF7AFFE0546744B986BC0F3080070
:10393000FCF79CFD06464FF064513846FCF7EEFD5F
:1039400001463046FCF7E2FC4FF07E51FCF7DEFC0E
:1039500001462846FCF7E2FD054674E0674B1B680C
:1039600013F0200F2CD0DFF89481D8F80030C3F387
:10397000C1036448D840FCF779FD05463046FCF7A2
:1039800075FD01462846FCF77DFE0546D8F838004F
:10399000C0F30800FCF76AFD06464FF06451384654
:1039A000FCF7BCFD01463046FCF7B0FC4FF07E5101
:1039B000FCF7ACFC01462846FCF7B0FD054642E0AA
:1039C0003046FCF753FD01464F48FCF75BFE0546C9
:1039D0004A4B986BC0F30800FCF748FD06464FF0D1
:1039E00064513846FCF79AFD01463046FCF78EFCE0
:1039F0004FF07E51FCF78AFC01462846FCF78EFD0D
:103A0000054620E03046FCF731FD01463C48FCF716
:103A100039FE0546394B986BC0F30800FCF726FDCC
:103A200006464FF064513846FCF778FD01463046B3
:103A3000FCF76CFC4FF07E51FCF768FC0146284611
:103A4000FCF76CFD05462D4EB06BC0F34620FCF72D
:103A50000DFD4FF07E51FCF759FC01462846FCF75E
:103A600011FEFCF7ABFE2060B06BC0F30640FCF724
:103A7000FDFC4FF07E51FCF749FC01462846FCF75F
:103A800001FEFCF79BFE6060B06BC0F30660FCF7C4
:103A9000EDFC4FF07E51FCF739FC01462846FCF75F
:103AA000F1FDFCF78BFEA060BDE8F0813046FCF72D
:103AB000DDFC01461548FCF7E5FD05460F4B986B0C
:103AC000C0F30800FCF7D2FC06464FF064513846BC
:103AD000FCF724FD01463046FCF718FC4FF07E5100
:103AE000FCF714FC01462846FCF718FD0546AAE73A
:103AF000002323606360A360D6E700BF0044025840
:103B00000024744A0090D0030024744C20BCBE4BA7
:103B10002DE9F0410446864B9D6A9E6AC6F3055620
:103B2000D86AC0F300205B6CC3F3CC0303FB00F046
:103B3000FCF79CFC002E00F0F58005F0030507461D
:103B4000012D79D0022D00F0CB800DB33046FCF76B
:103B50008DFC01467748FCF795FD0546744B186CC3
:103B6000C0F30800FCF782FC06464FF0645138466B
:103B7000FCF7D4FC01463046FCF7C8FB4FF07E5101
:103B8000FCF7C4FB01462846FCF7C8FC054674E078
:103B9000674B1B6813F0200F2CD0DFF89481D8F806
:103BA0000030C3F3C1036448D840FCF75FFC05460E
:103BB0003046FCF75BFC01462846FCF763FD0546F2
:103BC000D8F84000C0F30800FCF750FC06464FF060
:103BD00064513846FCF7A2FC01463046FCF796FBE0
:103BE0004FF07E51FCF792FB01462846FCF796FC0D
:103BF000054642E03046FCF739FC01464F48FCF7E9
:103C000041FD05464A4B186CC0F30800FCF72EFC3A
:103C100006464FF064513846FCF780FC01463046BA
:103C2000FCF774FB4FF07E51FCF770FB0146284611
:103C3000FCF774FC054620E03046FCF717FC014613
:103C40003C48FCF71FFD0546394B186CC0F30800D3
:103C5000FCF70CFC06464FF064513846FCF75EFC5E
:103C600001463046FCF752FB4FF07E51FCF74EFB0D
:103C700001462846FCF752FC05462D4E306CC0F339
:103C80004620FCF7F3FB4FF07E51FCF73FFB01466B
:103C90002846FCF7F7FCFCF791FD2060306CC0F380
:103CA0000640FCF7E3FB4FF07E51FCF72FFB01468B
:103CB0002846FCF7E7FCFCF781FD6060306CC0F340
:103CC0000660FCF7D3FB4FF07E51FCF71FFB01466B
:103CD0002846FCF7D7FCFCF771FDA060BDE8F08139
:103CE0003046FCF7C3FB01461548FCF7CBFC054604
:103CF0000F4B186CC0F30800FCF7B8FB06464FF0FA
:103D000064513846FCF70AFC01463046FCF7FEFADF
:103D10004FF07E51FCF7FAFA01462846FCF7FEFB0D
:103D20000546AAE7002323606360A360D6E700BFCF
:103D3000004402580024744A0090D0030024744CBC
:103D400020BCBE4B70B586B004460168836802692A
:103D5000134342691343C26913430868884A024007
:103D600013430B602268536823F44053E1680B430C
:103D70005360A1692268834B9A4201D0236A194398
:103D80009068814B03400B4393602268D36A23F011
:103D90000F03616A0B43D36222687C4B9A4221D0A5
:103DA0007B4B9A4200F08C807A4B9A4200F0A280C2
:103DB000794B9A4200F0B580784B9A4200F0C88067
:103DC000774B9A4200F0F480764B9A4200F01981CA
:103DD000754B9A4200F02C816A4B9A4200F03F8169
:103DE000802333E0714B5B6D03F03803282B65D8DB
:103DF000DFE813F0290064006400640064006400DC
:103E0000640064004D0164006400640064006400A8
:103E1000640064002B0064006400640064006400BB
:103E2000640064005E006400640064006400640078
:103E30006400640060006400640064006400640066
:103E4000640064006200012300E008234D498A42B7
:103E500000F02F81E069B0F5004F00F0AF81202B1A
:103E600000F20782202B00F25182DFE813F01E02DD
:103E700024024F024F0227024F024F024F022C0230
:103E80004F024F024F024F024F024F024F023102C8
:103E90004F024F024F024F024F024F024F024F029A
:103EA0004F024F024F024F024F024F024F023D029C
:103EB0001023CBE72023C9E74023C7E78023C5E7CA
:103EC0003A4B5B6D03F00703052B11D8DFE813F0C5
:103ED0000600E10008000A000C000E000023B5E710
:103EE0000823B3E71023B1E72023AFE74023ADE772
:103EF0008023ABE72D4B5B6D03F00703052B0ED83A
:103F0000DFE803F003C90507090B00239EE7082338
:103F10009CE710239AE7202398E7402396E7802325
:103F200094E7224B5B6D03F00703052B0ED8DFE807
:103F300003F003B40507090B002387E7082385E78F
:103F4000102383E7202381E740237FE780237DE759
:103F5000164B5B6D03F00703052B0ED8DFE803F06B
:103F6000039F0507090B002370E708236EE7102362
:103F70006CE720236AE7402368E7802366E700BFF9
:103F8000F369FFCF000C0058FFF4FF11001001404F
:103F90000044004000480040004C004000500040F9
:103FA0000014014000780040007C004000440258AA
:103FB0007D4B5B6D03F03803282B20D8DFE803F03E
:103FC000151F1F1F1F1F1F1F711F1F1F1F1F1F1FB9
:103FD000171F1F1F1F1F1F1F191F1F1F1F1F1F1FFF
:103FE0001B1F1F1F1F1F1F1F1D0001232EE708235C
:103FF0002CE710232AE7202328E7402326E7802305
:1040000024E7694B5B6D03F00703052B0ED8DFE84F
:1040100003F0034A0507090B002317E7082315E7F8
:10402000102313E7202311E740230FE780230DE738
:104030005D4B5B6D03F00703052B0ED8DFE803F043
:1040400003350507090B002300E70823FEE61023CC
:10405000FCE62023FAE64023F8E68023F6E603F5A3
:104060000E339B6D03F00703052B0ED8DFE803F03A
:10407000031F0507090B0223E8E60823E6E61023E1
:10408000E4E62023E2E64023E0E68023DEE60423A4
:10409000DCE60423DAE60423D8E60423D6E6042388
:1040A000D4E60423D2E60423D0E60423CEE6042398
:1040B000CCE6202B27D8022BC0F01A81023B1E2B06
:1040C00000F21881DFE813F05000160156001601C7
:1040D000160116015B0016011601160116011601E4
:1040E00016011601600016011601160116011601CF
:1040F0001601160116011601160116011601160108
:10410000160116016C00402B2CD14FF40040626A5E
:10411000264B33F81220B0FBF2F3656805EB45013E
:10412000994200F2E980B3EB053F00F2E7800026F8
:1041300033463146FCF762FB090241EA1061000296
:104140006B08C0182A46334641F10001FCF756FBC4
:10415000A0F54072164B9A4200F2D2802368D860D4
:104160003046D4E00120D2E0FFF7A6FB0028CED1F4
:104170000020CCE003A8FFF7B1FB0498F6E76846FF
:10418000FFF7C6FC0198F1E7074B1B6813F0200FFF
:1041900008D0054B1B68C3F3C1030648D840E5E7C8
:1041A0000548B4E70348B2E7004402589CAC000855
:1041B000FFFC0F000090D00300093D00202B15D814
:1041C000202B00F29F80DFE803F031379D9D3A9D60
:1041D0009D9D3F9D9D9D9D9D9D9D449D9D9D9D9DC6
:1041E0009D9D9D9D9D9D9D9D9D9D5000402B1BD106
:1041F000626A4D4B33F81230B0FBF3F0626853083B
:1042000003EB4000B0FBF2F0A0F110024FF6EF73A9
:104210009A4279D883B223F00F03C0F342001843C7
:104220002368D860002072E0012070E0FEF732FDC4
:104230000028DDD100206AE0FEF73EFDF8E703A884
:10424000FFF74CFB0498F3E76846FFF761FC019821
:10425000EEE7364B1B6813F0200F08D0334B1B687A
:10426000C3F3C1033248D840E2E73248C0E73048E0
:10427000BEE7402B17D14FF40040626A2A4B33F857
:104280001230B0FBF3F0636800EB5300B0FBF3F0C7
:10429000A0F110024FF6EF739A4242D8236880B221
:1042A000D860002033E0012031E0FEF7F3FC002865
:1042B000E3D100202BE0FEF7FFFCF8E703A8FFF7AF
:1042C0000DFB0498F3E76846FFF722FC0198EEE740
:1042D000164B1B6813F0200F08D0144B1B68C3F358
:1042E000C1031348D840E2E71248C6E71048C4E7C4
:1042F00001200CE001200AE0012008E0012006E096
:10430000012004E0012002E0012000E0012001235F
:10431000A4F86A30A4F8683000232367636706B006
:1043200070BD0120F3E700BF9CAC000800440258B8
:104330000090D00300093D00836A13F0010F06D0FE
:104340000268536823F40033C16A0B435360836AE5
:1043500013F0020F06D00268536823F48033016B18
:104360000B435360836A13F0040F06D0026853684E
:1043700023F48023416B0B435360836A13F0080FCF
:1043800006D00268536823F40043816B0B435360EB
:10439000836A13F0100F06D00268936823F48053E9
:1043A000C16B0B439360836A13F0200F06D0026841
:1043B000936823F40053016C0B439360836A13F0FA
:1043C000400F0AD00268536823F48013416C0B43FA
:1043D0005360436CB3F5801F0BD0836A13F0800FDA
:1043E00006D00268536823F40023C16C0B4353606A
:1043F00070470268536823F4C003816C0B43536019
:10440000EBE72DE9F84305460F4616469946DDF8D9
:1044100020802C68E46937EA04030CBF4FF0010CDC
:104420004FF0000CB44557D1B8F1FF3FF1D0FDF784
:10443000B5FCA0EB090040452FD8B8F1000F2CD0F7
:104440002B681A6812F0040FE3D0DA6912F4006FD7
:10445000DFD04FF400621A622A6852E8003F23F46A
:10446000D07342E800310029F6D12A6802F108032E
:1044700053E8003F23F00103083242E800310029ED
:10448000F3D12023C5F88430C5F88830C5F88C30C6
:10449000002385F8803003201FE02A6852E8003F9F
:1044A00023F4D07342E800310029F6D12A6802F1E2
:1044B000080353E8003F23F00103083242E80031CB
:1044C0000029F3D12023C5F88430C5F888300023B3
:1044D00085F88030032000E00020BDE8F8832DE956
:1044E000F04182B01E46D0F88430202B58D10446CB
:1044F0000D469046002A18BF002955D090F880300C
:10450000012B53D0012380F880300023C0F88C3079
:104510002123C0F88430FDF741FC0746A4F85480FD
:10452000A4F85680A368B3F5805F05D04FF000086B
:10453000002384F8803012E0236913B14FF00008A3
:10454000F6E7A8460025F3E715F8012B23689A62E1
:10455000B4F8562092B2013A92B2A4F85620B4F8B8
:1045600056309BB283B100963B4600228021204604
:10457000FFF747FFE0B9002DE6D138F8023B22688B
:10458000C3F308039362E3E700963B460022402111
:104590002046FFF736FF68B92023C4F8843000E0D6
:1045A000022002B0BDE8F0810120FAE70220F8E71E
:1045B0000320F6E70320F4E72DE9F04383B01E461D
:1045C000D0F88830202B40F0818004460D4690467C
:1045D000002A18BF00297DD090F88030012B7BD0B5
:1045E000012380F880300023C0F88C302222C0F8EC
:1045F0008820C366FDF7D2FB0746A4F85C80A4F8C8
:104600005E80A368B3F5805F06D0A3B9226972B952
:10461000FF22A4F8602014E0226922B940F2FF12C0
:10462000A4F860200DE0FF22A4F8602009E07F22BA
:10463000A4F8602005E0B3F1805F0DD00022A4F85B
:104640006020B4F86080B3F5805F0FD04FF00009B0
:10465000002384F880301EE022691AB97F22A4F872
:104660006020EEE73F22A4F86020EAE7236913B157
:104670004FF00009ECE7A9460025E9E723685B6AEB
:1046800008EA030329F8023BB4F85E2092B2013A2B
:1046900092B2A4F85E20B4F85E309BB28BB1009663
:1046A0003B46002220212046FFF7ABFEB0B9002D8B
:1046B000E4D023685A6A5FFA88F3134005F8013B97
:1046C000E2E72023C4F88830002000E0022003B095
:1046D000BDE8F0830120FAE70220F8E70320F6E7BF
:1046E00030B583B004460023C0F88C30FDF756FB8C
:1046F00005462268126812F0080F0FD123681B6864
:1047000013F0040F18D12023C4F88430C4F8883083
:104710000020E06684F8800003B030BD6FF07E4377
:104720000093034600224FF400112046FFF769FE74
:104730000028E3D00320EFE76FF07E4300932B4681
:1047400000224FF480012046FFF75BFE0028DAD0FC
:104750000320E1E778B310B50446D0F884300BB3FA
:104760002423C4F884302268136823F00103136003
:104770002046FFF7E7FA012813D0A36ABBB92268E5
:10478000536823F4904353602268936823F02A030C
:1047900093602268136843F0010313602046FFF71B
:1047A0009FFF10BD80F88030FDF732FAD8E7204631
:1047B000FFF7C2FDE3E7012070470000436E2BB90D
:1047C0000123A0F86A30A0F86830704730B403685D
:1047D0009A68C2F342629968490F094D6B5C1B01EC
:1047E000084C615C93FBF1F3A0F86A30AB5C1B01F1
:1047F000A25C93FBF2F3A0F8683030BC704700BFB6
:10480000BCAC0008B4AC000890F88030012B18D084
:10481000012380F880302423C0F8843003681A68AC
:10482000196821F00101196022F00052002343664B
:1048300001680A602022C0F8842080F88030184681
:1048400070470220704738B590F88030012B1DD09A
:104850000446012380F880302423C0F884300368A4
:104860001D681A6822F001021A600268936823F03A
:10487000604319439160FFF7A1FF23681D60202367
:10488000C4F88430002084F8800038BD0220FCE7A2
:1048900038B590F88030012B1DD00446012380F8F4
:1048A00080302423C0F8843003681D681A6822F021
:1048B00001021A600268936823F0606319439160F3
:1048C000FFF77CFF23681D602023C4F8843000209C
:1048D00084F8800038BD0220FCE70000002300E0DF
:1048E00001330F2B0ED803EB4302074901EB820281
:1048F00052688242F4D103EB430201EB82020021B1
:104900005160EDE7704700BF7C0A002000230F2BA9
:1049100009D803EB4302064901EB82025268824246
:1049200004D00133F3E74FF0FF30704700207047A9
:104930007C0A002038B5054604682046FFF7E6FFEC
:1049400028B92B7B13F003030DD0012B25D00024B5
:104950000F2C20D804EB4403104A02EB83035B685E
:104960002BB10134F4E72046FFF7B8FFEFE7A86862
:1049700060B90A4B04EB440203EB820143F82200C6
:104980002A684A606A688A60002006E0FDF706FA35
:10499000AB681844EDE74FF0FF3038BD7C0A0020CB
:1049A00038B5002414E0FDF7F9F904EB4403184A84
:1049B00052F82330C01A012809D004EB4405144BE7
:1049C00003EB85056B68A868984700236B6001348A
:1049D0000F2C1CD804EB44030D4A02EB83035B68E5
:1049E000002BF4D0FDF7DAF904EB4403084A52F83F
:1049F0002330002BE1D08342D5D8FDF7CFF904EB6B
:104A00004403034A52F823309842D6D2DFE738BD38
:104A10007C0A0020DFF834D0FDF768F80C480D4917
:104A20000D4A002302E0D458C4500433C4188C4209
:104A3000F9D30A4A0A4C002301E013600432A2426F
:104A4000FBD300F017F8FCF7F7FF704700000220D7
:104A500000000020C0090020D4B00008C0090020D8
:104A6000840B0020FEE70000014B1868704700BF70
:104A70001000002070B50D4E0D4D761BB61006D0FF
:104A8000002455F8043B01349847A642F9D1094E59
:104A9000094D761B06F0C0F8B61006D0002455F874
:104AA000043B01349847A642F9D170BDC8B0000854
:104AB000C8B00008D0B00008C8B00008830730B5FF
:104AC00048D0541E002A3FD0CAB2034601E0013C40
:104AD0003AD303F8012B9D07F9D1032C2DD9CDB280
:104AE00045EA05250F2C45EA054536D9A4F1100203
:104AF00022F00F0C03F1200EE6444FEA121C03F1E2
:104B0000100242E9045542E9025510327245F8D1CB
:104B10000CF1010214F00C0F03EB021204F00F0C65
:104B200013D0ACF1040323F003030433134442F81D
:104B3000045B9342FBD10CF003042CB1CAB21C44B9
:104B400003F8012B9C42FBD130BD64461346002C78
:104B5000F4D1F9E703461446BFE71A46A446E0E756
:104B60000FB400B5074983B004AB086853F8042BB1
:104B70008168019300F036F903B05DF804EB04B0EE
:104B8000704700BF1000002070B5054688B0084689
:104B90000C46FBF7B5FF224EAA6B05900121431886
:104BA000CDE9066104A8022104940393AC68019046
:104BB000029122B3636E13F0010FB4F90C309AB274
:104BC00001D1980525D5910406D4626E43F40053B3
:104BD00022F40052A3816266284601AA214603F00E
:104BE000DBF9636E002814BF4FF0FF350A25DA07A2
:104BF00002D4A3899B0506D5284608B070BD284677
:104C000002F0CCFFD6E7A06D03F068FB284608B0A1
:104C100070BDA06D03F060FBB4F90C309AB2D2E71E
:104C200070AC0008024B01461868FFF7ADBF00BF2B
:104C3000100000202DE9F043694CD4F8008083B0C7
:104C400004460E4617461D46B8F1000F03D0D8F8AB
:104C50003830002B77D0022F05D0012F00F2AC8026
:104C6000002DC0F2A980636EDA0752D52146404676
:104C700002F060FF216B41B104F14003994202D080
:104C8000404603F083F800232363B4F90CC00023EB
:104C90001CF0800FA361636064D12CF44A6C2CF08B
:104CA000030C022FA4F80CC06AD001AB6A4621465F
:104CB000404603F085FBA3891843A081002D2FD027
:104CC000002E2ED0D8F83830002B38D0009B26602C
:104CD000AB42B4F90C301CBF43F40063A381012F35
:104CE00004BF43F00103A3819AB213F00803C4E99F
:104CF00004652CD0D1075DD56D42A561656E00239A
:104D000015F00105A36027D00025284603B0BDE8B3
:104D1000F083A3899B05A9D4A06D03F0DDFAA5E774
:104D2000009D284603F07CFB0646002847D0A38957
:104D300043F08003A381D8F83830002BC6D1404619
:104D400002F02CFFC2E7404602F028FF83E7A36091
:104D5000656E15F00105D7D1930524D5284603B01B
:104D6000BDE8F0832169404603F010F8B4F90CC0A7
:104D70002CF44A6C2CF0030C022FA4F80CC094D134
:104D80000025002204F14303A2600122C4E9043299
:104D90002360636E4CF0020CD807A4F80CC0DDD47D
:104DA0001CF4007FDAD1A06D03F098FA284603B016
:104DB000BDE8F083A560CBE74FF0FF35CEE7DDF827
:104DC0000090A94504D0484603F02AFB064620B9C6
:104DD000B4F90CC04FF0FF35D3E74D46A7E700BF4D
:104DE000100000202DE9F04FD5B01C4607919146E8
:104DF0000546099003F068FA0268179210460E946F
:104E0000FBF77EFE16901DB1AB6B002B00F02A82E3
:104E1000079A536EDD0740F13881B2F90C2091B248
:104E20008F0409D4079B42F400529A8191B21A462A
:104E30005B6E23F4005353660E0740F1CB80079B53
:104E40001B69002B00F0C68001F01A030A2B00F04A
:104E5000CF8000242BAB4D46CDE92944CDE9194440
:104E6000CDE91B44129428939846189400230B9480
:104E70000024CDE914342B78002B00F09D81AA4644
:104E800004E01AF8013F002B00F0C780252BF8D171
:104E9000BAEB050640F0C5809AF80030002B00F010
:104EA0008B8100234FF0FF329AF801608DF8833038
:104EB0000A930AF1010A08921F462B244FF0200999
:104EC0000AF1010AA6F120035A2B00F2ED80DFE877
:104ED00013F0EB02EB00EB00E602EB00EB00EB0063
:104EE0006A00EB00EB005C028002EB0067028A02C2
:104EF000EB0085025B005B005B005B005B005B001E
:104F00005B005B005B00EB00EB00EB00EB00EB00F9
:104F1000EB00EB007A01EB00F801D2017A017A0193
:104F20007A01EB00EB00EB00EB00E102EB00EB00A1
:104F30002D02EB00EB00EB000202EB00A402EB0001
:104F4000EB008307EB00EB00EB00EB00EB00EB006A
:104F5000EB00EB007A01EB00F801D4017A017A0151
:104F60007A01C702D401CD01EB00D402EB006C0240
:104F70002F02B502CD01EB0002027E008007EB009C
:104F8000EB006107EB007E00A6F1300300221AF867
:104F9000016B02EB820203EB4202A6F13003092B04
:104FA000F5D90A928EE7DDF824B0584603F08CF963
:104FB00043681B931846FBF7A3FD1C900646584612
:104FC00003F082F983681993002E40F0CD869AF899
:104FD000006075E7079D0998294601F0ADFC00289F
:104FE00041F01C83A98901F01A030A2B7FF431AF29
:104FF000079AB2F90E30002BFFF62BAF536ED8078D
:1050000002D4890541F13B810799099823464A4614
:1050100055B0BDE8F04F01F04FBCBAEB050600F00B
:10502000CB802A9B33442A93299B0133072BC8E961
:105030000056299305DC08F108080B9B33440B93B9
:105040002AE70799099828AA04F0BEFB80B90DF158
:10505000AC08F2E70799099828AA04F0B5FB0028E4
:1050600000F09B800D9B1BB10998194602F08EFE43
:10507000079A536ED90740F1EA8093895B0601F1E4
:10508000D9820B9855B0BDE8F08F079BB3F90C207F
:10509000900591B23FF5C4AE1D46986D03F01CF922
:1050A000B5F90C2091B2BBE6002E00F085800022FD
:1050B0008DF8EC608DF883200123CDE90C32069346
:1050C00008920F92139210923BAD17F0020302D098
:1050D00006990231069117F0840B07D10A990698B8
:1050E000A1EB0009B9F1000F00F370832A9C8AB18B
:1050F000299A0DF1830101320134C8F80010072A02
:105100004FF001012A942992C8F8041000F3B683E5
:1051100008F1080883B1299B21AA01330234C8F899
:105120000020072B4FF002022A942993C8F804208C
:1051300000F3B28308F10808BBF1800F00F0698228
:10514000089B0C9AA3EB020BBBF1000F00F3AA82A1
:10515000FB0500F100820C9BC8F804301C44299B1D
:10516000C8F800500133072B2A94299300F32283B7
:1051700008F10808780705D50A9B069A9D1A002DA4
:1051800000F39683DDE90A2306998A42ACBF9B1897
:105190005B180B93002C7FF45DAF002329930D9BCC
:1051A0001BB10D99099802F0F1FD0DF1AC085546BF
:1051B0002B78002B7FF463AE2A9B002B41F0D38128
:1051C0000023299354E70E9B073323F00702F2E8EC
:1051D0000234CDE91434DDE9143424F000440E9295
:1051E000994618462146B54B4FF0FF32FCF738FA86
:1051F000002840F0EF84B14B484621464FF0FF3283
:10520000FCF710FA002840F0E584DDE914010022E3
:105210000023FCF7FDF9002840F067879DF8832004
:10522000A74DA84B27F080070321472EC8BF1D4676
:1052300000230D9306910C9108930F9313931093F1
:10524000002A3FF442AF069B013306933DE7079BDC
:105250009B899A053FF512AF079CA06D03F03EF8BD
:10526000A3890BE7099802F099FCD1E59AF8006050
:1052700047F0200724E647F01007BA060E9B40F1DE
:105280003B84073323F007031A465B6852F8084B48
:105290000E929946002BC0F24C84089B013300F01B
:1052A000D88254EA090327F0800B40F0D382089B90
:1052B000002B40F0D4825F46002308930C9354AD3A
:1052C0001DE10E9B002253F8041B8DF883208DF8FE
:1052D000EC100E93F0E60E9C089B54F8045B4FF024
:1052E00000098DF88390002D00F093855A1C00F082
:1052F00051861A4649462846FBF772FC0D90002855
:1053000001F00E810D9BCDF820905B1B0C930E9449
:1053100023EAE3739DF883200693CDF83490CDF80B
:105320003C90CDF84C90CDF8409089E747F01007BD
:1053300017F0200900F0D2830E9B073323F00703F8
:10534000D3F8049053F8084B0E9327F4806B002396
:1053500000228DF88320089A511C00F0B88054EA8E
:1053600009012BF0800740F0B180002A40F0F6855B
:10537000002BA1D11BF001030C9300F01484302307
:105380008DF84F310DF24F15B9E00E9B53F8042BF9
:105390000A92002A80F2DA830A9A0E9352420A9203
:1053A0009AF8006047F004078AE5BD0600F1D18451
:1053B000FC0600F1D885780600F1A586B90540F114
:1053C000D2850E9B0B9953F8042B0E931170554602
:1053D000EEE69AF800608DF8834071E59AF8006077
:1053E00047F080076CE5524612F8016B2A2E01F057
:1053F0003F82A6F13003092B924698BF002201F2AA
:10540000BC801AF8016B02EB820203EB4202A6F1A8
:105410003003092BF5D9089254E547F0100B1BF027
:10542000200900F076830E9B073323F00703D3F89F
:10543000049053F8084B0E93012389E70E9B53F811
:10544000044B0E93302378268DF884301E4B18932E
:1054500047F0020B8DF885604FF00009022377E7D3
:105460009AF80060682E03BF9AF8016047F400774D
:105470000AF1010A47F0400722E59AF800606C2E15
:1054800003BF9AF8016047F020070AF1010A47F0CC
:10549000100715E59AF8006047F0080710E59AF83C
:1054A000006047F001070BE59DF88330002B7FF487
:1054B0008EAD9AF800608DF8839001E5FFFFEF7FD5
:1054C000C8AC0008CCAC0008D8AC0008BB46012B27
:1054D00000F0C081022B54AD20D1189A04F00F03C4
:1054E0002409D35C05F8013D44EA09744FEA19190F
:1054F00054EA0903F2D154AB5B1B5F460C93089945
:105500000C989DF8832081424FF00003B8BF0146FC
:105510000D9306910F931393109391E604F00703F4
:10552000E40844EA49744FEAD909303354EA0901DE
:105530002A4605F8013DF1D11BF0010FDBD0302BDD
:10554000D9D03023023A05F8013C54AB9B1A5F4690
:105550000C931546D3E7652E40F3E680DDE9140190
:1055600000220023FCF74AF8002800F0DC81299B88
:10557000BF4AC8F80020013301340122072B2A94C6
:105580002993C8F8042000F3CC8408F10808229B72
:10559000129A934280F2D682169B179A1C44C8E94D
:1055A0000023299B2A940133072B299300F3248499
:1055B00008F10808129B5D1E002D7FF7DBAD102D52
:1055C000299BDFF8B09240F3BD8449462246B94694
:1055D000DDF824B0079C10260F4605E008F1080806
:1055E000103D102D40F3AA8401331032072BC8E977
:1055F0000076CDE92932F1DD28AA2146584604F08B
:10560000E3F800287FF42EADDDE929320DF1AC0876
:10561000E6E70A9B069AA3EB020BBBF1000F7FF7AC
:105620008FADBBF1100F299ADFF848922CDD1D9643
:1056300021464E46079CDDF82490102306E0ABF18E
:10564000100BBBF1100F08F108081ADD0132103100
:10565000072AC8E90063CDE92921F0DD28AA2146FF
:1056600048460DF1AC0804F0AFF800287FF4FAAC1E
:10567000ABF1100BBBF1100FDDE929214FF0100346
:10568000E4DCB1461D9E0C4601325C44072ACDE99C
:105690002924C8F80090C8F804B000F3A08308F1EA
:1056A00008084DE5BBF1100F299ADFF8C8912DDDF0
:1056B00041462046A8464C46079DDDF8249010231D
:1056C00006E0ABF1100BBBF1100F01F1080119DD81
:1056D00001321030072AC1E90043CDE92920F0DD6D
:1056E00028AA2946484604F06FF800287FF4BAAC8F
:1056F000ABF1100BBBF1100FDDE929202BA94FF006
:105700001003E5DC4546A1468846044601325C4468
:10571000072ACDE92924C8F80090C8F804B000F39E
:10572000D08108F1080813E5129B012B40F380811A
:10573000299EC8F80050013601340123072E2A940F
:105740002996C8F8043000F37C8308F10808169BFA
:10575000179A01361C44072EC8E90023CDE92964B5
:1057600000F37C8308F10808DDE91401002200231E
:10577000FBF744FF002840F07881129B0136013B83
:1057800001351C44072EC8F800502996C8F804308B
:105790002A9400F35D8108F108081A9BC8F80430C8
:1057A00001361C44072E24ABCDE92964C8F800302B
:1057B0007FF7DEAC0799099828AA04F005F80028BD
:1057C0007FF450AC2A9C0DF1AC08D3E4B9F1100F72
:1057D000DDE929212BDDCDE91D3B1F96DDF824B045
:1057E0004E461024A946079D04E0103E102E08F1F5
:1057F000080817DD0132204B1031072AC8E90034B0
:10580000CDE92921F1DD28AA294658460DF1AC0839
:1058100003F0DAFF00287FF425AC103E102EDDE9FE
:105820002921E7DCDDE91D3B4D46B1461F9EC8F846
:105830000490013209EB0104072A0F49C8F800104F
:10584000CDE9292400F351839DF8832008F108084D
:105850004DE4BB460A2C79F1000380F00C83303410
:1058600001238DF84F415F460C930DF24F1546E62C
:1058700008AD00081CAD00080CAD00080799099898
:105880001D9328AA03F0A0FF00287FF4EBAB2A9C0D
:105890001D9B0DF1AC083DE40799099828AA03F077
:1058A00093FF00287FF4DEAB2A9C0DF1AC0843E4A3
:1058B000102D299B21DD099FDDF81C90102604E0A6
:1058C000103D102D08F1080817DD0133BB4A1034D4
:1058D000072BC8E90026CDE92934F1DD28AA49467D
:1058E00038460DF1AC0803F06FFF00287FF4BAAB27
:1058F000103D102DDDE92934E7DC0133AF4AC8F84B
:1059000004502C44072BCDE92934C8F800207FF738
:1059100039AC0799099828AA03F056FF00287FF4AC
:10592000A1AB2A9C2EE42299002940F31481DDF8D2
:105930004090129B9945A8BF9946B9F1000F0BDD25
:10594000299B01334C44072BC8E900592A94299319
:1059500000F39A8508F10808109EB9F1000FA8BF5E
:10596000A6EB0906002E00F34683DDF840B079056A
:10597000AB4400F1CE84229B129A934202DBFA07D9
:1059800040F1B883169A17991444C8E90012299A6D
:105990002A940132072A299200F3838508F1080826
:1059A000129AAE18A6EB0B06D51AAE42A8BF2E4629
:1059B000002E0DDD299BC8F800B001333444072BBD
:1059C000C8F804602A94299300F3F18508F10808C7
:1059D000002EA8BFAD1B002D7FF7CCAB102D299B4F
:1059E000DFF8DC9140F3AE8249462246B946DDF845
:1059F00024B0079C10260F4605E008F10808103D6A
:105A0000102D40F39B8201331032072BC8E900763A
:105A1000CDE92932F1DD28AA2146584603F0D4FE0B
:105A200000287FF41FABDDE929320DF1AC08E6E771
:105A3000FE073FF57DAE299EC8F8005001360134BF
:105A40000123072E2A942996C8F804307FF7A3AEC5
:105A50000799099828AA03F0B7FE00287FF402AB43
:105A6000DDE929640DF1AC0897E6129B5D1E002D5F
:105A70007FF793AE102DDFF8489140F37F822246E6
:105A80000897099C079F4FF0100B05E008F10808E4
:105A9000103D102D40F3708201361032072EC8E9F8
:105AA000009BCDE92962F1DD28AA3946204603F0A2
:105AB0008BFE00287FF4D6AADDE929620DF1AC083F
:105AC000E6E70799099828AA03F07EFE00287FF4EC
:105AD000C9AA2A9C0DF1AC08FFF73ABB17F01003D6
:105AE00072D117F0400200F0BD820E9A52F8044BBA
:105AF0000E929946A4B228E453F8044B0E93FB0689
