:020000040800F2
:1000000000000220F92900088D1900088F19000846
:1000100091190008931900089519000800000000C4
:100020000000000000000000000000009719000818
:1000300099190008000000009B1900089D1900088C
:10004000492A0008492A0008492A0008492A0008C4
:10005000492A0008492A0008492A0008492A0008B4
:10006000492A0008492A0008492A0008492A0008A4
:10007000492A0008492A0008492A0008492A000894
:10008000492A0008492A0008492A0008492A000884
:10009000492A0008492A0008492A0008492A000874
:1000A000492A0008492A0008492A0008492A000864
:1000B000492A0008492A0008492A0008492A000854
:1000C000492A0008492A0008492A0008492A000844
:1000D000492A0008492A0008492A0008492A000834
:1000E000492A0008492A000800000000492A00089F
:1000F000492A0008492A0008492A0008492A000814
:10010000492A0008492A0008492A0008492A000803
:10011000492A0008492A0008492A0008492A0008F3
:10012000492A0008492A0008492A0008492A0008E3
:10013000492A0008492A0008492A0008492A0008D3
:1001400000000000000000000000000000000000AF
:10015000492A0008492A0008492A0008492A0008B3
:10016000492A0008492A0008492A0008492A0008A3
:10017000492A0008492A0008492A0008492A000893
:10018000492A0008492A0008492A0008492A000883
:10019000492A0008492A0008492A0008492A000873
:1001A000492A0008492A0008492A0008492A000863
:1001B000492A0008492A0008492A0008492A000853
:1001C000492A0008492A0008492A0008492A000843
:1001D000492A0008492A0008492A0008492A000833
:1001E000492A0008492A0008492A0008492A000823
:1001F000492A0008492A0008492A0008492A000813
:10020000492A0008492A0008492A0008492A000802
:10021000492A0008492A0008492A0008492A0008F2
:10022000492A0008492A0008492A0008000000005D
:10023000492A0008492A000800000000492A00084D
:10024000492A0008492A0008492A0008492A0008C2
:10025000492A0008492A0008492A0008492A0008B2
:10026000492A0008492A0008492A0008492A0008A2
:10027000492A0008492A0008492A0008000000000D
:10028000492A0008492A0008492A000800000000FD
:0802900000000000492A0008EB
:1002980010B5054C237833B9044B13B10448AFF3B8
:1002A80000800123237010BD4404002000000000DA
:1002B800C02C000808B5034B1BB103490348AFF332
:1002C800008008BD0000000048040020C02C000881
:1002D80080F0004002E000BF81F0004142001FBFF3
:1002E8005FEA410392EA030F7FEA226C7FEA236CFC
:1002F8006AD04FEA1262D2EB1363C1BFD2184140F1
:1003080048404140B8BF5B42192B88BF704710F086
:10031800004F40F4000020F07F4018BF404211F029
:10032800004F41F4000121F07F4118BF494292EA91
:10033800030F3FD0A2F1010241FA03FC10EB0C00BD
:10034800C3F1200301FA03F100F0004302D549424A
:1003580060EB4000B0F5000F13D3B0F1807F06D3F7
:1003680040084FEA310102F10102FE2A51D2B1F1EF
:10037800004F40EBC25008BF20F0010040EA0300E4
:100388007047490040EB0000013A28BFB0F5000F64
:10039800EDD2B0FA80FCACF1080CB2EB0C0200FA1A
:1003A8000CF0AABF00EBC25052421843BCBFD04069
:1003B8001843704792F0000F81F4000106BF80F4E3
:1003C80000000132013BB5E74FEA41037FEA226CA6
:1003D80018BF7FEA236C21D092EA030F04D092F071
:1003E800000F08BF0846704790EA010F1CBF0020A5
:1003F800704712F07F4F04D1400028BF40F0004002
:10040800704712F100723CBF00F50000704700F021
:10041800004343F0FE4040F4000070477FEA226248
:1004280016BF08467FEA23630146420206BF5FEA19
:10043800412390EA010F40F4800070474FF0000319
:1004480004E000BF10F0004348BF40425FEA000CE0
:1004580008BF704743F0964301464FF000001CE088
:1004680050EA010208BF70474FF000030AE000BFDE
:1004780050EA010208BF704711F0004302D540421C
:1004880061EB41015FEA010C02BF8446014600208E
:1004980043F0B64308BFA3F18053A3F50003BCFAA9
:1004A8008CF2083AA3EBC25310DB01FA02FC634456
:1004B80000FA02FCC2F12002BCF1004F20FA02F25D
:1004C80043EB020008BF20F00100704702F1200250
:1004D80001FA02FCC2F1200250EA4C0021FA02F2B1
:1004E80043EB020008BF20EADC7070474FF0FF0CB6
:1004F8001CEAD0521EBF1CEAD15392EA0C0F93EAB1
:100508000C0F6FD01A4480EA010C400218BF5FEA52
:1005180041211ED04FF0006343EA501043EA5111C5
:10052800A0FB01310CF00040B1F5000F3EBF4900BF
:1005380041EAD3715B0040EA010062F17F02FD2AC3
:100548001DD8B3F1004F40EBC25008BF20F00100A6
:10055800704790F0000F0CF0004C08BF49024CEABD
:10056800502040EA51207F3AC2BFD2F1FF0340EA4F
:10057800C250704740F400004FF00003013A5DDCC0
:1005880012F1190FDCBF00F000407047C2F1000201
:10059800410021FA02F1C2F1200200FA02FC5FEAEE
:1005A800310040F1000053EA4C0308BF20EADC7038
:1005B800704792F0000F00F0004C02BF400010F4AA
:1005C800000F013AF9D040EA0C0093F0000F01F057
:1005D800004C02BF490011F4000F013BF9D041EA79
:1005E8000C018FE70CEAD15392EA0C0F18BF93EA7B
:1005F8000C0F0AD030F0004C18BF31F0004CD8D1A5
:1006080080EA010000F00040704790F0000F17BF2B
:1006180090F0004F084691F0000F91F0004F14D071
:1006280092EA0C0F01D142020FD193EA0C0F03D1C9
:100638004B0218BF084608D180EA010000F00040CC
:1006480040F0FE4040F40000704740F0FE4040F4A7
:10065800400070474FF0FF0C1CEAD0521EBF1CEA46
:10066800D15392EA0C0F93EA0C0F69D0A2EB030264
:1006780080EA010C49024FEA402037D04FF08053FE
:1006880043EA111143EA10130CF000408B4238BFC3
:100698005B0042F17D024FF4000C8B4224BF5B1AD1
:1006A80040EA0C00B3EB510F24BFA3EB510340EA1F
:1006B8005C00B3EB910F24BFA3EB910340EA9C00CD
:1006C800B3EBD10F24BFA3EBD10340EADC001B013D
:1006D80018BF5FEA1C1CE0D1FD2A3FF650AF8B42E1
:1006E80040EBC25008BF20F0010070470CF0004CEE
:1006F8004CEA50207F32C2BFD2F1FF0340EAC25019
:10070800704740F400004FF00003013A37E792F0D9
:10071800000F00F0004C02BF400010F4000F013A37
:10072800F9D040EA0C0093F0000F01F0004C02BF32
:10073800490011F4000F013BF9D041EA0C0195E79B
:100748000CEAD15392EA0C0F08D142027FF47DAF34
:1007580093EA0C0F7FF470AF084676E793EA0C0F24
:1007680004D14B023FF44CAF08466EE730F0004C22
:1007780018BF31F0004CCAD130F000427FF45CAFB2
:1007880031F000437FF43CAF5FE700BF42000ED278
:10079800B2F1FE4F0BD34FF09E03B3EB126209D4B4
:1007A8004FEA002343F0004323FA02F070474FF06A
:1007B8000000704712F1610F01D1420202D14FF0DF
:1007C800FF3070474FF00000704700BF03685A00C1
:1007D8004CBF43F0004323F000431844704700BF68
:1007E8002DE9F84329B34F1E044615463E464FF0FF
:1007F800000808EB060101EBD171491004EBC109AF
:100808004846FFF7E3FF0346C80008308F422044FC
:1008180009D0AB4209D8FFF7D9FF0138A8420AD25C
:1008280001F10108E5E7AB4205D9884501D04E1E24
:10083800DFE74FF000094846BDE8F883012807D0F4
:10084800022807D0044B00280CBF18460020704728
:1008580002487047024870471D0F0008210F000822
:10086800250F000830B5234B83B004468D1E3BB3DB
:1008780001A92846AFF30080E8B101992A46FFF79D
:10088800AFFF0146B8B1FFF7A1FF4B68A064012B89
:100898002CD0002B01F1040024DBFFF797FF002385
:1008A800C4E913030368002B11DBFFF78FFF2061F6
:1008B800002003B030BD00230920236103B030BD00
:1008C8000D4B0E49C91AC91018460191D6E7C3F352
:1008D8000360FFF7B3FF0028206114BF0020092040
:1008E80003B030BD0123C4E91303DBE70023236110
:1008F8000520DEE700000000102D0008D82D0008B4
:100908000368DA0710B5044606D49B0700F14800CF
:1009180009D500F05BFC2368590709D51A070ED5DD
:10092800DB0613D510BD00F049FC23685907F5D440
:1009380004F1D00000F052FC23681A07F0D404F543
:10094800A87000F053FC2368DB06EBD404F5E870CC
:10095800BDE8104000F08EBC0920704703460068CF
:1009680000B11844704700BF704700BF70B5044617
:100978000E46316C2046FFF775FF054688B9326C84
:100988006261236932462146012098470828F0D041
:10099800072806D12846316CFFF7E6FF301D00F026
:1009A80001FC02F04FF800BF2DE9F0470D1DD0F80B
:1009B8000C80D0F81890074614460FCDADF5727D1F
:1009C8000DF10C0CACE80F000FCDACE80F000FCD0B
:1009D800ACE80F0095E80F0002AE4FF0000E8CE86F
:1009E8000F00C6F800E020E0336C7B614FF4F07232
:1009F80031467AA800F054FE3B697AAA3946504637
:100A08009847889B73642146CDE9006905463B46B3
:100A18003A460120C0470446E0B94FF4F0727AA97B
:100A2800304600F03DFE082D1AD1316C3846FFF7EC
:100A380019FF09345FFA84FA05460028D4D0B36B4D
:100A480073643A46CDE900693B464AF0100101203B
:100A5800C04700B1092528460DF5727DBDE8F0872D
:100A6800072DF7D12046316CFFF77EFF03A800F071
:100A780099FB00BF406C7047F0B5CB6B0B6401F17C
:100A8800040C0E460546BCE80F00F9B001AC0FC4D3
:100A9800BCE80F000FC4BCE80F000FC49CE80F00AF
:100AA8004FF0FF3784E80F00009706E02B696A468D
:100AB800294698470828044608D110992846FFF780
:100AC800D1FE0028F2D0092079B0F0BD6846FFF7C2
:100AD80017FF062CF7D131462846FFF747FF00BF1E
:100AE800C160D96B82611964002219465CE700BFB6
:100AF80070B5C66843690B64AEB903690A46044613
:100B08000D46014602209847072805D008280FD12E
:100B180029462046FFF72AFF3046296CFFF724FFB5
:100B2800281D00F03FFB0122FFF73EFF01F08AFF7E
:100B380001F088FFC2681AB1CA6B0A64002233E761
:100B48009AE700BF704700BF836801460BB10120D8
:100B580018477047012912D009D873B90F2A0CD841
:100B680000EB820218465368009A136070470339F5
:100B7800012994BF012002207047022070470846CF
:100B8800704700BF00B585B00A46002303A900914D
:100B98001946FFF7DFFF039805B05DF804FB00BFB7
:100BA800012912D009D873B90F2A0CD800EB82009A
:100BB800009A12684260184670470339012994BFA9
:100BC800012002207047022070470846704700BF86
:100BD80010B584B0002303AC039200940A4619466A
:100BE800FFF7DEFF04B010BD70B5D36B136402F1DC
:100BF800040C05460C46BCE80F00ADF50E7D0DF162
:100C08005C0EAEE80F00BCE80F00AEE80F00BCE8D1
:100C18000F00AEE80F009CE80F004FF0FF368EE89B
:100C28000F00169610E0FFF7D3FF214616A8A84735
:100C3800034616AA6946082083B9049B98470528E5
:100C480006460CD0092809D026996846FFF70AFEFF
:100C580003466A460C2116A8002BE4D0092616A8DC
:100C6800FFF74EFE30460DF50E7D70BD2DE9F04FB5
:100C7800CC6C89B01E4654F8043B06940D461746C2
:100C880000F00308002E79D01A0C1B0405938DF888
:100C98001D200223D2B204EB82048DF81C302B6D88
:100CA800B8F1020F08BFAC6B13F001030CD005A913
:100CB800384600F079FB18B9082009B0BDE8F08F74
:100CC800092009B0BDE8F08FD4F800A0BAF1000FF0
:100CD800EDD0019300F008030293022E4AD0B4F835
:100CE80000A0B4F802900434AB6C29F0010B0F217A
:100CF80038469B44FFF746FF834539D82AF001035D
:100D08009B44834594BF002001204FEA490303F028
:100D180002030AF0010A43EA0A03012B49D0022B15
:100D280032D0002BCCD1B8F1000F02D0002840F00F
:100D3800CD800434D4F800A0BAF1000FCDD105A9B4
:100D4800384600F031FB0028BAD1019B002BB3D004
:100D58000F213846FFF716FF0E2102463846FFF7E7
:100D680037FF38466A4A0F21FFF732FF0720A8E706
:100D78000020CAE7D4F804900834B5E71B020593AD
:100D88000323ADF81C308AE7236823F0004BB8F141
:100D9800000F45D128B1029A002A5CD0BBF1000FA0
:100DA80074D0002B00DA04340BF1010B04EB8B0434
:100DB800C0E7B8F1000F19D1B0B163682268991C77
:100DC8004FEAD2723FF47CAF05F158010133049128
:100DD80000F09080201DFFF7C1FD04AB01462846B6
:100DE800AFF3008000285BD10834A3E70D21384613
:100DF800D5F82090FFF7C6FE8145F5D1AB6A9C4235
:100E0800F2D12046FFF7E2FC0F2102463846FFF7F1
:100E1800DFFE38462A460021FFF7DAFE072050E7B2
:100E28000D213846D5F82090FFF7ACFE814501D05A
:100E38002368B6E7AB6A9C42FAD104230022C5E9CD
:100E48000B23E318C5F828B06B632368002B59DB24
:100E580001230193A8E705F15803CDF80C8004F1AC
:100E6800040AB04691461E460EE050460496FFF727
:100E780075FD0022014604AB284609F101090AF173
:100E8800040AAFF30080E0B9D945EED10D21384608
:100E9800FFF778FE049BAC62C5E90803062010E75B
:100EA80081460D213846FFF76DFEB9F1020F286221
:100EB80025D12B46049A43F82C2F6B62AC6206208E
:100EC800FFE646462368DDF80C806AE72046FFF710
:100ED8007DFC04340246AC6328461446AFF3008018
:100EE80000283FF4EDAE384622460F21FFF770FE8A
:100EF8000720E6E60D213846FFF744FE2862049BEA
:100F08006B62DBE70BF1010004EB80007AE700BFBE
:100F1800000000000023A9E60123A7E60223A5E6B6
:100F28002DE9F0430646C3B015461C46042900F2D5
:100F3800BF80DFE801F09E57BD2D0300002C40F074
:100F4800B780102A00F2B4800368D80600F1F9804F
:100F580020AF384600F098F9B46B394600234FF0BB
:100F6800010C0CFA03F22A42204603F1010303D0D4
:100F780050F8042B0A600446042B01F10401F0D157
:100F88003846B46300F076F9002043B0BDE8F0833A
:100F9800032C40F08D8094B204EB1243102B4FEADF
:100FA800124500F2858003681F0700F1D28020AF48
:100FB800384600F03DF9B26B07EBC50154B10B465A
:100FC800D01A01EBC401E4001D5843F8045B8B42BE
:100FD800FAD122443846B26300F008F9002043B041
:100FE800BDE8F083012C4FEA124895B25CD0052C7D
:100FF8005ED108EB0509B9F1200F59D8B8F10F0FE8
:1010080079D9A946002D40F08A80B36B6DB320AF23
:101018004FF0000907EBC807043F03EBC50553F879
:10102800041B47F8041FAB42F9D1B9F1000F0FD0E8
:101038006F464146102938BF102107EBC10184399A
:1010480003EBC90553F8040B41F8040FAB42F9D17F
:10105800012C00F08680B8F10F0FB56347D9B9F1BC
:10106800000F02D0684600F0B9F8002043B0BDE890
:10107800F083ECB9806B23461FFA82FC0124371DEC
:1010880004FA03F212EA0C0F014604D051F8042BBB
:1010980047F8232008460133102BF1D115F40055E9
:1010A800E3D1B063284604E008EB0503102B03D90D
:1010B800022043B0BDE8F083B8F10F0FF8D83368C9
:1010C800DA0706D5304623F0030340F8483B00F022
:1010D80079F820AF384600F075F8B36B002D97D13A
:1010E8001D460435B563384600F068F8BDE720A80A
:1010F80000F06CF8B3E7B9F1100F40D9A9F1100965
:101108003368D90708D523F00103304643F00203BA
:1011180040F8483B00F05EF8B9F1000F32D0336870
:101128005A0720D4B8F10F0F25D96F463846C8F1B1
:10113800100500F057F8002DB36B7FF77AAF20AF9A
:1011480068E723F01003336006F5E87000F09CF8B8
:10115800FEE623F00803036000F5A87000F068F8C5
:1011680025E720AFBDE7304623F0040340F8D03B25
:1011780000F038F8D6E720A800F02CF8D5E74FF0B3
:101188000009BDE7B8F10F0F3FF63FAF20AF384673
:1011980000F020F8B36B002D7FF43AAF384600F02A
:1011A80015F862E700F1340191E838009C46A6463C
:1011B8004CF8045D90E8FF0FE54600BD90EC210B6C
:1011C800704700BF80EC210B704700BF90EC200BEC
:1011D800704700BF80EC200B704700BFD0EC200B9D
:1011E800704700BFC0EC200B704700BFF0EC020155
:1011F800F0EC0211F0EC0221F0EC0231F0EC0241CB
:10120800F0EC0251F0EC0261F0EC0271F0EC0281BA
:10121800F0EC0291F0EC02A1F0EC02B1F0EC02C1AA
:10122800F0EC02D1F0EC02E1F0EC02F1704700BF03
:10123800E0EC0201E0EC0211E0EC0221E0EC02310A
:10124800E0EC0241E0EC0251E0EC0261E0EC0271FA
:10125800E0EC0281E0EC0291E0EC02A1E0EC02B1EA
:10126800E0EC02C1E0EC02D1E0EC02E1E0EC02F1DA
:10127800704700BFB0FC0181B0FC0191B0FC01A136
:10128800B0FC01B1704700BFA0FC0181A0FC019136
:10129800A0FC01A1A0FC01B1704700BFEC4600B55D
:1012A8002DE900502DE9FF1F4FF000032DE90C0038
:1012B80001A9FFF7E1FBDDF840E012B0704700BF7D
:1012C800EC4600B52DE900502DE9FF1F4FF0000353
:1012D8002DE90C0001A9FFF70BFCDDF840E012B086
:1012E800704700BFEC4600B52DE900502DE9FF1FFF
:1012F8004FF000032DE90C0001A9FFF71BFCDDF8F6
:1013080040E012B0704700BFEC4600B52DE9005030
:101318002DE9FF1F4FF000032DE90C0001ABFFF78B
:10132800DFFBDDF840E012B0704700BFEC4600B5C7
:101338002DE900502DE9FF1F4FF000032DE90C00A7
:1013480001AAFFF751FCDDF840E012B0704700BF7A
:10135800027A03467AB9427AA2B14168013A10B4D6
:101368004272086803220C1D1A7202025C60000EA9
:1013780010BC1A6070470068013A1A7202021A60BB
:10138800000E7047B020704700B585B0002303AA4F
:10139800009219460C22FFF7DDFB039805B05DF8B3
:1013A80004FB00BFF0E700BF2DE9F043054685B018
:1013B8000E464FF000083046FFF7CAFFB028044633
:1013C80000F0BA80070620D500F0F003802B4DD03E
:1013D800902B36D0A02B60D0B02B74D0C02B00F04F
:1013E8008B8000F0F803D02B0BD100F007020132FC
:1013F800052342F4002201212846FFF791FD002829
:10140800D9D0092005B0BDE8F0838300DBB21F1DE9
:101418000DF10C0900231946CDF800900D2228463D
:10142800FFF798FB039BCDF8009060064CBFDF1BCD
:10143800FF1800230D22194628460397FFF7B0FB33
:10144800B9E700F00D030D2BDBD003AF002300F04C
:101458000F02194600972846FFF77CFB00230097E8
:101468000D2219462846FFF79BFBA4E73046FFF7F5
:101478006FFF24022043B0F5004FC2D004010023BF
:10148800A2B219462846FFF74BFD0028B9D114F43B
:10149800004F18BF4FF001088DE7C24302F0070361
:1014A8004FF47F621A41010702F47F624FF0000394
:1014B80048BF42F4804219462846FFF731FD00280C
:1014C8003FF479AF9DE7B1283BD0B22800F0938074
:1014D800B32841D000F0FC03B42B92D000F00702EF
:1014E8000132012342F4002219462846FFF718FD6D
:1014F80000283FF460AF84E7C6284AD0C72854D0F4
:1015080000F0F803C02B63D0C82868D0C9287FF43E
:1015180078AF3046FFF71CFF020300F00F0002F41B
:10152800702201300243012105232846FFF7F8FC09
:1015380000283FF440AF64E7B8F1000F18D000204E
:1015480060E73046FFF704FF024600283FF459AF32
:1015580010F0F003C8D054E73046FFF7F9FE020355
:1015680000F00F03013302F470221A430123BBE792
:1015780003AC43460E22414600942846FFF7EAFA98
:10158800009443460F2241462846FFF709FB404690
:1015980038E73046FFF7DCFE020300F00F030133A3
:1015A80002F470221A4303239EE73046FFF7D0FE69
:1015B800024600283FF425AF10F0F0037FF421AF76
:1015C80004212846FFF7ACFC00283FF4F4AE18E7E6
:1015D80000F00F020132032342F4202284E7304650
:1015E800FFF7B6FE00F0F00200F00F0310320133EF
:1015F80043EA023297E700230DF10C090D22194640
:10160800CDF800902846FFF7A5FA3046FFF7A0FE70
:1016180002064FF002040CD5039B00F07F00A040A7
:10162800184403903046FFF793FE030604F10704BD
:10163800F2D4039BCDF8009000F07F02A24003F59E
:1016480001731A440023039219460D222846FFF716
:10165800A7FAB0E610B5C26C536884B04FF0030C1B
:1016680008321C0208461B0E01A9019402928DF84B
:101678000CC08DF80D30FFF797FE04B010BD00BF09
:1016880008B5FFF78FFE806C08BD00BF08B5FFF7EF
:1016980089FEC06CC379023300EB830008BD00BF2C
:1016A800844641EA000313F003036DD1403A41D365
:1016B80051F8043B40F8043B51F8043B40F8043B24
:1016C80051F8043B40F8043B51F8043B40F8043B14
:1016D80051F8043B40F8043B51F8043B40F8043B04
:1016E80051F8043B40F8043B51F8043B40F8043BF4
:1016F80051F8043B40F8043B51F8043B40F8043BE4
:1017080051F8043B40F8043B51F8043B40F8043BD3
:1017180051F8043B40F8043B51F8043B40F8043BC3
:1017280051F8043B40F8043B51F8043B40F8043BB3
:10173800403ABDD2303211D351F8043B40F8043B53
:1017480051F8043B40F8043B51F8043B40F8043B93
:1017580051F8043B40F8043B103AEDD20C3205D363
:1017680051F8043B40F8043B043AF9D2043208D05B
:10177800D2071CBF11F8013B00F8013B01D30B88CD
:1017880003806046704700BF082A13D38B078DD0AB
:1017980010F003038AD0C3F10403D21ADB071CBF7D
:1017A80011F8013B00F8013B80D331F8023B20F8E7
:1017B800023B7BE7043AD9D3013A11F8013B00F820
:1017C800013BF9D20B7803704B7843708B788370A8
:1017D800604670477047000008B54FF47A7000F013
:1017E800B3F94FF48071024800F03EFB08BD00BF1A
:1017F8000020025830B589B000240394049405945D
:10180800069407941C4BD3F8E02042F00102C3F879
:10181800E020D3F8E02002F001020092009AD3F809
:10182800E02042F48072C3F8E020D3F8E02002F40C
:1018380080720192019AD3F8E02042F08002C3F846
:10184800E020D3F8E03003F080030293029B0B4DB5
:1018580022464FF48071284600F000FB4FF4807355
:101868000393012304930594069403A9284600F0E2
:10187800E1F909B030BD00BF004402580020025809
:1018880072B6FEE700B59DB04C22002109A801F010
:101898000BF92022002101A801F006F9022000F02E
:1018A800EDFA00230093264B9A6942F440429A616C
:1018B8009B6903F440430093224BDA6A42F0010229
:1018C800DA62DB6A03F001030093009B1C4B9B69FF
:1018D80013F4005FFAD0012309934FF480330A937D
:1018E80002231293139305221492C0221592169381
:1018F8001793062318930823199300231A931B930D
:1019080009A800F0E5FAB8B93F230193032302932D
:1019180000230393082304934023059306934FF46D
:1019280080620792089304210DEB010000F016FF76
:1019380020B91DB05DF804FBFFF7A2FFFFF7A0FF79
:10194800004802580004005808B500F0BDF8FFF739
:1019580099FFFFF74FFFFFF73DFFFFF73DFFFCE75C
:1019680082B0074BD3F8F42042F00202C3F8F42007
:10197800D3F8F43003F002030193019B02B07047DF
:1019880000440258FEE7FEE7FEE7FEE7FEE7704781
:101998007047704708B500F0C5F808BD01207047CA
:1019A80008B501F057F8162303604FF0FF3008BD63
:1019B80008B54FF0FF31FFF7F3FFFEE7244B1B6834
:1019C80003F00F03062B06D8214A136823F00F03F0
:1019D80043F0070313601F4B1A6842F001021A60B4
:1019E80000221A6119681C4A0A401A60184B1B68C1
:1019F80013F0080F06D0164A136823F00F0343F0BC
:101A080007031360134B00229A61DA611A621349C3
:101A180099621349D962134919635A639963DA635E
:101A280019645A64196821F4802119601A660E4BEA
:101A38001A680E4B1340B3F1005F03D20C4B01221E
:101A4800C3F808210B4B43F2D2021A60704700BF5B
:101A580000200052004402587FEDF6EA000202021C
:101A68000000FF01800201010010005C0000FFFF80
:101A78000080005100400052104B1B780BB9012028
:101A8800704710B504464FF47A70B0FBF3F30C4A74
:101A98001068B0FBF3F000F0B9F868B90F2C01D961
:101AA80001200AE0002221464FF0FF3000F078F8CC
:101AB800044B1C60002000E0012010BD080000203D
:101AC800000000200C00002010B5032000F056F89C
:101AD80000F038FD0F498B69C3F303230E4AD35C2A
:101AE80003F01F03D8408B6903F00F03D35C03F0A6
:101AF8001F0320FA03F3094A1360094B18600F20EB
:101B0800FFF7BAFF10B10124204610BD0446FFF7C5
:101B180027FFF9E700440258D82C000804000020E9
:101B280000000020034B1B78034A11680B44136024
:101B3800704700BF0800002060040020014B1868AF
:101B4800704700BF6004002038B50446FFF7F6FF71
:101B58000546B4F1FF3F02D0044B1B781C44FFF745
:101B6800EDFF401BA042FAD338BD00BF080000209B
:101B7800014B1868000C70470010005C0649CB68E0
:101B880023F4E0631B041B0C000200F4E060034331
:101B9800024A1A43CA60704700ED00E00000FA05E7
:101BA80000B5174BDB68C3F30223C3F1070CBCF184
:101BB800040F28BF4FF0040C03F1040EBEF1060F0A
:101BC80014D9033B4FF0FF3E0EFA0CFC21EA0C013E
:101BD80099400EFA03F322EA03031943002807DBAE
:101BE8000901C9B2074B19545DF804FB0023E9E762
:101BF80000F00F000901C9B2034B1954F4E700BF04
:101C080000ED00E000E400E014ED00E00138B0F180
:101C1800807F0BD24FF0E0235861054AF02182F80B
:101C280023100020986107221A617047012070472D
:101C380000ED00E070B582B000236EE085685E00BC
:101C48000324B44025EA0405CC68B4402C438460DE
:101C5800446824EA0C0C4C68C4F300149C4044EA21
:101C68000C0444606CE0DD08083550F8256003F08A
:101C780007044FEA840C0F2404FA0CF426EA040E35
:101C88000C6904FA0CF444EA0E0440F825406FE0AD
:101C9800092400E0002404FA0EF42C430CF1020C91
:101CA8006B4D45F82C404FF0B0442568D44325EAE5
:101CB8000206D1F804C01CF4801F01D042EA0506D0
:101CC8004FF0B0452E606D6804EA0506D1F804C0EF
:101CD8001CF4001F01D042EA05064FF0B0456E60C3
:101CE800D5F8845004EA0506D1F804C01CF4003F76
:101CF80001D042EA05064FF0B045C5F88460D5F832
:101D080080502C404E6816F4803F01D042EA05040A
:101D18004FF0B042C2F8804001330A6832FA03F447
:101D280000F093804FF0010C0CFA03FC1CEA02024D
:101D3800F2D04C6804F00304013C012C7FF67EAF1E
:101D48004C6804F00304032C0CD0C4685D004FF009
:101D5800030C0CFA05FC24EA0C0C8C68AC4044EA31
:101D68000C04C4604C6804F00304022C3FF47BAFFD
:101D780004684FEA430E4FF0030C0CFA0EFC24EAF9
:101D88000C0C4C6804F0030404FA0EF444EA0C0446
:101D980004604C6814F4403FBED02E4CD4F8F45084
:101DA80045F00205C4F8F450D4F8F44004F00204F5
:101DB8000194019C4FEA930C0CF10205244C54F851
:101DC800255003F003044FEA840E0F2404FA0EF49E
:101DD80025EA0405204CA0423FF45CAF04F580647A
:101DE800A04222D004F58064A04220D004F580648B
:101DF800A0421ED004F58064A0421CD004F5806483
:101E0800A0421AD004F58064A04218D004F580647A
:101E1800A04216D004F58064A04214D004F5806472
:101E2800A0423FF435AF0A2435E7012433E7022402
:101E380031E703242FE704242DE705242BE70624A4
:101E480029E7072427E7082425E702B070BD00BF6B
:101E58000004005800440258000002580AB1816189
:101E68007047090481617047436901EA030221EA66
:101E7800030141EA0241816170470000134BDB68AE
:101E880013F0040F07D1114BDB6803F007038342FB
:101E98001AD00120704710B50C4AD36823F0070305
:101EA8001843D060FFF74AFE0446084B5B6813F4FA
:101EB800005F07D1FFF742FE001BB0F57A7FF4D927
:101EC800012000E0002010BD0020704700480258A3
:101ED800002800F0188338B50446036813F0010F92
:101EE80025D0944A136903F03803926A102B15D051
:101EF800182B0FD06368B3F5803F3FD0002B53D128
:101F08008C4B1A6822F480321A601A6822F48022F4
:101F18001A6038E002F00302022AEBD1854B1B68F5
:101F280013F4003F03D06368002B00F0EE822368AF
:101F380013F0020F00F0A1807E4A1369926A13F031
:101F480038035AD0182B55D0E368002B00F0DE80F8
:101F580078490A6822F0190213430B60FFF7EEFD77
:101F68000546744B1B6813F0040F40F0AD80FFF773
:101F7800E5FD401B0228F4D90320CDE26D4A136821
:101F880043F48033136063682BB3FFF7D7FD05462E
:101F9800684B1B6813F4003FC9D1FFF7CFFD401B06
:101FA8006428F5D90320B7E2B3F5A02F09D0614B17
:101FB8001A6822F480321A601A6822F480221A60A1
:101FC800E1E75C4B1A6842F480221A601A6842F40E
:101FD80080321A60D7E7FFF7B1FD0546554B1B68FD
:101FE80013F4003FA3D0FFF7A9FD401B6428F5D9DF
:101FF800032091E212F0030FA6D14E4B1B6813F099
:10200800040F03D0E368002B00F08182494A13686B
:1020180023F01903E1680B431360FFF78FFD0546B2
:10202800444B1B6813F0040F06D1FFF787FD401BD4
:102038000228F5D903206FE2FFF79AFD41F2030366
:10204800984212D82269402A07D03A494B6823F4AB
:102058007C3343EA02334B600FE0364A536823F47B
:102068007C3343F40033536007E0324A536823F06B
:10207800FE43216943EA01635360236813F0100F9C
:1020880000F088802B4A136903F03803926A082B02
:1020980056D0182B50D0E369002B00F0B880254AA1
:1020A800136843F080031360FFF748FD0546214B92
:1020B8001B6813F4807F40F08880FFF73FFD401BCA
:1020C8000228F4D9032027E2FFF752FD41F2030367
:1020D800984212D82269402A07D016494B6823F43F
:1020E8007C3343EA02334B60C7E7124A536823F450
:1020F8007C3343F400335360BFE70E4A536823F040
:10210800FE43216943EA01635360B6E7094A13684D
:1021180023F001031360FFF711FD0546054B1B680B
:1021280013F0040FA9D0FFF709FD401B0228F5D9C9
:102138000320F1E10044025802F00302012AAAD167
:10214800A14B1B6813F4807F03D0E369802B40F018
:10215800E081FFF70DFD41F20303984212D8226A8D
:10216800202A07D098494B6823F0F84343EA826352
:102178004B600FE0944A536823F0F84343F08043E0
:10218800536007E0904AD36823F07C53216A43EAFE
:102198000163D360236813F0080F60D06369002BD4
:1021A80049D0894A536F43F001035367FFF7C6FCD0
:1021B8000546854B5B6F13F0020F50D1FFF7BEFC4D
:1021C800401B0228F5D90320A6E1FFF7D1FC41F214
:1021D8000303984212D8226A202A07D07A494B680A
:1021E80023F0F84343EA82634B60D3E7764A5368A7
:1021F80023F0F84343F080435360CBE7724AD36837
:1022080023F07C53216A43EA0163D360C2E76E4A34
:10221800136823F080031360FFF790FC05466A4BB0
:102228001B6813F4807FB5D0FFF788FC401B022899
:10223800F5D9032070E1644A536F23F00103536713
:10224800FFF77CFC0546604B5B6F13F0020F06D06E
:10225800FFF774FC401B0228F5D903205CE12368D2
:1022680013F0200F29D0A3699BB1574A136843F490
:1022780080531360FFF762FC0546534B1B6813F449
:10228800005F1AD1FFF75AFC401B0228F5D903203A
:1022980042E14D4A136823F480531360FFF74EFC64
:1022A8000546494B1B6813F4005F06D0FFF746FC50
:1022B800401B0228F5D903202EE1236813F0040FF0
:1022C80021D1636A002B00F026813F4A126902F08F
:1022D8003802182A00F0EE80022B79D03A4A1368A7
:1022E80023F080731360FFF729FC0446364B1B6804
:1022F80013F0007F00F0DC80FFF720FC001B0228B1
:10230800F4D9032008E1314A136843F48073136059
:10231800FFF714FC05462D4B1B6813F4807F06D18C
:10232800FFF70CFC401B6428F5D90320F4E0A368F0
:10233800012B0AD00BBB244B1A6F22F001021A673B
:102348001A6F22F004021A6704E01F4A136F43F061
:1023580001031367A36833B3FFF7F0FB05461A4B75
:102368001B6F13F0020FACD1FFF7E8FB401B41F2E3
:1023780088339842F3D90320CEE0052B09D0124BBD
:102388001A6F22F001021A671A6F22F004021A6704
:10239800E0E70D4B1A6F42F004021A671A6F42F019
:1023A80001021A67D6E7FFF7C9FB0546064B1B6F04
:1023B80013F0020F85D0FFF7C1FB401B41F28833B1
:1023C8009842F3D90320A7E0004402580048025875
:1023D800594A136823F080731360FFF7AFFB054673
:1023E800554B1B6813F0007F06D0FFF7A7FB401B77
:1023F8000228F5D903208FE04F4B996A4F4A0A40CB
:10240800A16AE06A41EA00110A439A62226B013A22
:10241800C2F30802616B0139490289B20A43A16B10
:102428000139090401F4FE010A43E16B0139090687
:1024380001F0FE410A431A63DA6A22F00102DA6205
:10244800596B3F4A0A40A16C42EAC1025A63DA6AF0
:1024580022F00C02216C0A43DA62DA6A22F00202E4
:10246800616C0A43DA62DA6A42F48032DA62DA6A62
:1024780042F40032DA62DA6A42F48022DA62DA6A14
:1024880042F00102DA621A6842F080721A60FFF7BD
:1024980055FB0446284B1B6813F0007F06D1FFF755
:1024A8004DFB001B0228F5D9032035E0002033E05E
:1024B800002031E0204A916A106B012B2DD001F0E9
:1024C8000303A26A93422AD1C1F30511E36A994230
:1024D80027D1C0F30802236B013B9A4223D1C0F3F2
:1024E8004622636B013B9A421FD1C0F30642A36B9D
:1024F800013B9A421BD1C0F30660E36B013B984253
:1025080017D1002008E001207047012004E00120D5
:1025180002E0012000E0002038BD0120FCE7012096
:10252800FAE70120F8E70120F6E70120F4E70120A7
:10253800F2E70120F0E700BF004402580CFCFFFF5F
:102548000700FFFFF8B57E4B1B6903F03803102B1B
:1025580000F0F280182B10D013B17A4C2046F8BD49
:10256800774B1B6813F0200F00F0E880744B186855
:10257800C0F3C100744CC440F0E7714B9D6A05F08C
:1025880003059C6AC4F30514D86A00F001005B6B6C
:10259800C3F3CC0303FB00F0FDF750FF0646002C05
:1025A800DCD0012D76D0022D00F0A4800DB320469A
:1025B800FDF744FF01466548FEF74CF80446604BBA
:1025C800186BC0F30800FDF739FF05464FF064515A
:1025D8003046FDF78BFF01462846FDF77FFE4FF09A
:1025E8007E51FDF77BFE01462046FDF77FFF04463E
:1025F80071E0534B1B6813F0200F29D0504F3B68F4
:10260800C3F3C1035048D840FDF718FF05462046DC
:10261800FDF714FF01462846FEF71CF80446386B00
:10262800C0F30800FDF70AFF05464FF06451304635
:10263800FDF75CFF01462846FDF750FE4FF07E513E
:10264800FDF74CFE01462046FDF750FF044642E0E8
:102658002046FDF7F3FE01463D48FDF7FBFF044623
:10266800374B186BC0F30800FDF7E8FE05464FF03E
:1026780064513046FDF73AFF01462846FDF72EFE25
:102688004FF07E51FDF72AFE01462046FDF72EFF4A
:10269800044620E02046FDF7D1FE01462B48FDF711
:1026A800D9FF0446264B186BC0F30800FDF7C6FE99
:1026B80005464FF064513046FDF718FF014628469D
:1026C800FDF70CFE4FF07E51FDF708FE014620464F
:1026D800FDF70CFF04461A4B1B6BC3F34623581C2B
:1026E800FDF7ACFE01462046FDF7B4FFFEF74EF8B5
:1026F800044633E72046FDF7A1FE01461548FDF7DD
:10270800A9FF04460E4B186BC0F30800FDF796FEB0
:1027180005464FF064513046FDF7E8FE014628466D
:10272800FDF7DCFD4FF07E51FDF7D8FD0146204650
:10273800FDF7DCFE0446CEE7074C0FE7024C0DE739
:102748000044025800093D000090D0030024744A58
:102758000024744C20BCBE4B40787D01002800F05A
:10276800328170B50D4604469B4B1B6803F00F037E
:102778008B420BD2984A136823F00F030B43136064
:10278800136803F00F038B4240F01F81236813F096
:10279800040F0CD02269914B9B6903F070039A4295
:1027A80005D98E498B6923F070031A438A6123681F
:1027B80013F0080F0CD06269884BDB6903F07003D3
:1027C8009A4205D98549CB6923F070031A43CA6137
:1027D800236813F0100F0CD0A269804BDB6903F457
:1027E800E0639A4205D97D49CB6923F4E0631A4333
:1027F800CA61236813F0200F0CD0E269774B1B6A7B
:1028080003F070039A4205D974490B6A23F07003E8
:102818001A430A62236813F0020F0CD0E2686F4B68
:102828009B6903F00F039A4205D96C498B6923F021
:102838000F031A438A61236813F0010F41D0674AD6
:10284800936923F47063A1680B4393616368022B57
:102858000AD0032B27D0012B2CD0604A126812F023
:10286800040F06D10120ADE0126812F4003F00F019
:10287800AE805A490A6922F0070213430B61FFF739
:102888005DF90646554B1B6903F038036268B3EBE4
:10289800C20F16D0FFF752F9801B41F288339842D5
:1028A800F0D903208EE04D4A126812F0007FE0D183
:1028B800012087E0494A126812F4807FD9D10120AB
:1028C80080E0236813F0020F0CD0E268434B9B6949
:1028D80003F00F039A4205D240498B6923F00F0396
:1028E8001A438A613C4B1B6803F00F03AB420AD9B9
:1028F800394A136823F00F032B431360136803F05E
:102908000F03AB4265D1236813F0040F0CD0226982
:10291800324B9B6903F070039A4205D22F498B69A9
:1029280023F070031A438A61236813F0080F0CD050
:1029380062692A4BDB6903F070039A4205D2274982
:10294800CB6923F070031A43CA61236813F0100F90
:102958000CD0A269214BDB6903F4E0639A4205D2EB
:102968001E49CB6923F4E0631A43CA61236813F054
:10297800200F0CD0E269194B1B6A03F070039A42CE
:1029880005D216490B6A23F070031A430A62FFF74F
:10299800D9FD12498B69C3F30323114AD35C03F0B1
:1029A8001F03D8408B6903F00F03D35C03F01F03A8
:1029B80020FA03F30B4A13600B4B18600B4B186893
:1029C800FFF75AF870BD012070470120FAE701208F
:1029D800F8E70120F6E700BF002000520044025843
:1029E800D82C000804000020000000200C00002063
:1029F800DFF834D0FEF7E2FF0C480D490D4A0023FA
:102A080002E0D458C4500433C4188C42F9D30A4A9B
:102A18000A4C002301E013600432A242FBD300F009
:102A28001FF8FEF791FF7047000002200000002009
:102A380044040020E42D0008440400206C04002015
:102A4800FEE7000008B5062000F080F80120FEF738
:102A5800AFFF00BF014B1868704700BF100000208F
:102A680070B50D4E0D4D761BB61006D0002455F8E6
:102A7800043B01349847A642F9D1094E094D761B0B
:102A880000F01AF9B61006D0002455F8043B0134BA
:102A98009847A642F9D170BDD82D0008D82D000856
:102AA800E02D0008D82D0008830730B548D0541E03
:102AB800002A3FD0CAB2034601E0013C3AD303F8EA
:102AC800012B9D07F9D1032C2DD9CDB245EA052557
:102AD8000F2C45EA054536D9A4F1100222F00F0C57
:102AE80003F1200EE6444FEA121C03F1100242E9FA
:102AF800045542E9025510327245F8D10CF1010231
:102B080014F00C0F03EB021204F00F0C13D0ACF10D
:102B1800040323F003030433134442F8045B934291
:102B2800FBD10CF003042CB1CAB21C4403F8012BEE
:102B38009C42FBD130BD64461346002CF4D1F9E722
:102B480003461446BFE71A46A446E0E738B5154BD6
:102B58001F281D6820D8D5F8DC22044662B152F837
:102B680020304BB1012B15D0591C0FD0002542F84D
:102B780020509847284638BD284600F02BF82246B2
:102B880001462846BDE8384000F00EB816232B60F1
:102B9800012038BD002038BD16232B604FF0FF30D0
:102BA80038BD00BF1000002070B50C46084D034624
:102BB8000026204611461C462E60FEF7F1FE431CF7
:102BC80000D070BD2B68002BFBD0236070BD00BF08
:102BD80068040020FEF7E2BE024B13B1024800F081
:102BE80005B8704700000000012C000800230146CA
:102BF8001A46184600F01AB838B5084B084D5B1B42
:102C08009C1007D0043B1D44013C55F804399847F3
:102C1800002CF9D1BDE8384000F054B8E42D000884
:102C2800E02D0008704700BF704700BF2DE9F0474E
:102C3800DFF87CA00646DAF8000098460F46914671
:102C4800FFF7F0FF1B4B1B68D3F8484124B36568B6
:102C58001F2D26DC5EB96B1C0235DAF800006360B4
:102C680044F82570FFF7E0FF0020BDE8F08704EB8B
:102C780085010123C1F88890D4F88821AB401A4314
:102C8800022EC4F88821C1F80881E4D1D4F88C2137
:102C98001343C4F88C31DEE703F5A674C3F8484142
:102CA800D5E7DAF80000FFF7BFFF4FF0FF30DCE7A9
:102CB80040040020E82C0008F8B500BFF8BC08BCA8
:102CC8009E467047F8B500BFF8BC08BC9E467047E2
:102CD80000000000010203040102030406070809BA
:042CE80018000020B0
:102CEC0008B10181B0B000840000000008B101817E
:102CFC00B0B000840000000008B10181B0B00084C5
:042D0C0000000000C3
:102D1000C4DAFF7F0100000054DBFF7FB0A902800E
:102D2000E8DBFF7FB0B0A88038DCFF7F0100000047
:102D300044DCFF7FB0B0AA8078DCFF7FAE71B28048
:102D40003CDDFF7F0100000038DDFF7FAB3F3880B6
:102D500098DDFF7F01000000A0DDFF7FB0B0AA80FA
:102D6000DCDDFF7F0100000088DEFF7FAA0DB2805E
:102D700004DFFF7FB0AF0880A4E1FF7F0100000007
:102D8000A8E1FF7FAD3F028024E4FF7F0100000047
:102D900000E6FF7F0084048014E6FF7F010000004E
:102DA00010E6FF7FB0AD0480B4E8FF7FB0A80380D9
:102DB000D8E8FF7F44FFFF7FDCE8FF7F48FFFF7F0D
:102DC000E8E8FF7F0100000018EAFF7F20FFFF7F97
:082DD0002CEAFF7F0100000066
:082DD800E12B0008BD02000818
:042DE000990200084C
:102DE4000090D0030090D003010000001000000008
:102DF4001800002000000000000000000403002070
:102E04006C030020D4030020000000000000000038
:102E140000000000000000000000000000000000AE
:102E2400000000000000000000000000000000009E
:102E3400000000000000000000000000000000008E
:102E4400000000000000000000000000000000007E
:102E5400000000000000000000000000000000006E
:102E6400000000000000000000000000000000005E
:102E7400000000000000000000000000000000004E
:102E8400000000000000000000000000000000003E
:102E9400000000000000000000000000000000002E
:102EA40001000000000000000E33CDAB34126DE6CB
:102EB400ECDE05000B000000000000000000000034
:102EC40000000000000000000000000000000000FE
:102ED40000000000000000000000000000000000EE
:102EE40000000000000000000000000000000000DE
:102EF40000000000000000000000000000000000CE
:04322400640400201E
:04000005080029F9CD
:00000001FF
