:020000040800F2
:100000007806002439030008F91100086911000876
:10001000F111000841040008091400080000000064
:10002000000000000000000000000000391200087D
:100030004904000800000000311200087112000895
:100040005303000853030008530300085303000838
:100050005303000853030008530300085303000828
:100060005303000853030008530300085303000818
:100070005303000853030008530300085303000808
:1000800053030008530300085303000853030008F8
:1000900053030008530300085303000853030008E8
:1000A00053030008530300085303000853030008D8
:1000B00053030008530300085303000853030008C8
:1000C00053030008530300085303000853030008B8
:1000D00053030008530300085303000853030008A8
:1000E00053030008530300080000000053030008F6
:1000F0005303000853030008530300085303000888
:100100005303000853030008530300085303000877
:100110005303000853030008530300085303000867
:100120005303000853030008530300085303000857
:100130005303000853030008530300085303000847
:1001400000000000000000000000000000000000AF
:100150005303000853030008530300085303000827
:100160005303000853030008530300085303000817
:100170005303000853030008530300085303000807
:1001800053030008530300085303000853030008F7
:1001900053030008530300085303000853030008E7
:1001A00053030008530300085303000853030008D7
:1001B00053030008530300085303000853030008C7
:1001C00053030008530300085303000853030008B7
:1001D00053030008530300085303000853030008A7
:1001E0005303000853030008530300085303000897
:1001F0005303000853030008530300085303000887
:100200005303000853030008530300085303000876
:100210005303000853030008530300085303000866
:1002200053030008530300085303000800000000B4
:1002300053030008530300080000000053030008A4
:100240005303000853030008530300085303000836
:100250005303000853030008530300085303000826
:100260005303000853030008530300085303000816
:100270005303000853030008530300080000000064
:100280005303000853030008530300080000000054
:10029000000000005303000800F002F800F03CF8F2
:1002A0000AA090E8000C82448344AAF10107DA45D1
:1002B00001D100F031F8AFF2090EBAE80F0013F0E7
:1002C000010F18BFFB1A43F001031847F01100009B
:1002D00010120000103A24BF78C878C1FAD852072B
:1002E00024BF30C830C144BF04680C6070470000B0
:1002F0000023002400250026103A28BF78C1FBD82F
:10030000520728BF30C148BF0B6070471FB501F0CE
:10031000BFF81FBD10B510BD00F058F81146FFF72B
:10032000F5FF01F0A1F800F076F803B4FFF7F2FF53
:1003300003BC00F07DF800000948804709480047E9
:10034000FEE7FEE7FEE7FEE7FEE7FEE7FEE7FEE785
:10035000FEE7FEE704480549054A064B70470000E2
:100360003913000899020008780000247806002458
:1003700078020024780200244FF0000200B51346F2
:1003800094469646203922BFA0E80C50A0E80C50B5
:10039000B1F12001BFF4F7AF090728BFA0E80C5066
:1003A00048BF0CC05DF804EB890028BF40F8042B5F
:1003B00008BF704748BF20F8022B11F0804F18BFCC
:1003C00000F8012B7047704770477047754600F082
:1003D0002BF8AE4605006946534620F007008546D7
:1003E00018B020B5FFF7B6FFBDE820404FF000067B
:1003F0004FF000074FF000084FF0000BAC46ACE8A0
:10040000C009ACE8C009ACE8C009ACE8C00921F0FB
:1004100007018D46704710B50446AFF300802046B3
:10042000BDE81040FFF781BF00487047100000246E
:1004300001491820ABBEFEE726000200704700000D
:10044000FEE7000000000000704700000000000010
:10045000EFF3108072B600BFFEE70000000000005E
:10046000B0B5044600F0F8F840F208010546C2F2C3
:100470000041621C097818BF0C4400BF00F0ECF882
:10048000401BA042FAD3B0BD2DE9F04F83B00C68F9
:10049000002C00F0C68000F1264242F2004702F133
:1004A000FF72C5F602074FEAB22201920A22B84251
:1004B00008BF0922002500274FF0010A009209E039
:1004C0000C68043734FA0AF20AF1010A05F1020550
:1004D00000F0A780AAF10109012202FA09FE14EA3C
:1004E0000E08EDD0D1F804B00BF00304A4F1010C18
:1004F000BCF1010F11D803228668AA40CB6826EA16
:100500000202AB401A438260CBF30013426822EA36
:100510000E0203FA09F31A434260032C1ED0032390
:10052000C268AB40022C22EA03028B6803FA05F38F
:1005300042EA0302C26011D16FF0030207F01C0609
:1005400002EA59020F23024403FA06F4D2F820C04B
:100550000B692CEA0404B3402343136203230268AB
:10056000AB404E689A4306F00303AB4016F4403F9D
:1005700042EA03020260A3D044F2F44340F2084E80
:10058000C5F60203C5F6000E1A6842F002021A60B0
:100590001A6807F00C0302F002020292029A29F094
:1005A0000302019C009E092C38BF26460F2452F8F6
:1005B0000EC09C402CEA040406FA03F34FF0B04C42
:1005C000234342F80E30DCF800204B6842EA08066C
:1005D000DC0258BF22EA08069C02CCF8006040F218
:1005E000040CC5F6000CDCF8002042EA080658BFEF
:1005F00022EA08069C03CCF80060DCF8802042EA7E
:10060000080658BF22EA0806DB03CCF88060DCF855
:100610007C2042EA080658BF22EA0806CCF87C6033
:100620004EE703B0BDE8F08F426902EA010391434F
:1006300041EA034181617047002A08BF09048161D2
:10064000704700000000000041F20000C5F60040C5
:100650000068000C7047000040F27000C2F20040D9
:10066000006870470000000040F2080040F270018E
:10067000C2F20040C2F2004100780A6810440860EB
:10068000704700000000000080B5032000F07CF8F7
:1006900000F0CEF944F2184141F2AA43C5F6020136
:1006A000C0F600030A68096801F00F01C2F30322D3
:1006B000595C9A5C01F01F0102F01F02D04040F229
:1006C0000402C2F2004220FA01F1116040F200017E
:1006D000C2F2004108600F2000F00AF800281CBF99
:1006E000012080BD00F030F8002080BD0000000037
:1006F000B0B540F20801C2F20041097801B30446E6
:1007000040F20000C2F200404FF47A72B2FBF1F105
:100710000068B0FBF1F000F023FD0F2C4FF0010555
:100720000CD858B94FF0FF3000222146002500F0C8
:100730001BF840F20C00C2F2004004602846B0BD35
:100740000120B0BD0000000081B044F2F440C5F6C5
:100750000200016841F002010160006800F002003F
:100760000090009801B0704770B514460D460646DB
:1007700000F04EFE2946224600F042FD014630467A
:1007800000F04EFE70BD000080B500F05DFE80BD43
:10079000B0B544F60C05C5F6020529684907296875
:1007A00005D401F00701081A18BF0120B0BD21F0DF
:1007B000070108432860FFF74FFF044655F8080C6F
:1007C000800407D4FFF748FF001BB0F57A7FF5D906
:1007D0000120B0BD0020B0BD2DE9F04381B000285C
:1007E00000F0F48042F200080446C5F20028894671
:1007F000D8F8000000F00F0088420ED2D8F80000B0
:1008000020F00F0040EA0900C8F80000D8F8000006
:1008100000F00F00484540F0D980206844F21847A6
:100820004107C5F602070AD521693A6802F070024D
:10083000914204D93A6822F07002114339600107ED
:100840000AD561697A6802F07002914204D97A6827
:1008500022F0700211437960C1060AD5A1697A6855
:1008600002F4E062914204D97A6822F4E062114312
:10087000796081060AD5E169BA6802F07002914296
:1008800004D9BA6822F070021143B96081070AD511
:10089000E1683A6802F00F02914204D93A6822F006
:1008A0000F0211433960C0077ED1206881070AD545
:1008B000E1683A6802F00F02914204D23A6822F0ED
:1008C0000F0211433960D8F8001001F00F014945BB
:1008D0000DD9D8F8001021F00F0141EA0901C8F83C
:1008E0000010D8F8001001F00F0149456ED1410702
:1008F0000AD521693A6802F07002914204D23A683E
:1009000022F070021143396001070AD561697A68E3
:1009100002F07002914204D27A6822F07002114310
:100920007960C1060AD5A1697A6802F4E062914251
:1009300004D27A6822F4E0621143796080060AD515
:10094000E069B96801F07001884204D2B96821F009
:1009500070010843B86000F06BF8396841F2AA42B0
:10096000C0F600023B68C1F3032103F00F03515CA2
:10097000D25C01F01F01C84002F01F0140F20402E6
:1009800020FA01F1C2F20042116040F2000140F28F
:100990000C02C2F20041C2F2004208601068FFF788
:1009A000A7FE01B0BDE8F083386820F47061D4E997
:1009B0000102012841EA020139600BD003282BD043
:1009C00002282ED157F8181C890307D4012001B042
:1009D000BDE8F08357F8181CC905F7D557F8081C6F
:1009E00021F00701084347F8080CFFF735FE0646DB
:1009F00041F2883557F8080C616800F03800B0EB18
:100A0000C10F3FF452AFFFF727FE801BA842F1D978
:100A1000032001B0BDE8F08357F8181C8901D5D533
:100A2000DCE757F8181C4907D0D5D7E700000000CD
:100A300044F20041C5F602010869C0F3C200032870
:100A40000FD002282AD070BB0868800649F2000047
:100A5000C0F2D03058BF70470968C1F3C101C84027
:100A600070478A6A886AC0F3051CC86ABCF1000F27
:100A70004B6B1DD0C3F3CC0300F00100584302F0D0
:100A80000302022A00EE100AB8EE400A12D0A2B900
:100A90000868800614D49FED261A1EE047F6400031
:100AA000C0F27D10704740F60010C0F23D00704764
:100AB000002070479FED1D1A0FE09FED1B1A0CE000
:100AC000086849F20002C0F2D032C0F3C10022FA35
:100AD00000F001EE100AB8EE411A086B9FED153ACE
:100AE0006FF35F2002EE100A086BC0F34620B8EEE9
:100AF000422A013000EE032A00EE10CAB7EE003A97
:100B0000B8EE400A81EE000A32EE031A20EE010A26
:100B100001EE100AB8EE411A80EE010ABCEEC00ADE
:100B200010EE100A704700BF0024744A20BCBE4B70
:100B30000024744C000000392DE9F04381B0F8B175
:100B40008046007844F20049C007C5F602095AD031
:100B5000D9F8100000F03801D9F82800102905D084
:100B600018290FD100F0030002280BD1D9F800009A
:100B7000800344D5D8F80400002840D101272FE095
:100B8000012735E2D8F804402CB1B4F5A02F0DD0E0
:100B9000B4F5803F10D0D9F8000020F48030C9F8B7
:100BA0000000D9F8000020F4802009E0D9F8000006
:100BB00040F48020C9F80000D9F8000040F48030EB
:100BC000C9F80000FFF748FD0546A4B1D9F80000B8
:100BD000800314D4FFF740FD401B6428F6D9032797
:100BE0000020002800F004820DE000BFFFF734FD74
:100BF000401B6428F3D8D9F800008003F6D4012004
:100C0000002800F0F58198F80000800740F184800A
:100C1000D9F8100010F03801D9F828001CD0182994
:100C200008BF5FEA807017D0D8F80C00D9F8001020
:100C3000002847D021F019010843C9F80000FFF748
:100C40000BFD0546D9F8000040072AD4FFF704FD44
:100C5000401B0228F6D91EE0D9F80000400704D551
:100C6000D8F80C00002800F09181D9F80000D8F8DD
:100C70000C1020F019000843C9F80000FFF7ECFC45
:100C8000054600BFD9F8000040070AD4FFF7E4FC8E
:100C9000401B0228F6D903270024002C00F0A8816D
:100CA0003AE0FFF7D1FC41F20301884223D8D8F89B
:100CB0001000D9F80410402821F47C3124D141F4EB
:100CC000003023E021F00100C9F80000FFF7C4FC68
:100CD00005460126D9F8000010F0040086EA9004C9
:100CE00017D0FFF7B9FC401B0328F3D30327002CD0
:100CF00000F07E8110E0D9F80400D8F8101020F040
:100D0000FE4040EA016001E041EA0030C9F8040019
:100D10000124002C00F06C8198F80000C00674D506
:100D2000D9F8100000F03801D9F82800082905D0BA
:100D300018291CD100F00300012818D1D9F80000AF
:100D4000C00503D5D8F81C00802859D1FFF77CFCDA
:100D500041F20301884222D8D8F82000D9F80410C3
:100D6000202821F0F84142D141F0804041E0D8F8FC
:100D70001C000028D9F8000020D040F08000C9F8FD
:100D80000000FFF769FC0546D9F80000C005DDD476
:100D9000FFF762FC401B0228F6D9032731E0D9F89F
:100DA0000C00D8F8201020F07C50012440EA0160AB
:100DB000C9F80C00002C00F01B8126E020F0800018
:100DC000C9F80000FFF748FC05460126D9F80000E5
:100DD00010F4807086EA10240ED0FFF73DFC401B13
:100DE0000328F3D30327002C00F002810DE041EA31
:100DF0008060C9F804000124002C00F0F98004E0B0
:100E000001270024002C00F0F38098F80000000770
:100E10001CD498F80000800631D498F800004007F0
:100E200045D4D8F82440002C00F0E180D9F8100017
:100E300000F03800182840F08880012CD9F82810DC
:100E4000D9F8300040F0A4800127D1E0D8F8140090
:100E50000028D9F874003ED040F00100C9F87400B1
:100E6000FFF7FAFB054600BFD9F874008007D0D41D
:100E7000FFF7F2FB401B0228F6D90327B8E0D8F8A9
:100E800018000028D9F800004BD040F48050C9F871
:100E90000000FFF7E1FB0546D9F800008004BCD450
:100EA000FFF7DAFB401B0228F6D90327A0E0D9F8A8
:100EB000000440F48070C9F80004FFF7CDFB05463C
:100EC000D9F80004C0051AD4FFF7C6FB401B6428FC
:100ED000F6D903278CE020F00100C9F87400FFF771
:100EE000BBFB0546032700BFD9F8740080077FF5D8
:100EF00090AFFFF7B1FB401B0228F5D978E0D8F896
:100F000008401CB1052C77D0012C7BD0D9F870009B
:100F100020F00100C9F87000D9F8700020F004003A
:100F200074E020F48050C9F80000FFF795FB0546F7
:100F3000032700BFD9F8000080047FF56EAFFFF7EC
:100F40008BFB401B0228F5D952E0D9F8000020F0B5
:100F50008070C9F80000FFF77FFB022C05464FF0B8
:100F6000030709D1D9F80000800171D5FFF774FBA0
:100F7000401B0228F6D93BE0D9F80000800136D5A5
:100F8000FFF76AFB401B0228F6D931E0012783E610
:100F900001F00302D8F828309A4240F0D380C1F320
:100FA0000511D8F82C20914240F0CE800146D8F8A7
:100FB00030206FF35F21013A914240F0C780C0F3C7
:100FC0004622D8F8341001398A4240F0C180C0F37B
:100FD0000642D8F8381001398A4240F0BB80C0F38D
:100FE0000660D8F83C100139884240F0B5800027EF
:100FF000F8B201B0BDE8F083D9F8700040F0040009
:10100000C9F87000D9F8700040F00100C9F870000C
:10101000FFF722FB002C054641F288344FF003070E
:1010200011D000BFD9F8700080073FF5FAAEFFF786
:1010300013FB401BA042F5D9DAE700BFFFF70CFB1A
:10104000401BA042D4D8D9F870008007F6D4E8E657
:1010500008F12807D9F8280040F2F33188438ECFF1
:101060000843591E40EA02104FF47E426FF35F219D
:10107000C9F8280002EB47204FF4FE0280B2D8F8EE
:101080003C300844D8F8381002EB01414FF0FE42E2
:1010900001F4FE0102EB0362084402F0FE41084441
:1010A000C9F83000D9F82C004FF6F87120F0010093
:1010B000C9F82C00D9F83400D8F84820884340EA11
:1010C000C200C9F83400D9F82C00D8F8401020F03C
:1010D0000C000843C9F82C00D9F82C00D8F84410AB
:1010E00020F002000843C9F82C00D9F82C0040F485
:1010F0008030C9F82C00D9F82C0040F40030C9F831
:101100002C00D9F82C0040F48020C9F82C00D9F824
:101110002C0040F00100C9F82C00D9F8000040F084
:101120008070C9F80000FFF797FA04460327D9F842
:10113000000080013FF55BAFFFF78EFA001B02282D
:10114000F5D955E7012753E7012751E701274FE775
:1011500001274DE701274BE7012749E70000000081
:1011600080B500F06DF880BDFEE7000000000000D3
:1011700070B586B044F2E0400025C5F60200059542
:10118000CDE90355CDE90155016842F2000441F073
:10119000010101600168C5F6020401F0010100913E
:1011A0000099016841F4807101600168002201F436
:1011B000807100910099016841F080010160006830
:1011C0004FF4807100F080000090009820464FF4AA
:1011D0008076FFF731FA01960120CDE9020501A9D9
:1011E00020460495FFF750F906B070BD00000000DE
:1011F000FEE7000000000000FEE700000000000025
:1012000000F007004FF0FF3C80F00703042B28BFDD
:101210000423033838BF00200CFA03F399430CFA77
:1012200000F301FA00F022EA0301084370470000CE
:101230007047000000000000704700000000000040
:10124000B0B501380024B4EB106F01D00120B0BD5F
:101250004EF210050F21CEF2000568604FF0FF300E
:1012600000F0DEF8AC60072028602046B0BD00002A
:1012700080B5FFF7F9F980BDB0B59CB044F618040D
:1012800009A84C21C5F60204FFF776F802200025D4
:10129000CDE90755CDE90555CDE90355CDE9015512
:1012A000FFF776FA0095206840F4404020602068FF
:1012B00000F44040009040F22C40C5F60000016868
:1012C00041F001010160006800F001000090009809
:1012D00020688004FCD5012009904FF480300A90EA
:1012E00002200521CDE912001491C021CDE915108D
:1012F00017900620189009A8082419940025CDE914
:101300001A55FFF719FCA0B93F20019003204FF4B4
:101310008061CDE9020504944020CDE90500CDE9C6
:10132000071001A80421FFF757FA002804BF1CB0DA
:10133000B0BDFFF78DF800004EF6885042F2000C69
:10134000CEF20000C5F2002C016841F4700101608A
:10135000DCF8000000F00F00062806D8DCF80000DA
:10136000072161F30300CCF8000044F200404EF680
:101370007F52C5F60200CEF6F622016841F0010167
:1013800001600021016103681A400260DCF800205E
:10139000120706D5DCF80020072363F30302CCF81C
:1013A000002040F200228161C161C0F2022201628C
:1013B00082620022C0F2FF12C26240F28022C0F2BA
:1013C0000112026341638263C16302644164026883
:1013D00022F480220260016641F20000C5F600405E
:1013E0000068B1EB507F05D148F208100121C5F229
:1013F0000010016044F2000043F2D201C5F2002067
:101400000160704700000000FEE7000000000000DF
:101410004EF60C50CEF200000068C0F30220704778
:101420004EF6145300F00F02CEF20003B0F1FF3F6E
:101430001A4400F16043C8BF03F56442080110700C
:1014400070470000000000004EF60C514FF6FF03FD
:10145000CEF200010A681A4060F30A2242F080606E
:1014600040F0FD7008607047FFF70EF9FFF704FFCA
:10147000FFF77EFE42F20004C5F602044FF47A70D4
:10148000FEF7EEFF4FF480712046FFF7CDF8F5E749
:10149000F1EE100A4FF6FF71C0F2C03120EA0100F0
:1014A00040F04070E1EE100A7047000000000102B9
:1014B000030401020304060708090000E014000801
:1014C0000000002410000000D4020008F0140008FE
:1014D0001000002468060000F00200080000000070
:1014E0000090D0030090D003010000001000000025
:040000050800029954
:00000001FF
